:020000040800F2
:10000000D03B0020D10100081102000813020008B3
:10001000170200081B0200081F0200080000000071
:1000200000000000000000000000000023020008A3
:10003000250200080000000027020008290200082D
:10004000EB010008EB010008EB010008EB010008E0
:10005000EB010008EB010008EB010008EB010008D0
:10006000EB010008EB010008EB010008EB010008C0
:10007000EB010008EB010008EB010008EB010008B0
:10008000EB010008EB010008EB010008EB010008A0
:10009000EB010008EB010008EB0100082B0200084F
:1000A000EB010008EB010008EB010008EB01000880
:1000B000EB010008EB010008EB010008EB01000870
:1000C000EB010008EB010008EB010008EB01000860
:1000D000EB010008EB010008EB010008EB01000850
:1000E000EB010008EB010008EB010008EB01000840
:1000F000EB010008EB010008EB010008EB01000830
:10010000EB010008EB010008EB010008EB0100081F
:10011000EB010008EB010008EB010008EB0100080F
:10012000EB010008EB010008EB010008EB010008FF
:1001300000F002F800F03CF80AA090E8000C8244BD
:100140008344AAF10107DA4501D100F031F8AFF29A
:10015000090EBAE80F0013F0010F18BFFB1A43F0A5
:10016000010318474C8A00006C8A0000103A24BF33
:1001700078C878C1FAD8520724BF30C830C144BF0C
:1001800004680C607047000000230024002500264E
:10019000103A28BF78C1FBD8520728BF30C148BFEA
:1001A0000B6070471FB506F028F91FBD10B510BDD4
:1001B00006F0ECF81146FFF7F5FF00F043F806F003
:1001C0000AF903B4FFF7F2FF03BC06F00FF90000D1
:1001D0000948804709480047FEE7FEE7FEE7FEE7DB
:1001E000FEE7FEE7FEE7FEE7FEE7FEE70448054917
:1001F000054A064B70470000E5170008310100086A
:10020000D0350020D03B0020D0370020D037002050
:10021000704700BFFEE700BFFEE700BFFEE700BF7C
:10022000FEE77047704770477047704710B501F0A0
:10023000D9FA0121602000F0D1FE0121084600F02A
:10024000CDFE10BDFFF7F2FF00F03EFF02F050FCC4
:10025000FF2001F01FFE02F03EFC022001F06AFECA
:10026000044801F04DFE0A22114603A001F0C8FC2B
:1002700000BFFEE7188B0008414243440000000025
:1002800030B943F2DB014FF0204242F8201005E084
:1002900043F2D2014FF0204242F820106FF070423A
:1002A00000F101014FF0204343F8212011461A4686
:1002B00002EB8002C2F80411704710280CD14FF0F5
:1002C00018014FF0204211664FF0400151664FF087
:1002D000FC319166D16611E04FF01801F64A1160C9
:1002E0004FF040014FF02042C2F884104FF0FC3133
:1002F000F24A11604FF02042C2F88C1070474FF064
:100300001800EF4908604FF000004FF02041C1F89D
:10031000A4004FF0FC30EB49086001F104010860D3
:1003200001F1040108607047D0E9011241EA0201BD
:10033000C26841EA0201026941EA0201426941EAF6
:100340000201826941EA0201C26941EA0201026ACC
:1003500041EA0201426A41EA0201826A41EA02017B
:10036000C26A41EA0201026B41EA02014FF02043F6
:10037000026843F822108168082908D11A460168EA
:1003800052F8211041F04001026843F82210416BFD
:100390000968426B526841EA0211426B926841EA75
:1003A0000221426BD26841EA0241426B126941EA82
:1003B0000251426B526941EA0261426B926941EA21
:1003C0000201026802F101024FF0204343F82210BB
:1003D000C16AB1F5804F1BD1816B0968826B52688D
:1003E00041EA0211826B926841EA0221826B126932
:1003F00041EA0251826B526941EA0261826B926961
:1004000041EA0201026803EB8202C2F8041108E02B
:100410006FF070414FF02043026803EB8202C2F894
:100420000411704730B54FF000010A460B4644688E
:1004300044F00804856844EA0504C56844EA0504F4
:10044000056944EA0504456944EA4524856944EAA6
:100450004531C4692468C5696D6844EA0524C569E5
:10046000AD6844EA0544C569ED6844EA0562046A7A
:100470002468056A6D6844EA0524056AAD6844EAA3
:100480000544056AED6844EA05630468102C05D14B
:100490004FF020442166A266E36607E0864C2160A7
:1004A0004FF02044C4F88820874C236030BD016899
:1004B00041F01001426841EA4221826841EA42313A
:1004C0007F4A1160C1680968C268526841EA022126
:1004D000C268926841EA0241C268D26841EA026198
:1004E000784A1160016909680269526841EA02218B
:1004F0000269926841EA02410269D26841EA0261F6
:10050000724A1160416909684269526841EA0221F0
:100510004269926841EA02414269D26841EA026155
:100520004FF02042C2F8B01070474FF00001016058
:100530004FF0020141604FF000018160C160016134
:1005400041618161C16101624FF4805141624FF4A8
:10055000005181624FF00001C16201634FF00F0151
:10056000426B1160426B51604FF0FF01426B916032
:100570004FF00F01426BD160426B1161426B5161D0
:100580004FF00001426B91614FF00F01826B1160DF
:10059000826B51604FF0FF01826B91604FF00F0151
:1005A000826BD160826B1161826B51614FF00001EF
:1005B000826B916170474FF0100101604FF00001B4
:1005C00041608160C1600161416181614FF0FC0166
:1005D000C2691160C2695160C2699160C269D1602B
:1005E000026A1160026A5160026A9160026AD16017
:1005F00070474FF000010160416081604FF0FC01E5
:10060000C2681160C2685160C2689160C268D160FE
:100610000269116002695160026991600269D160EA
:100620004269116042695160426991604269D160DA
:10063000704751B14FF0204252F8202042F00102A1
:100640004FF0204343F820200AE04FF0204252F8B8
:1006500020201F4B02EA03024FF0204343F82020E2
:10066000704799B1102808D14FF02042126E42F025
:1006700004024FF020431A661DE00F4A126842F050
:1006800004024FF02043C3F8802014E0102809D161
:100690004FF02042126E0F4B02EA03024FF020434C
:1006A0001A6608E0044A12680A4B02EA03024FF095
:1006B0002043C3F880207047800000A0880000A07D
:1006C000A00000A0A80000A08C0000A0AC0000A02A
:1006D000FEFF0F00FBFF0F0040B18449096841F0A5
:1006E00004014FF02042C2F8A01008E07F490968D9
:1006F0007F4A01EA02014FF02042C2F8A010704781
:1007000099B1102808D14FF02042126E42F04002F9
:100710004FF020431A661DE0764A126842F040020C
:100720004FF02043C3F8802014E0102809D14FF087
:100730002042126E704B02EA03024FF020431A6609
:1007400008E06C4A12686C4B02EA03024FF0204347
:10075000C3F88020704701464FF00000102903D1F4
:100760004FF02042506F01E0644A1068704710B5A6
:10077000FAB1102808D14FF020435B6E43EA010321
:100780004FF02044636633E0B0F5807F08D15C4BC6
:100790001B6843EA01034FF02044C4F8843027E08B
:1007A000584B1B6843EA01034FF02044C4F8A430BF
:1007B0001EE0102808D14FF020435B6E23EA0103AE
:1007C0004FF02044636613E0B0F5807F08D14C4BB6
:1007D0001B6823EA01034FF02044C4F8843007E08B
:1007E000484B1B6823EA01034FF02044C4F8A430AF
:1007F00010BD10B502464FF000000346102A03D189
:100800004FF02044636E07E0B2F5807F02D13C4C8C
:10081000236801E03B4C23680B4202D04FF00100FB
:1008200001E04FF0000010BD102808D14FF0204229
:10083000526E22EA01024FF020435A6613E0B0F5EF
:10084000807F08D12E4A126822EA01024FF020432D
:10085000C3F8842007E02B4A126822EA01024FF015
:100860002043C3F8A420704770B502464FF0000043
:10087000034604460546102A03D14FF02046736E06
:1008800007E0B2F5807F02D11D4E336801E01D4EB6
:10089000336803EA010403EAD1051CB115B14FF036
:1008A000010001E04FF0000070BD102808D14FF0AA
:1008B0002042526E22EAD1024FF020435A6613E0E2
:1008C000B0F5807F08D10E4A126822EAD1024FF0BB
:1008D0002043C3F8842007E00A4A126822EAD102C2
:1008E0004FF02043C3F8A42070470000A00000A0F0
:1008F000FBFF0F00800000A0BFFF0F00940000A0CE
:10090000840000A0A40000A010B50446DE48844284
:1009100008D10121042000F07FFB0021042000F019
:100920007BFB46E0D948844208D10121082000F031
:1009300073FB0021082000F06FFB3AE0D4488442AA
:1009400008D10121102000F067FB0021102000F0E9
:1009500063FB2EE0CF48844208D10121202000F023
:100960005BFB0021202000F057FB22E0CA488442B4
:1009700008D10121402000F04FFB0021402000F071
:100980004BFB16E0C548844208D10121802000F0CD
:1009900043FB0021802000F03FFB0AE0C048844276
:1009A00007D10121801500F037FB0021A01500F0D0
:1009B00033FB10BD10B50121084600F02DFB0021CE
:1009C000012000F029FB10BD2DE9F04102464FF057
:1009D00000052E46284603460446074691F803C004
:1009E0000CF00F0591F803C01CF0100F03D091F824
:1009F00002C04CEA0505B1F800C01CF0FF0F35D06D
:100A000014684FF000002EE04FF0010C0CFA00F3D8
:100A1000B1F800C00CEA03069E4222D14FEA8003DF
:100A20004FF00F0C0CFA03F724EA070405FA03FC55
:100A30004CEA040491F803C0BCF1280F06D14FF032
:100A4000010C0CFA00FCC2F814C00AE091F803C0D3
:100A5000BCF1480F05D14FF0010C0CFA00FCC2F8B4
:100A600010C000F101000828CED31460B1F800C016
:100A7000BCF1FF0F38DD54684FF0000031E000F1A9
:100A8000080C4FF0010808FA0CF3B1F800C00CEAAA
:100A900003069E4223D14FEA80034FF00F0C0CFA5D
:100AA00003F724EA070405FA03FC4CEA040491F86E
:100AB00003C0BCF1280F05D100F1080C08FA0CF8AE
:100AC000C2F8148091F803C0BCF1480F07D100F1BF
:100AD000080C4FF0010808FA0CF8C2F8108000F179
:100AE00001000828CBD35460BDE8F0814FF6FF71B8
:100AF00001804FF0020181704FF00401C170704716
:100B000002464FF0000093680B4202D04FF0010004
:100B100001E04FF0000070470146886880B27047DE
:100B200002464FF00000D3680B4202D04FF00100A4
:100B300001E04FF0000070470146C86880B270477E
:100B400001617047416170470AB1016100E0416194
:100B50007047C16070474FF4803242EA01028261FF
:100B60008161826182698269704702464FF00000AC
:100B70004C4B18684FF6807300EA030040EA0210FD
:100B800040EA0100474B186070474749C861704709
:100B9000F0B50A464FF000031C4619460D4600F01A
:100BA0000046B6F1004F02D13E4EF16901E03D4EE4
:100BB0007168C0F3034583B200F44016B6F5401FD8
:100BC00008D121F07061374E766826F07066354F97
:100BD0007E6017E000F48016B6F5801F08D14FF054
:100BE000030606FA05F421EA040141F0706109E008
:100BF0004FEA50564FEA061603FA06F621EA0601B6
:100C000041F070613AB14FEA50564FEA061603FAC6
:100C100006F646EA010100F00046B6F1004F02D1A7
:100C2000204EF16101E01F4E7160F0BD30B54FF014
:100C300000024FEA81734FEA13744FF00F0303FA77
:100C400004F21A4B4FEAA10453F8243023EA0203BA
:100C5000164C4FEAA10544F8253023464FEAA1047B
:100C600053F824304FEA81744FEA147400FA04F404
:100C700043EA04030D4C4FEAA10544F8253030BD8A
:100C80000B4908607047000000080140000C01405B
:100C9000001001400014014000180140001C0140F8
:100CA00000200140000001400000204208000140F7
:100CB000DC002042F748006840F00100F549086078
:100CC00008464068F44900EA0100F24948600846D5
:100CD0000068F24900EA0100EE4908600846006831
:100CE00020F4802008600846406820F4FE00486038
:100CF0004FF41F0088607047E649096821F480318D
:100D0000E44A11601146096821F480211160B0F5B0
:100D1000803F03D0B0F5802F0ED106E0DD49096891
:100D200041F48031DB4A116007E0DA49096841F497
:100D3000A021D84A116000E000BF00BF704710B585
:100D400001464FF00002134610464FEA6112012A95
:100D500002D1D04C236806E0022A02D1CD4C236A8E
:100D600001E0CC4C636A01F01F024FF0010404FA69
:100D700002F41C4202D04FF0010001E04FF00000ED
:100D800010BD70B54FF000042546264600BF312047
:100D9000FFF7D5FF064604F10104B4F5A06F01D0BA
:100DA000002EF4D03120FFF7CAFF10B14FF001053B
:100DB00001E04FF00005284670BD01464FF00000ED
:100DC000B44A106820F0F80040EAC1001060704793
:100DD000B3490860704702464FF00000AD4B5868B9
:100DE00020F47C1042EA010343EA0000A94B58605A
:100DF0007047AB490866704701464FF00000A54AAE
:100E0000506820F0030040EA010050607047A1489C
:100E1000406800F00C00704701464FF000009D4A0A
:100E2000506820F0F00040EA010050607047014631
:100E30004FF00000974A506820F4E06040EA01005B
:100E40005060704701464FF00000924A506820F40D
:100E5000605040EAC1005060704731B18D4A527A0B
:100E600042EA00028B4B5A7208E08A4A527A6FEAD1
:100E70000003DBB202EA0302864B5A7270478949CB
:100E80000860704701464FF00000824A506820F425
:100E9000404040EA0100506070474FF00001824A34
:100EA00011707C4A82F82010012802D004280AD14F
:100EB00004E04FF001017C4A117005E04FF005019C
:100EC000794A117000E000BF00BF704777490860A1
:100ED00070477049096A41EA00016E4A1162704721
:100EE00073490860704730B54FF000010A460C4660
:100EF0000B46684D6D6805F00C0121B1042905D041
:100F0000082927D105E06B4D056026E0694D056095
:100F100023E0604D6D6805F470125E4D6D6805F458
:100F200080344FF0020505EB924224B9624D02FB7A
:100F300005F505600DE0574D6D6815F4003F04D0D0
:100F40005D4D02FB05F5056003E05A4D02FB05F51A
:100F5000056002E0574D056000BF00BF4D4D6D6854
:100F600005F0F0014FEA1111544D6B5C056825FA4C
:100F700003F54560474D6D6805F4E0614FEA1121C6
:100F80004E4D6B5C456825FA03F58560414D6D68F3
:100F900005F460514FEAD121484D6B5C456825FA54
:100FA00003F5C5603B4D6D6805F440414FEA913152
:100FB000434D6B5CC568B5FBF3F5056130BD31B1E0
:100FC000344A526942EA0002324B5A6105E0314A22
:100FD000526922EA00022F4B5A61704731B12D4A03
:100FE000926942EA00022B4B9A6105E0294A926914
:100FF00022EA0002274B9A61704731B1254AD26933
:1010000042EA0002234BDA6105E0224AD26922EA71
:101010000002204BDA61704731B11E4AD26842EAC1
:1010200000021C4BDA6005E01A4AD26822EA00028C
:10103000184BDA60704731B1164A126942EA000271
:10104000144B1A6105E0134A126922EA0002114B9F
:101050001A6170471B49086070471149C86470479E
:101060000C49C87170470B48406A40F080700949CC
:101070004862704701464FF00000064A92680A42F3
:1010800002D04FF0010001E04FF00000704701492D
:1010900088727047001002400000FFF8FFFFF6FE64
:1010A00000004242D80042422010024080044242E6
:1010B0003C04424200127A0000093D00000000207A
:1010C000100000204004424200B597B00121080200
:1010D000FFF775FF4FF40050ADF800004FF010001F
:1010E0008DF803004FF003008DF80200694639487F
:1010F000FFF76AFC4FF400513648FFF721FD4FF02F
:101100000200ADF800004FF010008DF803004FF022
:1011100003008DF8020069462F48FFF755FC4CF29A
:101120003370ADF800004FF003008DF802004FF06F
:1011300018008DF8030069462648FFF745FC4FF676
:101140008070ADF8000069462348FFF73DFC4FF082
:101150008000ADF8000069461E48FFF735FC4FF4EB
:101160000060ADF8000069461A48FFF72DFC4FF00B
:101170000000019002904FF0010003904FF000003A
:101180000490059006904FF0805007904FF00000BB
:10119000089009904FF008000A904FF010000B9053
:1011A0004FF000000C900E900F9010904FF4805074
:1011B00011904FF0000012901390149001A8159018
:1011C000169008A8FFF7B0F801210020FFF731FAC8
:1011D00017B000BD001401400018014001E0A0F16B
:1011E00001000028FBD170474FF0C04108807047D4
:1011F0004FF0C0421080F74A118070474FF0000056
:10120000F44908887047F34908807047F14908801D
:10121000704710B50221F048FFF794FCEF48FFF744
:10122000DDFF0221EC48FFF78BFCEC48FFF7D6FF0F
:10123000E220FFF7D9FF2320FFF7E5FF0220FFF7A9
:10124000E2FF0420FFF7DFFFE020FFF7CDFF0120E2
:10125000FFF7D9FF4AF6FF70FFF7C0FFE020FFF766
:10126000C3FF0320FFF7CFFF4AF6FF70FFF7B6FF7B
:101270000120FFF7B9FF4AF6FF70FFF7AFFFE62046
:10128000FFF7B2FF0420FFF7BEFF9320FFF7BBFF7D
:10129000E020FFF7B8FFB020FFF7A6FF0020FFF720
:1012A000B2FF0020FFF7AFFFCD480068C0F3072072
:1012B000FFF7A9FFCA490968C8B2FFF7A4FFC948E8
:1012C0000068C0F30720FFF79EFFC6490968C8B24F
:1012D000FFF799FF0020FFF796FFB420FFF784FF88
:1012E000C1480068C0F30720FFF78DFFBE490968B9
:1012F000C8B2FFF788FFBD480068C0F30720FFF7BA
:1013000082FFBA490968C8B2FFF77DFFB848007884
:10131000FFF779FFB7480068C0F30720FFF773FFB6
:10132000B4490968C8B2FFF76EFF0020FFF76BFFF2
:10133000B620FFF759FFB0480068C0F30720FFF759
:1013400062FFAD490968C8B2FFF75DFFAB480068AE
:10135000C0F30720FFF757FFA8490968C8B2FFF795
:1013600052FFA7480078FFF74EFFA6480068C0F379
:101370000720FFF748FFA3490968C8B2FFF743FFFA
:10138000BA20FFF731FF0D20FFF73DFFB820FFF730
:101390002BFF0720FFF737FF0120FFF734FF362030
:1013A000FFF722FF0020FFF72EFFF020FFF71CFFC2
:1013B0000320FFF728FF4AF6FF70FFF70FFF2920F1
:1013C000FFF712FFBE20FFF70FFF0620FFF71BFFFE
:1013D000FF20FFF718FF0120FFF715FFF020FFF7B0
:1013E00012FF0020FFF70FFF0020FFF70CFFD020B7
:1013F000FFF7FAFE0D20FFF706FF10BD70B505469A
:101400000C464FF02A00FFF7EFFE2812FFF7FBFE15
:101410002846FFF7F8FE511EC1F30F20FFF7F3FE39
:10142000511E88B2FFF7EFFE2B20FFF7DDFE2012E2
:10143000FFF7E9FE2046FFF7E6FE591EC1F30F2035
:10144000FFF7E1FE591E88B2FFF7DDFE2C20FFF703
:10145000CBFEA2EB0500A3EB040100FB01F603E0C9
:101460004FF6FF70FFF7CFFE3000A6F10106F7D16F
:1014700070BD10B504460B464FF02A00FFF7B4FECE
:101480002012FFF7C0FE2046FFF7BDFE2012FFF737
:10149000BAFE2046FFF7B7FE2B20FFF7A5FE181275
:1014A000FFF7B1FE1846FFF7AEFE1812FFF7ABFECE
:1014B0001846FFF7A8FE2C20FFF796FE1046FFF710
:1014C000A2FE10BD00B503460A464FF02A00FFF702
:1014D0008BFE1812FFF797FE1846FFF794FE1812BE
:1014E000FFF791FE1846FFF78EFE2B20FFF77CFEDC
:1014F0001012FFF788FE1046FFF785FE1012FFF767
:1015000082FE1046FFF77FFE2E20FFF76DFEFFF7ED
:1015100075FE00BDF0B505460C464FF02A00FFF7FA
:1015200063FE2812FFF76FFE2846FFF76CFE1012CD
:10153000FFF769FE1046FFF766FE2B20FFF754FE0B
:101540002012FFF760FE2046FFF75DFE2012FFF736
:101550005AFE2046FFF757FE2C20FFF745FEA2EB70
:10156000050000F101074FF0000604E01846FFF700
:101570004AFE06F10106BE42F8D9F0BDF0B50546B7
:101580000C464FF02A00FFF72FFE2812FFF73BFE14
:101590002846FFF738FE2812FFF735FE2846FFF7EA
:1015A00032FE2B20FFF720FE2012FFF72CFE2046F4
:1015B000FFF729FE1012FFF726FE1046FFF723FE65
:1015C0002C20FFF711FEA2EB040000F101074FF001
:1015D00000061EE00000026000180140FFFF0A0044
:1015E0001400002028000020180000201C0000200B
:1015F00020000020240000202C00002030000020CB
:1016000034000020380000201846FFF7FCFD06F1EA
:101610000106BE42F8D9F0BD2DE9F04105460C4661
:10162000069F4FF02A00FFF7DFFD2812FFF7EBFDC2
:101630002846FFF7E8FD1012FFF7E5FD1046FFF71B
:10164000E2FD2B20FFF7D0FD2012FFF7DCFD204646
:10165000FFF7D9FD1812FFF7D6FD1846FFF7D3FDA7
:101660002C20FFF7C1FDA2EB050000F10100A3EB68
:10167000040101F1010100FB01F84FF0000604E054
:101680003846FFF7C0FD06F101064645F8D9BDE82A
:10169000F0812DE9F04104460D46069F4FF02A00E7
:1016A000FFF7A2FD2012FFF7AEFDE0B2FFF7ABFDA2
:1016B000A118491EC1F30F20FFF7A5FDA118491E6F
:1016C000C8B2FFF7A0FD2B20FFF78EFD2812FFF711
:1016D0009AFDE8B2FFF797FDE918491EC1F30F2004
:1016E000FFF791FDE918491EC8B2FFF78CFD2C20C9
:1016F000FFF77AFD02FB03F04FEA40084FF00006C7
:1017000004E0B85DFFF782FD06F101064645F8D317
:10171000BDE8F0814FF0000108466D4A126842F4BE
:1017200080326B4B1A6000BF694A126802F40030C5
:1017300001F1010110B9B1F5A06FF5D1644A126849
:1017400012F4003F02D04FF0010001E04FF0000022
:10175000012842D15F4A126842F010025D4B1A60C4
:101760001A46126822F003021A601A46126842F002
:1017700002021A60564A5268554B5A601A4652681D
:101780005A601A46526842F480625A601A46526899
:1017900022F47C125A601A46526842F4E8125A60E7
:1017A0001A46126842F080721A6000BF484A1268F6
:1017B00012F0007FFAD0464A526822F00302444BEE
:1017C0005A601A46526842F002025A6000BF404A0C
:1017D000526802F00C02082AF9D1704710B5FFF7E1
:1017E00099FF10BD10B53A48006840F00100384933
:1017F000086008464068384900EA010034494860FA
:1018000008460068354900EA010031490860084689
:10181000006820F4802008600846406820F4FE003C
:1018200048604FF41F008860FFF7D8FF4FF000605A
:101830002B49086010BD10B54FF000010846024664
:10184000234B5B6803F00C0121B1042906D0082961
:101850002CD107E0234B244C23602BE0214B224C5E
:10186000236027E01A4B5B6803F47010184B5B6829
:1018700003F480324FF0020303EB90402AB91B4B74
:1018800000FB03F3184C23600FE0114B5B6813F46B
:10189000003F05D0154B00FB03F3134C236004E01D
:1018A000104B00FB03F3104C236003E00D4B0E4C78
:1018B000236000BF00BF064B5B68C3F303130C4CEF
:1018C000E15C094B1B6823FA01F3074C236010BD50
:1018D00000100240002002400000FFF8FFFFF6FE6B
:1018E00008ED00E000127A003C00002000093D00F5
:1018F0004000002010B50146C1F3C402C1F38523A6
:10190000C1F3C44404EB431000EBC22010BD4FF6FA
:10191000FF707047B0F90020B1F900309A4201DA47
:101920000A880280B0F90220B1F902309A4201DA45
:101930004A884280B0F90420B1F904309A4201DDAE
:101940008A888280B0F90620B1F906309A4201DD1A
:10195000CA88C280704710B50346B1F90000B2F9D9
:101960000040A04202DDB1F9000001E0B2F9000040
:101970001880B1F90200B2F90240A04202DDB1F9CB
:10198000020001E0B2F902005880B1F90400B2F996
:101990000440A04202DDB2F9040001E0B1F9040004
:1019A0009880B1F90600B2F90640A04202DDB2F912
:1019B000060001E0B1F90600D880B3F90400B3F9DC
:1019C0000040A04201DA002010BDB3F90600B3F9CF
:1019D0000240A04201DA0020F6E70120F4E770B5EA
:1019E00003460D4603E003F8015BA2F1010212B1C8
:1019F00013F0030FF7D14FEA9201B9B102F00302DD
:101A000005EB054606EB0624184605E010C010C09D
:101A100010C010C0A1F104010429F7DA02E010C0DF
:101A2000A1F101010029FAD1034600BF03E003F848
:101A3000015BA2F10102002AF9D170BD70B5034625
:101A40000C46154613F0020F03D023F8024BA5F104
:101A500001054FEA5501C1B104EB044218460429BF
:101A60000BDB00BF026042608260C26000F11000C8
:101A7000A1F104063146042EF4DA02E004C0A1F11B
:101A800001010029FAD1034600BF15F0010F00D073
:101A90001C8070BD70B50446204600F052FC05461F
:101AA0003DB1284600F058FC064622460021FFF7CB
:101AB00096FF284670BD00002DE9FC4704460CB98E
:101AC000BDE8FC8700F0B0FC07464C48B0F9228026
:101AD00000F0D6FC06464948808CA0EB060000B218
:101AE0004649888478E047F6FF71204600F02CFDD7
:101AF00082465146204600F049FD05463F48808D0C
:101B000000F00300012807D0022807D1284605EB82
:101B1000D0714FEA610904E0A94602E04FF00009E4
:101B200000BF00BF3548408CA0EB090000B233492C
:101B30004884ADF80000BDF800002844A0F1010081
:101B400000B2ADF804000846808CADF80200BDF884
:101B500002003844A0F1010000B2ADF806006A4668
:101B60005146204600F033FDBDF802002349888429
:101B70005146204600F022FA044420780A2802D078
:101B800020780D281DD11D48808D00F0030001280C
:101B900002D0022805D100BF0FFA88F01749488407
:101BA00004E01648008C1549488400BF00BF207827
:101BB0000A280CD11148808C384400B20F4988841F
:101BC00005E0BDF80000284400B20C4948842078A4
:101BD00000B904E004F101042078002883D100BF9B
:101BE0000648808C304400B2044988840846B0F925
:101BF0002C0020F00300888500BF61E7EC32002054
:101C000070B506460C46154620B20449488428B2F1
:101C100088843046FFF750FF70BD0000EC32002092
:101C200010B501F0D1F90446204610BD70B501F0A1
:101C3000CBF9054601F0A0F90446204670BD10B569
:101C400001F0C5F90446204610BD70B501F0BFF99A
:101C5000054601F091F90446204670BD014608B2E0
:101C6000144A90844FF000007047014608B2114AB0
:101C700050844FF00000704770B504462046FFF7CF
:101C8000EDFF0546284670BD70B504462046FFF7B7
:101C9000ECFF0546284670BD70B506460C4630463A
:101CA000FFF7E3FF05462046FFF7D8FF40EA0505AA
:101CB000284670BDEC32002010B570B371B36AB322
:101CC000B1F90030B2F90040A34202DDB2F90030B0
:101CD00001E0B1F900300380B1F90230B2F90240FD
:101CE000A34202DDB2F9023001E0B1F902304380D3
:101CF000B1F90430B2F90440A34202DDB1F9043075
:101D000001E0B2F904308380B1F90630B2F906403F
:101D1000A34204DDB1F9063003E00CE003E0B2F9C0
:101D20000630C38010BD09B10B4600E013461C68A5
:101D300004605B68436000BFF4E778B103880B443C
:101D40001BB2038083880B441BB2838043881344F7
:101D50001BB24380C38813441BB2C380704700008A
:101D6000234908684FF00001214A1160704720495B
:101D7000096809B91E490860704700B500BFFFF740
:101D8000EFFF0028FBD100BD1A4A106051604FF0F0
:101D90000102194B1A60704770B54FF000041648E5
:101DA0000068A8B114480068A0F101001249086059
:101DB000104805684168284604F06CF90D484068F1
:101DC000012802D12846FFF7D2FF4FF0010400BFDF
:101DD000204670BD70B504460D462946204604F0E5
:101DE00059F918B929462046FFF7CEFF70BD00000B
:101DF0005C00002054000020500000200749087DAE
:101E000070470649487D70470146044A107D1175A8
:101E100070470146014A507D51757047EC320020F1
:101E20000246B2F90200B1F90630984213DCB1F96A
:101E30000200B2F9063098420DDCB2F90000B1F9A7
:101E40000430984207DCB1F90000B2F9043098423E
:101E500001DC012070470020FCE7000010B50446BB
:101E60004FF060020649204604F0C9F910BD10B5D4
:101E700004464FF060022146014804F0C0F910BD4D
:101E8000EC32002010B501F0C5F801F0E7F803F0DE
:101E9000F1FF10BD10B50446204601F075F810BDE5
:101EA00010B50446204601F07EF810BD10B50020A4
:101EB000FFF7F0FF6FF07F40FFF7F2FF0120FFF721
:101EC000A3FF002000F02CF8002000F033F80020E1
:101ED00000F00EF8054800F013F8002000F018F8A4
:101EE00010BD10B5FFF7E2FF10BD0000546C0008F4
:101EF00070B50446204600F037FE0546284670BD02
:101F00000146024A906901B191617047EC320020AC
:101F10000146024A907D917570470000EC32002026
:101F20000146034AB2F92C000AB2014B9A85704768
:101F3000EC3200200146034AB2F92A000AB2014BF2
:101F40005A857047EC32002070B504463148C069AC
:101F50004168204688470546284670BD70B504464E
:101F60002C48C0690168204688470546284670BD50
:101F700070B504460D462748C0692946C268204608
:101F800090470646304670BD10B504462148C069EA
:101F900081682046884710BD70B5044625681D48F5
:101FA000C06901682846884706461A48C0694168E2
:101FB0002846884705442560304670BD2DE9F0412C
:101FC00005460E464FF0000707E01248C069416819
:101FD000284688470446254427443000A6F10106D8
:101FE000F3D13846BDE8F0812DE9F04106460F46B1
:101FF0004FF00008454608E07019064AD26951685A
:1020000088470446254408F10108AF42F4DC404605
:10201000BDE8F081EC3200200146087870470146A7
:1020200000BF4FF001007047014600BF4FF00100B4
:102030007047024611704FF0010070470148024995
:10204000C861704708640008EC320020014601F1C5
:10205000030020F0030000B270470146EE4800EB99
:10206000C100B0F90200704730B5EB4901EBC00187
:10207000498801B930BDE84901EBC001B1F902203E
:10208000E649C989114409B2E44BD98119468989C5
:10209000A1EB020109B299814FF00001DE4B03EB85
:1020A000C0035980DC4C04EBC004A188DA4C04EB7B
:1020B000C004E388D84C04EBC304A18019B1D64D09
:1020C00005EBC105EB80D549496801F10101D34B0E
:1020D000596019460968A1F10101196000BFC9E7FB
:1020E0004FF0010108E0CC4800EBC100408808B97E
:1020F00008B2704701F10101B1F5A17FF3DB0020C7
:10210000F7E730B502464FF0000112E0C24830F95F
:102110003100C14D05EBC105B5F902502844BE4D53
:1021200035F93350A5EB0004944201DB08B230BD11
:102130001946B94800EBC1008388002BE6D1B648A8
:1021400030F93100B44C04EBC104B4F9024020442E
:10215000C0F52050904201DB08B2E8E74FF0FF30B5
:10216000E5E72DE9F04706464FF0FF394FF0000450
:102170003BE0A94830F83400A74901EBC401498885
:102180000844A54931F83510A1EB00000FFA80FA98
:10219000B24529DAA04830F834009F4901EBC40168
:1021A000498808449C4931F83510A1EB000007B27A
:1021B000CFB1994830F93500994900EB01089649AB
:1021C00001EBC501B1F90220A8EB0700414603F07D
:1021D000D4FF914830F83500A0EB070000B28E49DB
:1021E00021F8350000BF00BF2C468B4800EBC4002F
:1021F0008588002DBDD1884830F93400864901EB2F
:10220000C401B1F902100844C0F52050B04200DB0F
:10221000A1460FFA89F0BDE8F08740F241107F49EE
:10222000486088604FF42050C88108824FF0000059
:10223000086088814FF00400774948804FF0000023
:10224000088088804FF0010076490870704700B51B
:102250007448007808B9FFF7E0FF00BD70B5064686
:10226000FFF7F5FF3046FFF7F1FE06466B48B0F981
:102270000E00B04201DA002070BDFFF731FF05000B
:1022800000D1F9E73046FFF73CFF0446601C03D15C
:102290003046FFF766FF0446601C00D1ECE75E4A5B
:1022A00032F834205C4B03EBC4035B881A4411B250
:1022B000594A02EBC4029088574A02EBC502568085
:1022C000554A22F8351002EBC5029080002803DD44
:1022D000514B03EBC003DD804F4B03EBC503DC80A8
:1022E0004D4B03EBC4039D804C48006800F1010096
:1022F0004A49086008464068A0F101004860084665
:1023000080684968884203DD4448406843498860E2
:1023100042488089304400B2404988810846C089DB
:10232000A0EB060000B2C8810846B0F91000B1F970
:102330000E10884203DD3948C08938490882284692
:102340009AE770B504460CB9002070BD2046FFF72F
:1023500085FF05462846F8E7014609B90020704781
:102360002D4830F931002E4A1044F8E710B5FFF738
:102370006EFF2A48B0F90E0010BD2DE9F0414FF074
:102380000006FFF764FF354611E0234830F83500BA
:10239000214901EBC501498808441F4931F837102C
:1023A000A1EB000004B2B44200DD26463D461A48C7
:1023B00000EBC5008788002FE7D1174830F93500BA
:1023C000154901EBC501B1F902100844C0F52050D0
:1023D00004B2B44200DD26463046BDE8F08110B5B7
:1023E00004460CB9002010BD2046FFF736FEFAE780
:1023F00010B5044604B910BD2046FFF735FE00BFF6
:10240000F9E710B50446B4F90000FFF7F1FF4FF00B
:102410000000208010BD0000C8280020D832002015
:10242000C8000020640000202D498969497D2C4A9C
:102430009269D27D01FB02F0704700B5FFF7F4FF0F
:102440002749898C084400B2254988840846008CB5
:10245000488400BD10B504460A2C02D1FFF7EDFFF9
:102460000DE00D2C0BD01E4880690168204688477E
:102470001C48006818B120461A490968884710BDF1
:102480004FF000001649898D01F00C01042904D099
:10249000082910D00C2916D105E011498969097D58
:1024A000A1F101000FE00E4A9269117D01EBD1729A
:1024B0004FEA620007E00A4A9269117D01EBD1728E
:1024C0004FEA620000BF00BF704770B50446044881
:1024D00080694168204688470546284670BD00004F
:1024E000EC32002074000020F7B50C461546694810
:1024F000006930B1674908692946FFF791FC00B9C6
:10250000FEBD64488069006938B16248806900692D
:10251000214682680098904714E00FE06846FFF774
:102520003BFD06465B4880690168304688475A484B
:10253000006818B13046584909688847601E041E73
:10254000ECDA00BF00BFDBE773B50D464FF00004C7
:102550000098C8B14F488069006938B14D4880691A
:10256000006929464268009890477CBD09E06846AA
:10257000FFF712FD06460EB10A2E00D103E004F16A
:102580000104AC42F3DB00BF2046EEE773B50C4616
:102590004FF000050098C0B13E488069006938B12D
:1025A0003C488069006921460268009890477CBDDC
:1025B00007E06846FFF7F0FC06463046FFF785FF68
:1025C0000544601E041EF4DA00BF2846EFE77CB520
:1025D00005460E4614463148006878B1002003F0E5
:1025E000B1F9002854D000BF6A4631462846FFF7AB
:1025F0007BFF03F07EF90028F6D149E020680090C7
:1026000060680190BDF800002249096C084400B2DE
:10261000ADF80000BDF802001E49496C084400B244
:10262000ADF80200BDF804001A49096C084400B274
:10263000ADF80400BDF806001649496C084400B224
:10264000ADF80600684603F07DF980B100BFBDF823
:10265000000010494884BDF8020088846A4631466B
:102660002846FFF741FF03F044F90028EFD109485D
:10267000408C0849096CA0EB010000B20549488470
:102680000846808C496CA0EB010000B201498884A7
:102690007CBD0000EC320020740000207800002097
:1026A0002DE9F04F8BB005467448B0F922000A902E
:1026B0007248B0F924A080698469B4F80C8045455B
:1026C00009DBE089A84206DBD4F80090A5EB0806F8
:1026D0004FF0FF371EE0A068D4F80490B0B1B0F816
:1026E000008045450EDB4188A9420BDB0288A5EB43
:1026F000020295B2416801EB8501B1F90060B1F9C0
:10270000027006E04FF0FF36374602E04FF0FF362A
:10271000374600BF701C78D058488069007DA17C86
:1027200048430990207C089054488069007D0790B8
:102730005248B0F92AB0584600F016FAC0B20690D6
:102740004E4A099806FB0090A17C4FF00103CDE9A9
:102750000231CDE9040210468069C07D11468969C5
:10276000897DCDE900105146DDE907320A9800F075
:10277000A4FA781C1BD04BF0020000F0F5F93F4A98
:10278000099807FB0090A17C0123CDE90231CDE936
:10279000040210468069C07D11468969897DCDE9B2
:1027A00000105146DDE907320A9800F086FA3348F6
:1027B0008069407D31498969097D884221DDBBF10D
:1027C000020F1ED08BF0040000F0CEF92B48806978
:1027D000007DDFF8A8C0DCF818C09CF815C000FB2D
:1027E0000CA126488069407D00EB0A0323488069DC
:1027F00090F816E0DDF820C00A980CFB0E0200F0FD
:1028000024FA069800F0B0F900BF1C48B0F9220085
:10281000617C1A4A9269927D01FB020000B217495D
:1028200048840BB0BDE8F08F014614488069826986
:1028300000BF507C114B9B699B7D00FB03F07047F0
:1028400000BF4FF002020A80704730B50446A2690B
:102850009589A94204DBD089884201DB012030BD83
:1028600093683BB11888884204DC5888884201DBB1
:102870000120F4E700BF0020F1E70000EC32002067
:1028800007E002888A4203DC42888A4200DB02E0D9
:1028900080680028F5D100BF70472DE9F04F87B060
:1028A00005465748B0F92A80014689698869294652
:1028B000FFF7E6FF0646002E77D03188A5EB010131
:1028C000706800EBC104A778404600F04DF906900F
:1028D0004B4901226068CDE90227CDE90401084691
:1028E0008069C07D8969897DDFF814C1CDE9001058
:1028F000DCF818C09CF814302278DFF804C1BCF969
:102900002410BCF9220000F0D8F93D488069407DD0
:102910003B498969097D884237DD3948806990F8EB
:10292000179037488069407D00FB09FA3448806978
:10293000007D00FB09FBB8F1020F25D0FFF785F9F8
:102940000590FFF773F90490FFF7AAFADFF8B0C01B
:10295000BCF922C094F800E00CEB0E02DFF8A0C036
:10296000BCF924C00CEB0A03DFF894C0BCF924C006
:102970000CEB0B01DFF888C0BCF9220000F065F910
:102980000598FFF78DFA00BF00BF069800F0ECF83D
:102990001B48B0F922006178194A9269927D01FBC7
:1029A000020000B21649488400BF07B0BDE8F08FAE
:1029B00070B504461249896988692146FFF760FFAE
:1029C00005464DB12988611A686810F831000C4934
:1029D0008969897D484370BD0020FCE700BF4FF046
:1029E00001020A80704770B504460D462946A06969
:1029F000FFF746FF06460EB1012070BD0020FCE740
:102A0000EC32002010B5044642480068A0644248F9
:102A1000206104F1040000F0F1FA4048A06540484C
:102A2000A0613D4820614FF00100207503F016FBC6
:102A3000A0874FF0030084F85C006FF070402063C3
:102A400060634FF0000000F09FFA6FF07F4000F0ED
:102A5000AAFA3448E06110BD2DE9FC4104460D4658
:102A600016461F464FF0040000F07EF880462A48C4
:102A7000A0F10400006C04442748A0F10400406C5D
:102A800005442548A0F10400006C06442248A0F14A
:102A90000400406C074420B2ADF8000030B2ADF83D
:102AA000040028B2ADF8020038B2ADF8060068465E
:102AB00002F048FF50B100BF3B463246294620464F
:102AC00000F0C3F802F015FF0028F5D1404600F0F1
:102AD0004BF8BDE8FC8110B500210846FFF7DCF893
:102AE00040F6FF731A4659420846FFF7B5FF10BD7E
:102AF00010B54FF02E000C49087000F031FB06486D
:102B0000001FFFF77FFF00F013FA044603F0BFF940
:102B1000204610BD7C000020F03200201864000820
:102B2000546C000808640008680000200146FA4858
:102B3000007B10F0040F01D0481E70470846FCE7E8
:102B400010B504464FF00100FFF7F0FFF24921F8FD
:102B5000104010BD10B504464FF00000FFF7E6FF2F
:102B6000ED4921F8104010BD10B50146EA4A107B2E
:102B7000127B82EA010212F0040F07D0E64B1A889A
:102B80005B88E54C238023465A8000BFE24B1973D3
:102B900010BD70B504460D46DF48B0F90600A842E6
:102BA00000DD70BDDC48B0F90A00A84200DAF8E7A1
:102BB000D948B0F90400A04200DDF2E7D648B0F9E8
:102BC0000800A04200DAECE7D348007B10F0010FC8
:102BD00006D0D148806C2946826A2046904706E09C
:102BE000CD484288806C2946436A2046984700BFFA
:102BF000D7E770B504460D461646C748B0F906003B
:102C0000A84200DD70BDC448B0F90A00A84200DA4D
:102C1000F8E7C148B0F90400A04202DDBE48B0F9AF
:102C20000440BD48B0F90800B04202DABA48B0F931
:102C30000860A64200DAE5E7B748806C32462946CC
:102C400003692046984700BFDCE72DE9F0410446C0
:102C50000D4616461F46B048B0F90400A04202DDFA
:102C6000AD48B0F90440AC48B0F90800B04202DA0F
:102C7000A948B0F90860A64201DABDE8F081A6488B
:102C8000B0F90600A84202DDA348B0F90650A248F8
:102C9000B0F90A00B84202DA9F48B0F90A70AF42B0
:102CA00000DAEAE79C48806C3B4632462946D0F879
:102CB00018C02046E04700BFDFE72DE9FF4F8BB08B
:102CC000054690461F46DDF860A0DDF868901C9E22
:102CD0004FF000000A909148006898B11B991D9828
:102CE000CDE90291CDE904601998CDE900A08B48A7
:102CF00000683B464246046828460C99A0470FB03E
:102D0000BDE8F08F0C983844A0F10100089005EB65
:102D10000800A0F10100099019984AEA0000012872
:102D200075D17D48B0F906100C98A1EB0004002C79
:102D30000BDDA7EB0407002F00DCE0E77648B0F9D5
:102D400006000C901B9804FB00667348B0F90A104B
:102D50000898A0EB0104002C04DDA7EB0407002F6A
:102D600000DCCCE76C48B0F908100998A0EB01042E
:102D7000002C01DDA8EB04084FF000046648B0F910
:102D80000400A8423FDD6448B0F90400A0EB05044C
:102D9000A8EB0408B9F1040F20D006DCB9F1010F4B
:102DA0000AD0B9F1020F2DD10FE0B9F1080F1ED0F2
:102DB000B9F1100F26D11FE006EBE4064FEAE4005C
:102DC00005EBC00504F007041CE006EBA4064FEA7F
:102DD000A40005EB800504F0030413E006EB640691
:102DE0004FEA640005EB400504F001040AE02644C4
:102DF00025444FF0000405E006EB440625444FF05F
:102E0000000400BF00BFB8F1000F01DC77E710E05D
:102E10001B991D98CDE90091CDE9026404903E48CC
:102E2000806C3B464246D0F80CC028460C99E047DF
:102E300070E0C9F1080005900C9C4FF0000006906E
:102E400064E019982044A0F1010004903248B0F9E0
:102E500006100498814251DC2F48B0F90A00A042C4
:102E60004CDB4FF00000039001960795029041E083
:102E7000039848B9019800780A90019800F1010080
:102E800001904FF00800039005990A9840FA01FB61
:102E90000A9800FA09F0C0B20A900398A0EB090062
:102EA0000390BBF1000F04D11B48007B10F0020F10
:102EB00019D11948408800901D9828B11D9830F804
:102EC0001B001549488002E01348A0F802B007989B
:102ED0005044421E2146049B0798FFF7B6FE0E4958
:102EE0000098488000BF029800F101000290079806
:102EF0005044079002984045BADB00BF069800F1A5
:102F000001000690199804441B9806440698B8429C
:102F100097DB00BF00BFF2E6EC3200207800002013
:102F200010B52848806C016A2648001D884710BDEE
:102F300010B54FF00004FFF7F3FF00F051FE40EA38
:102F4000040400F0C6F80420FFF70EFE40F6FF73FD
:102F50001A4600210846FFF778FE0020FFF704FE1E
:102F600000F03CFE204610BD10B504461548806CAC
:102F700001682046884710BD10B504461148806C92
:102F800041682046884710BD70B504460D48406B27
:102F9000A04207D00B4844632046FFF7E5FF0546F3
:102FA000FFF7D8FD70BD70B504460648006BA0421F
:102FB00007D0044804632046FFF7D6FF0546FFF715
:102FC000BFFD70BDEC320020024800887047014808
:102FD00040887047EC32002070B504462046FEF76A
:102FE00089FC0546284670BD10B50446204600F011
:102FF00089F810BD10B5FEF78AFC10BD4FF0000136
:103000000180418040F23F1181804FF0EF01C1808B
:103010007047000010B507480068074988644FF002
:103020000000A1F84C0001F104000861FFF778FFEF
:1030300010BD00007C000020EC3200201CB50446CE
:103040000548806C016A684688476A4621460248FE
:10305000001DFEF780FC1CBDEC32002010B50749B6
:10306000086BFFF781FF0446FFF76AFD0349486BD1
:10307000FFF77AFF0446FFF76DFD10BDEC3200202C
:103080002DE9F041044614B90020BDE8F081A068A4
:1030900008B90020F9E72068B0F5807F01DD002045
:1030A000F3E72668A7684FF0000508E057F8250009
:1030B000FFF75AFF074921F8150005F10105B54250
:1030C000F4DB0448E1E710B504462046FFF7D8FFDB
:1030D00010BD70474C3300204FF4A0707047F020B3
:1030E00070474FF4A0707047F02070471020704771
:1030F0004FF480307047012070470120704740F244
:103100003520704730B5014601F01F03C1F3451269
:10311000C1F3C424C4EB04204FF01F05B0FBF5F449
:10312000C2EB02204FF03F05B0FBF5F2C3EB0320EA
:103130004FF01F05B0FBF5F304EB022000EB03405A
:1031400030BD00000A4800687047094A126802EB67
:10315000000100BF064A12688A1A002AFADC70478A
:103160007047704700BF704700BF704700BF70478F
:103170008000002070B504460D461646B2B2A9B2D2
:10318000A0B2FEF776F970BD70B504460D46A9B23F
:10319000A0B2FEF797F970BD70B504460D46A9B20E
:1031A000A0B2FEF78FF906464FF6FF70A0EB0602BD
:1031B000A9B2A0B2FEF75DF970BD70B504460D4628
:1031C0001646F8484388B2B2A9B2A0B2FEF7A2F9F7
:1031D00070BD70B504460D461646F2484388B2B23B
:1031E000A9B2A0B2FEF7CAF970BDF8B504460D4603
:1031F00016461F46EB484088BBB2B2B2A9B2009057
:10320000A0B2FEF709FAF8BD2DE9F84F04460F46C3
:1032100090469946DDE90A5ABAF800000090BAF8DB
:1032200002B098F80060DF48007B10F0030004D083
:10323000012828D0022839D112E009F00700082817
:103240000DD2DFE800F00405060708090A0BADE01F
:10325000BDE0CEE0DFE0F0E001E112E123E125E0B6
:1032600009F0070008280DD2DFE800F00405060782
:1032700008090A0B1CE02AE038E046E054E062E06E
:1032800070E07EE012E009F0070008280DD2DFE8C8
:1032900000F00405060708090A0B1CE128E134E1E7
:1032A00040E14CE158E164E170E100BF00BF00BFC4
:1032B00016F0800F04D05A46B9B2A0B2FEF7D9F882
:1032C000A5F10100050001D1BDE8F88F00BF16F09F
:1032D000400F05D05A46B9B2601C80B2FEF7C9F85B
:1032E000A5F10100050000D1EEE700BF16F0200FA8
:1032F00005D05A46B9B2A01C80B2FEF7BAF8A5F1C3
:103300000100050000D1DFE700BF16F0100F05D067
:103310005A46B9B2E01C80B2FEF7ABF8A5F1010045
:10332000050000D1D0E700BF16F0080F05D05A46BF
:10333000B9B2201D80B2FEF79CF8A5F1010005008E
:1033400000D1C1E700BF16F0040F05D05A46B9B24C
:10335000601D80B2FEF78DF8A5F10100050000D1D7
:10336000B2E700BF16F0020F05D05A46B9B2A01D51
:1033700080B2FEF77EF8A5F10100050000D1A3E7B9
:1033800000BF16F0010F05D05A46B9B2E01D80B259
:10339000FEF76FF8A5F10100050000D194E704F1F4
:1033A000080408F101008046067881E716F0800FD6
:1033B00001D0584600E000980246B9B2A0B2FEF72C
:1033C00058F8A5F10100050000D17DE700BF16F017
:1033D000400F01D0584600E000980246B9B2601C88
:1033E00080B2FEF746F8A5F10100050000D16BE7B9
:1033F00000BF16F0200F01D0584600E000980246AA
:10340000B9B2A01C80B2FEF734F8A5F101000500A6
:1034100000D159E700BF16F0100F01D0584600E068
:1034200000980246B9B2E01C80B2FEF722F8A5F17E
:103430000100050000D147E700BF16F0080F01D0DA
:10344000584600E000980246B9B2201D80B2FEF74F
:1034500010F8A5F10100050000D135E700BF16F016
:10346000040F01D0584600E000980246B9B2601D32
:1034700080B2FDF7FEFFA5F10100050000D123E7B2
:1034800000BF16F0020F01D0584600E00098024637
:10349000B9B2A01D80B2FDF7ECFFA5F10100050057
:1034A00000D111E700BF16F0010F01D0584600E02F
:1034B00000980246B9B2E01D80B2FDF7DAFFA5F12F
:1034C0000100050000D1FFE604F1080408F1010045
:1034D000804606786AE716F0800F03D0394620460A
:1034E000FFF75AFEA5F10100050000D1ECE600BF90
:1034F00016F0400F03D03946601CFFF74DFEA5F1D2
:103500000100050000D1DFE600BF16F0200F03D058
:103510003946A01CFFF740FEA5F10100050000D1CF
:10352000D2E600BF16F0100F03D03946E01CFFF7BB
:1035300033FEA5F10100050000D1C5E600BF16F07D
:10354000080F03D03946201DFFF726FEA5F1010024
:10355000050000D1B8E600BF16F0040F03D03946CD
:10356000601DFFF719FEA5F10100050000D1ABE6D3
:1035700000BF16F0020F03D03946A01DFFF70CFE66
:10358000A5F10100050000D19EE600BF16F0010F75
:1035900003D03946E01DFFF7FFFDA5F1010005004E
:1035A00002D191E6EC32002004F1080408F1010098
:1035B000804606788FE72DE9F04704460E4691468F
:1035C0009A46DDE9087899F80050B8F1000F6ED0FE
:1035D000FD48007B10F0020F0BD01AF0030004D05E
:1035E000012803D0022803D101E051E061E073E03B
:1035F00085E01AF0030004D0012803D0022803D18B
:1036000001E002E00FE01EE02DE0A81138F81020E4
:10361000B1B2A0B2FDF72DFFA7F10100070001D163
:10362000BDE8F08700BF032000EA251038F810201D
:10363000B1B2601C80B2FDF71CFFA7F101000700CA
:1036400000D1EDE700BF032000EAA50038F8102004
:10365000B1B2A01C80B2FDF70CFFA7F1010007007A
:1036600000D1DDE700BF05F0030038F81020B1B24B
:10367000E01C80B2FDF7FDFEA7F10100070000D1BC
:10368000CEE709F101008146057804F10404BCE7A6
:1036900015F0C00F06D0A81138F81020B1B2A0B2B2
:1036A000FDF7E7FEA7F10100070001D1B8E73EE012
:1036B00000BF15F0300F09D0032000EA251038F8BC
:1036C0001020B1B2601C80B2FDF7D3FEA7F101005B
:1036D000070000D1A4E700BF15F00C0F09D00320AC
:1036E00000EAA50038F81020B1B2A01C80B2FDF7A6
:1036F000C0FEA7F10100070000D191E700BF15F05F
:10370000030F08D005F0030038F81020B1B2E01C18
:1037100080B2FDF7AEFEA7F10100070000D17FE700
:1037200009F101008146057804F10404B0E7A648D8
:10373000007B10F0020F0BD01AF0030004D0012818
:1037400003D0022803D101E048E055E065E075E0D0
:103750001AF0030004D0012803D0022803D101E0AD
:1037600002E00CE019E026E0AA11B1B2A0B2FDF728
:1037700080FEA7F10100070000D151E700BF032040
:1037800000EA2512B1B2601C80B2FDF772FEA7F10B
:103790000100070000D143E700BF032000EAA502B3
:1037A000B1B2A01C80B2FDF764FEA7F101000700D2
:1037B00000D135E700BF05F00302B1B2E01C80B2D2
:1037C000FDF757FEA7F10100070000D128E709F136
:1037D00001008146057804F10404C5E715F0C00F27
:1037E00004D0AA11B1B2A0B2FDF743FEA7F10100C7
:1037F000070000D114E700BF15F0300F07D00320F9
:1038000000EA2512B1B2601C80B2FDF732FEA7F1CA
:103810000100070000D103E700BF15F00C0F07D02F
:10382000032000EAA502B1B2A01C80B2FDF721FE80
:10383000A7F10100070000D1F2E600BF15F0030F69
:1038400006D005F00302B1B2E01C80B2FDF711FE14
:10385000A7F10100070000D1E2E609F1010081466D
:10386000057804F10404B9E72DE9F04704460E4653
:1038700090469946DDE9087A98F80050BAF1000FB1
:1038800058D05148007B10F0020F04D019F0010FFE
:1038900000D128E036E019F0010F00D100E00DE082
:1038A00028113AF81020B1B2A0B2FDF7E2FDA7F15D
:1038B0000100070001D1BDE8F08700BF05F00F004F
:1038C0003AF81020B1B2601C80B2FDF7D2FDA7F12A
:1038D0000100070000D1EEE704F1020408F1010045
:1038E00080460578DCE7281106D028113AF8102028
:1038F000B1B2A0B2FDF7BDFDA7F10100070000D1F4
:10390000D9E700BF15F00F0F08D005F00F003AF807
:103910001020B1B2601C80B2FDF7ABFDA7F1010031
:10392000070000D1C7E704F1020408F10100804656
:103930000578D8E72448007B10F0020F04D019F076
:10394000010F00D123E02FE019F0010F00D100E0BA
:103950000AE02A11B1B2A0B2FDF78BFDA7F1010078
:10396000070000D1A7E700BF05F00F02B1B2601C4D
:1039700080B2FDF77EFDA7F10100070000D19AE7B4
:1039800004F1020408F1010080460578E1E72811FE
:1039900004D02A11B1B2A0B2FDF76BFDA7F101006E
:1039A000070000D187E700BF15F00F0F06D005F024
:1039B0000F02B1B2601C80B2FDF75BFDA7F1010000
:1039C000070003D177E70000EC32002004F1020485
:1039D00008F1010080460578D9E72DE9F047044653
:1039E000884615461E46DDF820908148007B10F081
:1039F000020F24D1B9F1000F11D00DE02F7839F862
:103A000017201FFA88F1A0B2FDF733FDA6F10106D9
:103A100004F1010405F10105002EEFDC36E00BE0B6
:103A20002A781FFA88F1A0B2FDF723FDA6F101065E
:103A300004F1010405F10105002EF1DC26E0B9F1E5
:103A4000000F12D00EE02F7837B139F817201FFA87
:103A500088F1A0B2FDF70DFDA6F1010604F1010405
:103A600005F10105002EEEDC10E00DE02F782FB1FE
:103A70003A461FFA88F1A0B2FDF7FBFCA6F1010659
:103A800004F1010405F10105002EEFDCBDE8F0872B
:103A90002DE9F04104460F4615461E465448007B6A
:103AA00010F0020F0ED10AE02A88B9B2A0B2FDF7D9
:103AB000E0FCA6F1010604F1010405F10205002E67
:103AC000F2DC12E00FE0B5F80080B8F1000F04D08E
:103AD0004246B9B2A0B2FDF7CCFCA6F1010604F152
:103AE000010405F10205002EEDDCBDE8F0812DE9B1
:103AF000FF4F83B00D4690461E46DDE910B9DDF854
:103B000050A0129FBBF1040F30D006DCBBF1010FB7
:103B10000AD0BBF1020F5AD117E0BBF1080F36D023
:103B2000BBF1100F53D143E04FF000040AE06119DC
:103B3000CDE9008A3A46139B0398FFF765FB4F4493
:103B400004F10104B442F2DB41E04FF000040AE06A
:103B50006119CDE9008A3A46139B0398FFF72BFDC4
:103B60004F4404F10104B442F2DB30E04FF00004B2
:103B70000AE06119CDE9008A3A46139B0398FFF7E2
:103B800073FE4F4404F10104B442F2DB1FE04FF036
:103B900000040AE0611943463A46CDF800A00398B4
:103BA000FFF71BFF4F4404F10104B442F2DB0EE0C7
:103BB0004FF0000408E0611943463A460398FFF7C6
:103BC00067FF4F4404F10104B442F4DB00BF00BFBF
:103BD00007B0BDE8F08F00BF00BF70477047704767
:103BE00010B5FDF716FB002010BD00BF00BF7047E9
:103BF000EC32002070B50546FE49B1F94C00FEF7E5
:103C0000ABFB044620882880608868802088A188D3
:103C10000844A0F1010000B2A8806088E18808444F
:103C2000A0F1010000B2E88070BD70B50446F14912
:103C3000B1F94C00FEF790FB05462046E96988473C
:103C400070BD70B50446EB49B1F94C00FEF784FB3A
:103C500005462046296A884770BD10B5E549B1F987
:103C60004C00FEF779FB0446606A804710BD70B5D2
:103C70000546A5B1DF48B0F94C00A84201D1FEF7D6
:103C800001F92846FEF768FB0446208B18B1B4F909
:103C9000180000F097FF2846FEF7AAFB00BF70BD92
:103CA0002DE9FF4F83B090461D46DDF840904FF060
:103CB000000A1198C06B0290029908FB01F000F114
:103CC00007004FEAD00BFEF758FB064619F0010F2C
:103CD00008D130464FEAE67106EB91714FEAA10137
:103CE00001EB4106002D0DDCA6F12C01B1FBFBF030
:103CF000C5F10001884202DDC5F1000100E0014686
:103D00000D4600BF19F0010F08D100202B46424696
:103D10000090DDE9030101F078F88246002D03DC14
:103D2000002007B0BDE8F08F05FB0BF000F12C067A
:103D300019F0010F04D030B2FEF703FB074603E091
:103D400030B2FDF7A7FE07461FB33846FEF704FB67
:103D50000446039800B22080049800B260800FFAF5
:103D600088F0A08028B2E080FFF7C2F9A060C4F814
:103D70000CB0A4F818A01298E0611398206214986F
:103D800060621198A062029820614FF000006061AB
:103D900005E0BAF1000F02D05046FEF729FB384685
:103DA000BFE72DE9FF4F85B081468A469248D0F89B
:103DB00000B09048B0F84C0048B98E48806C046858
:103DC0008C48806C45688B48806C866809E089491E
:103DD000B1F94C00FEF7C0FA0746FC693D6A7E6AFD
:103DE00000BFDBF8380001A971C11298009051465C
:103DF0004846DDE90723FFF753FF8046404609B0F8
:103E0000BDE8F08FF8B504460D4616461F464FF044
:103E100000003B463246294600902046FFF7C1FF8E
:103E2000F8BD70B504467348B0F94C5014B9FEF7AC
:103E300029F81AE02046FEF78FFA064602F01FF82E
:103E40006C48B0F84C0038B96A4801464A68C0F876
:103E50004E208968C0F852106648A0F84C40654969
:103E6000B06A8864FFF75CF800BF284670BD2DE992
:103E7000F74F8CB092460C98FEF76EFA0546B5F9EE
:103E800018000B90B5F906000A90EF68D5F810B04D
:103E90004FEADB00099005F12C080B98002865D04B
:103EA0000B98FEF759FA06464FF000045AE04FF01F
:103EB00000000890B068224608A943693046984738
:103EC0008146B5F90400484526D1079401E004F184
:103ED0000104B068621C08A9436930469847484508
:103EE000F5D00020CDE902B7CDE904800120009093
:103EF00001900798201A431CB5F9042007980AEB93
:103F000000010D98FEF7D9FE0798A4EB000000F120
:103F1000010000FB078823E01EE00021DDE9082006
:103F200002FB0080CDE902B7CDE904010120009039
:103F30000AEB04010190089B0D9AD01801234A4610
:103F4000FEF7BBFE089848440890B068224608A9CE
:103F50004369304698478146B9F1000FDDD1B84436
:103F600004F101040A988442A1DB0EE00020CDE9AF
:103F700002B7CDE90480012000900190B5F904203A
:103F800051460A9B0D98FEF798FE0FB0BDE8F08FE2
:103F90002DE9FC4106460D4617467EB31548B0F99B
:103FA0004C803046FEF7D8F90446FDF76BFF40F62B
:103FB000FF70401903D1B4F90050B4F9027028B26F
:103FC000ADF80000A1880844A0F1010000B2ADF8EE
:103FD000040038B2ADF80200E1880844A0F1010005
:103FE00000B2ADF8060001F045FF684601F0AAFCFA
:103FF00078B104E0EC3200207C0000200DE000BF2E
:104000003A4629463046FFF732FF01F072FC00289D
:10401000F6D14046FFF705FF00BFBDE8FC8110B5B3
:104020000446034A11462046FFF7B2FF10BD0000C8
:1040300001F0FFFF2DE9F04705460F4691461C466B
:10404000DDE90886FC48007B10F0030002D002285E
:104050001FD106E04FEA48022146304602F048F8F8
:1040600017E000BF208840B1208830802DB1A868BB
:104070004A46394603682846984707F1010706F182
:10408000020604F10204A8F101005FEA0008E9D188
:1040900000BF00BFBDE8F0872DE9F04105460E46A0
:1040A000E549B1F94C00FEF757F9044604F12C0735
:1040B0006088A6EB000080B2E16889B200FB01775E
:1040C00007EB4500B4F90010A0EB4100BDE8F0811A
:1040D0002DE9FF4F81B081468A469846129E0F9D7A
:1040E0000E98C0F1080498F80000D449085C0E99B5
:1040F00040FA01F7D048007B10F0030004D00128FB
:104100006ED002287ED120E000BFAC4200D92C4600
:10411000A5EB040500BF07F00101109830F811006D
:1041200026F8020B4FEA5707A4F101000400F2D170
:1041300015B905B0BDE8F08F4FF0080408F1010093
:1041400080460078BD490F5CDFE71098B0F802B0F8
:1041500000BFAC4200D92C46A5EB0405B9F1000F15
:104160001ED000BF1FB906EB4406A24417E017F0AB
:10417000010F08D0D9F80800036851464846039A51
:104180009847A6F800B00AF1010A06F10206A4F168
:104190000100040000D102E04FEA5707E2E714E013
:1041A00000BF17B906EB44060EE017F0010F01D06F
:1041B000A6F800B006F10206A4F10100040000D147
:1041C00002E04FEA5707ECE700BF05B9B1E74FF04F
:1041D000080408F101008046007898490F5CB8E7B0
:1041E0001199486A804780B2009000BFAC4200D964
:1041F0002C46A5EB040500BF17F0010F06D0308850
:10420000009900E015E080EA0100308006F1020626
:104210004FEA5707A4F101000400EDD105B988E782
:104220004FF0080408F101008046007883490F5CD4
:10423000DCE700BF7DE72DE9FF5F81468A469846AF
:10424000DDE910B60F9C0E98C0F10400C5B298F8D5
:1042500000000E994FEA410100FA01F0C7B276481A
:10426000007B10F0030004D0012850D0022870D148
:104270001EE000BFA54200DDE5B2A4EB050400BFCF
:104280004FEAA7103BF8100026F8020B4FEA8760B0
:104290004FEA1067A5F10100C0B20500F0D134B1BA
:1042A0004FF0040508F1010080460778E2E750E08E
:1042B00000BFA54200DDE5B2A4EB050400BF17F086
:1042C000C00F0ED04FEAA7103BF810003080B9F1B4
:1042D000000F06D0D9F80800036851464846029AF4
:1042E000984706F102060AF1010A4FEA87604FEA91
:1042F0001067A5F10100C0B20500E0D134B14FF064
:10430000040508F1010080460778D2E721E000BFEC
:10431000A54200DDE5B2A4EB050400BF17F0C00F15
:1043200003D0308880F0FF00308006F102064FEAAB
:1043300087604FEA1067A5F10100C0B20500EDD11A
:1043400034B14FF0040508F1010080460778DFE73B
:1043500000BF00BFBDE8FF9F2DE9FF4F81B00746BA
:104360008A469946DDE90EB6DDE91084CBF10200FC
:10437000C0B2009099F800004FEA8B0100FA01F0FA
:10438000C5B22D48007B10F0030004D001287CD07A
:10439000022832D132E0BBF1000F0CD04FEA2510D9
:1043A00038F81000208004F10204A6F1010609F19A
:1043B000010081460578022E19DB4FEA660006F0FF
:1043C000010600BF4FEA251138F81110218005F0D1
:1043D0000F0138F81110618004F1040409F10101A2
:1043E00089460D78A0F101010800EBD100BF26B18C
:1043F0004FEA251038F81000208085E0BBF1000F4F
:1044000018D015F0F00F0BD04FEA251038F8100037
:1044100020802FB1B868036851463846039A984700
:1044200004F102040AF1010AA6F1010609F10100F2
:10443000814605782EE00000EC3200206064000820
:1044400015F0F00F0BD04FEA251038F8100020803F
:104450002FB1B868036851463846039A984705F06B
:104460000F0005000AD038F81500608037B1B86831
:1044700003680AF101013846039A984704F10404DD
:104480000AF1020AA6F1020600E015E009F10100B6
:1044900081460578022ED3DA6EB14FEA2510050069
:1044A00009D038F8150020802FB1B868036851464C
:1044B0003846039A984727E000BF0098B04201DDD4
:1044C000F0B200900098A6EB000600BF15F0C00FF8
:1044D00003D0208880F0FF00208004F102044FEA1E
:1044E00005704FEA10650098A0F1010010F0FF0080
:1044F0000090EBD13EB14FF00200009009F10100B5
:1045000081460578D9E700BF00BF05B0BDE8F08F50
:104510002DE9F04706460F4692461C46DDE908891C
:104520000A9DFD48007B10F0030002D0022829D12B
:104530000EE000BF207839F81000288005F1020550
:1045400004F10104A8F101005FEA0008F2D119E0CA
:1045500000BF207850B1207839F8100028802EB1A3
:10456000B0685246394603683046984707F101075C
:1045700005F1020504F10104A8F101005FEA000859
:10458000E7D100BF00BFBDE8F0872DE9F047054641
:104590000F4691461C46DDE90886DF48007B10F097
:1045A000030002D002281ED105E0424621463046D3
:1045B00001F09EFD17E000BF207840B120783080E8
:1045C0002DB1A8684A46394603682846984707F13E
:1045D000010706F1020604F10104A8F101005FEAF7
:1045E0000008E9D100BF00BFBDE8F0872DE9FF4F0B
:1045F00089B00E4617469946DDE918ABDDF86880AC
:10460000C549B1F94C00FDF7A7FE08900898008B4A
:1046100028B10899B1F91800FDF79EFE01E04FF0AE
:10462000000007900898C0680690099858440990BF
:10463000079860B1B848007B10F0020F07D13B46E5
:104640003246CDF800900999079800F0CBFA314630
:104650000998FFF721FD05461698102815D14FF04F
:1046600000040DE0A2195346CDE900750999079899
:10467000FFF7E0FC179882440698054404F1010412
:104680004C45EFDB0DB0BDE8F08F1698082820D11F
:104690004FF000041AE0B8F1000F09D0A2195346F8
:1046A000CDE90078029509990798FFF731FF07E0F7
:1046B000A2195346CDE9007509990798FFF765FFE0
:1046C000179882440698054404F101044C45E2DB46
:1046D000D8E7B8F1000F01D1DFF840824FF00004B5
:1046E00031E01698012804D002280FD0042823D1E5
:1046F00017E00898A2195346CDE900B7CDE902802A
:10470000049509990798FFF7E3FC15E0A2195346B1
:10471000CDE900B7CDE9028509990798FFF78BFD30
:104720000AE0A2195346CDE900B7CDE902850999FF
:104730000798FFF711FE00BF00BF17988244069844
:10474000054404F101044C45CBDB00BF9AE72DE999
:10475000FE4F06460C4693461F466F49B1F94C0082
:10476000FDF7FAFD054621463046FFF795FC8146E8
:10477000E8680290ABEB060000F10108288B68B1F5
:10478000B5F91800FDF7E8FD8246381B401C43468A
:10479000224631460090504600F024FA24E05E485C
:1047A000007B10F0010F15D0CDF80480CA46686A6E
:1047B000804780B2009000BFBAF80000009980EAFC
:1047C0000100AAF800000AF1020A0198401E0190B7
:1047D000F2D105E05048418842464846FDF72EF99F
:1047E0000298814404F10104BC42D8DDBDE8FE8F8B
:1047F00070B505460C4616462346324621462846E5
:10480000FFF7A5FF70BD2DE9F84F83460D4616460C
:104810004149B1F94C00FDF79FFD0746B7F91880F3
:10482000B8F1000F03D04046FDF796FD01E04FF0D0
:104830000000814629465846FFF72EFC0446D7F86B
:104840000CA03548007B10F0010F1BD0786A804720
:1048500080B2009000BFB8F1000F06D0D9F8080070
:104860002A4659460368484698472088009980EAB6
:1048700001002080F868044405F101000546B042BB
:10488000E9DD22E0B8F1000F11D000BFD9F808002F
:104890002A4659460368484698471F484088208062
:1048A000544405F101000546B042EFDD0DE0A6EBF2
:1048B000050101F1010000BF1749498821805444D6
:1048C000A0F101010800F7D100BFBDE8F88F2DE984
:1048D000F05F04460D4616460F49B1F94C00FDF74E
:1048E0003BFD8046B8F9187029462046FFF7D4FBF7
:1048F0008146A9F800606FB13846FDF72DFD83466B
:104900003846FDF729FD80682A462146D0F800A0E8
:104910005846D047BDE8F09FEC320020388B0008A5
:104920002DE9F05F04460D461849B1F94C00FDF73A
:1049300013FD0646B6F9187029462046FFF7ACFB72
:104940008046706A80471FFA80F9B8F8000080EA54
:104950000900A8F800006FB13846FDF7FDFC83465A
:104960003846FDF7F9FC80682A462146D0F800A0B9
:104970005846D047BDE8F09F70B504460D4629461D
:104980002046FFF789FB0646308870BDEC320020D8
:1049900002468A4201DC104670470846FCE72DE9D2
:1049A000FF4F85B004468B461F4684B3B4F9000020
:1049B000002802DA4FF0000001E0B4F90000804660
:1049C000B4F90200002802DA4FF0000001E0B4F967
:1049D00002008146FEF780FB461EB4F90400314612
:1049E000FFF7D6FF0490FEF77AFB461EB4F90600E7
:1049F0003146FFF7CDFF03900498A0EB080000F1CB
:104A0000010A0398A0EB090000F1010509E0FFE7A6
:104A10004FF00008C146FEF75FFB8246FEF75FFBE2
:104A200005460FB9C5F10007BAF1000F01DD002DF1
:104A300003DC002009B0BDE8F08F12983B465246D7
:104A4000494600904046FFF7ACF90290029818B929
:104A50000798D8470120EDE7029800F04BF8074689
:104A60000298FFF7DEF94FF0000619E0A5EB06000B
:104A700001900198B84203DADDE9011000F04EF828
:104A800046B109EB06024146029800F05FF8029831
:104A900000F010F80798D8470298FFF7C0FA3E4494
:104AA000AE42E3DB0298FFF7E2F80020FFF7B9F926
:104AB0000020BFE72DE9F041044634B90C48B0F9B5
:104AC0004C00040001D1BDE8F0812046FDF744FC14
:104AD0000746B7F9185045B12846FDF73DFC064694
:104AE000B06881683046884700BF00BFEBE7000030
:104AF000EC32002070B504464FF0000614B90648A9
:104B0000B0F94C402CB12046FDF726FC0546B5F91E
:104B10000660304670BD0000EC32002070B50446DF
:104B20000D4614B90848B0F94C4004B970BD204690
:104B3000FDF712FC0646B6F90600A84201DD28B2D0
:104B4000F08000BFF2E70000EC3200202DE9F041D8
:104B500080460E461746B8F1000F07D11348B0F94A
:104B60004C005FEA000801D1BDE8F0814046FDF746
:104B7000F3FB044638B2608030B22080FEF7D0F9F3
:104B8000208B88B1B4F91800FDF7E6FB0546B4F9AF
:104B90000400A88038B1B4F90600E88018B130B23A
:104BA000288038B2688000BF00BFDDE7EC3200200B
:104BB00070B504461849B1F94C00FDF7CDFB054628
:104BC0002C8370BD70B505462846FDF7C5FB04462D
:104BD000A089A0F1010000B2A08110B92846FDF71C
:104BE00007FC70BD2DE9F04104460E4615461F46F0
:104BF000DDF8188000BF2A466D1CA0683B46314690
:104C0000D0F804C02046E047A8F101005FEA0008A0
:104C1000F1D1BDE8F0810000EC320020F0B514467F
:104C20000346B3F90050A1EB050103F11402B3F9F7
:104C30000250A4EB05051E6905FB062202EBE1020A
:104C4000157801F007074FF0800646FA07F645EAA7
:104C500006051570F0BD2DE9FF4F81B005460E46E3
:104C600091462F46B7F90000A6EB000607F11404A1
:104C7000B7F90200A9EB0000396900FB014404EB1D
:104C8000E60404983044A0F10100009000984FEA37
:104C9000E000A0EBE60806F007014FF0FF0040FA45
:104CA00001FA009800F00700C0F107014FF0FF0083
:104CB00000FA01F000F0FF0BB8F1000F06D12078E8
:104CC0000AEA0B0140EA0100207013E0207840EA74
:104CD0000A0004F8010BA8F10100B0F1000805DD9D
:104CE000FF224146204601F0BCFA4444207840EAC5
:104CF0000B00207005B0BDE8F08F70B50446254666
:104D0000B5F906002A6900FB02F105F1140001F073
:104D1000B0FA70BD2DE9F04705460F469446396854
:104D20002E46B6F9049006F11402B6F90600604565
:104D300002DC0020BDE8F08730690CFB002202EBAA
:104D4000E102494501DB0020F4E7A9F101004FEA47
:104D5000E000A0EBE10812F8010B01F0070A00FAED
:104D60000AF0C3B20CE0B8F1000F01D10020E1E776
:104D700012F8013BA8F1010801F1080020F0070139
:104D8000002BF0D005E04FEA43604FEA106301F1D9
:104D9000010113F0800FF6D0FF2B0BD00C4605E07D
:104DA0004FEA43604FEA106304F1010413F0400F2F
:104DB000F6D101E001F1070404F0070007281AD139
:104DC00013E012F801AB5346BAF1FF0F02D104F120
:104DD00008040AE005E04FEA43604FEA106304F17B
:104DE000010413F0800FF6D104E0A8F10100B0F146
:104DF0000008E6DA00BF3960601A401C9AE710B577
:104E000004462046FDF7F4FA10BD2DE9F84F074699
:104E1000884615461E46DDF828B000BF05F10F0094
:104E20004FEA20104FEA400906FB09F000F1140098
:104E30000090009800B2FCF72DFE8246BAF1000FF8
:104E400002D10020BDE8F88F5046FDF785FA0446F0
:104E500038B220800FFA88F0608028B2A08030B28B
:104E6000E0800448A0604FF00100A081C4F81090D9
:104E70005046E7E7988B00080146FE4A106807E0B5
:104E8000B0F904208A4202D14FF00002828000680B
:104E90000028F5D170470146F748B0F90000884274
:104EA00001D1002070474FF0FF30FBE70146B1F918
:104EB0000000B1F90420904201DD00207047B1F9F3
:104EC0000200B1F90620904201DD0020F6E7012042
:104ED000F4E72DE9FC4107460D463846FDF73CFA5C
:104EE0000446A68B16F0020F01D1BDE8FC8140F606
:104EF00001003040012800D1F7E72846FFF7D6FF30
:104F000000B9F2E7224629466846FCF724FD6846C8
:104F1000FFF7CCFFC0B1A08B10F0200F06D06A467F
:104F200004F108010846FCF7C7FE0DE00098A060F8
:104F30000198E060A08B40F02000A083CF4800885B
:104F400000F10100CD49088000BFCEE74FF000001E
:104F5000CB4908807047CB49098819B1C949B1F9D3
:104F6000000002E0C849B1F93C00704770B5044642
:104F70000D46B4F90220B4F900102846FCF7DDFE16
:104F800070BD7CB50446C048806B18B92046FEF75A
:104F900055F816E0BC48806B0168009140680190AC
:104FA000FFF7D9FF0646FDF7D7F905466946FFF733
:104FB000DDFF21466846FCF7ADFC6846FEF73EF88B
:104FC00000BF7CBD70B506460D4600BF2846FDF704
:104FD000C3F90446A08B10F0020F01D1002070BD70
:104FE00021463046FCF796FCE08A00B902E0B4F9AD
:104FF0001650EBE700BF2846FFF74DFF002801DA07
:105000000020ECE70120EAE71CB5A048007818B1C1
:105010009F48FFF7B6FF16E09B49B1F93C00FDF74A
:105020009BF90446D4E90001CDE9000195480088C8
:1050300028B19448B0F900106846FFF7C3FF6846EE
:10504000FFF79FFF00BF1CBD2DE9F84F06468846BD
:10505000B8F1000F40D03046FDF77EF904464FF01E
:1050600000006083A4F816804046FDF775F90746F6
:10507000A08B00F0080BB7F91890B9F1000F02D11E
:105080003E83BDE8F88F4846FDF766F90546BBF15B
:10509000000F07D1A88B10F0080F03D0A4F81A90C6
:1050A0003E83EEE700BFB5F91A00009008B96E83A1
:1050B00011E00098FDF750F98246BBF1000F08D1CE
:1050C000BAF81C0010F0080F03D06E8300986083BC
:1050D00001E05546E7E700BF00BFD2E72DE9F04702
:1050E00007463846FDF738F98146B9F91680B8F118
:1050F000000F20D04046FDF72FF90646B6F91850AC
:10510000BD4206D12846FDF727F90446608B30835F
:1051100011E00DE02846FDF71FF90446B4F91A0026
:10512000B84203D1B9F81A00608303E0B4F91A5009
:10513000002DEFD100BFBDE8F08770B5044655489B
:10514000B0F9005008E021462846FFF7C2FE284685
:10515000FDF702F9B0F91450002DF4D170BD70B50F
:1051600005462846FDF7F8F80446B4F9166046B13E
:105170002846FFF7B3FF2046FFF7DFFF4FF00000A0
:10518000E08270BD70B504463F48B0F93C6014B988
:105190004048B0F900403C4884872046FDF7DCF8E1
:1051A0000546FDF7BDFEB5F9000037490864B5F9BD
:1051B00002004864304670BD2DE9F041064635488E
:1051C000B0F900700EE03846FDF7C6F80446B4F9B1
:1051D0001450B54205D13046FDF7BEF8808AA08252
:1051E00002E02F46002FEED100BFBDE8F08170B580
:1051F00004460D4654B12046FDF7AEF80646306928
:1052000018B1AC8028463169884700BF70BD3EB5F3
:1052100005460C46ADF80450009469462846FFF751
:10522000E6FF3EBD70B505461A48B0F9004008E0FB
:10523000AC4201D1012070BD2046FDF78DF8B0F9D8
:105240001440002CF4D10020F5E770B5044604B9F1
:1052500070BD2046FFF7E6FF002863D02046FDF72B
:105260007BF80546FFF772FE0B48B0F90000A0423C
:1052700018D113E08C000020900000208600002050
:10528000B2000020B0000020EC3200209800002086
:1052900060350020880000209E0000204FF00000B4
:1052A000FE490880FE48B0F90000A04203D14FF04B
:1052B0000000FB4908802046FFF7DEFD072120465D
:1052C00000F0DCFEB5F9180000F02EF80B212046A6
:1052D000FFF79DFF2046FFF742FF2046FFF76CFFD8
:1052E000A88B10F0010F05D0EE480068A0F1010076
:1052F000EC490860A88B10F0200F05D0EA48008820
:10530000A0F10100E8490880E8480088A0F1010008
:10531000E64908802046FDF76BF8E548B0F9000043
:10532000FFF730FF00BF93E770B504460AE0204660
:10533000FDF712F80546B5F91A602046FFF785FF1C
:10534000344600BF002CF2D170BD70B505460C4646
:1053500000BF2846FFF7F1FE70BD70B50446D44883
:10536000008868B1D248B0F90000FCF7F5FF0646A6
:105370002046FCF7F1FF0546B08AA882B48201E01E
:10538000CB48048070BD2DE9FC4706460C46174605
:105390004EE03046FCF7E0FF0546B0F81C8018F000
:1053A000020F43D02FB13A4629466846FCF7D3FA9C
:1053B00003E0D5E90001CDE9000169462046FCF78C
:1053C0002FFDF8B118F0010F1DD1B5F90200B4F9A5
:1053D000021088420DDDBDF90200401EB4F906102E
:1053E000884222DABDF80200A0F1010000B2E0809C
:1053F0001BE0BDF90600B4F90610884215DABDF8C5
:105400000600E08011E0B5F918900AE04846FCF784
:10541000A3FF82466A4621464846FFF7B4FFBAF921
:105420001A90B9F1000FF1D100BF00BFB5F91A60B1
:10543000002EAED1BDE8FC872DE9FC5F06460D4687
:1054400017464FF0000B3CE03046FCF785FF044662
:10545000B0F81C8018F0020F31D02FB13A46214627
:105460006846FCF778FA03E0D4E90001CDE90001D1
:1054700069462846FCF7D4FC00B318F0010F08D1A8
:10548000BDF8040000F1010000B228804FF0010BCC
:1054900014E0B4F918900DE04846FCF75DFF824631
:1054A0006A4629464846FFF7C7FF08B14FF0010B8F
:1054B000BAF91A90B9F1000FEED100BF00BFB4F9EC
:1054C0001A60002EC0D15846BDE8FC9F2DE9FC476C
:1054D00006460D46174637E03046FCF73DFF0446CA
:1054E000B0F81C8018F0020F2CD02FB13A4621469C
:1054F0006846FCF730FA03E0D4E90001CDE9000189
:1055000069462846FCF78CFCD8B118F0010F06D18B
:10551000BDF80000A0F1010000B2A88011E0B4F9CC
:1055200018900AE04846FCF717FF82466A4629466B
:105530004846FFF7CBFFBAF91A90B9F1000FF1D145
:1055400000BF00BFB4F91A60002EC5D1BDE8FC87CA
:105550004FF000024A800A8082880388A2EB03028F
:1055600012B28A80C2884388A2EB030212B2CA80B8
:10557000704782680A60C2684A6070472DE9FF413F
:1055800005460E463DB32846FCF7E6FE0446A78BCB
:1055900017F0020F24D0D4E90001CDE9020166B171
:1055A000306800907068019069462046FFF7DEFC85
:1055B000694602A8FCF7AEF900BF294602A8FFF72A
:1055C00001FD40B140F601003840012804D12946D0
:1055D00002A8FFF7BAFE03E002A92846FFF779FC0C
:1055E000BDE8FF8110B504464FF000012046FFF7EB
:1055F000C5FF10BD2DE9F84F8046894692469B466F
:10560000DDE90A752B48008845EA00052FB92748CF
:10561000008810B12848B0F90070781C00D1074606
:1056200007B33846FCF798FE0646B6F900008044FA
:10563000B6F902008144BAF1000F07D1B6F90400AF
:10564000B6F90010A0EB010000F1010ABBF1000F58
:1056500007D1B6F90600B6F90210A0EB010000F17F
:10566000010B00BF0D98203000B2FCF713FA009038
:10567000002861D00D48008800F101000B49088026
:105680000098FCF769FE04460FFA88F020800FFAB4
:1056900089F0608008EB0A0010E000009E00002006
:1056A0009C000020AC000020860000208400002028
:1056B000880000209A00002090000020A0F1010046
:1056C00000B2A08009EB0B00A0F1010000B2E08065
:1056D0000C982061A08B43F68F7105EA010140EA26
:1056E0000100A0830098FFF738FE39460098FFF7C5
:1056F000ABFC15F0200F02D00098FFF743FD15F02A
:10570000010F05D0FE48006800F10100FC49086067
:1057100015F0400F02D0009800F051FC15F0020F78
:1057200006D0A08B40F00200A0830098FFF75AFF3C
:1057300001210098FFF76BFD0098BDE8F88F2DE977
:10574000FF4704460D4616461F46DDE90D9ADDF873
:1057500030804FF000003B46324629468DE8010775
:105760002046FFF747FF04B0BDE8F087E548B0F9F1
:105770003C0070477CB5E449D1E90201CDE9000164
:10578000E148006940B9E0480088ADF80000DE4813
:105790004088ADF802001DE0DB48808900F101007F
:1057A00000B2ADF80000D8484089ADF80200BDF95C
:1057B0000000D549B1F9041088420BDD00BFD24882
:1057C0000088ADF80000D048C08900F1010000B2A7
:1057D000ADF80200BDF90200CB49B1F906108842CC
:1057E00001DD00207CBDC749B1F93C00FCF7B4FDE8
:1057F0000546BDF90000C449B1F90010884220D126
:10580000C148C088ADF80600BF488088ADF80400E4
:10581000BC48B0F93C600CE03046FCF79DFD044606
:10582000B4F91A004FF000026946FFF7ACFDB4F975
:105830001660002EF0D1B5F9180000226946FFF776
:10584000A2FD00BFBDF80000ADF80400AD48B0F9FE
:105850003C600EE03046FCF77FFD0446B4F91A00C8
:105860004FF000026946FFF7E7FD00B1EAE7B4F93F
:105870001660002EEED1B5F9180000226946FFF738
:10588000DBFD00B1DEE7A0488088ADF80400BDF97B
:105890000400BDF90010884205DA9B48DDE90012DA
:1058A000C0E902128BE79748B0F93C600CE0304643
:1058B000FCF752FD0446B4F91A004FF000026946A5
:1058C000FFF704FEB4F91660002EF0D1B5F9180008
:1058D00000226946FFF7FAFD8B480069C82801DD00
:1058E00000207FE78848DDE90012C0E902120120AC
:1058F00078E710B58548007808B9002010BD8248C7
:105900004069012808DD80484069A0F101007E4916
:1059100048614FF00000F1E77B48006900F10100A9
:1059200079490861FFF726FF40B977484069A0F13F
:105930000100754948614FF00000DFE7FFF764FBA5
:105940000120DBE77FB505467048007820B9FFF7F6
:105950005BFB012004B070BD6B484069401C6A4984
:105960004861012801DD0120F4E76649B1F93C00F6
:10597000FCF7F2FC04464FF0FF30634908616448CD
:10598000007820B102A92046FFF7F3FD11E0A08BBB
:1059900010F0020F04D0D4E90001CDE9020108E0C3
:1059A00059484069A0F10100574948614FF0000093
:1059B000D0E71DB1294602A8FBF7ACFF5148806B28
:1059C000C0B126464F48806B016800914068019045
:1059D0005048008828B14F48B0F90000FCF7BCFCE3
:1059E000064669463046FFF7C1FA694602A8FBF74A
:1059F00091FF00BF4748008878B14648B0F90010D1
:105A000002A8FFF7DFFA40B93F484069A0F1010062
:105A10003D4948614FF000009CE73A48B0F93C101E
:105A200002A8FFF7CFFA40B937484069A0F101005A
:105A3000354948614FF000008CE73348DDE9021238
:105A400006C0FFF756FF85E710B5FCF72FFA4FF0B9
:105A500000002C49886310BDFEB505460C46A68B98
:105A60002069002839D016F0020F36D02848007877
:105A700000F101002649087016F4805F0ED0ADF8E1
:105A800004504FF00F00009004F108000290FFF75F
:105A9000DBFF69462846FFF7AAFB17E004F1080080
:105AA000FFF750FF90B100BFADF804504FF00F006A
:105AB000009004F108000290FFF7C6FF69462846EF
:105AC000FFF795FBFFF715FF0028EDD11048007890
:105AD000A0F101000E49087000BFFEBD2DE9F041A4
