:020000040800F2
:10000000108A01208D020008F17B0008CD610008F4
:100010007D7A0008FB1D00087FA900080000000091
:100020000000000000000000000000003F8B0008FE
:10003000D52A000800000000917C00082D8C0008E3
:10004000A7020008A7020008A7020008A7020008EC
:10005000A7020008A7020008A7020008A7020008DC
:10006000A7020008A7020008A7020008A7020008CC
:10007000A7020008A7020008A7020008A7020008BC
:10008000A7020008A7020008A7020008A7020008AC
:10009000A7020008A7020008A7020008A70200089C
:1000A000A7020008A7020008A7020008A70200088C
:1000B000A7020008A7020008A7020008A70200087C
:1000C000A7020008A7020008A7020008A70200086C
:1000D000A7020008A7020008A7020008A70200085C
:1000E000A7020008A7020008A7020008A70200084C
:1000F000A7020008A7020008A7020008A70200083C
:10010000A7020008A7020008A7020008A70200082B
:10011000A7020008A7020008A7020008A70200081B
:10012000A7020008A7020008A7020008A70200080B
:10013000A7020008A7020008A7020008A7020008FB
:10014000A7020008A7020008A7020008817C000897
:10015000A7020008A7020008A7020008A7020008DB
:10016000A7020008A7020008A7020008A7020008CB
:10017000A7020008A7020008A7020008A7020008BB
:10018000A7020008A702000800F002F800F06EF8CD
:100190000AA090E8000C82448344AAF10107DA45E2
:1001A00001D100F063F8AFF2090EBAE80F0013F0C6
:1001B000010F18BFFB1A43F0010318472C2D05004F
:1001C0004C2D05000A444FF0000C10F8013B13F0D1
:1001D000070408BF10F8014B1D1108BF10F8015BA0
:1001E000641E05D010F8016B641E01F8016BF9D193
:1001F00013F0080F1EBF10F8014BAD1C0C1B09D1EA
:100200006D1E58BF01F801CBFAD505E014F8016B5B
:1002100001F8016B6D1EF9D59142D6D370470000ED
:100220000023002400250026103A28BF78C1FBD8FF
:10023000520728BF30C148BF0B6070471FB524F07C
:1002400000F89DE8030000F023FB00F079FF0400B4
:100250000020002123F026F9401C606000200021CE
:1002600023F00AF9E0601FBD10B510BD00F057FC87
:100270001146FFF7E3FF15F0F3FF00F0CFFE03B4E4
:10028000FFF7F2FF03BC00F0E1FA000009488047E5
:1002900009480047FEE7FEE7FEE7FEE7FEE7FEE768
:1002A000FEE7FEE7FEE7FEE704480549054A064B80
:1002B000704700003D8C000889010008100A0120E9
:1002C000108A0120104A0120104A012070B506460C
:1002D00000F0C2FA056806F10B0020F00704B442F2
:1002E0009CBF002070BD2B466A68BAB11068A0425E
:1002F00010D304F1080188423CBF5068586007D30E
:100300005168101941601168091B01605860146040
:10031000101D70BD13465268002AE7D121462846B9
:1003200000F0A2FA0028DED170BD70B50446051FAA
:1003300000F092FA0068002C14BF446870BD002CD5
:1003400018BFAC423CBF20466468F8D301680A1865
:10035000AA4218BF456003D12A68054611440160CE
:1003600028684119A1421CBF6C6070BD616869605A
:1003700021680844286070BD53EA020C00F06980CF
:100380002DE9F04B4FF00006002B1FBFB3FA83F5A9
:1003900003FA05F424FA05F65E4012BF1643B2FADA
:1003A00082F502FA05F4C5F120051EBF22FA05FC0C
:1003B00044EA0C04203556EA044C4FEA144418BFB2
:1003C000641C4FF000084FF00009904271EB030CE1
:1003D00039D3002919BFB1FA81F701FA07F6B0FA4B
:1003E00080F700FA07F6C7F120071EBF20FA07FCC6
:1003F00046EA0C062037B6FBF4FCA7EB0507103FD6
:1004000007F01F0BCBF120060CFA0BFB2CFA06F6BB
:1004100044BFB3460026202FA4BF5E464FF0000B1A
:100420005BEA060C08BF4FF0010B19EB0B09ABFBA5
:10043000027C48EB0608C01B06FB02CC0BFB03CC7E
:1004400071EB0C01C1E70B46024641464846BDE848
:10045000F08B13B54FF000004FF00001AFF30080B8
:10046000BDE81C40704710B5002000F0A3FAFFF76C
:10047000FBFEBDE81040012000F0E8B940EA0103AE
:1004800010B59B070FD1042A0DD310C808C9121F3D
:100490009C42F8D020BA19BA884201D9012010BD77
:1004A0004FF0FF3010BD1AB1D30703D0521C07E044
:1004B000002010BD10F8013B11F8014B1B1B07D1A8
:1004C00010F8013B11F8014B1B1B01D1921EF1D119
:1004D000184610BD40EA0103024630B59B0710D113
:1004E0004FF0013400E008C208C91D1B9D4315EA06
:1004F000C41FF8D013F0FF0102F8011B0DD01B0A36
:10050000F8E711F8013B002B02F8013B05D011F888
:10051000013B002B02F8013BF3D130BD10B5431C69
:1005200002E010F8011B71B18107FAD14FF00132DE
:1005300002C88C1A8C4314EAC211F9D0C01A0A06F8
:1005400003D0C01E10BDC01A10BD0A0401D0801E09
:1005500010BD0902FCD0401E10BD032A40F23080BD
:1005600010F0030C00F0158011F8013BBCF1020FF4
:10057000624498BF11F801CB00F8013B38BF11F875
:10058000013BA2F1040298BF00F801CB38BF00F88C
:10059000013B11F0030300F06B80083AC0F00880C3
:1005A00051F8043B083A51F804CBA0E80810F5E7ED
:1005B000121D5CBF51F8043B40F8043BAFF30080D0
:1005C000D20724BF11F8013B11F801CB48BF11F845
:1005D000012B24BF00F8013B00F801CB48BF00F815
:1005E000012B7047431A28BF9A427FF6B6AF032A01
:1005F0001044114440F2268010F0030F1EBF11F882
:10060000013D521E00F8013D10F0030F7FF4F6AFDC
:1006100011F0030300F0E881083AC0F00B8051F8B4
:10062000043D083A51F804CD40F8043D40F804CDAB
:10063000FFF7F3BF121D5CBF51F8043D40F8043DC5
:10064000AFF30080D20724BF11F8013D11F801CDAE
:1006500048BF11F8012C24BF00F8013D00F801CD7E
:1006600048BF00F8012C704701B5FFF776FF01BDC8
:1006700010B5203AC0F00B80B1E81850203AA0E83D
:100680001850B1E81850A0E81850BFF4F5AF5FEA71
:10069000027C24BFB1E81850A0E8185044BF18C924
:1006A00018C0BDE810405FEA827C24BF51F8043BCB
:1006B00040F8043B08BF7047D20728BF31F8023B1F
:1006C00048BF11F8012B28BF20F8023B48BF00F8B3
:1006D000012B704701F0FF03114601B543EA0322E5
:1006E00042EA024200F00BF801BD02F0FF0343EAC8
:1006F000032242EA024200F002B84FF0000204294D
:10070000C0F0128010F0030C00F01B80CCF1040C40
:10071000BCF1020F18BF00F8012BA8BF20F8022B74
:10072000A1EB0C0100F00DB85FEAC17C24BF00F81A
:10073000012B00F8012B48BF00F8012B70474FF048
:10074000000200B5134694469646203922BFA0E821
:100750000C50A0E80C50B1F12001BFF4F7AF09072D
:1007600028BFA0E80C5048BF0CC05DF804EB89001E
:1007700028BF40F8042B08BF704748BF20F8022B61
:1007800011F0804F18BF00F8012B704710B50446D8
:1007900010F0030F08BF11F0030F40F015804FF069
:1007A000013E121FC0F20E8051F8043BA3EB0E0C69
:1007B0002CEA030C1CEACE1C08BF40F8043BF0D026
:1007C000A1F1040102F10402521E08DB11F8013B01
:1007D000002B00F8013BF7D11146FFF78EFF2046B2
:1007E00010BD704770477047A0E8004FF0C040F858
:1007F00004DB01B5AFF30080BDE8024001C1002079
:10080000A1EC068BA1EC02BBA1EC06CBA1EC02FB98
:10081000704700F12C080C46B8EC068BB8EC02BB14
:10082000B8EC06CBB8EC02FB00F12C0858F8040D2C
:10083000AFF3008058F8040D8546200008BF012062
:1008400038E9F00018E9004F70470000014918200E
:10085000ABBEFEE72600020000487047B409012045
:10086000704770477047704738B504460A46002005
:100870006946AFF30080002808BF38BD02460099E2
:10088000204600F0E5F8012038BD012000F040B915
:10089000F8B5AFF30080054600200C46102000BFDD
:1008A0000646A819A0420DD9324669460020AFF38A
:1008B0000080070008BF00F02BF90098A04218BF85
:1008C0000546C419FFF7C8FF05600746F01D20F074
:1008D00007004619284600F00AF8B44208BFF8BDE0
:1008E000A21B31463868BDE8F84000F0B1B80021DD
:1008F0000160C0E9011070471020704710B500F08A
:10090000A3F8006810BD10B5044600F09DF804601F
:1009100010BD00000FB4002300B589B00CA90091F0
:100920000B99CB60204B7B440693204B7B44079371
:1009300004236FF00042CDE901321D4A7A446B4630
:1009400008920246002023F0E6FC09B05DF814FB93
:1009500070B506464FF0FF3015460C46324686B05D
:100960000091CDE9010169460020049004A8FFF739
:10097000D1FF03460498211825B108B10A4600E0CA
:1009800022462A6000280DD0002B02DD0098884204
:1009900008D03246081B69460094CDE9010404A83A
:1009A000FFF7B8FF06B070BD6D01000085010000C3
:1009B0004501000010B500F093F8BDE8104000F0CC
:1009C0008AB8431A28BF9A427FF652AE104410F0FC
:1009D000030F11441EBF11F8013D521E00F8013DE6
:1009E00010F0030F7FF4F6AF103AC0F00A8010B594
:1009F00031E91850103A20E91850BFF4F9AFBDE8BA
:100A00001040530724BF31E9081020E9081044BF03
:100A100051F8043D40F8043D12F0030F08BF704741
:100A2000D20728BF31F8023D48BF11F8012C28BF7A
:100A300020F8023D48BF00F8012C7047004870477D
:100A4000AC0901207047000000487047AC09012044
:100A5000034640688C46002818BF88423CBF0346C6
:100A60004068F8D318681844884207D00CF1030096
:100A700020F00700001D411A521A0146081D0A60A5
:100A8000FFF753BC10B5044600F06EF80068005D37
:100A900000F0010010BD426842B1016811F8013B4D
:100AA00023B1521EC0E90012184670470121C160EF
:100AB000881E704742685AB1C368016843B98368A9
:100AC0008B4205D0491E521CC0E90012002070471D
:100AD0004FF0FF307047002801D0FFF7B7BE7047D6
:100AE00010B5002102A000F0A2FA012010BD000004
:100AF000534947414252543A2041626E6F726D61D0
:100B00006C207465726D696E6174696F6E000000AF
:100B100010B500F0A5FABDE81040FFF7DCBF754640
:100B2000FFF78CFFAE4605006946534620F00700EC
:100B3000854618B020B5FFF7B7FBBDE820404FF061
:100B400000064FF000074FF000084FF0000B21F0B7
:100B50000701AC46ACE8C009ACE8C009ACE8C00984
:100B6000ACE8C0098D46704710B500F0E9FA001DE9
:100B700010BD00BF312902002DE9FF4F064689B0A4
:100B80000878FF2806D0491C2D2805D000244FF0F6
:100B9000000908E000200CE00124F8E709EB8903D4
:100BA000491C00EB43090878FF28F7D114B1C9F1BB
:100BB00000008146107800252C46AA4629462D289B
:100BC00001D02B2804D1521C2D2813D0002082469E
:100BD0008B461078FF280FD04FF0000C0A21521CD2
:100BE000A5FB017804FB018105FB0C11C5194BEB3A
:100BF0000104EEE70120EAE7002108464FF000007B
:100C0000BAF1000F02D000EB80004008C0F3815819
:100C1000B8F1010F01DD4FF0FF380C9809EB000728
:100C200055EA040009D04FF0020917F5FA7F0BDAF4
:100C30004FEACA70C6E900B012E04FEACA70C6E9CE
:100C400000B00DB0BDE8F08FB7F5FA7F0DDDF048CC
:100C50007844D0E90010C6E9001040EACA7070601C
:100C6000FFF7F2FEC0F80090EBE7391E02DAC8F198
:100C7000000200E0424600DA794206A800F064FA79
:100C800006AB93E8070003AB83E8070044F23E009D
:100C90005BEA04010090584604D144F21E012C4640
:100CA0005D460091210C0904014306D100992404FA
:100CB00044EA15442D041039009104F07F410143AA
:100CC00006D10099240244EA15642D0208390091E6
:100CD00004F07041014306D10099240144EA1574DF
:100CE0002D01091F009104F04041014306D10099F4
:100CF000A40044EA9574AD00891E009104F00041FF
:100D0000084304D100986D196441401E009042468A
:100D10006846002FCDE9014503A902DD00F033FF4D
:100D200001E000F008FFBAF1000F04460D4601D0C3
:100D300084F0004440F2FF7724F00040284303D0C1
:100D4000C4F30A50B84212D1FFF77EFEC0F80090FB
:100D5000C4F30A50B8420AD1AE487844D0E9001032
:100D6000C6E9001004F000410843706069E7C6E975
:100D7000005466E72DE9FF4F1F464FF0000A4FF081
:100D8000FF38454691B0D7E90146CDF83CA000F0C8
:100D9000D7F9C0680168405C1090B96912986D1C61
:100DA0008847396A814688470028F6D1B9F1FF3F64
:100DB0000AD0002E24F4D06411DDB9F12B0F08D035
:100DC000B9F12D0F0BD102E0404615B03AE744F4DB
:100DD0008064B96912986D1C8847761E814660054B
:100DE00004A901D52D2000E02B20002E01F1010BDC
:100DF0000DF130088DF810003FDDB9F1690F08D012
:100E0000B9F1490F05D0B9F16E0F02D0B9F14E0F0B
:100E10001CD13B4601A8009580E85002DDE9121282
:100E20006FF0020023F07BFAC11CCED10EE0B9694D
:100E300012986D1C884781461398761E44F40074FE
:100E400005600F98401C002E0F9016DDB9F1300F91
:100E5000EDD0B9F1780F02D0B9F1580F0DD10F983C
:100E600001280AD13B46CDE90054DDE91212001FEA
:100E7000029623F052FAC11CA7D1109989453ED1A0
:100E800044F0800406E01399681CAAF1010A44F4B6
:100E900000740860B9696D1C1298761E8847302866
:100EA0008146F0D02BE01099894505D1200603D466
:100EB000761E44F0800418E0484611F0BCF808B3F0
:100EC000761E0DF123018B4544F4007408D2A9F17C
:100ED00030000BF8010B200607D5AAF1010003E052
:100EE000200602D40AF101008246A00502D513991A
:100EF000681C0860B96912986D1C88478146002EED
:100F0000D1DC53E0002E51DDB9F1650F02D0B9F10B
:100F1000450F4BD1A00549D5B9696D1C1298761EB5
:100F200024F440748847002E81460CDD2B2804D021
:100F3000B9F12D0F07D144F48074B96912986D1C72
:100F40008847761E8146E00501D52D2100E02B2142
:100F500008F8011BCDF8008021E0761E0DF1390163
:100F6000884544F400740CD2A9F1300010F0FF0061
:100F700088F8000002D10099884509D908F10108D4
:100F800006E0E00501D5244801E042F20F708246F8
:100F9000B96912986D1C8847814613980560002E28
:100FA00004DD484611F047F80028D6D1F9691298B7
:100FB0008847FF2053468BF8000088F80000002087
:100FC0000A900B9004AA0CA90AA8FFF7D5FDA0056A
:100FD00002D46FF00100F8E614F0240F0AD0E00705
:100FE00014D13868DDE90A12031D3B600068C0E9CE
:100FF00000120BE00AA9684610F0FEFEE00705D1DA
:101000003868009A011D3960006802602846DCE6F5
:10101000B4220500AA210500F1D8FFFF10B504464F
:10102000AFF300802046BDE81040FFF728B970B547
:1010300005460C460A2000E06D1C00F079F835B139
:1010400028780028F8D102E0641C00F071F814B18F
:1010500020780028F8D1BDE870400A2000F068B878
:1010600010B5012805D0002103A0FFF7E0FF012003
:1010700010BD09A1F8E7000053494752544D454DB2
:101080003A204F7574206F662068656170206D6529
:101090006D6F7279000000003A2048656170206D24
:1010A000656D6F727920636F72727570746564001C
:1010B0004FF0013C50F8042B51F8043B9A4221D1E7
:1010C000A2EB0C03934313EACC1317D150F8042B73
:1010D00051F8043B9A4215D1A2EB0C03934313EA57
:1010E000CC130BD150F8042B51F8043B9A4209D190
:1010F000A2EB0C03934313EACC13DBD04FF00000B8
:10110000704700BFD01A01BAB1FA81F101F018019D
:1011100022FA01F0CB40C1F12001DBB2C0B2C01A0B
:101120002CFA01F3D11A914311EAC311E6D17047A9
:1011300008B569468DF800000320ABBE08BD00006D
:1011400000487047CC0901202DE9F047814616463A
:101150008AB0334878440DC88DE80D003048784493
:10116000801C03AC0DC884E80D0041F69B30084498
:10117000372190FBF1F290FBF1F5A5F1800501FB21
:1011800012041B3C02D56442012000E00020DFF87D
:1011900090A080460027FA44AAF1BE0A0DE0E007BD
:1011A00009D03246684607EB47010AEB810100F09F
:1011B000D6FC8DE8070064107F1C002CEFD1184F7F
:1011C0007F44AC3F18E0E80714D007EB04100DF1A2
:1011D000180A90E80E008AE80E00C068F04201D1BB
:1011E00098190890324606A903A800F0B8FC03AB92
:1011F00083E807006D10641C002DE4D13246694677
:10120000B8F1000F03A802D000F081FC01E000F06B
:10121000A6FCC9E90001C9F808200AB0BDE8F087BA
:10122000EC1C05002DE9FF4F1F464FF03C0987B02D
:101230004FF00042DDE9141001F10108DDF858A07B
:1012400002EA40500390002005908346054604467C
:101250000490B969461E08988847AAF1010A0290CD
:10126000BAF1000F3BDD02982E2815D0102100F0B6
:1012700016FA00282EDB4FF0010B0599014317D019
:10128000B9F1000F0BDB4A46C11700F0F5F9054331
:101290000C43A9F1040905E0012004900BE008B11A
:1012A00045F0010501200590049820B9361D02E0A3
:1012B000049800B1361FB969089808F101088847F9
:1012C000BBF1000FAAF1010A0290C9D00999C1F837
:1012D0000080C5E70298702808D0502806D0F96928
:1012E00008988847BBF1000F14D04FE0002002900F
:1012F0000120BBF1000F049009D0B969089808F1EA
:1013000001088847AAF10109B9F1000F07DCF96962
:10131000089888476FF001000BB0BDE8F08F2B28CC
:1013200004D02D280CD14FF0FF300490B9690898F3
:1013300008F101088847A9F10109B9F1000FE6DDBC
:10134000411CE4D00A2100F0AAF90028DFDB029951
:1013500008F1010801EB810100EB41000290B9693D
:10136000089888470A2100F09AF9099AA9F1010919
:10137000B9F1000FC2F8008001DD0028E7DAF96951
:10138000089888470499029800FB016655EA040012
:1013900004D004F04041090002D006E0039898E030
:1013A000A40044EA9574AD00B61E04F000410800A4
:1013B00002D16D196441761E159810F0240F03D0E8
:1013C0004FF00B095C4803E04FF028096FF07D00F7
:1013D0008246564507DAAAEB06018944B9F1410F66
:1013E00001DD4FF0410901200021A9F1010200F0C7
:1013F00043F9024628400B462140084301D0012111
:1014000000E00021501E029143F1FF3128402140AD
:10141000084301D0012000E000200299834651EAF0
:101420000B014FD0002108464FF00000039900F453
:10143000400039B100EB80004FF4400100EBD07068
:1014400001EA60008015012802DD4FF0FF3000E066
:1014500013D0401C36D0029860B3BBF1000F0CD102
:101460004A460120002100F007F9284021400843A6
:1014700001D0012000E00020E0B101204A46002117
:1014800000F0FAF8034640190A4661412D1A8C41D2
:1014900011D3B9F1400F09DD159810F0240F02D0D7
:1014A000AAF1340603E0AAF1170600E0761C002535
:1014B0004FF0004406E05B1E42F1FF3220EA0305D4
:1014C00021EA0204CAF10100B04206DA1B4903987E
:1014D00008430190002000900EE0039AC4F3D3214A
:1014E000E80A0A43164940EA44500A433146CDE926
:1014F0000002684610F0DCFC159810F0240F0BD0A9
:101500001598C00715D13868DDE90012031D3B604E
:101510000068C0E900120CE002A8694610F06CFCFB
:101520001598C00705D13868029A011D3960006816
:1015300002604046F0E6000002FCFFFF0000F07F82
:101540000000F03F2DE9FF4F92461D4685B04FF059
:101550000041DDE9124BDDE914727F1E01EA4B50B8
:10156000414940F0FF4940EA0108002122F02000F3
:101570004928049102D04E2828D04CE03BA00126F7
:1015800007C88DE80700A9690698641C88477F1E74
:10159000014606D41DF8060018B121F02001814251
:1015A0000BD0E96906988847032E34D0082E32D034
:1015B0006FF0010009B0BDE8F08F761C032E01D05A
:1015C000082EE0D1601CCAF80000DCE7A969069883
:1015D000641C88477F1E2AD420F02000412826D191
:1015E000A9690698641C88477F1E20D420F020003B
:1015F0004E281CD1A9690698641C88477F1E48F4B0
:10160000002849F48009CAF8004001D4282806D0EF
:10161000E969069888475FEACB7012D022E0A96991
:101620000698641C88477F1E01D4002803DAE96904
:1016300006988847BCE72928F1D1641CCAF8004005
:10164000E9E71BF0240F07D028680499031D2B60DD
:101650000068C0E9001805E02868021D2A600068DB
:10166000C0F800902046A5E70000F07F494E4649AB
:101670004E49545900000000B2F120030AD5C2F1CE
:10168000200301FA02F120FA03F300FA02F041EA22
:101690000301704700FA03F14FF0000070473A2849
:1016A00000D2303820F02002412A01D3A2F13700C5
:1016B000884201D34FF0FF30704720F07F4C80EA22
:1016C000030023F07F47ACEB070303F57C5300F0E6
:1016D000004003F1FF032DE980494FEA154B09B49F
:1016E0004FEA144325EA0B4E24EA03480FF204267E
:1016F00006EB132749083E785FEA320203FB0667D0
:10170000C7F5000707FB06F64FEA54374FEAD646FF
:1017100006F1020607FB066CCCF1005C4FEA1C47A1
:101720002CEA074C07FB06F40CFB06F504EB154608
:101730004FEA961634BF00204FF000404FEAD137F1
:1017400006FB07FC4FEA1C4C0CFB0BF7D21B03FB00
:101750000CF761EB07010CFB0EF7B0EB074072EBE7
:1017600017420CFB08F734BFA2EB0742B2EB07426B
:1017700061EB17414FEA0C444FEA910706FB07FC67
:101780004FEA1C4C0CFB0BF7B0EBC74072EB573227
:1017900003FB0CF734BFA2EBC742B2EBC74261EBCD
:1017A00057310CFB0EF7B0EBC70072EB57720CFB16
:1017B00008F734BFA2EBC702B2EBC70261EB577167
:1017C000039F4FEA816141EA921104EBCC044FEA96
:1017D000D1374FEA826206FB07FC42EA90124FEAD9
:1017E00080604FEA1C4C0CFB0BF7D21B03FB0CF781
:1017F00061EB07010CFB0EF7B0EB074072EB1742F1
:101800000CFB08F734BFA2EB0742B2EB074261EBD7
:1018100017414FEA8C554FEA910704EB9C2406FBD5
:1018200007FC4FEA1C4C0CFB0BF7B0EBC74072EB0C
:10183000573203FB0CF734BFA2EBC742B2EBC742EF
:1018400061EB57310CFB0EF7B0EBC70072EB577230
:101850000CFB08F734BFA2EBC702B2EBC70261EB87
:10186000577115EB4C254FEA816141EA92114FEA1D
:1018700082624FEAD13742EA901206FB07FC44F13C
:1018800000044FEA80604FEA1C4C0CFB0BF7D21BA4
:1018900003FB0CF761EB07010CFB0EF7B0EB074005
:1018A00072EB17420CFB08F734BFA2EB0742B2EB16
:1018B000074261EB174115EB1C154FEA813141EAF4
:1018C00092414FEA823242EA90424FEA80304FEA38
:1018D0000C7644F1000448EA03434EEA0B484FF00B
:1018E000000EB2EB080C71EB030724BF62463946C9
:1018F0004EEB0E0E4FF0000B0018524149414BEBDE
:101900000B0BB2EB080C71EB03077BF1000B24BF50
:10191000624639464EEB0E0E4FF0000B0018524156
:1019200049414BEB0B0BB2EB080C71EB03077BF15E
:10193000000B24BF624639464EEB0E0E51EA0207F9
:1019400018BF46F0010616EB0E7655F1000254F171
:10195000000103D5BDE88901BDE80088BDE8890123
:10196000BDE80048B619524141EB0101A3F1010362
:10197000704780807F7E7D7C7B7A797877767675FC
:101980007473727171706F6E6E6D6C6C6B6A6A6974
:101990006868676666656464636362616160605F0E
:1019A0005F5E5E5D5D5C5C5B5B5A5A595958585787
:1019B00057565655555554545353525252515150EF
:1019C00050504F4F4F4E4E4D4D4D4C4C4C4B4B4B42
:1019D0004A4A4A4949494848484747474746464688
:1019E00045454544444444434343434242424241C3
:1019F0004141000046EA0646A3F570534FEA1646F9
:101A000046EA42564FEAD22242EA415210B54FEA24
:101A1000D121A3F1010300F017F820F0004000F1FC
:101A2000010C00F0004701EB00501146BCF5006FBF
:101A300040EA070000D210BD02484FF0000140EA22
:101A4000070010BD0000F07F002B26D4770021D0C6
:101A50001CB54FEA370703B44FF010004FF01001E8
:101A60004FF000000FBCBDE810400BF1010BBBF1C3
:101A7000010F08BF5FEA170722BF12F1010211F13F
:101A800001014FF0004143F1000300F0004043EA40
:101A900000007047F9D35708DAE746EA064613F123
:101AA000400F4FEA16461FDD13F1200FDFBF16432C
:101AB0000A46002120335B42C8D0C3F1200746EA22
:101AC000064602FA07F74FEA164646EA0706C3F14A
:101AD000200722FA03F201FA07F721FA03F14FF087
:101AE000000342EA0702B1E746EA020646EA064672
:101AF0004FEA164646EA0106BCBF46EA0646360CE1
:101B00004FF000034FF000024FF000019EE72DE977
:101B1000C048934630B491E8380007C831EA400C19
:101B200048BF34EA430C03D5FFF7C7FDFFF78CFF2E
:101B3000F0BCBDE800882DE9C048934630B491E878
:101B4000380007C831EA400C48BF34EA430C03D5DB
:101B5000FFF7B3FDFFF74EFFF0BCBDE800882DE9AD
:101B6000C048934630B491E8380007C810F0804F61
:101B700008BF13F0804F03D100F019F8FFF764FF9E
:101B8000F0BCBDE800882DE9C048934630B491E828
:101B9000380007C810F0804F08BF13F0804F03D102
:101BA00000F005F8FFF726FFF0BCBDE8008820F044
:101BB0007F4780EA030023F07F4C07EB0C03A3F57B
:101BC0007C5300F00040A3F1FE0392F0000F00F000
:101BD000B38095F0000F00F077802DE901494FEABE
:101BE00011404FEA144621EA004800FB06FC24EAB3
:101BF000064708FB06F607FB08F800FB07F718EB9B
:101C000006484CEB164C4FEA124B18EB07484FEACC
:101C100015464CEB174022EA0B4E0BFB06FC25EA5F
:101C200006470EFB06F607FB0EFE0BFB07F71EEB47
:101C3000064E4CEB164C4FF000061EEB074E4CEBDD
:101C4000174B18EB0B0840F1000018EB0E0B58EB8C
:101C5000000840F100008F1A4FF000013CBFC9435B
:101C6000661B14BFB5EB040C00213CBFC943F61B37
:101C70004FEA17444EEA8E0E27EA04454FEA1C4706
:101C800004FB07622CEA074C05FB07F70CFB05F683
:101C900004FB0CFC16EB074642EB174216EB0C4616
:101CA00042EB1C421BEB060658EB0202414146EA9E
:101CB0009E0601D5BDE80189B619524141EB0101EB
:101CC000A3F10103BDE801894FEA14454FEA11472A
:101CD00024EA054621EA074C05FB07F406FB07F753
:101CE0000CFB06F105FB0CFC11EB074144EB174420
:101CF0004FEA124711EB0C4144EB1C4422EA074C1B
:101D000005FB07F206FB07F70CFB06F605FB0CFCD0
:101D100016EB074642EB174216EB0C4642EB1C450E
:101D20006A1854F1000148BF7047B619524141EB9F
:101D30000101A3F10103704795F0000F37D04FEA7E
:101D400011424FEA144721EA024624EA074C02FBFB
:101D500007F106FB07F70CFB06F402FB0CFC14EB87
:101D6000074441EB17414FEA154714EB0C4441EB94
:101D70001C4125EA074C02FB07F506FB07F70CFBA5
:101D800006F602FB0CFC16EB074645EB174516EB77
:101D90000C4645EB1C42121951F1000148BF704737
:101DA000B619524141EB0101A3F1010370474FEA1B
:101DB00014454FEA114724EA054621EA074C05FB82
:101DC00007F106FB07F70CFB06F24FF0000605FBD8
:101DD0000CFC12EB074241EB174112EB0C4251EBAA
:101DE0001C4148BF7047921841EB0101A3F1010368
:101DF0007047002800DC4042704700BFFEE770B526
:101E000006460C4604F08000802808D104F07F00CC
:101E100000EB800106F58E7000EBC10507E004F0D1
:101E20007F0000EB800106F55D7000EBC10504F05A
:101E30007F00287004F08000C00968702946304691
:101E400008F05CFA002070BD70B506460C4604F040
:101E50008000802808D104F07F0000EB800106F5A7
:101E60008E7000EBC10505E004EB840106F55D70A2
:101E700000EBC1050020A87004F07F002870C4F3B7
:101E8000C01068702946304608F010FA002070BD76
:101E900070B505460C4604F08000802805D104F09A
:101EA0007F01284608F024FC02E0284608F0FAFBEF
:101EB000002070BD2DE9F04106460D4690461F46B4
:101EC00005F08000802808D105F07F0000EB80013C
:101ED00006F58E7000EBC10407E005F07F0000EB13
:101EE000800106F55D7000EBC10405F07F002070F5
:101EF00005F08000C0096070C4F80880E770607861
:101F000008B12078E080022F01D100202071214605
:101F1000304608F07FF90020BDE8F0812DE9F0415E
:101F200005460E461746984606F07F0000EB8001F6
:101F300005F55D7000EBC104E760C4F81480002073
:101F4000A061607006F07F002070E878012800D161
:101F50002761207820B92146284608F07FF803E061
:101F60002146284608F02BFA0020BDE8F08108B58C
:101F700000220092009A61F30A120092026912682C
:101F8000009B1A4303691A6008BD70B506460C46EB
:101F900004F08000802808D104F07F0000EB80016D
:101FA00006F58E7000EBC10505E004EB840106F533
:101FB0005D7000EBC1050120A87004F07F0028705F
:101FC000C4F3C01068702946304608F0C6F90020F6
:101FD00070BD2DE9F04107460D461646984605F0BE
:101FE0007F0000EB800107F58E7000EBC10401203B
:101FF000607005F07F002070E66026610020A0611F
:10200000C4F81480207820B92146384608F026F814
:1020100003E02146384608F0D2F90020BDE8F081FF
:102020001CB50446204607F0E4FFE068C068009055
:10203000204608F087FB03280BD10020A0704FF446
:102040000070A080009820F4705000F510500090AF
:1020500009E00120A0704020A080009820F470507A
:1020600000F5A05000900098E168C8600020019041
:10207000019820F4005000F5005001900198E168AB
:10208000486101201CBD0000F8B505460024002071
:102090000090284608F095FB064690E006F0010007
:1020A00000287DD0E1B2284600F002FB00900098A5
:1020B00000F0010030B3012000FA04F72869406BFA
:1020C000B8432969486300200090009820F001007F
:1020D000401C009005F1180050F824000099816020
:1020E000E1B239480068426828469047E8780128FC
:1020F00008D13CB940F21110405D042802D12846B5
:1021000008F057F80098C0F3C00060B100200090BC
:10211000009820F008000830009005F1180050F8F1
:102120002400009981600098C0F3001060B1002085
:102130000090009820F010001030009005F1180079
:1021400050F82400009981600098C0F3801060B1BD
:1021500000200090009820F040004030009005F1F1
:10216000180050F82400009981600098C0F34000E6
:1021700060B100200090009820F00200801C0090C8
:1021800005F1180050F82400009981600098C0F310
:10219000C01028B12146284600F09EFA002000E039
:1021A0000BE00090009820F080008030009005F156
:1021B000180050F8240000998160641C7608002EF5
:1021C0007FF46CAF0120F8BD6C0100207CB50446A3
:1021D000002500200190204608F0FBFA06466FE03B
:1021E00006F00100002869D0E9B2204608F0F9FAAB
:1021F0000190019800F00100C8B3002001900198FF
:1022000020F00100401C019004F1540050F825001A
:1022100001998160E078012817D104F1540050F849
:1022200025000069009005EB850104F55D7000EB69
:10223000C10080680099C1F31201411A05EB8502C3
:1022400004F55D7000EBC2008161E9B21E480068D0
:10225000026820469047E078012808D13DB940F255
:102260001110005D052802D1204607F0A2FF019859
:10227000C0F3400060B100200190019820F00200FE
:10228000801C019004F1540050F8250001998160F0
:102290000198C0F3C00088B10B48006881682046EF
:1022A000884700200190019820F008000830019034
:1022B00004F1540050F82500019981606D1C7608E6
:1022C000002E8DD101207CBD6C0100203EB504465E
:1022D000A07A70B1D4F80C010090009820F00200B0
:1022E0000090009820F0010000900099D4F80C01B3
:1022F000016000200190019820F00100401C019035
:10230000206940680199884321694860084800684D
:1023100081692046884700200290029820F0004002
:1023200000F1004002900298E168486101203EBD42
:102330006C0100207CB5044600200190019820F03B
:10234000100010300190E068806901998843E168CD
:102350008861E068006A0090009800F00F0000EBD0
:10236000800104F55D7000EBC1050098C0F34340A7
:1023700007282DD2DFE800F02C04051D1E2C1F00BD
:1023800027E00098C0F30A1090B10098C0F30A1239
:102390002046E96808F02FFAE8680099C1F30A11AD
:1023A0000844E860A8690099C1F30A110844A861CB
:1023B0000FE00EE00DE0082204F2CC51204608F0B8
:1023C0001AFAA8690099C1F30A110844A86100E04B
:1023D00000BF00BFE068806901990843E168886137
:1023E00001207CBD38B5044608480068C168204615
:1023F000884700200090009820F0080008300090E6
:102400000098E1684861012038BD00006C0100209F
:102410001FB50446002000904FF48970005D0090C5
:1024200023480068416920468847206980680190F8
:1024300000200390039820F4006000F500600390F2
:102440000398E1684861A07A70B3019800F0010038
:1024500050B340F21510005D012825D19DF8000011
:10246000032821D100200290029820F00100401C96
:102470000290D4F80C01006802990843D4F80C11BA
:102480000860029820F00200801C0290D4F80C0131
:10249000006802990843D4F80C11086005480068E8
:1024A00040F0060003490860012004B010BD0000A0
:1024B0006C01002010ED00E030B587B0044600202C
:1024C000029006900590049003900190029820F0ED
:1024D0000100401C029020694068029988432169EC
:1024E00048600021204608F003F900250BE0FF2199
:1024F00004F1180050F82500816004F1540050F8F0
:10250000250081606D1C6078A842F0D84FF0FF3143
:102510002069816106986FF30F00401C06900698B1
:1025200080B200F58030069006992069C161059857
:1025300020F0080008300590059820F00100401CAC
:102540000590059820F00200801C059005992069EF
:102550004161049820F00100401C0490049820F090
:10256000080008300490049820F00200801C0490B9
:10257000049920690161206900680390039820F4A0
:10258000FE600390039920690160204607F011FE68
:1025900000200190019820F4805000F580500190B7
:1025A0000198E1684861044800680169204688474D
:1025B000012007B030BD00006C0100202DE9F04182
:1025C00006460F463946304608F02AF901214FF4F5
:1025D000897081550021801C8155002511E005EB93
:1025E000850106F58E7000EBC10401206070257036
:1025F000E5800020E0704020A0600020E060606185
:102600006D1C7078A842EAD8002510E005EB850122
:1026100006F55D7000EBC104002060702570E58058
:10262000E0704020A0600020E06060616D1C707868
:10263000A842EBD8304607F0CBFC304607F0F8FA5A
:102640000021304608F054F9304607F084FB30464C
:1026500008F017F8BDE8F08138B504460020009076
:1026600007480068C16920468847009820F4801018
:1026700000F5801000900098E1684861012038BDA5
:102680006C01002038B5044600200090074800681F
:10269000016A20468847009820F4001000F50010D9
:1026A00000900098E1684861012038BD6C0100206D
:1026B00030B5024615692B6915696C6B24FA01F572
:1026C00005F0010543EAC51302F1180555F821503C
:1026D000AD6805EA030030BD2DE9F84307460E4614
:1026E00000250020009006EB860107F58E7000EBB8
:1026F000C104D4E90501451AA068A84200D2A56822
:10270000E81C4FEA900807F1180050F8260080698D
:1027100000901BE0D4E90501451AA068A84200D248
:10272000A568E81C4FEA9008ABB2F2B23846E168FF
:1027300008F005F9E0682844E060A0692844A06139
:1027400007F1180050F8260080690090009880B2C8
:10275000404506D9D4E90510884202D260690028B4
:10276000D8D10120BDE8F883F0B500210022002374
:10277000002400250026DFF8A0C00768CCF81470FC
:102780006746BF696FF30D07CCF818706746BF69DD
:10279000D0F804C047EA0C07DFF87CC0CCF818700A
:1027A00067467F6ADFF874C007EA0C07DFF868C085
:1027B000CCF82470C768390107693A02878A3B045C
:1027C000077E3C066746D7F824C087680F43174347
:1027D0001F4327434CEA070C0F4FC7F824C0BF6ABA
:1027E00007F07F47DFF830C0CCF82870076A3D0259
:1027F000878C3E046746D7F828C0C7692F43374304
:102800004CEA070C044FC7F828C0DFF80CC0876AF1
:10281000CCF83070F0BD000000B00240C000FC00F9
:102820000021016041608160C1600161416181619D
:10283000C1610162416281627047000000B5A1B0D0
:102840000121C80505F026FA00F036F84FF40030F3
:1028500017900220189015481D9000201A9019908A
:102860001B901C901E90E0201F904FF461702090F0
:1028700017A800F0B3F80CA800F096F80C480C90DC
:1028800000200E9011900CA800F032F801A8FFF77C
:10289000C7FF084801900020039001200690FF2008
:1028A000079001A8FFF760FF21B000BD00D449D018
:1028B00000EA24D0000000D010B50121C80505F0C1
:1028C000F9F900214FF4000005F0F4F910BD000003
:1028D00010B500F0F5F800BF022000F073F80028F2
:1028E000FAD03F200149886010BD000000B00240CE
:1028F000F0B5002100220023002400250026DFF887
:10290000A0C00768CCF80C7067463F696FF30D07ED
:10291000CCF8107067463F69D0F804C047EA0C074E
:10292000DFF87CC0CCF810706746FF69DFF874C030
:1029300007EA0C07DFF868C0CCF81C70C7683901DB
:1029400007693A02878A3B04077E3C066746D7F848
:102950001CC087680F4317431F4327434CEA070CEB
:102960000F4FC7F81CC03F6A07F07F47DFF830C041
:10297000CCF82070076A3D02878C3E046746D7F882
:1029800020C0C7692F4337434CEA070C044FC7F8F0
:1029900020C0DFF80CC0876ACCF82C70F0BD0000B6
:1029A00000B00240C000FC00002101604160816075
:1029B000C160016141618161C16101624162816205
:1029C0007047000001460020034A52680A400AB1DD
:1029D000012000E00020704700B0024070B50021E7
:1029E000002200230024344D2D68344E3540324EF1
:1029F000356035462D68066835432F4E35603546BF
:102A00006D6B25F00705756335466D6B466835437C
:102A1000294E7563456835B9C5682902058A2A04B7
:102A2000057D2B0621E04568012D05D1C5682902E9
:102A3000058A2A04002318E04568022D05D1C568DF
:102A400069010569EA0200230FE04568032D06D1FC
:102A5000C56869010569AA024569EB0305E0C56817
:102A6000290105692A0245692B0341EA02058668A6
:102A700035431D43104EB66B35430F4EB563856924
:102A8000F56335462D6C6FF30D05356435462D6CB9
:102A9000C6693543084E3564858C2C0435466D6C0B
:102AA00005F04045756435466D6C066A264335432E
:102AB000014E756470BD000000B00240FCE0FCFFF8
:102AC0000348006840F001000149086070470000B9
:102AD00000B002407047000008B500200090054893
:102AE000009002E00098401E009000980028F9D164
:102AF00008BD000040420F0010B502460020002330
:102B0000102A03D14FF02044636E0FE0B2F5807FAE
:102B100002D10A4C236809E0B2F5805F03D1074C6B
:102B20002034236802E0054CD434236803EA01040E
:102B30008C4201D0002000E0012010BD840000A0E4
:102B40000021D0E900231A4383685B1E42EA431246
:102B5000C36842EA4321014A11607047500100A056
:102B600070B50021002200230024D0E9015635432E
:102B7000C66835430669354346693543866935433A
:102B8000C6693543066A3543466A45EA0601056863
:102B900035B90568AD00A5F1C045C5F840110DE097
:102BA000D0E907563543466A45EA0603294D2B60AE
:102BB0000568AD00A5F1C045C5F84011056835BBF5
:102BC000856A2D686D1E866A7668761E45EA061649
:102BD000856AAD686D1E46EA0526856AED686D1E3C
:102BE00046EA0536856A2D8A6D1E46EA0546856ADF
:102BF000AD8A6D1E46EA0556856A2D7E6D1E46EA33
:102C00000562144D0835066845F8262020E0856ADF
:102C10002D686D1E866A7668761E45EA0616856AF8
:102C2000AD686D1E46EA0526856A2D8A6D1E46EA48
:102C30000542856AED686D1E2E03856AAD8A6D1E9C
:102C400046EA0554034D08352C60066845F82620F1
:102C500070BD0000400100A00449096841EA40013C
:102C60004FF02042C2F8541170470000540100A0F8
:102C700099B1102808D14FF02042126E42F00402A0
:102C80004FF020431A661BE00E4A126842F004021D
:102C90004FF02043C3F8802012E0102808D14FF0F5
:102CA0002042126E084B1A404FF020431A6607E08C
:102CB000044A1268044B1A404FF02043C3F88020A6
:102CC00070470000800000A0FBFF0F0030B500211E
:102CD00000220023446844F0080485682C43C5683A
:102CE0002C4305692C43456944EA4524856944EA37
:102CF0004531C4692468C5696D6844EA0524C5691D
:102D00002D8944EA0544C5692D7B44EA0562046ABD
:102D10002468056A6D6844EA0524056A2D8944EA39
:102D20000544056A2D7B44EA05630468102C05D12F
:102D30004FF020442166A266E36608E0044C21605F
:102D40004FF02044C4F88820014C0C34236030BD7F
:102D5000800000A02DE9F0430446C56887B0904686
:102D60008946002002F05CF8064625B1287910B1AA
:102D700046F0020001E026F0020002F051F820695E
:102D8000012558B1D4E902128DE826000395638825
:102D90002288046841464846A0471EE0124F134B64
:102DA000214638681B68427CE068984730B9E08863
:102DB000012801D0002001E03868806BA288E388F8
:102DC000A1680095CDE90410CDE902320195638830
:102DD00022884146484603F03BFB07B03046BDE839
:102DE000F04302F01DB800007C02002074020020B5
:102DF0001CB50024019401AC009400F0E7F81CBD60
:102E00002DE9FF4F83B0814606988A46A0EB0A0859
:102E1000109E00200090A2EB09043568934654EA06
:102E2000080018D02046FEF7E4FF07464046FEF7AC
:102E3000E0FF87420BDA2046444680464846D146AA
:102E400082465846DDF818B0069001200090002C0C
:102E500007DD204606E007B04846BDE8F04F00F029
:102E60003BB96042A0420AD04846D9466442C8F104
:102E7000000883464FF0FF37DDF818A000E0012777
:102E80005148B8F1000F11D004EBD4714FEA610B37
:102E900001DACBF1000B4C480068807E88B3002F2C
:102EA00002DA30682044306000257BE00099002978
:102EB000016821D0897E11B10027804615E007B056
:102EC0005A4649465046BDE8F04F03F023BC284619
:102ED0006D1C0DF089F838B9D8F8000009EB07012E
:102EE000406E4268504690477F1CA742EFDD6D1E42
:102EF000356007B0BDE8F08F8A7E1AB100278046A2
:102F000017E019E0486E5A465146036807B0484634
:102F1000BDE8F04F184728466D1C0DF065F838B92C
:102F2000D8F8001009EB0700496E4A6851469047EF
:102F30007F1CA742EFDDDAE700250FE008FB05B0B4
:102F400090FBF4F101EB0A00009951B11E4A09EB24
:102F500005011268526E526890476D1CA542EDDD66
:102F6000C7E7194909EB05030968496E4A68014634
:102F70001846F1E708FB05B090FBF4F101EB0A00FD
:102F800001903068384430600DF02EF848B9009850
:102F900090B10D4809EB05010068406E4268019848
:102FA00090476D1CA542E5DD3068002F01DA204412
:102FB0003060C01B30609CE7034909EB05000968DD
:102FC000496E4A680199EBE77C0200202DE9FF4732
:102FD0000F4640491646804609680C981D460A7EF1
:102FE000012A1CD0A8EB0600791B50EA01031CD073
:102FF000A2F101090EF066FF00F58060824603F041
:10300000B5F800FB09F4504603F0B4F800FB09F1F1
:10301000002C0CDAC4F50070801240420AE00090E7
:10302000324639464046FFF7EBFEBDE8FF8704F520
:103030000074A012002904DAC1F5007189124C4213
:1030400002E001F500718C12002804DD411C01EB47
:10305000D171491003E000EBD0714910401E00EB24
:10306000D0704210002C04DD601C00EBD0704010CA
:1030700003E004EBD4704010641E04EBD47308EB3F
:103080000104ADF800403C18ADF80240A8EB020482
:103090005B10B21AADF80440ADF808203144FC1AB8
:1030A000EA1AADF80C102844ADF80A20ADF80E006D
:1030B0000023ADF806401A460421684600F08CF85B
:1030C000394640460BF076FA294630460BF072FA44
:1030D000ABE700007C020020064A13681A7E012A32
:1030E00005D0521E02EBD272521000F005B85A6E93
:1030F000526810477C0200202DE9F05F06468846A2
:1031000040F2C32002FB00F14FF47A7091FBF0F71C
:1031100002FB02F102EBD27001EB600B1446B11816
:10312000234A301B7F1C1268526E13680A464146C0
:103130009847012538E000BF05FB05F004FB0401BA
:1031400059451CDDBC4219DD194B06EB050AA6EBFF
:1031500005091B68AAF1010208EB04015B6E09F185
:1031600001001B689847124BAAF10102A8EB040169
:103170001B6809F101005B6E1B689847641E0C4BCD
:103180003219301B1B68924608EB05015B6E8146C5
:103190001B689847064B5246A8EB05011B6848463A
:1031A0005B6E1B6898476D1CBD42C5DDBDE8F09F96
:1031B0007C02002070B514460E4605460119001B1E
:1031C00000F01CFC2246314628460BF0A5FBBDE86A
:1031D000704000F02DBB00002DE9FF4F43F6FF7457
:1031E0000F46664283B09B46814600210BE000BF3C
:1031F00009EB8100B0F90200A04200DA0446B042B7
:1032000000DD0646491CB942F2DB674800684069A8
:1032100000280DD0B0F906101A46A1EB0B01B142FF
:1032200000DA0E46B0F90200801AA04200DD044622
:10323000B4E0DFF878A100200546CAF8000088E075
:10324000781E854201DA6B1C00E0002309EB850C37
:1032500009EB8302BCF90200B2F90210A04244D18A
:10326000A14215D139F92330059A39F9251003EB1C
:10327000020C4D4A05981268084404EB0B01526E8B
:103280006045136801DA62462AE00246604627E09C
:103290002846A4464FF000087A1E0BE008B1401EF5
:1032A00000E0781E09EB8003B3F90230634504D1D6
:1032B00008F101089045F1DB2346A34248D01A1BD0
:1032C00039F92500A1EB040C059B92EA0C0F09D4F7
:1032D000354A184404EB0B011268526E136802461B
:1032E000984735E008F01EFE32E0A14230D001DB05
:1032F000A04203DDA0422BDBA14229DCE04688424C
:103300000ADC0346A04223DC0846A14220DBB8F9D0
:1033100000C0B2F9001008E00B46A14218DCA04240
:1033200016DBB2F900C0B8F90010E21AA1EB0C01EB
:1033300051430029A0EB030202DD01EB620102E030
:10334000A1EB6201491CC01A91FBF0F06044C9E78F
:103350006D1CBD42FFF674AF0598009004EB0B00A6
:10336000019000208046054613E01149B8F1000F96
:1033700031F915A009D0009901EB0A0208440A4965
:103380000968496E0B680199984788F00108504612
:103390006D1C064909688D42E7DB641CB4427FF767
:1033A00048AF07B0BDE8F08F7C020020800300200A
:1033B000F408012010B5002001F016FD6FF07F40E9
:1033C00001F01DFD012001F083FD002001F08EFDC4
:1033D000002001F09BFD002001F022FD0448006860
:1033E00001F02AFDBDE81040002001F035BD0000CD
:1033F00078020020F0B50A4600210023002400BF17
:103400003DE0012505FA01F3156805EA03049C4235
:1034100034D105684F000326BE40B54305601579D9
:103420004E00B5400668354305601579012D02D080
:103430001579022D16D185684F000326BE40B5438D
:10344000856055794E00B54086683543856045688E
:1034500001268E40B5434560456896798E40B6B2E8
:1034600035434560C5684F000326BE40B543C5607F
:10347000D5794E00B540C6683543C560491C102952
:10348000BFD3F0BDF0B5002300244D07ED0E02FAC6
:1034900005F3CE1000F1200555F826504E07F70E23
:1034A0000F26BE40B543CF1000F1200646F8275046
:1034B000CE1000F1200555F8265045EA0304CE1041
:1034C00000F1200545F82640F0BD41837047018397
:1034D000704700002DE9F04FDFF828B191B04FF0B0
:1034E000FF35DBF80030B3F922100691DE69B3F93D
:1034F0002490F469A189814206D8E289824203D3EB
:10350000471AD4F8008012E0D4E9018100296FD075
:103510000A8882426CD84D88854269D3801A82B26B
:10352000486800EB8200B0F90070B0F90250781CD6
:103530005ED0307EA17C10FB01FA217CCDE9070131
:10354000B3F92A60304603F04DFCC0B20E90DBF8B0
:10355000000007FB0A81A37C826B0127CDE90412DE
:10356000CDE90273C069089AC17E807ECDE9000171
:10357000DDE90603494602F06BFF681C18D046F0EF
:10358000020003F02FFCDBF80000A37C05FB0A819E
:10359000826BCDE90273CDE90412C069089AC17E3D
:1035A000807ECDE90001DDE90603494602F050FFC7
:1035B000DBF800005D46C069417E007E814214D97F
:1035C000022E12D086F0040003F00CFC2868C069BB
:1035D000027EC37E12FB0391437E857E089A069885
:1035E0004B4412FB050203F0BFF80E9803F0FAFB00
:1035F000DBF80000627C418C1144418411B0BDE8CD
:10360000F08F00007C02002004480068C069C06997
:1036100009B1027C0A60407C704700007C020020F7
:10362000022008807047C06982898A4202D8C28914
:103630008A4210D2806880B102888A420DD84388BD
:103640008B420AD3406800EB8100A0EB8200B0F906
:103650000000002801DB01207047002070470000B7
:103660002DE9F3411C4E0F46002530682C46C069F9
:10367000417EC07E11FB00F81DE0684601F0D0FCE1
:10368000054630682946C069C06900F04BF890B122
:1036900041680088281A00EB400001EB800090F997
:1036A0000210007908443168C969897E10FB01F075
:1036B000002800DD04447F1EDFD51DB1284602F03E
:1036C000D5FB04444146204608F028FD034901206B
:1036D0000870BDE8FC8100007C0200207803002017
:1036E0002DE9F3410D4D0E4F0E462868B0F92A40E2
:1036F000A0070AD17A680098904706E0684601F072
:103700008FFC2968C96909688847761EF6D50020AC
:10371000387028684485BDE8FC8100007C020020E8
:103720007803002006E002888A4202D842888A4252
:1037300002D280680028F6D1704700000149486035
:10374000704700007803002070B50025124C19E086
:1037500020691249C5EB051600EBC6007022096806
:10376000001DFCF785FF2069002140F8361000EBB2
:10377000C60000F10C018161011D0A1DC0E90F1294
:103780006D1C4164A0688542E2DB00F0CBFDBDE822
:10379000704001F06DBD0000940300207C02002009
:1037A00070B50F490D480860084602F093FC0C4CB8
:1037B000143CA068C0EB0010C500284600F0A0F93A
:1037C0002A460021206102F08DFC4FF0FF3020607E
:1037D00001F0D5FEBDE870400BF0BABFE5FB000874
:1037E000A80300202DE9F0411C4615460E46074669
:1037F00000F098FD07F09CFF074407F0A7FF064480
:1038000007F096FF054407F0A1FF0444002007F0ED
:10381000C9FF07E023462A463146384608F020FB18
:1038200007F066FF0028F5D1BDE8F04101F020BDAA
:1038300010B50BF0CDFB0448016A044800684166EE
:1038400000F10801416110BD040200207C0200204B
:103850007CB514460D46064600F064FD07F068FF8F
:10386000064407F073FF05441648006890F8691095
:1038700021B990F868104E434D434C43301B00F083
:103880005DF8ADF80000301900F058F8ADF804000C
:10389000281B00F053F8ADF80200281900F04EF88C
:1038A000ADF80600684607F07DFF06E0224629468F
:1038B0003046FFF77FFC07F01BFF0028F6D101F030
:1038C000D7FC7CBD7C0200202DE9FC471C46154638
:1038D0008846814600F026FD07F02AFF054407F0E0
:1038E00035FF0444002007F05DFFF8B1114E124F80
:1038F00012213068407C57F820000190C068426A6D
:1039000001A890475FEA000C06D02B464246494684
:1039100000940198E04705E023462A464146484680
:103920000BF054F807F0E4FE0028E1D101F0A0FC10
:10393000BDE8FC877C02002094020020044909684D
:1039400091F8681009B190FBF1F000B270470000E7
:103950007C0200202DE9F041224C05460E462068ED
:10396000002788B920480068E06110B902F0ABFF79
:10397000E06100F0C5F8206080B31A491B4824318B
:103980000860084602F0A6FB19480068854200DA84
:103990000546E169731B4A1E2046934201DD6E18FD
:1039A000761EAE4201DA2E460127124C2268516E75
:1039B0004B68836301620B490F4B34310B605166D6
:1039C00002C880E8620008F095FB08F06BFB054830
:1039D00021682C3048613846BDE8F081FFE70127B7
:1039E000D2E7000004020020AC02002015FB000812
:1039F000B00200207C020020ADE40008044A1268F6
:103A000092F8682090FBF2F091FBF2F1FFF7A2BF71
:103A10007C0200200249096881F8680008F042BB76
:103A20007C0200207CB5084EDDE906543668367C01
:103A3000CDE90054B60702D40AF098FC7CBD034CD3
:103A40002468A0477CBD00007C02002030030020D9
:103A500010B5040009D000F065FC204608F0C6FA55
:103A6000044601F005FC204610BD002010BD38B50D
:103A7000054600F057FC2846FFF7EAFF040009D08E
:103A800000F0BEF82A460021009002F02BFB6846A9
:103A900000F0F4F801F0ECFB204638BD024A10605B
:103AA00021F00300506070472008012010B5040089
:103AB00016D000F037FC0B48406B10F8341059B1A9
:103AC000022909D2042101EBC4014158486808F0D9
:103AD00045FA20460CF060F9BDE8104001F0C8BB83
:103AE00010BD000060070120002805D0034AD16BFB
:103AF000016001B14860D063704700006007012099
:103B00002DE9F04104460BF015FF2848E41C24F091
:103B10000305016C2D1DA94200D90D46C46B13E0AD
:103B200054F8042CAA420ED184B1216809B162680C
:103B30004A60616809B122680A60C26BA24231D151
:103B40002168C1632EE02468002CE9D18046816B96
:103B5000C0680F1857F8040C3E1A306838B10020BE
:103B60000CF076F957F8040C3E1A3068D0B970683A
:103B7000A84217DB3044441B3046241D0CF020F9CA
:103B8000D8F80C10491BC8F80C10D8F814102944A8
:103B9000C8F814107068401B02D0314608F0DEF9F6
:103BA00044F8045C2046BDE8F08100006007012075
:103BB00010B500240BF0BEFE0C490F2001EBC00233
:103BC000526C1AB101EBC000406C08E0401EF5D504
:103BD00008E04168A14200D90C46806810B18068B5
:103BE0000028F6D1A4F10C0010BD000060070120F0
:103BF00002488169491C816170470000600701200B
:103C00000549CA69521CCA61496B01EBC0010A78B7
:103C1000521C0A7000F04AB86007012010B500F08D
:103C200081FBFFF7C5FF64220849B0F5800F04D976
:103C300090FBF2F4086A444303E0096A4143B1FB94
:103C4000F2F401F015FB204610BD000060070120D2
:103C50000549102805D94A68B0EB520F02D3500825
:103C600000E0102088607047200801200248816928
:103C7000491E816170470000600701200A490268FF
:103C80004B6B52F8082C03EBC2021378022B03D3C0
:103C9000CB690BB15B1ECB611178491E11700021FD
:103CA000016008467047000060070120002806D028
:103CB0000349042202EBC000496B085808307047E2
:103CC0006007012050F8080C704710B5C2B2CBB2A3
:103CD000D21A00D5524293B25B43C0F30722C1F31C
:103CE0000724121B00D55242000C92B2A0EB1140E7
:103CF00002FB023200B2002801DA404200B280B278
:103D000000FB002010BD10B50021084600F0DCFAD1
:103D100043F6FF725042BDE810401346014600F0E2
:103D200001B800002DE9FC411C4615460E46074629
:103D300000F0F8FA042003F055F880461248C068F5
:103D4000C16C006D0F4406440D440444ADF800708E
:103D5000ADF80450ADF80260ADF80640684607F0D3
:103D600021FD07E023462A463146384602F0FCFC96
:103D700007F0BEFC0028F5D1404603F033F801F00F
:103D800077FABDE8FC810000700200202DE9F041C7
:103D90001C4616460D460746022B02DB0020BDE8F6
:103DA000F0811C20FFF7ACFE0028F8D00DB10561B2
:103DB0000AE0094A52F8241009B905E011460A68D8
:103DC000002AFBD1096901618461868200210160BA
:103DD0004160C0E90217E2E79402002070B51D4679
:103DE000FFF7D4FF040009D000F00EF8E068006887
:103DF00020B90348006800EB85008465204670BD4B
:103E00007C020020FFF770BE70B590B38269022A71
:103E100030DA1E4C54F8221019B944F8220032E06E
:103E200019464B68002BFBD106E0CB68C5681B68C0
:103E30002D68AB4203DD09680029F6D11AE0C1B153
:103E4000CB68C6681B683668B3420CD1838A012BE5
:103E500005D008E01946DB681B68AB4203DB0B6842
:103E6000002BF7D129B14B6833B118604A68426022
:103E700004E0FFE7012070BD44F82200486088425A
:103E800000D100210160002070BD000094020020DC
:103E900010B503E00468FFF7B7FF20460028F9D10A
:103EA00010BD0CF0EDBB00002DE9F0410026DFF85D
:103EB00034800D4F354600BF58F8254009E0E068D2
:103EC0000068385C20B120460CF0DAFB26602646FC
:103ED0002468002CF3D16D1C022DEDDB3046BDE8CB
:103EE000F0810000940200204C230508022801DB29
:103EF00000207047054951F8200004E0C1680968B6
:103F00000029F6D000680028F8D1704794020020FC
:103F10002DE9F041044601F02BFB06191EE000BF1D
:103F200000F0E6F8052F00DD052700F0FBF9114849
:103F30000568FFF75DFE2C0017D000BF01F098F96F
:103F4000641EFBD1384601F003FB1DB100F0EAF915
:103F50006D1EFBD1FFF78AFE01F08AF901F008FB24
:103F6000371A002FDCDCBDE8F081384601F0F0FAAA
:103F7000F0E70000A00300202DE9FC4706005FD019
:103F800000F0D0F900F04AF93C4C81462068B0F9C5
:103F9000228000F06BF9216807468A8CD01B888448
:103FA00041E000BF47F6FF71304601F035FF824621
:103FB0000146304601F006FF2168054691F82C00C5
:103FC00000F00300012841D002283BD000204A8C99
:103FD000101A4884ADF800006A1E1044ADF80400C1
:103FE000888CADF80200A9F101010844ADF8060083
:103FF0006A465146304601F04BFC2168BDF802008C
:1040000088845146304601F021F8064430780A2869
:104010001ED00D281CD0BDF800002168284448841B
:10402000307818B1761C30780028BBD12068818C9C
:1040300039448184818D21F00301818501F018F9D3
:10404000BDE8FC8705EBD5704010C0E72846BEE709
:10405000206890F82C1001F0030101290BD00229EF
:1040600009D0018C418431780A29D9D1828C02EBA4
:1040700009018184D4E7A0F82280F4E77C020020C3
:1040800070B514460D46064600F04CF90548006828
:10409000458484843046FFF76FFFBDE8704001F02F
:1040A000E7B800007C0200202DE9F0411C461546CF
:1040B0000E46074600F036F90C480168C86C096DD9
:1040C000074405440E440C44002007F06BFB07E056
:1040D00023462A4631463846FEF78AFE07F008FB9B
:1040E0000028F5D1BDE8F04101F0C2B87C02002003
:1040F00010B5002400E0012400F004F80028FAD1F3
:10410000204610BD094810B50068002410B1804752
:1041100000B1012406F0B2FF00B101240448006898
:1041200010B1804700B10124204610BDA00200203C
:104130009C0200202DE9FC411C4615460E46074610
:1041400000F0F0F810480068C16C006D0F440644A0
:104150000D440444ADF80070ADF80450ADF80260B1
:10416000ADF80640684607F01DFB07E023462A46E7
:104170003146384602F0F8FA07F0BAFA0028F5D1CD
:1041800001F076F8BDE8FC817C020020034951F87B
:104190002000C1688A6A08211047000094020020AC
:1041A00010B500F0BFF802F00FFB02F0D1FB04469F
:1041B00001F05EF8204610BD10B5044600F0B2F8DC
:1041C000054800210068C0694268204690470446BF
:1041D00001F04EF8204610BD7C02002070B50C4660
:1041E000054600F09FF8064821460068C06942680D
:1041F00028469047044601F03BF8204670BD000079
:104200007C02002010B500F08DF802F0E5FA02F013
:104210009FFB044601F02CF8204610BD10B500F0BD
:1042200081F804480068C069447E01F021F8204606
:1042300010BD00007C02002070B50C46054600F061
:1042400071F82146284601F003FEBDE8704001F0F8
:104250000FB8000010B500F065F803480068047E50
:1042600001F006F8204610BD7C02002010B50024A5
:1042700000F058F80B48006890F82C1001F00C0181
:10428000042904D0082906D00C2907D103E0C0690D
:10429000047E641E02E0C069007E440800F0E8FF6E
:1042A000204610BD7C020020024951F82000006920
:1042B0000068704794020020024951F8200000690C
:1042C000406870479402002070B50D46044600F027
:1042D00029F820460BF05AFA044628460BF05EFAFD
:1042E000044300F0C5FF204670BD000010B501F08A
:1042F000FFF90A492E20087001F040F908480BF038
:10430000B5FA02F03FFB04460021084600F0B2FD7A
:1043100006F032FFFFF718FA204610BD70020020A9
:104320002C08012070B5184CE06820B101F01DF98F
:104330006168884204D001F023F901F016F9606049
:10434000E068401CE06001281CD10BF001FA054632
:104350002068854216D0002813DBFFF7A5FD014633
:104360002068C0EB0012206900EBC2025167C5EB68
:104370000511064A00EBC100011D1160406FFFF7F7
:1043800087FD256070BD0000940300207C020020A2
:104390001CB5040004D10E480068046E002C16D031
:1043A000FFF7C0FF2046FFF72BFC009044696846EA
:1043B000FFF764FC4CB12046FFF722FC01908168B6
:1043C0008968884701A8FFF759FC00F051FF1CBD20
:1043D0007C02002001490A4600F002B801F0FFFF0C
:1043E0002DE9F04387B015460C465FEA000846D039
:1043F000FFF798FF002000F013FD81462148006878
:10440000066E4046FFF7FCFB00900068806900F0F4
:10441000CFFC074640F6FF70C44204D10098B0F9C3
:104420000440B0F906500098611E0289ADF80440BE
:104430001144ADF808104189681E0844ADF80650D3
:10444000ADF80A0006F066FC6846FFF717FC01A805
:1044500007F0A8F906E02A462146404600F082FB14
:1044600007F046F90028F6D1384600F0A1FC3046A6
:1044700000F08AF9484600F0D3FC00F0F9FE07B0DE
:10448000BDE8F0837C0200202DE9FE4F984691465E
:104490008A46834600270C9EFFF744FF18481949B7
:1044A0000068407C51F82040E1680968042903D085
:1044B0002468002CF8D100E01CB9FFF717FD0400B8
:1044C0001BD0E0680121C26A20469047050011D048
:1044D0002469A0688047401C02D10B4C46F00106BD
:1044E0000096CDE9015443464A465146584600F0ED
:1044F000DFF9074600F0BCFE3846BDE8FE8F00003D
:104500007C02002094020020742B050838B50400BA
:104510001CD0FFF707FF0E480068006EA04201D1D3
:1045200000F038FC2046FFF76BFB0090406908B1B3
:1045300000F087FE00980068FFF764FC6846FFF70C
:104540009DFB2046FFF7B2FA00F092FE38BD000056
:104550007C0200202DE9FF4FDFF83891074683B039
:10456000D9F800009A468B46447C4B4800570128F6
:10457000204606DD02F0B6F90546204602F0BEF9F7
:1045800005E002F09DF90546204602F09FF9044639
:104590001FB302A901A8FFF74FFEB7F900000028DA
:1045A00000DA0020B7F902608046002E00DA00260B
:1045B00001984119B7F90400491E0BF050FA05465D
:1045C00002980119B7F90600491E0BF048FAA5EB4D
:1045D0000802841B521C641C03E04FF0000846468E
:1045E0002A46BAF1000F01D1C4F1000A002A4FDDBA
:1045F000002C4DDD10980090534631464046FFF7A1
:1046000043FF5FEA000A10D000F078F80746A042A6
:1046100006D0D9F80000806C10B1322107F098FB69
:10462000504600F0B1F8002521E05946059888472A
:10463000012007B0BDE8F08F611BB94202DA504695
:1046400000F086F83DB172194146504600F0C4F8BA
:104650005046FFF79DFE5946059888470F48016868
:1046600009B1002088475046FFF7B4FE3D44A542FB
:10467000E2DB5046FFF74AFF002000F085F8A74232
:1046800006D0D9F80000806C10B1332107F060FB30
:104690000020CEE77C020020B4020020E4030020CA
:1046A00038B505004FF0000411D0FFF73BFE284657
:1046B000FFF7A6FA0090006800698068804702F062
:1046C0008BFD04466846FFF7D9FA00F0D1FD20467D
:1046D00038BD38B504000ED0FFF724FE2046FFF7A2
:1046E0008FFA00F1180400906846FFF7C7FA00F04F
:1046F000BFFD204638BD002038BD000038B5044657
:104700000025FFF70FFE1CB908480068046E44B18D
:104710002046FFF775FA0090B0F90A506846FFF797
:10472000ADFA00F0A5FD284638BD00007C0200204F
:1047300070B505460024284607F0C0FD641C18B17A
:10474000BDE8704000F07AB8052CF4DB70BD0000C5
:1047500038B50C46050004D10A480068056E002DE6
:104760000FD0FFF7DFFD2846FFF74AFA0090B0F9B7
:104770000A10A14200DD44816846FFF77FFA00F08D
:1047800077FD38BD7C020020F8B50546FFF7CAFD6D
:10479000104E3068046ECDB10CB100F0FBFA06F09B
:1047A000ADFB2846FFF72CFA009031680D660068D3
:1047B000FFF72AFB6846FFF761FA02F09FFB02F061
:1047C000F1FA00BF00F054FD2046F8BD00F0E2FA17
:1047D000F8E700007C0200207CB515460E46040078
:1047E00004D115480068046E002C24D0FFF79AFD10
:1047F0002046FFF705FA2DB20090C58034B28480C0
:1048000002F0D0FA0098406980B1FFF7F9F9009AF8
:104810000190B2F908108180B2F90A20C28011B16A
:104820000AB10480458001A8FFF728FA6846FFF71F
:1048300025FA00F01DFD7CBD7C02002001490A46DE
:1048400000F002B801F0FFFF7FB515460C460600E8
:104850002DD0FFF767FD3046FFF7D2F940F6FF7124
:104860000190CC4203D1B0F90440B0F9065002895E
:10487000611E1144ADF80840ADF80C104189681E66
:104880000844ADF80E00ADF80A5001A8FFF7F6F99C
:1048900002A806F087FF06E02A462146304600F0CF
:1048A00049F906F025FF0028F6D100F0E1FC7FBDB4
:1048B0002DE9FF4FDFF8E8B083B01C46DBF80010AD
:1048C000DDE9106092464FF000084B7C4246129999
:1048D000FFF75CFA050060D028698068804702F025
:1048E0007BFC81460AFB09F1C91DCF08FFF796F949
:1048F000F10705D1C11700EB9170801000EB40006B
:10490000002C09DC1FB11838B0FBF7F000E00020E4
:104910006442A04200DC0446F00707D10090DDE9C4
:1049200003012346524600F011FC8046002C03DCB4
:104930002846FFF767FA30E004FB07F01830F1076C
:1049400002D0FFF785F801E0FFF791F806001CD0D0
:10495000FFF756F901900560039981800499C180A1
:10496000A0F808A04481C0F81480C0E9037901A828
:10497000FFF784F91298AE602861DBF80000407CF4
:10498000A861304607B0BDE8F08F2846FFF73AFA35
:104990005FEA080001D0FFF789F80020F2E7000085
:1049A0007C0200202DE9F74F8EB0144689460E9800
:1049B000FFF726F90990B0F908B0B0F90A6000686D
:1049C000006940680C9009A8FFF758F9564D574FF9
:1049D0002868407C57F82000C1688A6A08219047FF
:1049E0000790182801D3202007902868407C57F8AA
:1049F00020000069069003C80B904D48814201D009
:104A0000012000E000200A90002000F0BBFD0028FB
:104A10007DD1286809EB0B01B0F90C20891A491ED9
:104A2000002902DDABEB010500E05D46B0F908109E
:104A3000494505DDA1EB090189446D1A089101E0A2
:104A400000210891002D6BDDB0F90E20A119891A03
:104A5000491E002902DDA6EB010800E0B046B0F9CE
:104A60000A00A04204DD061B3444A8EB060800E05F
:104A70000026B8F1000F53DD089801900DA95F469C
:104A8000DDF830A00E980091FFF723FE774300EB8E
:104A9000870101982B4601EB800200994846CDE939
:104AA00000A1214600F04CFF0090002838D00A9861
:104AB000E8B1DDE906322946009800F013FEB0B9EE
:104AC0000698009FDA46D0F810C0BCF1000F05D060
:104AD00004235A4639463846E04708E00B993868BF
:104AE000884701C7AAF101005FEA000AF6D10099E0
:104AF0000020079ACDE90301059001200090CDE93F
:104B0000010221460346641C2A46484600E007E0AD
:104B100001F09EFCA8F10100761C5FEA0008ABD111
:104B200011B0BDE8F08F00007C020020940200204C
:104B30006F690008F8B515460E460746FFF760F89E
:104B4000009000681621C068426A00209047044621
:104B50006846FFF793F8002C03D02A4631463846C2
:104B6000A047F8BDF8B516460F46050012D0FFF76E
:104B700047F8009044696846FFF780F82846FFF739
:104B80008FFD0346082800DD2CB132463946284601
:104B90000BF096FDF8BD3246394628460BF030FF43
:104BA000F8BD10B5002821D009B30AB3B1F900400F
:104BB000B2F900309C4200DA23460380B1F902408A
:104BC000B2F902309C4200DA23464380B1F9044036
:104BD000B2F904309C4200DD23468380B1F906100F
:104BE000B2F90620914200DC1146C18010BD114689
:104BF0000A6802604968416010BD00280BD0038834
:104C00000B4403808388194481804188114441808A
:104C1000C1881144C18070472DE9FC4104460D460E
:104C200016461F46002000900190FEF7E1FF009419
:104C300001953B4632466946044800F009F8804633
:104C4000FFF714F84046BDE8FC810000834C0008E3
:104C50002DE9FE4304460D4616461F4600200090EF
:104C600001900290FEF7C4FF009402956A4639460F
:104C7000304607F017FD8046FEF7F8FF4046BDE8D6
:104C8000FE832DE9F04704460D4616461F46D5F82B
:104C90000090A046D8F80000C11932464846FBF7FC
:104CA0005CFC3046BDE8F08770B50025FFF73AFBA5
:104CB000094CD4E9002082420AD0D2E900561046BD
:104CC0000AF082FD20603146284606F049FB0125A6
:104CD00000F0CEFA284670BD840300202DE9FC4187
:104CE000154DDDE908742D68B5F90860864200DDD0
:104CF0003046B5F90C60964200DA3246824219DB42
:104D0000B5F90A608E4200DD3146B5F90E509D427C
:104D100000DA2B468B420DDB00E02C46E5682D685F
:104D200025B1042D02D02568002DF6D1CDE90074FF
:104D300001F022FFBDE8FC817C020020B0F90220D6
:104D4000B1F906309A4213DCB1F90220B0F906300D
:104D50009A420DDCB0F90020B1F904309A4207DC28
:104D6000B1F90010B0F90400814201DC0120704764
:104D7000002070470146024870220068FBF778BCAB
:104D80007C020020024970220968FBF771BC000018
:104D90007C02002010B5FFF7C5FA01F0B9FF02F060
:104DA000ADF805F0B7FFBDE8104000F061BA0000B3
:104DB00070B50B4D04462868467CFFF7B3FA022C09
:104DC00009D22046FFF792F828B128684474FFF70B
:104DD000E1FF0448046000F04BFA304670BD00006B
:104DE0007C020020D802002010B50446FFF79AFA92
:104DF000204601F0ADFFBDE8104000F039BA10B513
:104E00000446FFF78FFA204601F0DAFFBDE81040B4
:104E100000F02EBA0149886070470000700200203F
:104E200010B50446FFF77EFA204601F0DBFF04468A
:104E300000F01EFA204610BD70B50446FFF772FA66
:104E400004480068C56904B1C46100F011FA28463D
:104E500070BD00007C02002070B50546FFF762FAC5
:104E600003480068847E857600F002FA204670BD13
:104E70007C02002070B50C460546FFF753FA09483E
:104E8000224605800848048008480068417C08489C
:104E900050F82100C1680B6A29469847BDE8704068
:104EA00000F0E6B9BC020020BE0200207C02002017
:104EB0009402002070B50546FFF734FA03480068F5
:104EC000447E457600F0D4F9204670BD7C02002077
:104ED00070B50546FFF726FA03480068047E05769C
:104EE00000F0C6F9204670BD7C02002070B5044673
:104EF000FFF718FA04480068B0F92C50848500F0D8
:104F0000B7F9284670BD00007C02002070B5044649
:104F1000FFF708FA04480068B0F92A50448500F009
:104F2000A7F9284670BD00007C02002002480068F6
:104F3000002800D000477047C403002002498A6857
:104F400002B98860FFF7F2BF8403002010B50400A7
:104F50000ED0FFF7E7F920460AF04CFF20460BF091
:104F600067FB2046FEF7A2FDBDE8104000F080B9C7
:104F700010BD38B50C46050011D0FFF7D3F928460F
:104F8000FEF73EFE00908089204201D0012400E01F
:104F900000246846FEF772FE00F06AF900E0012482
:104FA000204638BD38B5054600202860064804680C
:104FB00044B12046FEF724FE009000692860684650
:104FC000FEF75CFE204638BDB003002038B5040073
:104FD0004FF000000D46086011D02046FEF710FE8D
:104FE0000090846844B16846FEF748FE2046FEF70C
:104FF00007FE0090006928606846FEF73FFE2046E5
:1050000038BD000010B5FFF78DF90449024808606B
:10501000BDE8104000F02CB998230508800200205C
:105020002DE9F041084E04460568306801682846BD
:1050300088470746306841682846884728442060EA
:105040003846BDE8F0810000800200202DE9F041E3
:105050000C4606460025064F05E038684168304694
:10506000884706440544641EF7D22846BDE8F0810F
:10507000800200202DE9F0411E46069C1746884616
:1050800005463A46A8687F1C3346D0F804C041461E
:105090002846E047641EF4D1BDE8F08170B5B0F950
:1050A0000040091BB0F904408C422CDD00F11404CF
:1050B000B0F902500069521B02FB0040CA1800EB15
:1050C000E104521ED010B0EBE10501F007034FF0F0
:1050D000FF0102F0070221FA03F0C2F1070201FA10
:1050E00002F1CEB221780FD001436D1E04F8011BEE
:1050F000002D05DDFF2229462046FBF7F6FA2C4459
:1051000020783043207070BD30400143217070BD65
:1051100010B5B0F90030B0F90240C91A00F114031B
:105120000069121B02FB003000EBE10001F00703F5
:1051300002788021D9400A43027010BDB0F90610F0
:10514000026951431430FBF7FABA00002DE9F84325
:10515000804602F10F000011470003FB07F01C46D8
:10516000154689461430FEF782FC060018D0FFF77A
:10517000D9F83046FEF744FD0090A0F80080A0F872
:1051800002908580C4800749816001218181076187
:105190006846FEF773FD00F06BF83046BDE8F88313
:1051A0000020FBE7202D050870B5B0F90660B0F9C6
:1051B00004400B6800F1140596421BDD0069A34210
:1051C00002FB005000EBE30214DA641EE010A0EBD7
:1051D000E30512F8010B03F00704A040C4B206E097
:1051E00045B1083312F8014B23F007036D1E002C64
:1051F000F6D004E0002070BD6006040E5B1C2006A3
:10520000FAD5FF2C07D0184602E06406240E401C95
:105210006606FAD400E0D81DC443640705D006E052
:1052200012F8014BFF2C09D108306D1EF8D5C01AB9
:10523000401C0B6070BD6206140E401C2206FAD49E
:10524000F5E738B50546FFF76DF82846FEF7D8FCB8
:1052500000908189491E0CB284816846FEF70EFDDC
:1052600014B92846FEF722FC00F002F838BD000011
:105270000348C168491EC16001D100F082B970477E
:1052800094030020F0B587B01546044601A80C9A97
:105290001F000E4600900BD0122101AB002072605F
:1052A000B84728B9684600F003FF1D49884202D07C
:1052B000012007B0F0BD684600F0F0FE2076684699
:1052C00000F0ECFE6076684600F0E8FE84F820000E
:1052D000684600F0E3FE84F82100684600F0DEFE38
:1052E00084F822000120A076E076684600F0D6FE21
:1052F0003080684600F0D2FE7080B760E6612868B2
:10530000206068686060A868A060E868E06028695C
:105310002061686960612046FFF78EFD0020C8E7C4
:10532000475549582DE9F3470D46FEF76BFF1D4CD5
:105330008246206890F82A00400702D5FEF762FFF7
:1053400001E0FEF72DFFFFF75AFD2068C1694A7E94
:10535000C97E12FB01F80024B0F92270B0F9246074
:10536000A14608E06846FFF75BFE8146002100F099
:105370001DF8204404B26D1EF4D5484600F076FDB9
:10538000204400B23A1806EB08033146384601F0D3
:10539000EBF95046FFF733FD034901200870BDE8E3
:1053A000FC8700007C020020780300207FB50D46BA
:1053B00019490968C969CC692188814202D8618884
:1053C000814202D2002004B070BD01466A462046E8
:1053D00000F05AF800980028F5D003A80290D4E90C
:1053E000012403AB65B104210098A04760B902A86D
:1053F00000F054FE044602A800F050FE286009E0C8
:1054000002210098A04708B10120DCE702A800F0C3
:1054100045FE04462046D6E77C0200207FB50D46B7
:1054200013490968C969CC692188814212D8618809
:1054300081420FD301466A46204600F025F80098C5
:1054400040B103A80290D4E9012403AB04210098E1
:10545000A04710B1012004B070BD02A800F01EFEEC
:10546000287102A800F01AFE28700020F3E700005F
:105470007C02002010F8202F8A704278CA70807851
:1054800008710120088070477CB51446CDF804D01F
:1054900002886B46891A4A0002EB8105D0E9012691
:1054A000042105F11200B04718B10020206001204E
:1054B0007CBD01A800F0FCFD206000207CBDFEB595
:1054C0001646CDF808D002881D46891A4A0002EB1C
:1054D0008104D0E901276B46062104F11200B84788
:1054E00008B10120FEBD02A800F0E2FD306002A874
:1054F00000F0D4FD28800020FEBD08B5C0690288F8
:105500008A4202D842888A4201D2002008BD6A46F7
:10551000FFF7BAFF00980028F8D0012008BD00006E
:1055200010B50848084908604FF4000106480068B3
:10553000FEF7B4FA8020FEF78BFB0448FFF76AFC05
:1055400010BD000000FB4FD078000020C02A0508E5
:10555000044A1268111800BF024A12688A1A002A07
:10556000FADC70477400002070470020704700008C
:1055700001480068704700007400002070477047C1
:10558000704770470EB508B102AA00E00022002360
:1055900001A9684600F0C8FB0EBD0000074910B520
:1055A0000C7818B101200870801E03E000200870FC
:1055B0006FF07F4000F03EFE204610BDB602002096
:1055C00010B5082A0EDC0346012A18D0022A56D04C
:1055D000042A76D010F8042B03F8012B491EF9D1C8
:1055E000012010BD102A08DC4FEA000230F8043B0D
:1055F00022F8023B491EF9D1F2E7002010BD10F855
:10560000042BD207120E491E34D010F8044B491E49
:1056100004F0010442EA84122CD010F8044B491E15
:1056200004F0010442EA441224D010F8044B491E4D
:1056300004F0010442EA04121CD010F8044B491E85
:1056400004F0010442EAC40214D010F8044B491ECD
:1056500004F0010442EA84020CD010F8044B491E05
:1056600004F0010442EA440204D010F8044B04F0B0
:105670000104224303F8012B0029C0D1B0E710F840
:10568000042B9207120E491E15D010F8044B491E28
:1056900004F0030442EA04120DD010F8044B491E32
:1056A00004F0030442EA840205D010F8044B04F02D
:1056B00003042243491E03F8012B0029DFD18FE7A1
:1056C000FFE710F8042B1207120E491E05D010F840
:1056D000044B04F00F042243491E03F8012B002958
:1056E000EFD17DE738B50024009400F01DF838BDF7
:1056F0000B4810B58169002910D101218161FFF7A4
:105700000FFFFEF74DF801F00BFC054905481C3171
:105710000860BDE81040084600F0DCBC10BD000089
:105720007002002085FB00082DE9F0410D46069926
:10573000044601B901461F68082A09DC0E46012A01
:105740001AD0022A5BD0042A7DD0082A13D18DE01A
:10575000102A07DCD3F810C00E46BCF1000F04D0AD
:10576000022389E00020BDE8F08101CCB84726F88B
:10577000020B6D1EF9D189E001CCB847C0074FEA92
:1057800010686D1E36D001CCB84748EA801000F092
:10579000FF086D1E2ED001CCB84748EA401000F03B
:1057A000FF086D1E26D001CCB84748EA001000F073
:1057B000FF086D1E1ED001CCB84748EAC00000F0BB
:1057C000FF086D1E16D001CCB84748EA800000F0F3
:1057D000FF086D1E0ED001CCB84748EA400000F02B
:1057E000FF086D1E06D001CCB84740EA080000F063
:1057F000FF086D1E06F8018B002DBDD146E001CCDF
:10580000B84780074FEA10686D1E16D001CCB84724
:1058100048EA001000F0FF086D1E0ED001CCB8471A
:1058200048EA800000F0FF086D1E06D001CCB847A2
:1058300040EA080000F0FF086D1E06F8018B002DFD
:10584000DDD123E0FFE701CCB84700074FEA10683D
:105850006D1E06D001CCB84740EA080000F0FF08F2
:105860006D1E06F8018B002DEDD10FE0D3F810C0AE
:10587000BCF1000F04D001232A462046E04705E092
:1058800001CCB84706F8010B6D1EF9D101206AE77B
:105890007CB5064628480D46006868B1002005F032
:1058A00081FF06E06A462946304606F0C1FE05F053
:1058B0001FFF0028F6D17CBD106800901F4C506877
:1058C00001902268BDF8000032F84C1F0844ADF882
:1058D0000000BDF8020091880844ADF80200BDF850
:1058E000040011880844ADF80400BDF80600918852
:1058F0000844ADF80600684605F054FF0EE000BF0E
:105900002068BDF800106A464184BDF80210818409
:105910002946304606F08CFE05F0EAFE0028EFD15D
:10592000206830F8221F428D891A01804188C28D7B
:10593000891A41807CBD0000B80200207C02002052
:105940002DE9FF4F8DB00020DDF86CA016460090C9
:105950001D4604460246CAF8000008AB03A902A887
:1059600000F0E2F918B1002011B0BDE8F08F0898FE
:10597000854200DD0546614F0B9561493868407CE2
:1059800051F82010049109690691FEF7FFFB05907C
:105990003868407CFEF790FC5A498146884204D022
:1059A0005949894501D0012000E000200A9001CE2C
:1059B0001A9988478346000E079077D0009870BBED
:1059C0000D9800EB04084D480068B0F90800404508
:1059D00003DDA0EB0807804600E000270298049949
:1059E00000EB840000EB8700CDE900010B990D98D6
:1059F000421809920E9B40461946521EFFF76EF957
:105A000001200090059818280ADA0298DDE905239C
:105A100000EB840000EB8700E91B00F0E3F812E0E4
:105A20000A9880B1029800EB840000EB8707099880
:105A3000A0EB080849463868884701C7A8F101006B
:105A40005FEA0008F6D13148C06980B3DDE902079A
:105A500000EB840007EB8402CDE902022B4C361FD9
:105A60003046E4692B460299A047FF213068B1EB2C
:105A7000106F02D10298006804E0029A1268B1EB3C
:105A8000126F01D1039A1060029806F10406001DFE
:105A900002900398001D03906D1EE7D10397DAF87A
:105AA000000040F00101CAF8001020E021E0FFE70B
:105AB0000798FF2811D0C0F1FF02029850F8241077
:105AC000584600F091FA039941F82400DAF80000F2
:105AD00040F00101CAF8001005E00298039950F85F
