:020000040800F2
:1000000028F6002069020008AD1800083911000820
:10001000291400080B0400086746000800000000CF
:10002000000000000000000000000000BD270008E4
:10003000D10D0008000000004D190008AD2800088F
:10004000830200088302000883020008830200087C
:10005000830200088302000883020008830200086C
:10006000830200088302000883020008830200085C
:10007000830200088302000883020008830200084C
:10008000830200088302000883020008830200083C
:10009000830200088302000883020008830200082C
:1000A000830200088302000883020008830200081C
:1000B000830200088302000883020008830200080C
:1000C00083020008830200088302000883020008FC
:1000D00083020008830200088302000883020008EC
:1000E00083020008830200088302000883020008DC
:1000F00083020008830200088302000883020008CC
:1001000083020008830200088302000883020008BB
:1001100083020008830200088302000883020008AB
:10012000830200088302000883020008830200089B
:10013000830200088302000883020008830200088B
:100140008302000883020008830200083D190008AA
:10015000830200088302000883020008830200086B
:10016000830200088302000883020008830200085B
:10017000830200088302000883020008830200084B
:10018000830200088302000800F002F800F05CF827
:100190000AA090E8000C82448344AAF10107DA45E2
:1001A00001D100F051F8AFF2090EBAE80F0013F0D8
:1001B000010F18BFFB1A43F00103184770450000F8
:1001C000904500000A444FF0000C10F8013B13F07A
:1001D000070408BF10F8014B1D1108BF10F8015BA0
:1001E000641E05D010F8016B641E01F8016BF9D193
:1001F00013F0080F1EBF10F8014BAD1C0C1B09D1EA
:100200006D1E58BF01F801CBFAD505E014F8016B5B
:1002100001F8016B6D1EF9D59142D6D370470000ED
:100220000023002400250026103A28BF78C1FBD8FF
:10023000520728BF30C148BF0B6070471FB504F09C
:1002400051FA1FBD10B510BD00F0A8F81146FFF718
:10025000F5FF04F00BFA00F0C6F803B4FFF7F2FF65
:1002600003BC00F0CBF8000009488047094800476C
:10027000FEE7FEE7FEE7FEE7FEE7FEE7FEE7FEE756
:10028000FEE7FEE704480549054A064B70470000B3
:10029000BD2800088901000828F0002028F6002069
:1002A00028F2002028F2002053EA020C00F06980B6
:1002B0002DE9F04B4FF00006002B1FBFB3FA83F57A
:1002C00003FA05F424FA05F65E4012BF1643B2FAAB
:1002D00082F502FA05F4C5F120051EBF22FA05FCDD
:1002E00044EA0C04203556EA044C4FEA144418BF83
:1002F000641C4FF000084FF00009904271EB030CB2
:1003000039D3002919BFB1FA81F701FA07F6B0FA1B
:1003100080F700FA07F6C7F120071EBF20FA07FC96
:1003200046EA0C062037B6FBF4FCA7EB0507103FA6
:1003300007F01F0BCBF120060CFA0BFB2CFA06F68C
:1003400044BFB3460026202FA4BF5E464FF0000BEB
:100350005BEA060C08BF4FF0010B19EB0B09ABFB76
:10036000027C48EB0608C01B06FB02CC0BFB03CC4F
:1003700071EB0C01C1E70B46024641464846BDE819
:10038000F08B13B54FF000004FF00001AFF3008089
:10039000BDE81C407047704770477047754600F0D5
:1003A00029F8AE4605006946534620F00700854609
:1003B00018B020B5FFF766FFBDE820404FF00006FB
:1003C0004FF000074FF000084FF0000B21F007013D
:1003D000AC46ACE8C009ACE8C009ACE8C009ACE880
:1003E000C0098D4670470446AFF300802046FFF7F2
:1003F00034FF000000487047C4EF00200149182076
:10040000ABBEFEE726000200704700BFFEE770B5F6
:1004100006460C4604F08000802808D104F07F00D6
:1004200000EB800106F58E7000EBC10507E004F0DB
:100430007F0000EB800106F55D7000EBC10504F064
:100440007F00287004F08000C0096870294630469B
:1004500003F0BCFD002070BD70B506460C4604F0EC
:100460008000802808D104F07F0000EB800106F5B1
:100470008E7000EBC10505E004EB840106F55D70AC
:1004800000EBC1050020A87004F07F002870C4F3C1
:10049000C01068702946304603F070FD002070BD22
:1004A00070B505460C4604F08000802805D104F0A4
:1004B0007F01284603F090FF02E0284603F066FF24
:1004C000002070BD2DE9F04106460D4690461F46BE
:1004D00005F08000802808D105F07F0000EB800146
:1004E00006F58E7000EBC10407E005F07F0000EB1D
:1004F000800106F55D7000EBC10405F07F002070FF
:1005000005F08000C0096070C4F80880E77060786A
:1005100008B12078E080022F01D10020207121460F
:10052000304603F0DFFC0020BDE8F0812DE9F0410A
:1005300005460E461746984606F07F0000EB800100
:1005400005F55D7000EBC104E760C4F8148000207D
:10055000A061607006F07F002070E878012800D16B
:100560002761207820B92146284603F0DFFB03E00D
:100570002146284603F08BFD0020BDE8F08108B538
:1005800000220092009A61F30A1200920269126836
:10059000009B1A4303691A6008BD70B506460C46F5
:1005A00004F08000802808D104F07F0000EB800177
:1005B00006F58E7000EBC10505E004EB840106F53D
:1005C0005D7000EBC1050120A87004F07F00287069
:1005D000C4F3C01068702946304603F026FD0020A1
:1005E00070BD2DE9F04107460D461646984605F0C8
:1005F0007F0000EB800107F58E7000EBC104012045
:10060000607005F07F002070E66026610020A06128
:10061000C4F81480207820B92146384603F086FBC0
:1006200003E02146384603F032FD0020BDE8F081AA
:100630001CB50446204603F044FBE068C068009007
:10064000204603F0F3FE03280BD10020A0704FF4E6
:100650000070A080009820F4705000F510500090B9
:1006600009E00120A0704020A080009820F4705084
:1006700000F5A05000900098E168C860002001904B
:10068000019820F4005000F5005001900198E168B5
:10069000486101201CBD0000F8B50546002400207B
:1006A0000090284603F001FF064690E006F00100A6
:1006B00000287DD0E1B2284600F018FB0090009899
:1006C00000F0010030B3012000FA04F72869406B04
:1006D000B8432969486300200090009820F0010089
:1006E000401C009005F1180050F82400009981602A
:1006F000E1B239480068426828469047E878012806
:1007000008D13CB940F21110405D042802D12846BE
:1007100003F0B7FB0098C0F3C00060B10020009068
:10072000009820F008000830009005F1180050F8FB
:100730002400009981600098C0F3001060B100208F
:100740000090009820F010001030009005F1180083
:1007500050F82400009981600098C0F3801060B1C7
:1007600000200090009820F040004030009005F1FB
:10077000180050F82400009981600098C0F34000F0
:1007800060B100200090009820F00200801C0090D2
:1007900005F1180050F82400009981600098C0F31A
:1007A000C01028B12146284600F0CAFA002000E017
:1007B0000BE00090009820F080008030009005F160
:1007C000180050F8240000998160641C7608002EFF
:1007D0007FF46CAF0120F8BDB80000207CB5044662
:1007E000002500200190204603F067FE06466FE0DA
:1007F00006F00100002869D0E9B2204603F065FE4A
:100800000190019800F00100C8B300200190019808
:1008100020F00100401C019004F1540050F8250024
:1008200001998160E078012817D104F1540050F853
:1008300025000069009005EB850104F55D7000EB73
:10084000C10080680099C1F31201411A05EB8502CD
:1008500004F55D7000EBC2008161E9B21E480068DA
:10086000026820469047E078012808D13DB940F25F
:100870001110005D052802D1204603F002FB01980B
:10088000C0F3400060B100200190019820F0020008
:10089000801C019004F1540050F8250001998160FA
:1008A0000198C0F3C00088B10B48006881682046F9
:1008B000884700200190019820F00800083001903E
:1008C00004F1540050F82500019981606D1C7608F0
:1008D000002E8DD101207CBDB80000203EB504461D
:1008E000A07A70B1D4F80C010090009820F00200BA
:1008F0000090009820F0010000900099D4F80C01BD
:10090000016000200190019820F00100401C01903E
:100910002069406801998843216948600848006857
:1009200081692046884700200290029820F000400C
:1009300000F1004002900298E168486101203EBD4C
:10094000B80000207CB5044600200190019820F0FA
:10095000100010300190E068806901998843E168D7
:100960008861E068006A0090009800F00F0000EBDA
:10097000800104F55D7000EBC1050098C0F34340B1
:1009800007282DD2DFE800F02C04051D1E2C1F00C7
:1009900027E00098C0F30A1090B10098C0F30A1243
:1009A0002046E96803F09BFDE8680099C1F30A114D
:1009B0000844E860A8690099C1F30A110844A861D5
:1009C0000FE00EE00DE0082204F2CC51204603F0C7
:1009D00086FDA8690099C1F30A110844A86100E0E6
:1009E00000BF00BFE068806901990843E168886141
:1009F00001207CBD38B5044608480068C16820461F
:100A0000884700200090009820F0080008300090EF
:100A10000098E1684861012038BD0000B80000205E
:100A20001FB50446002000904FF48970005D0090CF
:100A30002348006841692046884720698068019002
:100A400000200390039820F4006000F500600390FC
:100A50000398E1684861A07A70B3019800F0010042
:100A600050B340F21510005D012825D19DF800001B
:100A7000032821D100200290029820F00100401CA0
:100A80000290D4F80C01006802990843D4F80C11C4
:100A90000860029820F00200801C0290D4F80C013B
:100AA000006802990843D4F80C11086005480068F2
:100AB00040F0060003490860012004B010BD0000AA
:100AC000B800002010ED00E030B587B004460020EB
:100AD000029006900590049003900190029820F0F7
:100AE0000100401C029020694068029988432169F6
:100AF00048600021204603F06FFC00250BE0FF2139
:100B000004F1180050F82500816004F1540050F8F9
:100B1000250081606D1C6078A842F0D84FF0FF314D
:100B20002069816106986FF30F00401C06900698BB
:100B300080B200F58030069006992069C161059861
:100B400020F0080008300590059820F00100401CB6
:100B50000590059820F00200801C059005992069F9
:100B60004161049820F00100401C0490049820F09A
:100B7000080008300490049820F00200801C0490C3
:100B8000049920690161206900680390039820F4AA
:100B9000FE600390039920690160204603F071F91B
:100BA00000200190019820F4805000F580500190C1
:100BB0000198E16848610448006801692046884757
:100BC000012007B030BD0000B80000202DE9F04141
:100BD00006460F463946304603F096FC01214FF495
:100BE000897081550021801C8155002511E005EB9D
:100BF000850106F58E7000EBC10401206070257040
:100C0000E5800020E0704020A0600020E06060618E
:100C10006D1C7078A842EAD8002510E005EB85012C
:100C200006F55D7000EBC104002060702570E58062
:100C3000E0704020A0600020E06060616D1C707872
:100C4000A842EBD8304603F02BF8304602F05EFEA7
:100C50000021304603F0C0FC304602F0E4FE30468E
:100C600003F082FBBDE8F08138B504460020009017
:100C700007480068C16920468847009820F4801022
:100C800000F5801000900098E1684861012038BDAF
:100C9000B800002038B504460020009007480068DE
:100CA000016A20468847009820F4001000F50010E3
:100CB00000900098E1684861012038BDB80000202C
:100CC00038B50446E068406800900098C0F38000A2
:100CD00020B105480068816A204688470098E1688D
:100CE0004860012038BD0000B800002030B5024641
:100CF00015692B6915696C6B24FA01F505F001057E
:100D000043EAC51302F1180555F82150AD6805EA0C
:100D1000030030BD38B5044608480068416A2046E3
:100D2000884700200090009820F0804000F180402B
:100D300000900098E1684861012038BDB8000020AB
:100D40002DE9F84307460E4600250020009006EBEB
:100D5000860107F58E7000EBC104D4E90501451A40
:100D6000A068A84200D2A568E81C4FEA900807F1E5
:100D7000180050F82600806900901BE0D4E90501B6
:100D8000451AA068A84200D2A568E81C4FEA90085E
:100D9000ABB2F2B23846E16803F045FCE0682844A3
:100DA000E060A0692844A06107F1180050F826000F
:100DB00080690090009880B2404506D9D4E90510BA
:100DC000884202D260690028D8D10120BDE8F883AA
:100DD0007047000008B5002000900548009002E030
:100DE0000098401E009000980028F9D108BD00002E
:100DF00040420F0010B5024600200023102A03D104
:100E00004FF02044636E0FE0B2F5807F02D10A4CB0
:100E1000236809E0B2F5805F03D1074C20342368D2
:100E200002E0054CD434236803EA01048C4201D06B
:100E3000002000E0012010BD840000A00021D0E9C6
:100E400000231A4383685B1E42EA4312C36842EAE6
:100E50004321014A11607047500100A070B5002184
:100E6000002200230024D0E901563543C6683543EB
:100E7000066935434669354386693543C669354356
:100E8000066A3543466A45EA0601056835B90568CC
:100E9000AD00A5F1C045C5F840110DE0D0E90756F9
:100EA0003543466A45EA0603294D2B600568AD00C7
:100EB000A5F1C045C5F84011056835BB856A2D68A8
:100EC0006D1E866A7668761E45EA0616856AAD68E6
:100ED0006D1E46EA0526856AED686D1E46EA0536F2
:100EE000856A2D8A6D1E46EA0546856AAD8A6D1EA5
:100EF00046EA0556856A2D7E6D1E46EA0562144D4A
:100F00000835066845F8262020E0856A2D686D1EA4
:100F1000866A7668761E45EA0616856AAD686D1E95
:100F200046EA0526856A2D8A6D1E46EA0542856ACF
:100F3000ED686D1E2E03856AAD8A6D1E46EA055466
:100F4000034D08352C60066845F8262070BD00006A
:100F5000400100A00449096841EA40014FF02042E5
:100F6000C2F8541170470000540100A099B1102834
:100F700008D14FF02042126E42F004024FF020439D
:100F80001A661BE00E4A126842F004024FF020433A
:100F9000C3F8802012E0102808D14FF02042126ED2
:100FA000084B1A404FF020431A6607E0044A1268C3
:100FB000044B1A404FF02043C3F8802070470000D4
:100FC000800000A0FBFF0F0030B5002100220023AD
:100FD000446844F0080485682C43C5682C430569BF
:100FE0002C43456944EA4524856944EA4531C4698E
:100FF0002468C5696D6844EA0524C5692D8944EAF9
:101000000544C5692D7B44EA0562046A2468056AC3
:101010006D6844EA0524056A2D8944EA0544056A99
:101020002D7B44EA05630468102C05D14FF0204461
:101030002166A266E36608E0044C21604FF020447C
:10104000C4F88820014C0C34236030BD800000A01F
:10105000F0B50A4600210023002400BF3DE0012531
:1010600005FA01F3156805EA03049C4234D10568CA
:101070004F000326BE40B543056015794E00B540CC
:101080000668354305601579012D02D01579022DCA
:1010900016D185684F000326BE40B543856055795B
:1010A0004E00B540866835438560456801268E4010
:1010B000B5434560456896798E40B6B23543456084
:1010C000C5684F000326BE40B543C560D5794E00C4
:1010D000B540C6683543C560491C1029BFD3F0BD73
:1010E000F0B5002300244D07ED0E02FA05F3CE10F3
:1010F00000F1200555F826504E07F70E0F26BE408A
:10110000B543CF1000F1200646F82750CE1000F16D
:10111000200555F8265045EA0304CE1000F12005BD
:1011200045F82640F0BD0246002013690B400BB184
:10113000012000E00020704700BFFEE710B5044624
:101140000D48007B48B90C48806830B10B480078E6
:1011500018B901212046FFF720FA81212046FFF728
:101160001CFA06480078022805D11F23024A0121F3
:101170002046FFF7DBF910BD34EF0020BF00002050
:1011800010B504462B4840682B49486029488068C0
:1011900088600121204601F0F6FD1F2810D1254866
:1011A0000068264988420BD12248407B012807DC91
:1011B0002048807B012803DB1E48807B10280CDD43
:1011C0001C49487B2022052100F006FF02201C4913
:1011D00008702046FFF7B2FF2AE01648417B00F175
:1011E0000F02204600F066FC002803DA2046FFF7D5
:1011F000A5FF1DE013480078022819D01148007897
:10120000012815D00F480078032811D00E48008817
:10121000002806DD0C4802880C49204600F0E0F862
:1012200006E00948008818B90021204600F0B8F807
:1012300010BD000034EF002054EF0020555342430E
:10124000BF000020BE000020BC000020342700208A
:1012500070B505460C460C480078022807D181215C
:101260002846FFF79AF90020074908700BE004F0C0
:101270008000802807D104480078012803D001218C
:10128000284600F08DF870BDBF00002070B5044600
:101290000D4610480078022804D0032811D00428F5
:1012A00014D10DE00C48417B00F10F02204600F004
:1012B00001FC002803DA0121204600F071F806E065
:1012C00000BF0021204600F06BF800E000BF00BF27
:1012D00070BD0000BE00002034EF002070B5044651
:1012E0000D460D48007810B1012812D103E02046C8
:1012F000FFF746FF0EE00948417B00F10F02204650
:1013000000F0D8FB002803DA0121204600F048F85D
:1013100000E000BF00BF70BDBE00002034EF002021
:101320000021014A11707047BE00002010B504462C
:1013300000200C4908700C4908700C4800680168CE
:101340000020884701212046FFF7AAF88121204686
:10135000FFF7A6F81F23064A01212046FFF7E6F80B
:1013600010BD0000BE000020BF000020680000206B
:1013700034EF002010B50446002006490870012013
:10138000054908701F23054A01212046FFF7CEF8C2
:1013900010BD0000BE000020BF00002034EF002080
:1013A00070B505460C460A480A49086008460473A9
:1013B0000020094908700D23064A81212846FFF7BD
:1013C00010F91F23054A01212846FFF7AFF870BD29
:1013D0005553425354EF0020BE00002034EF00204C
:1013E00070B506460D4614460C488068A04202D2ED
:1013F0000A48806800E0204684B209488068001BE3
:1014000007498860002008730420064908702346B5
:101410002A4681213046FFF7E4F870BD34EF002002
:1014200054EF0020BE00002000BFFEE70146082068
:101430000E4A10708888401C88808888402812D105
:10144000002088804888401C48804888B0F5006F9C
:1014500009D1002048800888401C0880088802289C
:1014600001D104201070014800787047000000206E
:1014700013B560201C490870BDF80000BDF80210CB
:1014800000EB4100BDF8041001EB80101749087013
:10149000BDF80000BDF8021000EB4100BDF80410DB
:1014A00001EB8010000A11490870BDF80000BDF87A
:1014B000021000EB4100BDF8041001EB8010000C9D
:1014C0000A490870D0200849087000BF4021084828
:1014D000FFF729FE0028F9D000F00EF80549087042
:1014E000084600781CBD000000000180000002805A
:1014F000000C02400000002000B54FF08073002077
:101500000C49087000F034F90A49087004E000F052
:101510002FF9084908705B1E06480078402801D062
:10152000002BF4D113B9102002490870014800784B
:1015300000BD00000000002000B58FB00121582040
:1015400000F006FA0121084600F022FA0C220021E0
:101550004F48FFF7C5FD0C2201214D48FFF7C0FDA4
:101560000C2204214A48FFF7BBFD0C220521484804
:10157000FFF7B6FD0C2206214548FFF7B1FD0C220E
:101580000B214348FFF7ACFD0C2211464048FFF702
:10159000A7FD0C220E213E48FFF7A2FD0C220F21D1
:1015A0003B48FFF79DFD4DF673000D9002208DF82E
:1015B000380003208DF8390000208DF83A00012012
:1015C0008DF83B000DA93248FFF742FD0C220721A0
:1015D0003048FFF785FD0C2208212E48FFF780FDDB
:1015E0000C2209212B48FFF77BFD0C220A212948F8
:1015F000FFF776FD4FF4F0600D9002208DF8380073
:1016000003208DF8390000208DF83A0001208DF874
:101610003B000DA91F48FFF71BFD0C2209211E48A6
:10162000FFF75EFD4FF400700D9002208DF838003A
:1016300003208DF8390000208DF83A0001208DF844
:101640003B000DA91448FFF703FD0020099004207A
:101650000A9002200B9000200C904FF480700090B4
:101660000220019000200290402003904FF4C020FF
:10167000049000200590069009A8079008906846FD
:10168000FFF7A2FC01210802FFF770FC0FB000BDBC
:10169000000C024000100240001802402DE9FF41FA
:1016A00006461C460025A84608202D49087048E03B
:1016B00000202C4908702C4908700870BDF80400FF
:1016C000BDF8061000EB4100BDF8081001EB8010DA
:1016D00025490870BDF80400BDF8061000EB410074
:1016E000BDF8081001EB8010000A1F490870BDF812
:1016F0000400BDF8061000EB4100BDF8081001EB36
:101700008010000C1849087030201649087008F144
:101710000100C70200BF40211448FFF704FD002864
:10172000F9D004E04FF00040007870556D1CBD42C8
:10173000F8D308F10108641E01A8FFF777FE0849F5
:1017400008701CB1064800780428B1D1FFF7D4FE18
:10175000034908700846007804B0BDE8F081000035
:10176000000000200000018000000280000C024008
:10177000002100200D4A107070200D4A1070C00624
:10178000017801F0010018B10120084A107009E049
:1017900001F04000402802D1044A107002E000200D
:1017A000024A1070014800787047000000000020D5
:1017B00000000180FF20014908707047000001808F
:1017C0002DE9FF4106461C460025A846082033495E
:1017D000087054E0802032490870002031490870B8
:1017E0000870BDF80400BDF8061000EB4100BDF81C
:1017F000081001EB80102B490870BDF80400BDF8FB
:10180000061000EB4100BDF8081001EB8010000A43
:1018100024490870BDF80400BDF8061000EB410033
:10182000BDF8081001EB8010000C1E49087008F18B
:101830000100C70200BF40211B48FFF774FC0028CD
:10184000F9D004E0705D4FF0004108706D1CBD429E
:10185000F8D3102012490870FFF74EFE0F490870A8
:101860000846007840280AD108F10108641E01A842
:10187000FFF7DCFD082802D00420084908703CB1BD
:10188000064800780428A5D1044800784028A1D053
:101890000248007804B0BDE8F0810000000000209C
:1018A0000000018000000280000C02407047000030
:1018B00070B5002100230F22C4781CB3174C246894
:1018C00004F4E064C4F5E064C4F30721C1F1040446
:1018D000E3B20A4144789C40E1B284781440214349
:1018E0000C07210E0E4C05786155047804F01F0595
:1018F0000124AC4005786D11AD0005F1E025C5F877
:10190000004109E0047804F01F050124AC40054DB6
:101910000678761145F8264070BD00000CED00E019
:1019200000E400E080E100E002490143024A116066
:10193000704700000000FA050CED00E010B5024809
:1019400001F082FB10BD0000400100207047000044
:1019500029B1064A12680243044B1A6004E0034AA4
:1019600012688243014B1A60704700003038024011
:1019700029B1064A12680243044B1A6004E0034A84
:1019800012688243014B1A607047000034380240ED
:1019900029B1064A12680243044B1A6004E0034A64
:1019A00012688243014B1A607047000038380240C9
:1019B00029B1064A12680243044B1A6004E0034A44
:1019C00012688243014B1A6070470000443802409D
:1019D00070B506460C4615466019074909688842E5
:1019E00007D921220521304600F0F6FA4FF0FF30EA
:1019F00070BD0020FCE700001801002030B504464F
:101A00000A46507800F0010010B10E4B07210CE09F
:101A10000D480068C06904EBC40500EB8503187924
:101A2000411D1079884200DC11790848018004E0EA
:101A3000481E81B2585C064D68540029F8D1002038
:101A400030BD00001247000868000020BC000020E4
:101A50003427002010B502460B46082106480180B5
:101A600005E0481E81B20548405C054C60540029E1
:101A7000F7D1002010BD0000BC0000202147000865
:101A80003427002010B502460B4608210648018085
:101A900005E0481E81B20548405C054C60540029B1
:101AA000F7D1002010BD0000BC000020194700083D
:101AB0003427002070B505460E46144632480560AE
:101AC000207823283ED00DDC1A2831D005DCB0B1B7
:101AD000032819D012284ED11BE01B281ED01E2827
:101AE00049D120E02A283CD004DC25282FD0282802
:101AF00041D131E02F2839D05A283CD11DE0214670
:101B0000304600F08FFA70BD2146304600F018FADA
:101B1000F9E721463046FFF771FFF4E721463046EA
:101B200000F078FAEFE72146304600F073FAEAE772
:101B300021463046FFF7A6FFE5E721463046FFF78E
:101B400089FFE0E72146304600F0B6F9DBE72146A1
:101B5000304600F06BF9D6E72146304600F0E4F855
:101B6000D1E72146304600F0ADFACCE721463046B9
:101B700000F080FAC7E720220521304600F02CFA59
:101B80004FF0FF30BFE700002C0100202DE9F041AD
:101B9000054627480068B0F5484F02D2244800683F
:101BA00001E04FF44840044622480068B4FBF0F0DE
:101BB00086B2204800232049026803C9FEF774FB5F
:101BC00007461E48006833463A461D49D0F810C003
:101BD0002846E047002808DA11220421284600F0B0
:101BE000FBF94FF0FF30BDE8F0812346144A812114
:101BF00014480068FEF7F5FC0F48D0E900201219E0
:101C000040F100000C49C1E9002009480068001BB0
:101C1000074908600C488068001B0B49886004482D
:101C2000006810B90320094908700020DBE70000B4
:101C3000280100201401002020010020680000205D
:101C4000342700202C01002054EF0020BE0000208B
:101C50002DE9F04105462D480068B0F5484F02D205
:101C60002A48006801E04FF44840044628480068CC
:101C7000B4FBF0F086B2264800232649026803C967
:101C8000FEF712FB07462448006833463A462349CC
:101C9000D0F814C02846E047002808DA03220421BF
:101CA000284600F099F94FF0FF30BDE8F08119485F
:101CB000D0E90020121940F100001649C1E90020C6
:101CC00012480068001B1149086015488068001B15
:101CD000134988600D48006828B900211148006840
:101CE000FFF75EFB10E009480068B0F5484F02D2EC
:101CF0000648006801E04FF4484083B2074A0121DA
:101D000008480068FEF712FC0020CEE728010020FA
:101D1000140100202001002068000020342700204A
:101D200054EF00202C0100202DE9F04105460C461F
:101D300037480078002862D13648007B00F08000E8
:101D4000802809D03349487B2022052100F044F93E
:101D50004FF0FF30BDE8F0812F48006881682846C9
:101D6000884738B13A220221284600F035F94FF071
:101D7000FF30EFE7A0780006E17840EA01402179E2
:101D800040EA012061790843C117244A03C2207A3E
:101D9000E17940EA0120224908600846008882B2C1
:101DA0001E4801682846FFF713FE002802DA4FF0AC
:101DB000FF30CFE702201649087018480AC81948B2
:101DC00000680026A1FB002703FB007001FB060052
:101DD0001249C1E9002012480068124909684843C5
:101DE0000F4908600B4880680968884207D0094994
:101DF000487B2022052100F0EFF8701EAAE74FF47F
:101E00004840094908802846FFF7C0FEA2E70000C5
:101E1000BE00002034EF00206800002020010020D8
:101E20002801002014010020BC00002070B50446E9
:101E30000D461C4800681C4A1C49436820469847C8
:101E400038B13A220221204600F0C6F84FF0FF30A8
:101E500070BD16480068401E000E154908701348F2
:101E60000068401E000C487010480088401E000AA0
:101E700088700E480078401EC8700B480068000E3D
:101E8000087109480068000C487107480088000A7A
:101E9000887105480078C87108200649088000202C
:101EA000D6E700006800002014010020180100207F
:101EB00034270020BC0000207CB505460E460024D7
:101EC00004E000201B490855601C84B20C2CF8DB90
:101ED0001948006801AA694643682846984738B1FE
:101EE0003A220221284600F077F84FF0FF307CBDFF
:101EF00008201049C8700098401E000E0871009814
:101F0000401E000C48710098401E000A887100981D
:101F1000401EC871022008720198000C4872019896
:101F2000000A88720198C8720C20044908800020B9
:101F3000DDE700003427002068000020BC000020FE
:101F400010B50346002204E000201E4CA054501C93
:101F5000C2B2122AF8DB70201A4C20700C20E071FB
:101F600019480078194C2478A04221D01848164C02
:101F7000247810F83400134CA0701548124C2478C3
:101F800000EBC40040790F4C207311480E4C2478AC
:101F900000EBC40000790B4C60730B480078401CC8
:101FA000094C207020460078042801D100202070C0
:101FB0001220084C20800879122801DC0879208042
:101FC000002010BD34270020100100201101002046
:101FD00064EF0020BC00002030B50C4B0C4C247882
:101FE00003F834101302094C094D2D7804EBC50495
:101FF0006360074B1B785B1C054C237023461B78E2
:10200000042B01D10023237030BD000064EF0020B9
:102010001101002002460020014B1880704700008B
:10202000BC00002070B504460D460F48806840B1E2
:102030000D49487B20220521FFF7CEFF4FF0FF30EE
:1020400070BD0A48006881682046884738B13A2246
:1020500002212046FFF7C0FF4FF0FF30F0E70020DD
:102060000349088000BFEBE734EF00206800002040
:10207000BC00002070B505460C46607800F00200F8
:10208000022807D1242205212846FFF7A5FF4FF09B
:10209000FF3070BD0848008882B2084801682846B1
:1020A000FFF796FC002802DA4FF0FF30F1E700203E
:1020B0000349088000BFECE7280100202001002030
:1020C000BC0000202DE9F04105460C46464800784A
:1020D000002878D14548007B00F08000802809D195
:1020E0004249487B20220521FFF776FF4FF0FF3061
:1020F000BDE8F0813E48006881682846884738B1CD
:102100003A2202212846FFF767FF4FF0FF30EFE742
:1021100037480068C1682846884738B1272202211D
:102120002846FFF759FF4FF0FF30E1E7A07800069F
:10213000E17840EA0140217940EA012061790843D1
:10214000C1172C4A03C2207AE17940EA01202A49CA
:1021500008600846008882B2264801682846FFF7D2
:1021600037FC002802DA4FF0FF30C1E721480CC8E5
:10217000224800680026A2FB001703FB007002FB48
:1021800006001C4AC2E900101B4800681B49096888
:10219000484319490860154880680968884207D093
:1021A0001249487B20220521FFF716FF701E9FE78A
:1021B00001200D49087010480068B0F5484F03D25F
:1021C0000D48006802E009E04FF4484083B20C4A31
:1021D00001210C480068FEF7A9F903E02846FFF743
:1021E00037FD85E7002083E7BE00002034EF0020A4
:1021F0006800002020010020280100201401002098
:10220000342700202C0100201CB501217E20FFF77F
:102210009FFB02208DF804008DF8050000208DF84A
:1022200006008DF807000C2205217248FEF758FFC2
:102230000C2206216F48FEF753FF6020009069468C
:102240006C48FEF705FF0C2200216B48FEF748FFA3
:102250000120009069466848FEF7FAFE0C22002132
:102260006648FEF73DFF0C2201216448FEF738FF67
:102270000C2208216148FEF733FF0C2209215F4838
:10228000FEF72EFF0C220A215C48FEF729FF0C22E4
:102290000E215A48FEF724FF0C220F215748FEF763
:1022A0001FFF4CF20370009069465448FEF7D0FEC1
:1022B0000C2200215248FEF713FF0C220121504846
:1022C000FEF70EFF0C2207214D48FEF709FF0C22F6
:1022D00008214B48FEF704FF0C2209214848FEF76D
:1022E000FFFE0C220A214648FEF7FAFE0C220B21C3
:1022F0004348FEF7F5FE0C2211464148FEF7F0FE7A
:102300000C220D213E48FEF7EBFE0C220E213C482C
:10231000FEF7E6FE0C220F213948FEF7E1FE4FF6EC
:102320008370009069463648FEF792FE0C22002129
:102330003448FEF7D5FE0C2201213248FEF7D0FECC
:102340000C2202212F48FEF7CBFE0C2203212D4840
:10235000FEF7C6FE0C2204212A48FEF7C1FE0C221D
:1023600005212848FEF7BCFE0C220B212548FEF76C
:10237000B7FE0C2211462348FEF7B2FE0C220D21B7
:102380002048FEF7ADFE0C220E211E48FEF7A8FEE7
:102390000C220F211B48FEF7A3FE4FF63F000090D2
:1023A00069461848FEF754FE0C2200211648FEF735
:1023B00097FE0C2201211448FEF792FE0C22042104
:1023C0001148FEF78DFE0C2205210F48FEF788FE0E
:1023D0000C2208210C48FEF783FE0C220F210A482C
:1023E000FEF77EFE48F23310009069460648FEF77D
:1023F0002FFE1CBD0004024000080240000C0240F9
:1024000000100240001402400018024000B593B0D2
:10241000FFF7FAFE01210846FFF7BAFA0220019001
:1024200007200290042003900720049002200590CA
:102430000690079001200890099004200A9010202F
:102440000B9040200C904FF4C0700D9000200E9027
:102450004FF400600F90400010904000119001A8D0
:10246000129008A8FEF7FAFC00F002F813B000BDC5
:102470007FB500254FF6FF740120009008200190E1
:10248000012002900020039000E0641E2021012022
:10249000FEF7B0FC08B1002CF7D16846FEF7CEFC81
:1024A000FEF798FC02200090082001900120029085
:1024B000002003904FF6FF7400E0641E20210120ED
:1024C000FEF798FC08B1002CF7D16846FEF7B6FC81
:1024D00003200090082001900290002003904FF606
:1024E000FF7400E0641E20210120FEF783FC08B188
:1024F000002CF7D16846FEF7A1FC4FF40C750420C0
:102500000090082001900120029003954FF6FF747F
:1025100000E0641E20210120FEF76CFC08B1002CB5
:10252000F7D16846FEF78AFC40F26950FEF712FDCB
:102530004FF6FF7400E0641E20210120FEF75AFCD4
:1025400008B1002CF7D17FBD03464FF40060106046
:10255000C0010860002070470020704710B5044695
:10256000FFF754FFFEF7E8FFFFF724F9002010BD46
:102570000146002070470146002070472DE9FF5FAB
:102580000F46154698460024680C0190C5F38A1A38
:1025900005F03F0605EB0800401E400C009005EBDF
:1025A0000800401EC0F38A1B05EB0800401E00F027
:1025B0003F090198ADF808005EE01FFA8AF0ADF817
:1025C0000A004FE0BDF80A00504514D1BDF80A00DA
:1025D000584510D1B0B2ADF80C00A9EB06014B1C68
:1025E0003819DDE90212FFF759F8A9EB0600401C83
:1025F00004EBC02430E0BDF80A0050450ED1B0B263
:10260000ADF80C00C6F140033819DDE90212FFF7FE
:1026100045F8C6F1400004EBC0241DE0BDF80A00F7
:1026200058450ED10020ADF80C00381909F101030E
:10263000DDE90212FFF732F809F1010004EBC024D2
:102640000AE00020ADF80C0038194023DDE9021241
:10265000FFF724F804F50034BDF80A00401C80B2EE
:10266000ADF80A00BDF80A005845ABD9BDF808001E
:10267000401C80B2ADF80800BDF8081000988142F7
:102680009BD9002004B0BDE8F09F00002DE9FF5F5A
:102690000F461546984600244FEA554BC5F38A1954
:1026A00005F03F0605EB0800401E400C019005EBCD
:1026B0000800401EC0F38A1A05EB0800401E00F017
:1026C0003F000090ADF808B06CE01FFA89F0ADF85B
:1026D0000A005DE00020ADF80C0040233648DDE93B
:1026E0000212FEF7DBFFBDF80A00484511D1BDF824
:1026F0000A0050450DD1F40205E0A4EBC620385C79
:102700002D490855641C0098401CB4EBC02FF4D32D
:1027100028E0BDF80A0048450BD1F40205E0A4EB1F
:10272000C620385C24490855641CB4F5003FF6D334
:1027300018E0BDF80A0050450BD1002403E0385DD5
:102740001D490855641C0098401CB4EBC02FF6D3FB
:1027500008E0002403E0385D17490855641CB4F50F
:10276000003FF8D30020ADF80C00DDE90201FEF7D0
:102770007FFE0020ADF80C0040230F48DDE9021277
:10278000FFF71EF8BDF80A00401C80B2ADF80A0041
:10279000BDF80A0050459DD9BDF80800401C80B224
:1027A000ADF80800BDF80810019881428DD90020CD
:1027B00004B0BDE8F09F000000F00FD070470000AB
:1027C0000CB50020019000903448006840F480303F
:1027D0003249086000BF3148006800F400300090C2
:1027E0000198401C0190009818B90198B0F5A06FAD
:1027F000F1D12A48006800F4003010B101200090A7
:1028000001E0002000900098012846D12348403084
:10281000006840F08050214940310860204800683D
:1028200040F480401E4908601C48083000681B497D
:10283000083108600846006840F400400860084617
:10284000006840F4A05008601648091F0860081F7F
:10285000006840F08070091F086000BF0F480068E2
:1028600000F000700028F9D040F205600E490860C1
:102870000A480830006820F0030008490831086061
:102880000846006840F00200086000BF03480830B6
:10289000006800F00C000828F8D10CBD0038024098
:1028A0000070004019544007003C02400248006894
:1028B000401C0149086070470800002010B5154809
:1028C000006840F47000134908601348006840F045
:1028D00001001149086000200F49083108600E48C6
:1028E00000680E4908400C4908600D48091D086041
:1028F000081F006820F48020091F08600020064996
:102900000C310860FFF75CFF4FF00060014980392F
:10291000086010BD88ED00E000380240FFFFF6FEC1
:102920001030002470B504460D46D4F8E40529465D
:10293000426820469047002070BD70B504460D46A1
:102940004FF48970005D022802D0032812D100E004
:1029500000BF688801280CD100214FF48C70015110
:10296000D4F8E4052946826820469047204600F0C6
:102970005EF804E02946204600F021F800BF00BFC1
:1029800070BD2DE9F04106460C46154600272B4642
:10299000224600213046FDF7C9FD3846BDE8F081EA
:1029A0002DE9F04106460C46154600272B462246E7
:1029B00000213046FDF715FE3846BDE8F08170B5C0
:1029C00004460D4680212046FDF7E7FD0021204604
:1029D000FDF7E3FD204601F054FA70BD70B50446E2
:1029E0000025052140F21110015500231A46194611
:1029F0002046FDF79BFD204601F043FA284670BDB6
:102A00002DE9F04104460E4615460027C4F83C5116
:102A1000C4F83851022140F2111001552B463246BC
:102A200000212046FDF7DDFD3846BDE8F08170B598
:102A300004460025042140F21110015500231A46D6
:102A400019462046FDF7CDFD204601F01AFA28462A
:102A500070BD70B505460E46002E51D105F58E7439
:102A600040F21110405D02283DD1A168E069884222
:102A700011D9A168E069401AE061E878012803D122
:102A8000D4E902100844E060A08B82B22846E168D5
:102A9000FFF786FF27E0A168206AB0FBF1F201FB97
:102AA000120078B9A168206A88420BD3D4E90801E2
:102AB000884207D2002211462846FFF771FF002006
:102AC000606210E0D5F8E405C06848B14FF4897041
:102AD000405D032804D1D5F8E405C168284688473D
:102AE0002846FFF77BFF4FF48B70405D012816D11D
:102AF000284600F075FB00214FF48B7041550EE025
:102B0000D5F8E405406950B14FF48970405D032861
:102B100005D1D5F8E40531464269284690470020A2
:102B200070BD70B505460E46A6BB05F55D7440F256
:102B30001110405D03283DD1A168E069884217D992
:102B4000A168E069401AE061E878012803D1D4E97E
:102B500002100844E060A368E069984201D2E0698D
:102B600000E0A06882B22846E168FFF70AFF21E092
:102B7000D5F8E405006948B14FF48970405D032839
:102B800004D1D5F8E4050169284688472846FFF7AF
:102B90004EFF0FE0FFE7D5F8E405806950B14FF430
:102BA0008970405D032805D1D5F8E4053146826976
:102BB00028469047002070BD01460020704710B5A0
:102BC0000446D4F8E81548698047012140F2151001
:102BD0000155002010BD10B50446D4F8E8158869E9
:102BE0008047D4F8E4050021426820469047002140
:102BF00040F215100155002010BD000070B50446CC
:102C00000D46E888012804D029462046FFF7D7FE64
:102C10001AE04FF48970005D022802D003280DD11C
:102C200005E0012209492046FFF7EAFE0BE00122F8
:102C300004F588712046FFF7E3FE04E029462046AC
:102C4000FFF7BDFE00BF00BF70BD000034010020D3
:102C5000F8B504460E467088001208286CD2DFE8EA
:102C600000F06B0416226B6B6166A078D4F8EC154B
:102C70000A68694690470546F088402804D04FF41A
:102C80008970005D012801D10820009059E0A078EA
:102C9000D4F8E4158A6A69469047054602216970AE
:102CA000C4F8F0554DE0B078062834D2DFE800F0E3
:102CB000030B131B232BA078D4F8EC154A68694644
:102CC000904705462CE0A078D4F8EC158A68694650
:102CD0009047054624E0A078D4F8EC15CA68694608
:102CE000904705461CE0A078D4F8EC150A696946BF
:102CF0009047054614E0A078D4F8EC154A69694677
:102D0000904705460CE0A078D4F8EC158A6969462E
:102D10009047054604E031462046FFF750FEF8BDD7
:102D200000BF0EE031462046FFF749FEF7E7314687
:102D30002046FFF744FEF2E731462046FFF73FFE0C
:102D4000EDE700BFBDF8000088B1F08878B1F088E9
:102D5000BDF80010884202DDBDF8000000E0F088F8
:102D60000090BDF8002029462046FFF749FE00BF2D
:102D7000D5E70146002002E0421CD0B2491C0A7887
:102D8000002AF9D17047024601EB810302F55D701C
:102D900000EBC300008B80B27047000070B50446A2
:102DA0000D464FF48970005D022802D0032813D12C
:102DB00000E000BF01200C4908604FF48C700059FE
:102DC00020B10846006840F002000860022206496F
:102DD0002046FFF715FE04E029462046FFF7EFFDE9
:102DE00000BF00BF70BD0000380100202DE9F04198
:102DF00004460D4617460026FCB12046FFF7B9FFF2
:102E0000022101EB400038803A783046711CCEB286
:102E10002A5403223046711CCEB22A540AE014F818
:102E2000012B3046711CCEB22A5400223046711C50
:102E3000CEB22A5420780028F1D1BDE8F0812DE9E6
:102E4000F04104460F4615461E46DDF81880204620
:102E500000F0EEFC2046FFF7AFFEC4F8E465C4F8CE
:102E6000E885C4F8EC5539462046FDF7AFFED4F8A6
:102E7000E81508688047204600F0C4FCBDE8F081F2
:102E800010B50446D4F8E405016A204688470020BE
:102E900010BD10B50446D4F8E405416A20468847C1
:102EA000002010BD70B504460D4629462046FEF7A9
:102EB000EDF9002070BD70B504460D462946204648
:102EC000FEF70CFA002070BD70B504460D46812156
:102ED0002046FDF79CFA01212046FDF798FA20468E
:102EE000FEF71EFA002070BD02462020088001482F
:102EF00070470000EC00002070B504460D462946DE
:102F00002046FFF7E1FF0223402281212046FDF702
:102F1000D9FA0223402201212046FDF7D3FA2046A8
:102F2000FEF704FA002070BD70B505460C46207807
:102F300000F06000002849D020287BD16078FE286E
:102F400002D0FF283AD125E06088E0B9E088012866
:102F500019D1207800F08000802814D13749096801
:102F6000886980473649087008460078002804DDE3
:102F700001222846FFF744FD0BE021462846FFF7D3
:102F80001EFD022070BD21462846FFF718FD0220D5
:102F9000F8E719E0608850B9E08840B9207800F07F
:102FA0008000802803D02846FEF7E4F905E021469A
:102FB0002846FFF704FD0220E4E705E02146284605
:102FC000FFF7FDFC0220DDE700BF34E06078012858
:102FD0000ED00A2802D00B2829D105E00122194978
:102FE0002846FFF70DFD22E0A078164908701EE084
:102FF00021792846FDF754FA21792846FDF707FA8A
:10300000207900F08000802806D121790223402217
:103010002846FDF757FA05E0217902234022284689
:10302000FDF750FA21792846FEF712F900BF00BFDC
:1030300001E0FFE700BF00BF0020A3E76800002019
:103040000C0100200D0100207CB505460024284617
:1030500001F018FA002875D0284601F01EFA0190F8
:10306000019808B900207CBD0198C0F3C04018B198
:103070002846FDF7B3FB04430198C0F3804018B124
:103080002846FDF709FB04430198C0F3400050B106
:1030900000200090009820F00200801C0090009812
:1030A000E968486100BF0198C00F18B12846FDF7D4
:1030B00015FC04430198C0F3C02018B12846FDF761
:1030C000AFFC04430198C0F3C00018B12846FDF7D7
:1030D00091FC04430198C0F3001018B12846FDF795
:1030E00031FC04430198C0F3003018B12846FDF7C5
:1030F000EBFC04430198C0F3403018B12846FDF7BB
:1031000097FA04430198C0F3005018B12846FDF720
:10311000ABFD04430198C0F3405018B12846FDF7B9
:10312000B9FD04430198C0F3807018B12846FDF73B
:10313000F1FD04430198C0F3800018B12846FDF763
:10314000BFFD044320468EE790F8CC250A7090F826
:10315000CD254A7090F8CE3590F8CF2503EB0222AA
:103160004A8090F8D03590F8D12503EB02228A806E
:1031700090F8D23590F8D32503EB0222CA80CB8891
:103180004FF4A0721350012340F2111213547047F0
:1031900010B504460023402219462046FDF792F957
:1031A0000023402280212046FDF78CF901214FF4B5
:1031B00089700155A078D4F8E82551688847002027
:1031C00010BD10B50446D4F8E8150869804740F2F0
:1031D0001310015D401E015503210155002010BD53
:1031E00001460348026808694260002070470000F9
:1031F0008800002010B50446D4F8E405C06920B169
:10320000D4F8E405C16920468847002010BD70B598
:1032100004460D46A88818BBE88808BBA87800F0CB
:103220007F064FF48970005D032804D129462046AB
:10323000FFF7C5FB18E04FF48A700655314620466B
:10324000FDF79DF92046FFF7F2FB26B102214FF46E
:103250008970015508E001214FF48970015503E0A0
:1032600029462046FFF7ABFB70BD70B504460D46FE
:10327000D4F8E4052946026820469047D4F8E815BA
:1032800088688047002070BD70B504460D46A87858
:103290003049087008460078012804DD2946204698
:1032A000FFF78DFB55E04FF48970005D022802D0D6
:1032B000032848D117E02748007880B125480078D6
:1032C00084F8100103214FF48970015521480178D9
:1032D0002046FFF7CAFF2046FFF7A9FB02E0204681
:1032E000FFF7A5FB34E01B48007880B902214FF4BA
:1032F000897001551748007884F810011548017845
:103300002046FFF70FFB2046FFF791FB1AE094F8E9
:10331000100110490978884211D094F81011204604
:10332000FFF700FB0B48007884F81001094801788A
:103330002046FFF79AFF2046FFF779FB02E0204680
:10334000FFF775FB04E029462046FFF738FB00BF76
:1033500000BF70BD3C010020F8B504460D460026B4
:10336000688801280DD101214FF48C700151D4F8E7
:10337000E40529468268204690472046FFF757FB20
:1033800039E06888022836D12879A0BB20694068D6
:103390000090A8880612062E22D2DFE806F021034C
:1033A000090F151B009820F070001030009017E0F6
:1033B000009820F070002030009011E0009820F07C
:1033C0007000303000900BE0009820F0700040302A
:1033D000009005E0009820F070005030009000BF91
:1033E00000BF05480099016001214FF48B70015521
:1033F0002046FFF71CFBF8BD880000201CB50446E2
:1034000069462046FFF7A0FE9DF8000000F01F006F
:1034100020B1012807D002280FD109E069462046D3
:1034200000F016F811E06946204600F0F9F80CE0CB
:103430006946204600F046F807E09DF8000000F0DD
:1034400080012046FDF7A9F800BF00BF00201CBD89
:1034500070B505460C46002660780A2829D2DFE8B8
:1034600000F01923281E280A0528140F2146284693
:10347000FFF7EEFB22E021462846FFF7C8FE1DE0DD
:1034800021462846FFF700FF18E021462846FFF7AF
:10349000B5FB13E021462846FFF780FC0EE02146ED
:1034A0002846FFF759FF09E021462846FFF745FA6D
:1034B00004E021462846FFF782FA00BF00BF3046ED
:1034C00070BD00002DE9F04105460E460027347915
:1034D0007078002857D001282BD0032875D14FF4DD
:1034E0008970405D022802D003281BD107E02CB16F
:1034F000802C03D021462846FDF74FF817E070884E
:1035000030B92CB1802C03D021462846FDF745F870
:10351000D5F8E40531468268284690472846FFF7EB
:1035200086FA04E031462846FFF749FA00BF00BF9B
:1035300070E04FF48970405D022802D003281BD14F
:1035400007E02CB1802C03D021462846FDF725F852
:1035500017E0708878B95CB1802C09D021462846E4
:10356000FCF77AFFD5F8E405314682682846904793
:103570002846FFF75CFA04E031462846FFF71FFAB9
:1035800000BF00BF46E04FF48970405D022802D0C2
:10359000032837D107E02CB1802C03D021462846E0
:1035A000FCF7FBFF33E004F08000802812D104F028
:1035B0007F0000EB800105F58E7000EBC100807884
:1035C00020B101201549086016E022E000201349CF
:1035D000086011E004F0800070B904EB840105F587
:1035E0005D7000EBC100807818B101200B490860C4
:1035F00002E0002009490860022208492846FFF736
:10360000FFF904E031462846FFF7D9F900BF00BFB3
:1036100000E000BF00BF3846BDE8F0813001002067
:1036200070B504460D4600264FF48970005D0328EE
:1036300014D1287901280CDCD4F8E40529468268E5
:1036400020469047E88840B93EB92046FFF7EFF999
:1036500003E029462046FFF7B2F904E02946204658
:10366000FFF7ADF900BF00BF304670BD10B504468E
:103670004FF48970015D401C01550421401E015525
:10368000D4F8E815C8688047002010BD70B505461D
:103690000C462DB92246064906A0FFF7A7FB04E019
:1036A0002246034903A0FFF7A1FB014870BD0000BB
:1036B00084EF00204D534320436F6E66696700001E
:1036C000704770470246122008800148704700008A
:1036D00028000020704710B1012802D100E001E06D
:1036E00000E000BF00BF70477047704770470000A0
:1036F00070B505460C462DB92246064906A0FFF7CF
:1037000075FB04E02246034903A0FFF76FFB014865
:1037100070BD000084EF00204D534320496E746556
:10372000726661636500000002460420088001485B
:10373000704700004400002070B505460C46224644
:10374000024903A0FFF752FB004870BD84EF002040
:1037500053544D6963726F656C656374726F6E6903
:103760006373000070B505460C462DB92246064924
:1037700006A0FFF73BFB04E02246034909A0FFF740
:1037800035FB014870BD000084EF00204D6173736C
:103790002053746F7261676520696E204853204D15
:1037A0006F6465004D6173732053746F7261676558
:1037B00020696E204653204D6F64650070B5054644
:1037C0000C462DB92246064906A0FFF70FFB04E080
:1037D0002246034907A0FFF709FB014870BD00001E
:1037E00084EF0020303030303030303030303141F4
:1037F0000000000030303030303030303030314276
:103800000000000038B504464FF4C060FEF78CF8A5
:1038100043208DF8000001208DF8010003208DF871
:10382000020001208DF803006846FEF741F838BD1C
:103830001CB5044601210846FEF78AF84FF4C8502B
:10384000009003208DF8050002208DF80400002070
:103850008DF806008DF8070069462148FDF7F8FB52
:103860000A2208211E48FDF73BFC0A220B211C48B6
:10387000FDF736FC0A220C211948FDF731FC4FF404
:103880000070009003208DF8050000208DF80400E2
:1038900001208DF8060000208DF8070069461048C9
:1038A000FDF7D6FB4FF48060009001208DF80600F4
:1038B0008DF8070003208DF8050069460848FDF7DC
:1038C000C7FB0A2211460648FDF70AFC01218803BE
:1038D000FEF76EF801218020FEF74AF81CBD0000BB
:1038E0000000024010B504464FF47A7104FB01F069
:1038F00000F001F810BD0022C0EB0013D90000BF9A
:10390000531C1A468B4200D97047F9E73EB504466E
:1039100000250020029001900090207A01283DD1DE
:10392000E068806B0190019820F480300190607A0B
:1039300028B1019820F4801000F5801001900198C2
:10394000E168886300200290E068C06802900298F5
:1039500020F040000290029820F48000029002982B
:1039600020F400300290029820F400200290029887
:10397000E168C860204600F05BF9E07801283DD19D
:10398000009820F01E000A300090009820F02000DF
:10399000203000900098E16888602FE0E068C068FF
:1039A0000290029820F04000403002900298E168B6
:1039B000C860204600F03CF900200190019820F4F6
:1039C000803000F580300190019820F4802000F5CF
:1039D00080200190019820F4002000F50020019043
:1039E000607A28B1019820F4801000F580100190D1
:1039F0000198E16888631420FFF774FFE0780128DC
:103A00000FD1E06880680090009820F01E000A3016
:103A10000090009820F02000203000900098E1688D
:103A2000886028463EBD70B588B004460026002058
:103A3000079006900590049003900021D4F80C01A3
:103A40000160206900680690069820F4C050069036
:103A5000069920690160E07A01283DD103212046C2
:103A600000F004FD8020E1684862059880B200F50E
:103A70008000059005986FF30F0080300590059841
:103A8000E1688862059800EB1041049861F30F002B
:103A90000490049880B200F5000004900498E16856
:103AA000C1F80401049800EB104161F30F00049089
:103AB000049880B204900499E068C0F80811049852
:103AC00000EB104161F30F000490049880B2049061
:103AD0000499E068C0F80C111021204600F07CFC2D
:103AE000204600F053FC00212069016120694161FA
:103AF000491E2069816100212069C16100252CE0F7
:103B000004F1180050F82500006807900798C00FCE
:103B100070B100200790079820F0804000F18040AD
:103B20000790079820F0006000F10060079001E026
:103B30000020079004F1180050F825000799016053
:103B4000002104F1180050F825000161FF2104F163
:103B5000180050F8250081606D1C6078A842CFD80D
:103B600000252CE004F1540050F825000068019075
:103B70000198C00F70B100200190019820F08040A2
:103B800000F180400190019820F0006000F1006099
:103B9000019001E00020019004F1540050F825004C
:103BA00001990160002104F1540050F825000161E1
:103BB000FF2104F1540050F8250081606D1C6078ED
:103BC000A842CFD800200390039820F4807000F51D
:103BD0008070039020690069039988430843216934
:103BE0000861E07801281DD100200290029820F0A1
:103BF0000100401C0290029820F00200801C0290FC
:103C00004021029861F38A000290029820F48030EB
:103C100000F580300290029861F3594002900299B9
:103C200020690163204600F047FB304608B070BDB4
:103C3000F8B50446002600250020009000BF0320B0
:103C4000FFF759FEE06800690090681C05461349BB
:103C5000884201D90020F8BD0098C00F0028EED09E
:103C60000025009820F00100401C00900098E168B9
:103C7000086100BFE06800690090681C05460749BC
:103C8000884200D904E0009800F001000028F1D13A
:103C900000BF0320FFF72FFE3046DCE7400D030096
:103CA00008B50146002000220092009A22F001028D
:103CB000521C0092CA689268009B9A43CB689A6033
:103CC00008BD0EB501460020002200920A699268E4
:103CD00002928A6912680192029AC2F3410232B1D9
:103CE000012A05D0022A09D0032A0DD101E000BF24
:103CF00000BF019A6FF30A02019205E0019A6FF387
:103D00000A02D21C019200BF00BF019B8A691360A6
:103D1000009A22F4807202F5807200920A69526859
:103D2000009B9A431A430B695A600EBDFEB50246CA
:103D3000002000240025029500954D78012D52D1D8
:103D400093691D6802951D6900954D6955B9009DDF
:103D500025F07F050095009D25F4C01505F500258B
:103D6000009516E08E684D69B54207D98D684D61A2
:103D70000E7A009D66F30605009504E00E7D009D19
:103D800066F306050095009D25F4C01505F5002590
:103D90000095009D1D61D578012D06D10F7802F1A7
:103DA000180555F827500E696E61029D25F0806553
:103DB00005F180650295029D25F0004505F100455D
:103DC0000295029D1D60D578002D59D14D69002DB9
:103DD00056D00E780125B5402C4315696D6B2543EF
:103DE000166975634CE00E7802F1540555F82650BB
:103DF0002D6802950E7802F1540555F826502D696C
:103E000000954D695DB90E7A009D66F30605009533
:103E1000009D25F4C01505F5002500950CE08D6882
:103E20004D610E7A009D66F306050095009D25F410
:103E3000C01505F5002500950F7802F1540555F8D9
:103E40002750009E2E61D578012D06D10F7802F102
:103E5000540555F827500E696E61029D25F0806566
:103E600005F180650295029D25F0004505F10045AC
:103E700002950F7802F1540555F82750029E2E60E6
:103E8000FEBD0EB500210191019921F04041A1F143
:103E900080410191019921F4C01101F500210191A6
:103EA000019921F07F0118310191019A416D0A6158
:103EB000C178012915D10021009100F2CC51426D49
:103EC0005161416D09680091009921F0004101F1B3
:103ED000004100914FF080210091009A416D0A60ED
:103EE00000BF0EBD3CB502460020002401940094A2
:103EF0004C78012C0CD10D7802F1180454F82530BF
:103F00000D780124AC40009D64F30F0500950BE093
:103F10000D7802F1540454F825300D780124AC409A
:103F2000009D64F31F4500951C680194019CC4F337
:103F3000C034E4B90D89019C65F30A040194CD787D
:103F4000019C65F3934401948D79019C65F3995428
:103F50000194019C24F0805404F180540194019C4C
:103F600024F4004404F500440194019C1C6014698D
:103F7000E469009D2C431569EC613CBD38B50346EE
:103F80000020002400944C78012C05D10D7803F119
:103F9000180454F8252004E00D7803F1540454F873
:103FA000252014680094009C24F400140094CC781C
:103FB000032C02D0CC78022C05D1009C24F0805434
:103FC00004F180540094009C146038BD3CB5024656
:103FD00000200024019400944C78012C0CD10D7821
:103FE00002F1180454F825300D780124AC40009DEE
:103FF00064F30F0500950BE00D7802F1540454F8BA
:1040000025300D780124AC40009D64F31F450095D8
:10401000019C24F400440194019C1C601469E4692F
:10402000009DAC431569EC613CBD38B503460A46BA
:104030000020002400945478012C18D1157803F145
:10404000180454F825100C680094009CE40F2CB15F
:10405000009C24F0804404F180440094009C24F4EB
:10406000001404F500140094009C0C600EE0157818
:1040700003F1540454F825100C680094009C24F4B7
:10408000001404F500140094009C0C6038BDFEB5CB
:1040900005460C460026002700200290019060781B
:1040A00001287ED1217805F1180050F82100006820
:1040B0000290217805F1180050F821000069019064
:1040C000606948B901986FF31200019001210198CD
:1040D00061F3DC40019017E06169019861F312001F
:1040E00001906069401EA1680844B0FBF1F101989D
:1040F00061F3DC400190E078012805D1019820F0BF
:10410000C04000F100500190227805F1180050F8ED
:10411000220001990161E878012807D1227805F190
:10412000180050F82200216941610DE0E078012873
:104130000AD0606940B12178012000FA01F72869AE
:10414000406B384329694863E078012813D1286916
:10415000806800900098C0F3002030B9029820F0E9
:10416000005000F10050029005E0029820F08050CD
:1041700000F180500290029820F0806000F1806091
:104180000290029820F0004000F100400290227856
:1041900005F1180050F8220002990160E07801282A
:1041A00000E008E06CD1A08A83B222782846E1685A
:1041B00000F039FA64E0217805F1540050F821004C
:1041C00000680290217805F1540050F82100006940
:1041D0000190606950B9A168019861F312000190E3
:1041E0000121019861F3DC40019013E0A068401EBA
:1041F00061690844A168B0FBF1F1019861F3DC400A
:1042000001900198C0F3C940A1684843019960F347
:1042100012010191227805F1540050F82200019911
:104220000161E878012806D1227805F1540050F8A0
:10423000220021694161E07801280ED1607930B116
:10424000029820F0005000F10050029005E0029822
:1042500020F0805000F180500290029820F08060A1
:1042600000F180600290029820F0004000F10040D0
:104270000290227805F1540050F822000299016062
:104280003046FEBD08B500210091491EC26851604C
:104290006FF08041C2685161009921F0004101F145
:1042A00000410091009921F4006101F50061009145
:1042B0000099C268916108BD38B504460025002008
:1042C0000090E16888616FF08040E16848612046B5
:1042D000FFF7D8FFE07820B9009820F010001030E8
:1042E0000090009820F4006000F5006000900098B5
:1042F00020F4805000F580500090009820F4005089
:1043000000F500500090009820F4802000F58020F7
:104310000090009820F4002000F500200090009804
:1043200020F0080008300090009820F4801000F57C
:1043300080100090009820F4001000F5001000900C
:10434000009820F0804000F180400090009820F01C
:104350000400001D0090E0688069009988430843CC
:10436000E1688861284638BD08B501460020002272
:104370000092009A22F00102521C0092CA689268D0
:10438000009B1A43CB689A6008BD0000F8B504464C
:104390000025002600200090009820F0100010302A
:1043A00000900098E168086100BFE0680069009033
:1043B000701C06460749884200D904E00098C0F303
:1043C00000100028F1D100BF0320FFF794FA28461F
:1043D000F8BD0000400D0300F8B504460D46002668
:1043E000002700200090009820F02000203000904E
:1043F000009865F38A1000900098E168086100BF9A
:10440000E06800690090781C07460749884200D997
:1044100004E00098C0F340100028F1D100BF032051
:10442000FFF769FA3046F8BD400D030008B50146B4
:1044300000200A6992680092009AC2F3410232B1E8
:10444000012A06D0022A07D0032A07D102E003205E
:1044500004E000BF022001E0012000BF00BF08BD52
:104460000146C868406900F00100704708B502695C
:1044700012680092009A61F301020092009B0269A7
:10448000136008BD00B502461046FFF7E9FF01289A
:1044900001D0012000BD0020FCE701460020CA68D1
:1044A0005069CA689269104070470146086982697C
:1044B0000869C069024090B2704701460869826984
:1044C0000869C0690240100C7047024602F15403AB
:1044D00053F82130986813695B6918407047F0B54C
:1044E00003460024D01CC71700EB9777BD10D3F804
:1044F000D06000BF03E030680860641C091DAC4256
:10450000F9D30846F0BD000070B502460C46002302
:1045100000200025D5700125957040259580012C3F
:104520000CD14FF0A0430125D57208251570042544
:1045300055709D15D580022515720AE04CB9254BA2
:104540000025D5720C251570062555704FF4A06511
:10455000D580D36003F500651561002110E003F5F7
:10456000106505EB411602F1180545F8216003F5C9
:10457000306505EB411602F1540545F82160491CF0
:1045800055788D42EBD803F5806555614035C2F80A
:10459000CC50002108E003F5A06505EB411602F1BF
:1045A000900545F82160491C15788D42F3D800210B
:1045B00008E003F5805505EB013602F1D00545F81A
:1045C0002160491C15788D42F3D803F56065C2F867
:1045D0000C5170BD00000440F8B504460D4600269D
:1045E000E068C0680090009820F0005000900098AB
:1045F00020F080400090012D06D1009820F000505E
:1046000000F10050009006E02DB9009820F08040A5
:1046100000F1804000900098E168C8603220FFF708
:1046200061F93046F8BD2DE9F04104460026E078F6
:10463000B0B900270020DD1C4FEAE57805EB98783B
:104640004FEAA80704F1D00555F822C000BF04E0E6
:104650000D68CCF80050401C091DB842F8D300BFCB
:104660003046BDE8F08100BFFEE7000008B51649FE
:10467000481EB0F1807F00D31BE0481E4FF0E022BF
:10468000506150170F22002807DA13071D0E0F4B39
:1046900000F00F04241F1D5503E013071C0E0C4BE4
:1046A0001C5400BF00204FF0E022906107201061F1
:1046B00000BF0848084B094A012100900848FEF74E
:1046C000BEFB00BFFEE7000020BF020018ED00E0C7
:1046D00000E400E06C000020C00000200C0000207E
:1046E000400100204FF04070E1EE100A704700805A
:1046F00002021F00000053544D20202020206D692D
:1047000063726F534420466C617368202020312E01
:104710003030000000030080830000000000000033
:104720000000060000000000000000004C470008E8
:104730000000002040010000C401000814480008E7
:1047400040010020E8F4000020020008C113C53633
:10475000140829371B0839041A65041ABD041A8D78
:10476000141AF10413120132021640830420574830
:104770000802010203010A061212011704030904C8
:104780005D251B0849041A71041A77041A7D041365
:104790008D261B08590813EE462308481B20ED48B8
:1047A0001AD7041AC1041AEB041AE9041AC3041A2A
:1047B000D5044113232B1408532A1408FD3314087D
:1047C000F5311B0891042A6D24190813812E1B084A
:1047D00093041ABF241AD7041A8C50411AF9141AD8
:1047E000C9044B292F44411AA5101AB704C11AE96C
:1047F00010140902202008010104C0320904200B12
:10480000020806500507058102402C070501070133
:044810003400000070
:040000050800018965
:00000001FF
