:020000040800F2
:10000000E82E002069020008C95800088540000851
:1000100045540008CB0500083770000800000000B8
:10002000000000000000000000000000FD5C00086F
:10003000850E000800000000DD580008ED5D000896
:10004000830200088302000883020008830200087C
:10005000830200088302000883020008830200086C
:10006000830200088302000883020008830200085C
:10007000830200088302000883020008830200084C
:10008000830200088302000883020008830200083C
:10009000830200088302000883020008830200082C
:1000A000830200088302000883020008830200081C
:1000B000830200088302000883020008830200080C
:1000C00083020008830200088302000883020008FC
:1000D00083020008830200088302000883020008EC
:1000E00083020008830200088302000883020008DC
:1000F00083020008830200088302000883020008CC
:1001000083020008830200088302000883020008BB
:1001100083020008830200088302000883020008AB
:10012000830200088302000883020008830200089B
:10013000830200088302000883020008830200088B
:10014000830200088302000883020008CD580008DB
:10015000830200088302000883020008830200086B
:10016000830200088302000883020008830200085B
:10017000830200088302000883020008830200084B
:10018000830200088302000800F002F800F05CF827
:100190000AA090E8000C82448344AAF10107DA45E2
:1001A00001D100F051F8AFF2090EBAE80F0013F0D8
:1001B000010F18BFFB1A43F001031847540D040048
:1001C000740D04000A444FF0000C10F8013B13F0CA
:1001D000070408BF10F8014B1D1108BF10F8015BA0
:1001E000641E05D010F8016B641E01F8016BF9D193
:1001F00013F0080F1EBF10F8014BAD1C0C1B09D1EA
:100200006D1E58BF01F801CBFAD505E014F8016B5B
:1002100001F8016B6D1EF9D59142D6D370470000ED
:100220000023002400250026103A28BF78C1FBD8FF
:10023000520728BF30C148BF0B6070471FB510F090
:10024000CAFA1FBD10B510BD00F08CF91146FFF7BA
:10025000F5FF0FF0A9FD00F0AAF903B4FFF7F2FFD4
:1002600003BC00F0ABF9000009488047094800478B
:10027000FEE7FEE7FEE7FEE7FEE7FEE7FEE7FEE756
:10028000FEE7FEE704480549054A064B70470000B3
:10029000FD5D000889010008E8280020E82E002004
:1002A000E82A0020E82A0020032A40F2308010F0DB
:1002B000030C00F0158011F8013BBCF1020F624401
:1002C00098BF11F801CB00F8013B38BF11F8013B92
:1002D000A2F1040298BF00F801CB38BF00F8013B3F
:1002E00011F0030300F06780083AC0F0088051F86D
:1002F000043B083A51F804CBA0E80810F5E7121DBA
:100300005CBF51F8043B40F8043BAFF30080D207D8
:1003100024BF11F8013B11F801CB48BF11F8012BA4
:1003200024BF00F8013B00F801CB48BF00F8012BC7
:100330007047431A28BF9A427FF6B6AF032A10448B
:10034000114440F2268010F0030F1EBF11F8013D4A
:10035000521E00F8013D10F0030F7FF4F6AF11F0CC
:10036000030300F0AA80083AC0F00B8051F8043D66
:10037000083A51F804CD40F8043D40F804CDFFF7A9
:10038000F3BF121D5CBF51F8043D40F8043DAFF3CC
:100390000080D20724BF11F8013D11F801CD48BFFC
:1003A00011F8012C24BF00F8013D00F801CD48BF31
:1003B00000F8012C704710B5203AC0F00B80B1E86E
:1003C0001850203AA0E81850B1E81850A0E818508A
:1003D000BFF4F5AF5FEA027C24BFB1E81850A0E893
:1003E000185044BF18C918C0BDE810405FEA827CAD
:1003F00024BF51F8043B40F8043B08BF7047D207C4
:1004000028BF31F8023B48BF11F8012B28BF20F864
:10041000023B48BF00F8012B704702F0FF0343EA9C
:10042000032242EA024200F074B84FF0000200B525
:10043000134694469646203922BFA0E80C50A0E807
:100440000C50B1F12001BFF4F7AF090728BFA0E8B5
:100450000C5048BF0CC05DF804EB890028BF40F881
:10046000042B08BF704748BF20F8022B11F0804FC3
:1004700018BF00F8012B704770477047704710B5E0
:1004800000F068F8006810BD10B5044600F062F88E
:10049000046010BD431A28BF9A427FF68CAF104407
:1004A00010F0030F11441EBF11F8013D521E00F859
:1004B000013D10F0030F7FF4F6AF103AC0F00A8050
:1004C00010B531E91850103A20E91850BFF4F9AFCF
:1004D000BDE81040530724BF31E9081020E9081097
:1004E00044BF51F8043D40F8043D12F0030F08BF2B
:1004F0007047D20728BF31F8023D48BF11F8012CE0
:1005000028BF20F8023D48BF00F8012C70474FF08B
:1005100000020429C0F0128010F0030C3FF487AFF2
:10052000CCF1040CBCF1020F18BF00F8012BA8BFDE
:1005300020F8022BA1EB0C01FFF779BF5FEAC17C29
:1005400024BF00F8012B00F8012B48BF00F8012B55
:100550007047000000487047882800200048704716
:10056000882800207546FFF7F9FFAE46050069466A
:10057000534620F00700854618B020B5FFF782FEED
:10058000BDE820404FF000064FF000074FF0000894
:100590004FF0000B21F00701AC46ACE8C009ACE815
:1005A000C009ACE8C009ACE8C0098D4670470446F4
:1005B000AFF300802046FFF750FE000001491820ED
:1005C000ABBEFEE726000200704700BFFEE770B535
:1005D00006460C4604F08000802808D104F07F0015
:1005E00000EB800106F58E7000EBC10505E004EB21
:1005F000840106F55D7000EBC1050020A87004F0D1
:100600007F002870C4F3C01068702946304606F099
:1006100011FB002070BD2DE9F04106460D469046C5
:100620001F4605F08000802808D105F07F0000EB10
:10063000800106F58E7000EBC10407E005F07F0035
:1006400000EB800106F55D7000EBC10405F07F0052
:10065000207005F08000C0096070C4F80880E77061
:10066000607808B12078E080022F01D1002020714D
:100670002146304606F092FA0020BDE8F0812DE9CF
:10068000F04105460E461746984606F07F0000EBFF
:10069000800105F55D7000EBC104E760C4F81480CB
:1006A0000020A061607006F07F002070E8780128CB
:1006B00000D12761207820B92146284606F092F91A
:1006C00003E02146284606F00FFB0020BDE8F0813C
:1006D00008B500220092009A61F30A1200920269A2
:1006E0001268009B1A4303691A6008BD70B506467C
:1006F0000C4604F08000802808D104F07F0000EB55
:10070000800106F58E7000EBC10505E004EB840165
:1007100006F55D7000EBC1050120A87004F07F00B4
:100720002870C4F3C01068702946304606F0AAFA53
:10073000002070BD2DE9F04107460D46164698464B
:1007400005F07F0000EB800107F58E7000EBC1041F
:100750000120607005F07F002070E66026610020B7
:10076000A061C4F81480207820B92146384606F0EC
:1007700039F903E02146384606F0B6FA0020BDE814
:10078000F0811CB50446204606F0F7F8E068C06822
:100790000090204606F0CEFB03280BD10020A0706D
:1007A0004FF40070A080009820F4705000F51050B5
:1007B000009009E00120A0704020A080009820F463
:1007C000705000F5A05000900098E168C8600020CB
:1007D0000190019820F4005000F50050019001981C
:1007E000E168486101201CBDF8B5054600240020E1
:1007F0000090284606F0D1FB064690E006F0010086
:1008000000287DD0E1B2284600F0CAFA0090009896
:1008100000F0010030B3012000FA04F72869406BB2
:10082000B8432969486300200090009820F0010037
:10083000401C009005F1180050F8240000998160D8
:10084000E1B239480068426828469047E8780128B4
:1008500008D13CB940F21110405D042802D128466D
:1008600006F06BF90098C0F3C00060B10020009062
:10087000009820F008000830009005F1180050F8AA
:100880002400009981600098C0F3001060B100203E
:100890000090009820F010001030009005F1180032
:1008A00050F82400009981600098C0F3801060B176
:1008B00000200090009820F040004030009005F1AA
:1008C000180050F82400009981600098C0F340009F
:1008D00060B100200090009820F00200801C009081
:1008E00005F1180050F82400009981600098C0F3C9
:1008F000C01028B12146284600F07CFA002000E014
:100900000BE00090009820F080008030009005F10E
:10091000180050F8240000998160641C7608002EAD
:100920007FF46CAF0120F8BD900000207CB5044638
:10093000002500200190204606F037FB06466FE0B8
:1009400006F00100002869D0E9B2204606F035FB28
:100950000190019800F00100C8B3002001900198B7
:1009600020F00100401C019004F1540050F82500D3
:1009700001998160E078012817D104F1540050F802
:1009800025000069009005EB850104F55D7000EB22
:10099000C10080680099C1F31201411A05EB85027C
:1009A00004F55D7000EBC2008161E9B21E48006889
:1009B000026820469047E078012808D13DB940F20E
:1009C0001110005D052802D1204606F0B6F8019806
:1009D000C0F3400060B100200190019820F00200B7
:1009E000801C019004F1540050F8250001998160A9
:1009F0000198C0F3C00088B10B48006881682046A8
:100A0000884700200190019820F0080008300190EC
:100A100004F1540050F82500019981606D1C76089E
:100A2000002E8DD101207CBD900000203EB50446F3
:100A3000A07A70B1D4F80C010090009820F0020068
:100A40000090009820F0010000900099D4F80C016B
:100A5000016000200190019820F00100401C0190ED
:100A60002069406801998843216948600848006806
:100A700081692046884700200290029820F00040BB
:100A800000F1004002900298E168486101203EBDFB
:100A9000900000207CB5044600200190019820F0D1
:100AA000100010300190E068806901998843E16886
:100AB0008861E068006A0090009800F00F0000EB89
:100AC000800104F55D7000EBC1050098C0F3434060
:100AD00007282DD2DFE800F02C04051D1E2C1F0076
:100AE00027E00098C0F30A1090B10098C0F30A12F2
:100AF0002046E96806F06BFAE8680099C1F30A112C
:100B00000844E860A8690099C1F30A110844A86183
:100B10000FE00EE00DE0082204F2CC51204606F072
:100B200056FAA8690099C1F30A110844A86100E0C7
:100B300000BF00BFE068806901990843E1688861EF
:100B400001207CBD38B5044608480068C1682046CD
:100B5000884700200090009820F00800083000909E
:100B60000098E1684861012038BD00009000002035
:100B70001FB50446002000904FF48970005D00907E
:100B800023480068416920468847206980680190B1
:100B900000200390039820F4006000F500600390AB
:100BA0000398E1684861A07A70B3019800F00100F1
:100BB00050B340F21510005D012825D19DF80000CA
:100BC000032821D100200290029820F00100401C4F
:100BD0000290D4F80C01006802990843D4F80C1173
:100BE0000860029820F00200801C0290D4F80C01EA
:100BF000006802990843D4F80C11086005480068A1
:100C000040F0060003490860012004B010BD000058
:100C10009000002010ED00E030B587B004460020C1
:100C2000029006900590049003900190029820F0A5
:100C30000100401C029020694068029988432169A4
:100C400048600021204606F04BF900250BE0FF210B
:100C500004F1180050F82500816004F1540050F8A8
:100C6000250081606D1C6078A842F0D84FF0FF31FC
:100C70002069816106986FF30F00401C069006986A
:100C800080B200F58030069006992069C161059810
:100C900020F0080008300590059820F00100401C65
:100CA0000590059820F00200801C059005992069A8
:100CB0004161049820F00100401C0490049820F049
:100CC000080008300490049820F00200801C049072
:100CD000049920690161206900680390039820F459
:100CE000FE600390039920690160204605F025FF0E
:100CF00000200190019820F4805000F58050019070
:100D00000198E16848610448006801692046884705
:100D1000012007B030BD00009000002038B5044627
:100D20000020009007480068C16920468847009865
:100D300020F4801000F5801000900098E168486170
:100D4000012038BD9000002038B5044600200090F6
:100D500007480068016A20468847009820F4001080
:100D600000F5001000900098E1684861012038BD4E
:100D70009000002038B50446E06840680090009874
:100D8000C0F3800020B105480068816A204688478A
:100D90000098E1684860012038BD00009000002004
:100DA00030B5024615692B6915696C6B24FA01F59B
:100DB00005F0010543EAC51302F1180555F8215065
:100DC000AD6805EA030030BD38B504460848006840
:100DD000416A2046884700200090009820F080401B
:100DE00000F1804000900098E1684861012038BD22
:100DF000900000202DE9F84307460E46002500200C
:100E0000009006EB860107F58E7000EBC104D4E973
:100E10000501451AA068A84200D2A568E81C4FEA5F
:100E2000900807F1180050F82600806900901BE038
:100E3000D4E90501451AA068A84200D2A568E81CBB
:100E40004FEA9008ABB2F2B23846E16806F0D3F848
:100E5000E0682844E060A0692844A06107F1180018
:100E600050F8260080690090009880B2404506D96D
:100E7000D4E90510884202D260690028D8D1012047
:100E8000BDE8F8837047000008B5002000900548D1
:100E9000009002E00098401E009000980028F9D1D0
:100EA00008BD000040420F0010B50246002000239C
:100EB000102A03D14FF02044636E0FE0B2F5807F1B
:100EC00002D10A4C236809E0B2F5805F03D1074CD8
:100ED0002034236802E0054CD434236803EA01047B
:100EE0008C4201D0002000E0012010BD840000A051
:100EF0000021D0E900231A4383685B1E42EA4312B3
:100F0000C36842EA4321014A11607047500100A0C2
:100F100070B50021002200230024D0E9015635439A
:100F2000C6683543066935434669354386693543A6
:100F3000C6693543066A3543466A45EA06010568CF
:100F400035B90568AD00A5F1C045C5F840110DE003
:100F5000D0E907563543466A45EA0603294D2B601A
:100F60000568AD00A5F1C045C5F84011056835BB61
:100F7000856A2D686D1E866A7668761E45EA0616B5
:100F8000856AAD686D1E46EA0526856AED686D1EA8
:100F900046EA0536856A2D8A6D1E46EA0546856A4B
:100FA000AD8A6D1E46EA0556856A2D7E6D1E46EA9F
:100FB0000562144D0835066845F8262020E0856A4C
:100FC0002D686D1E866A7668761E45EA0616856A65
:100FD000AD686D1E46EA0526856A2D8A6D1E46EAB5
:100FE0000542856AED686D1E2E03856AAD8A6D1E09
:100FF00046EA0554034D08352C60066845F826205E
:1010000070BD0000400100A00449096841EA4001A8
:101010004FF02042C2F8541170470000540100A064
:1010200099B1102808D14FF02042126E42F004020C
:101030004FF020431A661BE00E4A126842F0040289
:101040004FF02043C3F8802012E0102808D14FF061
:101050002042126E084B1A404FF020431A6607E0F8
:10106000044A1268044B1A404FF02043C3F8802012
:1010700070470000800000A0FBFF0F0030B500218A
:1010800000220023446844F0080485682C43C568A6
:101090002C4305692C43456944EA4524856944EAA3
:1010A0004531C4692468C5696D6844EA0524C56989
:1010B0002D8944EA0544C5692D7B44EA0562046A2A
:1010C0002468056A6D6844EA0524056A2D8944EAA6
:1010D0000544056A2D7B44EA05630468102C05D19C
:1010E0004FF020442166A266E36608E0044C2160CC
:1010F0004FF02044C4F88820014C0C34236030BDEC
:10110000800000A02DE9FF5F06460C4615464FF013
:10111000000A670CC4F38A1804F03F096019401EE6
:101120004FEA504B6019401EC0F38A1001906019BD
:10113000401E00F03F000090ADF80870ADF80A8046
:10114000ADF80C9038E006EB0A000123DDE902124D
:1011500004F0B2FA0AF5006ABDF8080058450AD151
:10116000BDF80A100198814205D1BDF80C10009815
:10117000814200D121E0BDF80C00401C80B2ADF8E6
:101180000C00BDF80C00402816D10020ADF80C0072
:10119000BDF80A00401C80B2ADF80A00BDF80A0094
:1011A000B0F5006F08D10020ADF80A00BDF80800C6
:1011B000401C80B2ADF80800C5E700BFBDE8FF9F46
:1011C0002DE9F04F87B082460C4617461E46002593
:1011D0000020019000904FEA5448C4F38A1904F0AB
:1011E0003F000490E019401E4FEA504BE019401EAA
:1011F000C0F38A100390E019401E00F03F000290F7
:10120000ADF81480ADF816900020ADF8180074E029
:10121000BDF81400404511D1BDF8160048450DD168
:10122000BDF818100498814208D270190123DDE935
:10123000051204F041FA05F5006528E0BDF8140038
:10124000584512D1BDF81610039881420DD1BDF852
:1012500018100298814208D970190123DDE905129E
:1012600004F02AFA05F5006511E0002000900AE07C
:1012700001981AF8000070556D1C0198401C0190EF
:101280000098401C00900098B0F5006FF0D3BDF8B6
:101290001800401C80B2ADF81800BDF818004028B6
:1012A0002BD10020ADF818000025DDE9050104F080
:1012B000EDF840233046DDE9051204F08FFABDF861
:1012C0001400584505D1BDF816100398814200D18D
:1012D00014E0BDF81600401C80B2ADF81600BDF851
:1012E0001600B0F5006F08D10020ADF81600BDF86B
:1012F0001400401C80B2ADF8140089E700BF07B0AD
:10130000BDE8F08F10B5002001F0B6FE6FF07F4011
:1013100001F0BDFE012001F015FF002001F020FFCB
:10132000002001F02DFF002001F0C2FE04480068FB
:1013300001F0CAFEBDE81040002001F0D5BE00005B
:10134000BC000020F0B50A4600210023002400BFA5
:101350003DE0012505FA01F3156805EA03049C4206
:1013600034D105684F000326BE40B54305601579AA
:101370004E00B5400668354305601579012D02D051
:101380001579022D16D185684F000326BE40B5435E
:10139000856055794E00B54086683543856045685F
:1013A00001268E40B5434560456896798E40B6B2B9
:1013B00035434560C5684F000326BE40B543C56050
:1013C000D5794E00B540C6683543C560491C102923
:1013D000BFD3F0BDF0B5002300244D07ED0E02FA97
:1013E00005F3CE1000F1200555F826504E07F70EF4
:1013F0000F26BE40B543CF1000F1200646F8275017
:10140000CE1000F1200555F8265045EA0304CE1011
:1014100000F1200545F82640F0BD02460020136982
:101420000B400BB1012000E0002070472DE9F04F88
:10143000DFF828B191B04FF0FF35DBF80030B3F999
:1014400022100691DE69B3F92490F469A1898142E2
:1014500006D8E289824203D3471AD4F8008012E00A
:10146000D4E9018100296FD00A8882426CD84D8866
:10147000854269D3801A82B2486800EB8200B0F9D5
:101480000070B0F90250781C5ED0307EA17C10FB59
:1014900001FA217CCDE90701B3F92A60304603F057
:1014A000FFFBC0B20E90DBF8000007FB0A81A37CB3
:1014B000826B0127CDE90412CDE90273C069089A55
:1014C000C17E807ECDE90001DDE90603494602F0D8
:1014D000FDFE681C18D046F0020003F0E1FBDBF8CB
:1014E0000000A37C05FB0A81826BCDE90273CDE984
:1014F0000412C069089AC17E807ECDE90001DDE951
:101500000603494602F0E2FEDBF800005D46C069D2
:10151000417E007E814214D9022E12D086F0040052
:1015200003F0BEFB2868C069027EC37E12FB0391F4
:10153000437E857E089A06984B4412FB050203F011
:1015400027F80E9803F0ACFBDBF80000627C418CBE
:101550001144418411B0BDE8F08F0000C0000020AC
:1015600004480068C069C06909B1027C0A60407C17
:1015700070470000C0000020022008807047C0694A
:1015800082898A4202D8C2898A4210D2806880B198
:1015900002888A420DD843888B420AD3406800EB08
:1015A0008100A0EB8200B0F90000002801DB0120DF
:1015B00070470020704700002DE9F043304C03468F
:1015C00087B020681946B0F92A60C069C06900F088
:1015D00086F8002850D041680088181A01EBC00531
:1015E0003046AF7803F05CFB814620686A680123CF
:1015F000816BCDE90237CDE90421C169CB7E8A7EBA
:10160000CDE900230B7EB0F924102A78B0F922002E
:1016100002F05CFE2068C069417E027E91421FD9C3
:10162000C07E11FB00F812FB00F7022E18D000F06C
:101630003FFC064600F00AFC01F029FD21682A78EB
:10164000CB69B1F92200DB7E12FB0302B1F9241051
:1016500001EB0803394402F09BFF304601F017FD0F
:10166000484603F01DFB20686A78C369B0F9221070
:101670009B7E12FB0311418407B0BDE8F08300009C
:10168000C000002030B50F4C05460B4620682946A7
:10169000C069C06900F023F8002812D041680088B2
:1016A00024682A1A0120E46900EBC200085CA47EC9
:1016B00010FB04F0002B04D011F8321011FB04F1E0
:1016C000196030BDC000002001200880704700B5BF
:1016D000C06900F004F8002800D0012000BD06E039
:1016E00002888A4202D842888A4202D28068002850
:1016F000F6D1704770B50025124C19E020691249E7
:10170000C5EB051600EBC60070220968001DFEF748
:1017100052FE2069002140F8361000EBC60000F1AF
:101720000C018161011D0A1DC0E90F126D1C41648D
:10173000A0688542E2DB00F021FFBDE8704001F0C7
:10174000C3BE000038010020C000002070B50F4962
:101750000D480860084602F011FC0C4C143CA068CF
:10176000C0EB0010C500284600F06AF82A460021A8
:10177000206102F043FC4FF0FF30206001F0D9FE01
:10178000BDE870400AF01EBC8DCE00084C01002060
:1017900010B5040009D000F0F1FE204606F020FD4F
:1017A000044601F091FE204610BD002010BD38B562
:1017B000054600F0E3FE2846FFF7EAFF040009D0E3
:1017C00000F0BEF82A460021009002F017FC68469F
:1017D00000F0E6F801F078FE204638BD024A1060BD
:1017E00021F00300506070475427002010B504001A
:1017F00016D000F0C3FE0B48406B10F8341059B1FE
:10180000022909D2042101EBC4014158486806F0BD
:101810009FFC20460BF072FCBDE8104001F054BE66
:1018200010BD000094260020002805D0034AD16B8B
:10183000016001B14860D063704700009426002029
:101840002DE9F04104460BF0BDF82848E41C24F0D3
:101850000305016C2D1DA94200D90D46C46B13E090
:1018600054F8042CAA420ED184B1216809B16268EF
:101870004A60616809B122680A60C26BA24231D134
:101880002168C1632EE02468002CE9D18046816B79
:10189000C0680F1857F8040C3E1A306838B10020A1
:1018A0000BF024FD57F8040C3E1A3068D0B970686C
:1018B000A84217DB3044441B3046241D0BF0CEFCFD
:1018C000D8F80C10491BC8F80C10D8F8141029448B
:1018D000C8F814107068401B02D0314606F038FC7E
:1018E00044F8045C2046BDE8F08100009426002006
:1018F00010B500240BF066F80C490F2001EBC00274
:10190000526C1AB101EBC000406C08E0401EF5D5E6
:1019100008E04168A14200D90C46806810B1806897
:101920000028F6D1A4F10C0010BD00009426002080
:1019300002488169491C816170470000942600209B
:101940000549CA69521CCA61496B01EBC0010A789A
:10195000521C0A7000F03CB89426002010B500F02C
:101960000DFEFFF7C5FF64220849B0F5800F04D9CA
:1019700090FBF2F4086A444303E0096A4143B1FB77
:10198000F2F401F0A1FD204610BD000094260020D5
:1019900002488169491E8161704700009426002039
:1019A0000A4902684B6B52F8082C03EBC202137809
:1019B000022B03D3CB690BB15B1ECB611178491E9F
:1019C0001170002101600846704700009426002035
:1019D000002806D00349042202EBC000496B0858D6
:1019E000083070479426002010B5C2B2CBB2D21A8C
:1019F00000D5524293B25B43C0F30722C1F30724E0
:101A0000121B00D55242000C92B2A0EB114002FB17
:101A1000023200B2002801DA404200B280B200FB7C
:101A2000002010BD10B50021084600F097FA43F6DB
:101A3000FF725042BDE8104013460146AFF30080EC
:101A40002DE9FC411C4615460E46074600F096FD62
:101A5000042003F025F980461248C068C16C006D6F
:101A60000F4406440D440444ADF80070ADF8045032
:101A7000ADF80260ADF80640684606F00BF807E0E6
:101A800023462A463146384602F082FD05F0C4FF5F
:101A90000028F5D1404603F003F901F015FDBDE83B
:101AA000FC810000B40000202DE9F0411C461646E0
:101AB0000D460746022B02DB0020BDE8F0811C200A
:101AC000FFF7BEFE0028F8D00DB105610AE0094A13
:101AD00052F8241009B905E011460A68002AFBD122
:101AE0000969016184618682002101604160C0E969
:101AF0000217E2E7D800002070B51D46FFF7D4FFBB
:101B0000040009D000F00EF8E068006820B903482E
:101B1000006800EB85008465204670BDC000002091
:101B2000FFF782BE70B590B38269022A30DA1E4C8C
:101B300054F8221019B944F8220032E019464B68D3
:101B4000002BFBD106E0CB68C5681B682D68AB4253
:101B500003DD09680029F6D11AE0C1B1CB68C66877
:101B60001B683668B3420CD1838A012B05D008E08C
:101B70001946DB681B68AB4203DB0B68002BF7D10F
:101B800029B14B6833B118604A68426004E0FFE74E
:101B9000012070BD44F822004860884200D1002135
:101BA0000160002070BD0000D800002010B503E0E7
:101BB0000468FFF7B7FF20460028F9D110BD0BF0ED
:101BC0000DBE00002DE9F0410026DFF834800D4FF6
:101BD000354600BF58F8254009E0E0680068385CE9
:101BE00020B120460BF0FAFD266026462468002C22
:101BF000F3D16D1C022DEDDB3046BDE8F081000015
:101C0000D8000020F4E20308022801DB002070471E
:101C1000054951F8200004E0C16809680029F6D0A0
:101C200000680028F8D17047D80000202DE9F04165
:101C3000044601F077FC06191EE000BF00F0AEF884
:101C4000052F00DD052700F099FC11480568FFF716
:101C50006FFE2C0017D000BF01F036FC641EFBD1D4
:101C6000384601F04FFC1DB100F088FC6D1EFBD121
:101C7000FFF78EFE01F028FC01F054FC371A002F0C
:101C8000DCDCBDE8F081384601F03CFCF0E7000008
:101C9000440100202DE9FC4706005FD000F06EFCF7
:101CA00000F012F93C4C81462068B0F9228000F027
:101CB00027F9216807468A8CD01B888441E000BF41
:101CC00047F6FF71304602F017F88246014630466B
:101CD00001F0E8FF2168054691F82C0000F00300B0
:101CE000012841D002283BD000204A8C101A488499
:101CF000ADF800006A1E1044ADF80400888CADF801
:101D00000200A9F101010844ADF806006A465146F7
:101D1000304601F097FD2168BDF8020088845146E5
:101D2000304601F0BFFA064430780A281ED00D284C
:101D30001CD0BDF80000216828444884307818B1D0
:101D4000761C30780028BBD12068818C394481848E
:101D5000818D21F00301818501F0B6FBBDE8FC8790
:101D600005EBD5704010C0E72846BEE7206890F824
:101D70002C1001F0030101290BD0022909D0018C9C
:101D8000418431780A29D9D1828C02EB09018184FE
:101D9000D4E7A0F82280F4E7C000002010B50024AA
:101DA00000E0012400F004F80028FAD1204610BD1C
:101DB000094810B50068002410B1804700B1012423
:101DC00005F0F0FA00B101240448006810B1804722
:101DD00000B10124204610BDE4000020E0000020F6
:101DE0002DE9FC411C4615460E46074600F0C6FB91
:101DF00010480068C16C006D0F4406440D44044453
:101E0000ADF80070ADF80450ADF80260ADF80640D2
:101E1000684605F03FFE07E023462A46314638462D
:101E200002F0B6FB05F0F8FD0028F5D101F04CFBFF
:101E3000BDE8FC81C0000020034951F82000C168C2
:101E40008A6A082110470000D800002010B500F071
:101E500095FB02F0CDFB02F08FFC044601F034FB51
:101E6000204610BD10B5044600F088FB054800214F
:101E70000068C069426820469047044601F024FB90
:101E8000204610BDC000002070B50C46054600F08D
:101E900075FB064821460068C0694268284690479D
:101EA000044601F011FB204670BD0000C000002078
:101EB00010B500F063FB02F0A3FB02F05DFC0446EA
:101EC00001F002FB204610BD10B500F057FB04489E
:101ED0000068C069447E01F0F7FA204610BD00009A
:101EE000C000002070B50C46054600F047FB2146B7
:101EF000284601F01DFFBDE8704001F0E5BA000082
:101F000010B5002400F03AFB0B48006890F82C1044
:101F100001F00C01042904D0082906D00C2907D1AE
:101F200003E0C069047E641E02E0C069007E4408CC
:101F300001F0CAFA204610BDC0000020024951F845
:101F40002000006900687047D8000020024951F85D
:101F50002000006940687047D800002070B50D4629
:101F6000044600F00BFB20460AF022F904462846FE
:101F70000AF026F9044301F0A7FA204670BD0000DC
:101F800010B501F08FFB0A492E20087001F0D0FA3D
:101F900008480AF09FFB02F009FC044600210846AD
:101FA00001F0B0F805F07CFAFFF7A4FB204610BD65
:101FB000B4000020602700202DE9FC471E46DDE923
:101FC0000A4517468846814600F0D8FA33463A4615
:101FD00041464846CDE9004507F0BCFC044601F007
:101FE00073FA2046BDE8FC872DE9F84390460D467C
:101FF0000646012700F0C2FA48F2C040FFF7D7FBBF
:1020000004000FD0FFF79CFC0090C0E90265684611
:10201000FFF7C6FC4146204600F092F907462046ED
:10202000FFF7E4FB01F050FA3846BDE8F883F8B555
:102030000546FFF785FC009000F5E04090F820632E
:102040006846FFF7ADFC002410E001232246194644
:10205000284606F0C7FA30B908232246022128464E
:1020600006F0C0FA08B10120F8BD641CB442ECDBF4
:102070000020F8BD2DE9F04300F5E0448146D4F896
:102080009004A1B04FF00108002538B194F8100475
:10209000F0B300BFD4F8880430B32BE094F81104F7
:1020A0000028484603D00AF069FD90B915E007F012
:1020B000DFF970B9D4F82814D4F88C0488420CDC09
:1020C000694648460BF02EF818B99DF80000D9284B
:1020D00003D0012021B0BDE8F08384F81084D4F847
:1020E0002804C4F89004D5E7D4F88404FFF728FC4A
:1020F000C4F888040746D4F87C04FFF721FC20903C
:10210000B8B10026D4F82004B0420FDD209800E0DA
:1021100011E000EBC61180226846FEF7C5F839468B
:1021200068460AF07BF8761C4037EBE720A8FFF7FB
:1021300037FC84F8105494F8120405281CD2DFE808
:1021400000F02B270B0F030094F89004C0070BD16D
:10215000484606F0DBFC0DE0484606F051FC09E07D
:1021600094F89004C00702D084F89C8404E04846A8
:1021700006F0B4FB84F89C54D4F89004401EC4F8D4
:102180009004D4F88C04401EC4F88C040020A1E70D
:10219000484606F049FBEDE7D4F89014D4F828043B
:1021A000461AD4F89404FFF7CBFB0090D4F88814B7
:1021B00001EBC602D4F8141409E000BF52F8043B46
:1021C00040F8043B52F83C3B40F8043B491E0029D0
:1021D000F4DC6846FFF7E4FBCCE7000070B500F5DF
:1021E000E044054694F82003042834D028460AF039
:1021F0003DFC28B194F8200384F83103002132E03B
:1022000094F878232AB1002194F87B331BB1012084
:1022100002E00121F8E7002094F87963B2421AD86D
:1022200009B1C6B903E094F83123012A13D118B1DA
:1022300094F87A239A420ED121B108B10E4905E0F3
:102240000E4903E008B10E4900E00E49284607F0A8
:1022500091FA0028CAD0012070BD681800F5E0404E
:1022600080F83213491C94F831038842F5DC284683
:1022700006F066F8002070BD259400083D93000824
:10228000959200081D9000082DE9F04100F5E0440A
:102290000546D4F8880420B147F288402844FFF767
:1022A0007FFBD4F8940408B1FFF7A0FAD4F898049F
:1022B00008B1FFF79BFAD4F87C0408B1FFF796FA4F
:1022C000D4F8840408B1FFF791FA00260FE000BFAC
:1022D00005EB061707F5E047D7F8C80308B1FFF785
:1022E00085FAD7F8880308B1FFF780FA761C94F8CE
:1022F0002003B042ECDCD4F80C0408B1FFF776FA06
:10230000D4F88004002803D0BDE8F041FFF76EBA8E
:10231000BDE8F081026811441378016003EB0320EB
:1023200000EB0340704730B5026802EB810113787F
:1023300054789578016043EA042040EA054030BDB6
:10234000F8B50C46064600F03BF8054654B1304659
:10235000FFF7F6FA0090818A2160C08A60606846C3
:10236000FFF71EFB2846F8BD38B5054600F028F8F3
:10237000040023D128460AF0E5F904001ED12846BE
:10238000FFF7DEFA47F211410090095C81B105F0D8
:1023900083FF04000FD1009800F5004090F8A004DE
:1023A00048B96846FFF7FCFA284607F063F938BDDC
:1023B0000AF05CFB04466846FFF7F2FA204638BD97
:1023C0007FB50025FFF7BCFA01260090044680F88F
:1023D00020601A4860600020E06102A9204609F0F0
:1023E00026FE20BB626803A920469047F8B99DF8F5
:1023F0000800FF281BD19DF80C00D82817D18DF8B4
:10240000040001A900980AF08DFE80B99DF804002F
:10241000C02808D0C12806D0C22809D1009800F5EC
:10242000E04080F81164009809F0D1FC00B101256A
:102430006846FFF7B5FA04B0284670BD2FC0000803
:102440002DE9F84300F500410446D1F8A824D1F85D
:10245000AC0404F5E0451044C1F8AC04002015E0DC
:1024600095F82123D1F8AC34022A08D1221802F5BC
:10247000E04292F82523C2F1030293FBF2F304EB4E
:10248000800202F50042401CC2F8B03495F82023C7
:102490008242E5DC002628E004EB061847F27C3196
:1024A00008EB0107F868FFF74BFA0090BA68396843
:1024B0004A4379684A43002101F0A0FD6846FFF7CE
:1024C0006FFA47F2BC3108EB0107F868FFF738FAFA
:1024D0000090BA6839684A4379684A43002101F09C
:1024E0008DFD6846FFF75CFA761C95F82003B04234
:1024F000D2DC47F2FC3010220021204401F07EFDA6
:10250000E08AC5F88C040020C5F89004BDE8F88383
:1025100038B500F5E0440546D4F8900418BB94F8AB
:1025200011040028284603D00AF028FB90B916E0D1
:1025300006F09EFF70B9D4F82814D4F88C048842B1
:102540000ADC694628460AF0EDFD18B99DF800003E
:10255000D92801D0012038BD012084F81004D4F816
:102560002804C4F89004401EC4F89004D4F88C04E5
:10257000401EC4F88C04002038BD000070B5184C13
:10258000E06820B100F0CBFF6168884204D000F021
:10259000D1FF00F0C4FF6060E068401CE0600128EB
:1025A0001CD109F00FFD05462068854216D0002891
:1025B00013DBFFF707FB01462068C0EB0012206920
:1025C00000EBC2025167C5EB0511064A00EBC100E2
:1025D000011D1160406FFFF7E9FA256070BD000032
:1025E00038010020C00000201CB5040004D10E48B2
:1025F0000068046E002C16D0FFF7C0FF2046FFF7DE
:102600009FF9009044696846FFF7CAF94CB120462B
:10261000FFF796F9019081688968884701A8FFF75C
:10262000BFF900F051FF1CBDC000002001490A465F
:1026300000F002B801F0FFFF2DE9F04387B0154626
:102640000C465FEA000846D0FFF798FF002000F034
:102650002FFD814621480068066E4046FFF770F95D
:1026600000900068806900F0EBFC074640F6FF70C0
:10267000C44204D10098B0F90440B0F90650009863
:10268000611E0289ADF804401144ADF8081041897B
:10269000681E0844ADF80650ADF80A0004F0CEFC00
:1026A0006846FFF77DF901A805F0F4F906E02A462F
:1026B0002146404600F0E6FB05F0AEF90028F6D1D1
:1026C000384600F0BDFC304600F0EEF9484600F018
:1026D000EFFC00F0F9FE07B0BDE8F083C000002079
:1026E0002DE9FE4F984691468A46834600270C9E68
:1026F000FFF744FF184819490068407C51F8204012
:10270000E1680968042903D02468002CF8D100E0AE
:102710001CB9FFF779FA04001BD0E0680121C26AF6
:1027200020469047050011D02469A0688047401CCE
:1027300002D10B4C46F001060096CDE90154434608
:102740004A465146584600F043FA074600F0BCFEA0
:102750003846BDE8FE8F0000C0000020D8000020F1
:10276000B40D04082DE9FE4F9846DDE90D650C9F78
:1027700091468A46834600246DB1FFF7FFFE00971D
:10278000CDE9016543464A465146584600F020FAD5
:10279000044600F099FE2046BDE8FE8F38B50400DF
:1027A0001CD0FFF7EBFE0E480068006EA04201D17E
:1027B00000F038FC2046FFF7C3F80090406908B1EC
:1027C00000F06BFE00980068FFF7AAF96846FFF773
:1027D000E7F82046FFF70AF800F076FE38BD000063
:1027E000C00000202DE9FF4FDFF83891074683B085
:1027F000D9F800009A468B46447C4B480057012884
:10280000204606DD01F082FF0546204601F08AFFE2
:1028100005E001F069FF0546204601F06BFF044624
:102820001FB302A901A8FFF75DFBB7F9000000285C
:1028300000DA0020B7F902608046002E00DA002698
:1028400001984119B7F90400491E0AF090FA0546AB
:1028500002980119B7F90600491E0AF088FAA5EB9B
:102860000802841B521C641C03E04FF0000846461B
:102870002A46BAF1000F01D1C4F1000A002A4FDD47
:10288000002C4DDD10980090534631464046FFF72E
:1028900027FF5FEA000A10D000F0C0F80746A04208
:1028A00006D0D9F80000806C10B1322105F0C8FBC9
:1028B000504600F0F9F8002521E059460598884770
:1028C000012007B0BDE8F08F611BB94202DA504623
:1028D00000F0CEF83DB172194146504600F00CF9B7
:1028E0005046FFF781FE5946059888470F48016812
:1028F00009B1002088475046FFF798FE3D44A542A5
:10290000E2DB5046FFF74AFF002000F0CDF8A74277
:1029100006D0D9F80000806C10B1332105F090FB8F
:102920000020CEE7C0000020F8000020FC010020BD
:102930002DE9F04F85B09946DDE90F460E9F92468E
:102940000D468346002C35D0FFF718FE1B48002E9D
:102950000068C16C01EB0508016D0FFA88F001EB0E
:102960000A05ADF80C0001DA314600E00021621ED4
:102970002944104409B2ADF81000ADF80E104846D5
:10298000B94500DC3846401E0844ADF8120003A8E3
:1029900005F080F80AE00097CDE901464B462A464B
:1029A0004146584608F033FA05F036F80028F2D1CF
:1029B00000F08AFD05B0BDE8F08F0000C0000020E7
:1029C00038B505004FF0000411D0FFF7D7FD2846B9
:1029D000FEF7B6FF0090006800698068804702F04B
:1029E0001DFB04466846FEF7DBFF00F06DFD204648
:1029F00038BD38B504000ED0FFF7C0FD2046FEF705
:102A00009FFF00F1180400906846FEF7C9FF00F030
:102A10005BFD204638BD002038BD000038B50446B7
:102A20000025FFF7ABFD1CB908480068046E44B1EF
:102A30002046FEF785FF0090B0F90A506846FEF781
:102A4000AFFF00F041FD284638BD0000C000002067
:102A500070B505460024284606F0C2F9641C18B17A
:102A6000BDE8704000F07AB8052CF4DB70BD0000C2
:102A700038B50C46050004D10A480068056E002DE3
:102A80000FD0FFF77BFD2846FEF75AFF0090B0F904
:102A90000A10A14200DD44816846FEF781FF00F084
:102AA00013FD38BDC0000020F8B50546FFF766FDF0
:102AB000104E3068046ECDB10CB100F0B3FA04F0E2
:102AC000B1FB2846FEF73CFF009031680D660068B8
:102AD000FFF728F86846FEF763FF02F055F902F0A9
:102AE000BFF800BF00F0F0FC2046F8BD00F09AFAF5
:102AF000F8E70000C00000207CB515460E46040033
:102B000004D115480068046E002C24D0FFF736FD70
:102B10002046FEF715FF2DB20090C58034B28480A8
:102B200002F09EF80098406980B1FEF709FF009A14
:102B30000190B2F908108180B2F90A20C28011B167
:102B40000AB10480458001A8FEF72AFF6846FEF717
:102B500027FF00F0B9FC7CBDC000002001490A46F7
:102B600000F002B801F0FFFF7FB515460C460600E5
:102B70002DD0FFF703FD3046FEF7E2FE40F6FF7171
:102B80000190CC4203D1B0F90440B0F9065002895B
:102B9000611E1144ADF80840ADF80C104189681E63
:102BA0000844ADF80E00ADF80A5001A8FEF7F8FE93
:102BB00002A804F06FFF06E02A462146304600F0E6
:102BC00049F904F029FF0028F6D100F07DFC7FBD13
:102BD0002DE9FF4FDFF8E8B083B01C46DBF80010AA
:102BE000DDE9106092464FF000084B7C4246129996
:102BF000FEF75AFF050060D028698068804702F020
:102C00000DFA81460AFB09F1C91DCF08FEF7A6FEA1
:102C1000F10705D1C11700EB9170801000EB400067
:102C2000002C09DC1FB11838B0FBF7F000E00020E1
:102C30006442A04200DC0446F00707D10090DDE9C1
:102C400003012346524600F0ADFB8046002C03DC16
:102C50002846FEF765FF30E004FB07F01830F10767
:102C600002D0FEF795FD01E0FEF7A1FD06001CD0A5
:102C7000FEF766FE01900560039981800499C1808A
:102C8000A0F808A04481C0F81480C0E9037901A825
:102C9000FEF786FE1298AE602861DBF80000407CEB
:102CA000A861304607B0BDE8F08F2846FEF738FF30
:102CB0005FEA080001D0FEF799FD0020F2E700006E
:102CC000C00000202DE9F74F8EB0144689460E98BB
:102CD000FEF736FE0990B0F908B0B0F90A60006856
:102CE000006940680C9009A8FEF75AFE564D574FF0
:102CF0002868407C57F82000C1688A6A08219047FC
:102D00000790182801D3202007902868407C57F8A6
:102D100020000069069003C80B904D48814201D005
:102D2000012000E000200A90002000F005FC0028AF
:102D30007DD1286809EB0B01B0F90C20891A491ED6
:102D4000002902DDABEB010500E05D46B0F908109B
:102D5000494505DDA1EB090189446D1A089101E09F
:102D600000210891002D6BDDB0F90E20A119891A00
:102D7000491E002902DDA6EB010800E0B046B0F9CB
:102D80000A00A04204DD061B3444A8EB060800E05C
:102D90000026B8F1000F53DD089801900DA95F4699
:102DA000DDF830A00E980091FFF723FE774300EB8B
:102DB000870101982B4601EB800200994846CDE936
:102DC00000A1214600F096FD0090002838D00A9816
:102DD000E8B1DDE906322946009800F05DFCB0B9A3
:102DE0000698009FDA46D0F810C0BCF1000F05D05D
:102DF00004235A4639463846E04708E00B993868BC
:102E0000884701C7AAF101005FEA000AF6D10099DC
:102E10000020079ACDE90301059001200090CDE93B
:102E2000010221460346641C2A46484600E007E0AA
:102E300001F04CFAA8F10100761C5FEA0008ABD162
:102E400011B0BDE8F08F0000C0000020D8000020C5
:102E500097470008F8B515460E460746FEF770FD81
:102E6000009000681621C068426A0020904704461E
:102E70006846FEF795FD002C03D02A4631463846B9
:102E8000A047F8BDF8B516460F46050012D0FEF76C
:102E900057FD009044696846FEF782FD2846FFF71B
:102EA0008FFD0346082800DD2CB1324639462846FE
:102EB0000AF0B4FCF8BD3246394628460AF04EFE08
:102EC000F8BD10B5002821D009B30AB3B1F900400C
:102ED000B2F900309C4200DA23460380B1F9024087
:102EE000B2F902309C4200DA23464380B1F9044033
:102EF000B2F904309C4200DD23468380B1F906100C
:102F0000B2F90620914200DC1146C18010BD114685
:102F10000A6802604968416010BD00280BD0038830
:102F20000B44038083881944818041881144418087
:102F3000C1881144C180704770B50025FFF71EFBA2
:102F4000094CD4E9002082420AD0D2E9005610464A
:102F500009F068FB20603146284604F095FB012506
:102F600000F0B2FA284670BDE00100202DE9FC41D6
:102F7000154DDDE908742D68B5F90860864200DD5D
:102F80003046B5F90C60964200DA3246824219DBCF
:102F9000B5F90A608E4200DD3146B5F90E509D420A
:102FA00000DA2B468B420DDB00E02C46E5682D68ED
:102FB00025B1042D02D02568002DF6D1CDE900748D
:102FC00001F020FDBDE8FC81C0000020B0F9022026
:102FD000B1F906309A4213DCB1F90220B0F906309B
:102FE0009A420DDCB0F90020B1F904309A4207DCB6
:102FF000B1F90010B0F90400814201DC01207047F2
:10300000002070470146024870220068FDF7D3B9DE
:10301000C0000020024970220968FDF7CCB9000009
:10302000C000002010B5FFF7A9FA01F0B7FD01F0CC
:10303000ABFE04F003F8BDE8104000F045BA000014
:1030400070B50B4D04462868467CFFF797FA022CB2
:1030500009D22046FEF7D8FD28B128684474FFF74E
:10306000E1FF0448046000F02FFA304670BD000014
:10307000C00000207401002010B50446FFF77EFA5E
:10308000204601F0C3FDBDE8104000F01DBA10B5A8
:103090000446FFF773FA204601F0F0FDBDE810404A
:1030A00000F012BA0149886070470000B4000020A7
:1030B00010B50446FFF762FA204601F0F1FD044620
:1030C00000F002FA204610BD70B50446FFF756FA2C
:1030D00004480068C56904B1C46100F0F5F92846E8
:1030E00070BD0000C000002070B50546FFF746FA2D
:1030F00003480068847E857600F0E6F9204670BDBE
:10310000C000002070B50C460546FFF737FA0948A5
:10311000224605800848048008480068417C084829
:1031200050F82100C1680B6A29469847BDE87040F5
:1031300000F0CAB90001002002010020C0000020F8
:10314000D800002070B50546FFF718FA034800685C
:10315000047E057600F0B8F9204670BDC00000205E
:1031600070B50446FFF70AFA04480068B0F92C501D
:10317000848500F0A9F9284670BD0000C000002039
:1031800070B50446FFF7FAF904480068B0F92A5010
:10319000448500F099F9284670BD0000C000002069
:1031A00002480068002800D000477047F001002066
:1031B00002498A6802B98860FFF7F2BFE001002087
:1031C00010B504000ED0FFF7D9F920460AF060F8D8
:1031D00020460AF0DBFA2046FEF708FBBDE8104067
:1031E00000F072B910BD38B50C46050011D0FFF7DC
:1031F000C5F92846FEF7A4FB00908089204201D043
:10320000012400E000246846FEF7CAFB00F05CF9E8
:1032100000E00124204638BD38B50546002028606E
:103220000648046844B12046FEF78AFB0090006916
:1032300028606846FEF7B4FB204638BD080200202F
:1032400038B504004FF000000D46086011D020464C
:10325000FEF776FB0090846844B16846FEF7A0FB59
:103260002046FEF76DFB0090006928606846FEF777
:1032700097FB204638BD00002DE9F041084E04467A
:103280000568306801682846884707463068416805
:1032900028468847284420603846BDE8F081000071
:1032A000C40000202DE9F0410C4606460025064FDB
:1032B00005E0386841683046884706440544641E86
:1032C000F7D22846BDE8F081C40000202DE9F04186
:1032D0001E46069C1746884605463A46A8687F1C47
:1032E0003346D0F804C041462846E047641EF4D176
:1032F000BDE8F08170B5B0F90040091BB0F9044099
:103300008C422CDD00F11404B0F902500069521B0C
:1033100002FB0040CA1800EBE104521ED010B0EBD3
:10332000E10501F007034FF0FF0102F0070221FA67
:1033300003F0C2F1070201FA02F1CEB221780FD0F8
:1033400001436D1E04F8011B002D05DDFF222946F7
:103350002046FDF762F82C4420783043207070BD81
:1033600030400143217070BD10B5B0F90030B0F9A4
:103370000240C91A00F114030069121B02FB00305D
:1033800000EBE10001F0070302788021D9400A43F5
:10339000027010BDB0F90610026951431430FDF7F8
:1033A00044B800002DE9F843804602F10F000011F7
:1033B000470003FB07F01C46154689461430FEF70C
:1033C000F6F9060018D0FFF7D9F83046FEF7B8FA3C
:1033D0000090A0F80080A0F802908580C480074982
:1033E00081600121818107616846FEF7D9FA00F00A
:1033F0006BF83046BDE8F8830020FBE7D80E0408E0
:1034000070B5B0F90660B0F904400B6800F114051E
:1034100096421BDD0069A34202FB005000EBE30271
:1034200014DA641EE010A0EBE30512F8010B03F0C0
:103430000704A040C4B206E045B1083312F8014BBE
:1034400023F007036D1E002CF6D004E0002070BDB1
:103450006006040E5B1C2006FAD5FF2C07D0184628
:1034600002E06406240E401C6606FAD400E0D81D73
:10347000C443640705D006E012F8014BFF2C09D1C4
:1034800008306D1EF8D5C01A401C0B6070BD620676
:10349000140E401C2206FAD4F5E738B50546FFF7AE
:1034A0006DF82846FEF74CFA00908189491E0CB24F
:1034B00084816846FEF774FA14B92846FEF796F937
:1034C00000F002F838BD00000348C168491EC16021
:1034D00001D100F030B870473801002010B506481F
:1034E000064908604FF4001104480068FEF776F9B9
:1034F0000348FFF7D7FD10BD00F013D05C0000209B
:10350000F0ED0308044A1268111800BF024A12685D
:103510008A1A002AFADC7047580000207047002001
:103520007047000001480068704700005800002004
:1035300070477047704770470EB508B102AA00E0A7
:103540000022002301A9684600F05EFB0EBD0000CA
:10355000074910B50C7818B101200870801E03E0EF
:10356000002008706FF07F4000F08EFD204610BDF7
:10357000FA00002010B5082A0EDC0346012A18D0F4
:10358000022A56D0042A76D010F8042B03F8012B17
:10359000491EF9D1012010BD102A08DC4FEA0002B3
:1035A00030F8043B22F8023B491EF9D1F2E7002033
:1035B00010BD10F8042BD207120E491E34D010F89B
:1035C000044B491E04F0010442EA84122CD010F886
:1035D000044B491E04F0010442EA441224D010F8BE
:1035E000044B491E04F0010442EA04121CD010F8F6
:1035F000044B491E04F0010442EAC40214D010F83E
:10360000044B491E04F0010442EA84020CD010F875
:10361000044B491E04F0010442EA440204D010F8AD
:10362000044B04F00104224303F8012B0029C0D10C
:10363000B0E710F8042B9207120E491E15D010F8AF
:10364000044B491E04F0030442EA04120DD010F8A2
:10365000044B491E04F0030442EA840205D010F82A
:10366000044B04F003042243491E03F8012B0029F4
:10367000DFD18FE7FFE710F8042B1207120E491E67
:1036800005D010F8044B04F00F042243491E03F840
:10369000012B0029EFD17DE738B50024009400F01C
:1036A0001DF838BD0B4810B58169002910D10121E2
:1036B0008161FFF713FFFEF749F801F077FB054939
:1036C00005481C310860BDE81040084600F056BCB3
:1036D00010BD0000B400002039CE00082DE9F041F3
:1036E0000D460699044601B901461F68082A09DCFF
:1036F0000E46012A1AD0022A5BD0042A7DD0082A5D
:1037000013D18DE0102A07DCD3F810C00E46BCF1AF
:10371000000F04D0022389E00020BDE8F08101CC35
:10372000B84726F8020B6D1EF9D189E001CCB847E5
:10373000C0074FEA10686D1E36D001CCB84748EA82
:10374000801000F0FF086D1E2ED001CCB84748EA6B
:10375000401000F0FF086D1E26D001CCB84748EAA3
:10376000001000F0FF086D1E1ED001CCB84748EADB
:10377000C00000F0FF086D1E16D001CCB84748EA23
:10378000800000F0FF086D1E0ED001CCB84748EA5B
:10379000400000F0FF086D1E06D001CCB84740EA9B
:1037A000080000F0FF086D1E06F8018B002DBDD14A
:1037B00046E001CCB84780074FEA10686D1E16D06E
:1037C00001CCB84748EA001000F0FF086D1E0ED08B
:1037D00001CCB84748EA800000F0FF086D1E06D013
:1037E00001CCB84740EA080000F0FF086D1E06F85B
:1037F000018B002DDDD123E0FFE701CCB8470007A6
:103800004FEA10686D1E06D001CCB84740EA0800A8
:1038100000F0FF086D1E06F8018B002DEDD10FE0C2
:10382000D3F810C0BCF1000F04D001232A46204673
:10383000E04705E001CCB84706F8010B6D1EF9D151
:1038400001206AE77CB5064628480D46006868B145
:10385000002004F01FF906E06A462946304606F0CB
:103860003FF804F0D9F80028F6D17CBD106800902C
:103870001F4C506801902268BDF8000032F84C1FC0
:103880000844ADF80000BDF8020091880844ADF886
:103890000200BDF8040011880844ADF80400BDF82A
:1038A000060091880844ADF80600684604F0F2F876
:1038B0000EE000BF2068BDF800106A464184BDF8E4
:1038C000021081842946304606F00AF804F0A4F874
:1038D0000028EFD1206830F8221F428D891A01801C
:1038E0004188C28D891A41807CBD0000FC00002007
:1038F000C00000202DE9FF4F8DB00020DDF86CA046
:10390000164600901D4604460246CAF8000008AB61
:1039100003A902A800F078F918B1002011B0BDE8A1
:10392000F08F0898854200DD0546614F0B9561498F
:103930003868407C51F82010049109690691FEF71F
:103940007BFA05903868407CFEF700FB5A498146B7
:10395000884204D05949894501D0012000E0002067
:103960000A9001CE1A9988478346000E079077D0B7
:10397000009870BB0D9800EB04084D480068B0F942
:103980000800404503DDA0EB0807804600E0002763
:103990000298049900EB840000EB8700CDE9000158
:1039A0000B990D98421809920E9B40461946521EDB
:1039B000FFF7DCFA01200090059818280ADA02982F
:1039C000DDE9052300EB840000EB8700E91B00F034
:1039D00079F812E00A9880B1029800EB840000EBBD
:1039E00087070998A0EB080849463868884701C747
:1039F000A8F101005FEA0008F6D13148C06980B340
:103A0000DDE9020700EB840007EB8402CDE9020246
:103A10002B4C361F3046E4692B460299A047FF2104
:103A20003068B1EB106F02D10298006804E0029A8E
:103A30001268B1EB126F01D1039A1060029806F17F
:103A40000406001D02900398001D03906D1EE7D12F
:103A50000397DAF8000040F00101CAF8001020E0F6
:103A600021E0FFE70798FF2811D0C0F1FF0202987C
:103A700050F82410584600F027FA039941F8240022
:103A8000DAF8000040F00101CAF8001005E00298E1
:103A9000039950F8240041F82400641C6D1E7FF443
:103AA00060AF03983AE7039941F824B0E8E70000D3
:103AB000C0000020D8000020974700089547000864
:103AC0000C0100202DE9F05F0C1E16DD5E6801463A
:103AD00000EB8405082A12DC611E012A26D0022A86
:103AE00047D0042A6AD0082A07D1071917F8010D10
:103AF000B04745F8040D641EF8D1BDE8F09F102AC8
:103B0000FBDC5F693FB12246BC46BDE8F04F0223B3
:103B10005DF804EB604701EB440700BF37F8020D86
:103B2000B04745F8040D641EF8D1E6E700EBE1006C
:103B300001F0070710F801A98146802020FA07F854
:103B4000B5F104050AEA0800C7F10701C840B0470B
:103B500045F804093FB14FEA48604FEA10687F1EFC
:103B6000641EEFD1C9E719F801A907274FF0010832
:103B7000F6E700EBA10001F0030710F801A9814668
:103B80007900C02020FA01F84FF0060BB5F10405CA
:103B90000AEA0800ABEB4701C840B04745F8040902
:103BA0003FB14FEA88604FEA10687F1E641EEFD174
:103BB000A3E7032719F801A9B846F7E700EB61006E
:103BC000012710F801A9A7438146B900F02020FA87
:103BD00001F84FF0040B2D1F0AEA0800ABEB870138
:103BE000C840B04745F804093FB14FEA08704FEAB2
:103BF00010687F1E641EEFD17FE719F801A9012725
:103C00004FF00F08F6E700002DE9F047224C06467A
:103C10001F46A06990468946002540B90120A06151
:103C200004F120011D480860084600F0A7F960690A
:103C300030B91B480068606110B900F058FD606140
:103C400007B138604EB1A06830B960698000FDF7F7
:103C5000F7FDA06000B901253060B9F1000F0AD06E
:103C6000E06830B960698000FDF7EAFDE06000B906
:103C70000125C9F80000B8F1000F0AD0206930B959
:103C800060698000FDF7DCFD206100B90125C8F8FE
:103C900000002846BDE8F0870C01002065CE000832
:103CA000F000002073B5124A01A9009812689047ED
:103CB00000240090C8B10F4900250968C969496905
:103CC00059B10A684AB1019990477CBD6846FFF72F
:103CD000D3FA0546FEF7C6F804440198401E019049
:103CE000F4D5284600F032F8044420467CBD00009C
:103CF00034010020C000002073B50D460098002458
:103D000090B10A490968C969496959B14A684AB113
:103D1000294690477CBD6846FFF7AEFA20B10A28D5
:103D200002D0641CAC42F6DB20467CBDC000002003
:103D3000044AB2F9002002600348B0F900000860AC
:103D400070470000000100200201002038B5002467
:103D500069460094FEF798F80099814200DD0C1A3C
:103D6000204638BDB0F90030B1F90020934200DAA6
:103D70000280B0F90230B1F90220934200DA4280A9
:103D8000B0F90430B1F90420934200DD8280B0F92B
:103D90000620B1F906108A4200DDC180704770B577
:103DA000B1F90040B2F900309C4200DD23460380A7
:103DB000B1F90250B2F90240A54200DD2C46448020
:103DC000B1F90460B2F90450AE4200DA354685809C
:103DD000B1F90610B2F90620914200DB1146C1800C
:103DE0009D4201DBA14201DA002070BD012070BDBF
:103DF000014602480068407C00F002B8C000002084
:103E00002DE9F843012604468946022857DADFF8EF
:103E1000B480080008F1040530D0012802D002293E
:103E20004DD116E055F8240088B92046FDF7ECFE88
:103E3000009010B3C0680D21426A684690470200A6
:103E40003DD049460098904755F824000026401C74
:103E500033E02046FDF7D8FE009070B1C0680D2118
:103E6000426A68469047040029D0D8F8000000B1A3
:103E7000804749460098A047002620E055F82400D6
:103E8000012813D12046FDF7BFFE009070B1C06835
:103E90000D21426A68469047070007D0D8F8000015
:103EA00000B1804749460098B847002655F82400DD
:103EB00008B1012100E00021401A45F824003046F5
:103EC000BDE8F883CC01002070B5FF23B3EB116F80
:103ED0002CD0C3B213FB02F500F47F4400F47F033F
:103EE00054435343000E10FB02F6C2F1FF00CAB266
:103EF00012FB005201F47F4505FB004401F47F05ED
:103F000005FB0033090E11FB0065C2F307204FF4D7
:103F10007F024FF47F4102EA132201EA14214FF09D
:103F20007F43084303EA05431043184370BD2DE95E
:103F3000F04F0646DDE90CB915460C4600208046D8
:103F4000584519D20B9F4FF0FF0A01CE08CCAAEBBF
:103F5000106202FB09F2B2FBFAF1CAB21946FFF78E
:103F6000B3FF20F07F4001C57F1EEED1099804EB1E
:103F7000800408F10100E2E7BDE8F08F02494A69D8
:103F80004260486170470000B40000202DE9F04114
:103F9000184C06460D46206898461746B0F90A1098
:103FA000A94224DCB0F90E10A94220DBB0F90810B8
:103FB000B1421CDCB0F90C00B04218DB2946304697
:103FC00000F052FB01463A464046FFF77DFF00F005
:103FD0005BF9034620682A46417C074850F82100D7
:103FE000C1688C693146A446BDE8F0416047BDE830
:103FF000F0810000C0000020D800002010B502E0D1
:1040000000F8011B521E0AB18307F9D1930818D09A
:1040100001EB014402F0030204EB042406E010C0AB
:104020001B1F10C040F8084B40F8044C042BF6DA74
:1040300001E010C05B1E002BFBD102E000F8011B69
:10404000521E002AFAD110BD10B5830702D520F800
:10405000021B521E530811D001EB0144042B09DB53
:1040600010C01B1F10C0042B40F8084B40F8044C34
:10407000F6DA01E010C05B1E002BFBD1D20700D0A6
:10408000018010BD00BFFEE702490A6808601046C3
:10409000704700001C0200201CB501214FF4F8708D
:1040A00001F01EFC0E2204216F48FDF793F90E2249
:1040B00005216D48FDF78EF90E2206216A48FDF7AD
:1040C00089F97020009002208DF805008DF8040019
:1040D00000208DF806008DF8070069466248FDF75C
:1040E00031F90E220A216148FDF774F94FF480601E
:1040F000009002208DF805008DF8040000208DF856
:1041000006008DF8070069465848FDF71BF90E2296
:1041100006215748FDF75EF90E2207215448FDF7A6
:1041200059F90E220A215248FDF754F90E220B21AB
:104130004F48FDF74FF90E220C214D48FDF74AF983
:104140004FF4E650009002208DF805008DF8040031
:1041500000208DF806008DF8070069464448FDF7F9
:10416000F1F80E2202214348FDF734F90E22032113
:104170004048FDF72FF90E2208213E48FDF72AF9A5
:104180000E2209213B48FDF725F90E220A21394864
:10419000FDF720F90E220B213648FDF71BF90E2200
:1041A0000C213448FDF716F90E220D213148FDF798
:1041B00011F90E2211462F48FDF70CF90E220F219E
:1041C0002C48FDF707F94FF60C70009002208DF88F
:1041D00005008DF8040000208DF806008DF807001A
:1041E00069462448FDF7AEF80E2200212248FDF76B
:1041F000F1F80E2201212048FDF7ECF80E220221F1
:104200001D48FDF7E7F80E2204211B48FDF7E2F8F0
:104210000E2205211848FDF7DDF80E22062116486A
:10422000FDF7D8F80E2207211348FDF7D3F80E2228
:1042300009211148FDF7CEF80E220A210E48FDF79C
:10424000C9F840F2F760009002208DF805008DF863
:10425000040000208DF806008DF807006946064826
:10426000FDF770F81CBD0000001002400014024071
:1042700000180240001C02400020024001200149B9
:10428000086070474C0000200449054A0968497CD1
:1042900052F821100969096808470000C000002091
:1042A000D800002010B500F0D3FE00F01DFB03483D
:1042B00000F094FC00F004F810BD0000000000D0F5
:1042C00010B5012000F04AFF10BD00002DE9F04FAD
:1042D00005468DB07B48DDF860901A9C00681E464C
:1042E00017464FF0000A78B11B9B199ACDF8089039
:1042F0000593CDE90324DDE91623CDE90023046805
:1043000033463A46284680E0DDE9160201EB06080E
:1043100005EB070C1043A8F10108ACF1010C0128D2
:1043200006D0C9F108000590002002910990C6E06E
:1043300065480268B2F90A30581A002806DD361AB4
:10434000002E63DD1946199B00FB0344B2F90E00F1
:10435000A8EB0000002802DD361A002E56DDB2F967
:104360000C00ACEB0000002800DD3F1AB2F9083069
:104370000020AB4235DD581B3F1A4B46B9F1080F00
:1043800026D006DC012B0BD0022B11D0042B28D118
:1043900016E0102B1ED0182B1FD0202B21D11CE093
:1043A00020F0070304EBE0041D4400F0070018E0D0
:1043B00020F0030304EBA0041D4400F0030010E010
:1043C00020F0010304EB60041D4400F0010008E04C
:1043D000044404E004EB400401E004EB80040544E1
:1043E0000020002F12DD1B9BDDF864C0CDE9040323
:1043F000CDE90069CDE902C4527C34483B4650F80F
:104400002200C26854680A462946A0470DB0BDE89C
:10441000F08F1799029808440C902B49401E009089
:104420000A68B2F90A30834241DCB2F90E100298F0
:1044300081423CDB4FF0000BD84603950A9434E0F0
:10444000BBF1000F05D10A984FF0080B10F801AB33
:104450000A900599ABEB090B3AFA01F00AFA09F157
:1044600001F0FF0A04D118490968097C890716D4AC
:1044700015490968C96B0A680B921B9A0AB152F870
:104480002000086016990398009B4218521E02995A
:1044900000F07EF80C490B980968C96B0860039915
:1044A000169808F1010808440390B845C8DB09983C
:1044B000401C09900C980290199804440998B04245
:1044C000A7DBA3E7FC000020C0000020D8000020EC
:1044D000F0B40C4612490968B1F90A30A3421CDC59
:1044E000B1F90E30A34218DBB1F90830834200DD88
:1044F0001846B1F90C30934200DA1A4682420CDBBE
:104500004B7C084951F8235013462246E9688E68CF
:1045100001462846B446F0BC6047F0BC7047000036
:10452000C0000020D80000200A46174930B40968AE
:10453000B1F90A30934225DCB1F90E30934221DB08
:10454000B1F9083083421DDCB1F90C30834219DB2C
:104550000B7C0E4CDB0709D0497C54F82130D9681C
:10456000CC690146A44630BC18466047CB6B497CF9
:104570001B6854F82140E1688D6901462046AC462D
:1045800030BC604730BC7047C0000020D80000201D
:1045900038B5134C2468B4F90850854200DD28462C
:1045A000B4F90C50954200DA2A46824217DBB4F97E
:1045B0000A508D4200DD2946B4F90E509D4200DAC2
:1045C0002B468B420BDB0093647C064B53F8244054
:1045D000E3681D6913460A4601462046A84738BDD0
:1045E000C0000020D8000020082107F015BB000003
:1045F00002480068806B006870470000C00000201F
:1046000002480068C06B006870470000C0000020CE
:10461000024809210068407C07F0FEBAC000002073
:10462000092107F0F9BA70B500252C462046FDF7A0
:10463000EBFA00B16D1C641C022CF7DB284670BD40
:1046400002480068407C00F003B80000C000002071
:1046500010B5FDF7D9FA002805D0C168CA6ABDE8CF
:1046600010400221104710BD10B500F005F8BDE85C
:10467000104000F081B800002DE9FC41144E0546C1
:10468000144F30680C46407C57F82000C1680A6B14
:1046900069469047BDF90000A8420BDCBDF9040053
:1046A000A84207DBBDF90200A04203DCBDF9060009
:1046B000A04202DA0020BDE8FC8130682246407C3E
:1046C00057F82000C1684B6929469847F3E7000076
:1046D000C0000020D800002002480E210068407C65
:1046E00007F09ABAC0000020032107F095BA032012
:1046F00007F0F8BA042107F08FBA00000248012140
:104700000068407C07F088BAC0000020012107F053
:1047100083BA0000024802210068407C07F07CBA9E
:10472000C0000020022107F077BA00F001B80000B5
:104730002DE9F041002809D0876837B10D4E716826
:1047400019B10468B4F5807F02DD0020BDE8F08176
:104750003068844200DD0446002507E057F8250054
:10476000FFF792FD716841F825006D1CA542F5DB4D
:104770007068EBE7580100200449054A0968497C44
:1047800052F821100969496808470000C00000205C
:10479000D8000020704770470106C0F30723C0F31C
:1047A0000742080A40EA032010437047F8B500F0BA
:1047B00057FA00F041F804003BD100252846FDF7E8
:1047C00023FA009048B1C0680C21426A68469047BD
:1047D000010007D00098884704436D1C022DEDDBD3
:1047E00014B126E00120F8BD00F040F8012543F6A1
:1047F000FF762846FDF708FA0090C0B12846FEF77C
:104800001FFC042000F04CFA0021324633460846D3
:10481000FFF7BEFE002000F043FA00980E21C068AA
:10482000426A68469047010001D0009888476D1E93
:10483000DFD52046F8BD000010B50A4C606860B9AD
:1048400020688000FCF7FCFF606040B104F10801C3
:10485000054808600846FFF791FB002010BD0120C5
:1048600010BD000058010020A1CE00082DE9F0473E
:10487000FFF7D9FE07460024DFF860802AE02046D3
:10488000FDF7C2F928B3D8F8000090F811904474ED
:104890002046FFF7A9FE082817DC1148114950F8F7
:1048A00024000069884210D02046FFF7B9FE064672
:1048B000002508E0E8B2FFF75FFF0246E9B22046B4
:1048C00000F0FAF96D1CB542F4DBD8F8001081F85D
:1048D0001190641CBC42D2DBBDE8F087C000002010
:1048E000D8000020F80E040800B591B03F480068D9
:1048F00000283AD1902001903D4800688F30029006
:10490000232003903B480068223004900220059049
:10491000FF20069000200790089009900A904FF41D
:1049200080600B9005200C9031480068032101EB5A
:1049300040000E902E48006840000F902D480068FF
:1049400010904FF050400D9001A92B4800F0E9FC69
:104950002A480D904FF4C0600B9007200C9001A9DD
:104960002548803000F0DDFC31E020480068012857
:104970002DD12B2001901E4800682A3002900C2077
:1049800003901C4800680B30049000200590FF2025
:10499000069000200790089009900A904FF48060DC
:1049A0000B9005200C9012480068032101EB800059
:1049B0000E900F48006880000F900E48006810901D
:1049C0004FF050400D9001A90B4800F0AAFC0120C7
:1049D00000F032FD0121084800F098FC012000F0B1
:1049E0002BFD074800F062F911B000BD4C0000201B
:1049F00050000020540000208468014000C012D004
:104A00001C0000202DE9FF4F83B01646DDE9104061
:104A10008B46C0684769426A7AB1012111A8904764
:104A200005000AD00698CDE9000433465A4603999A
:104A30001198A84707B0BDE8F08F57480068407C40
:104A4000FDF7FAF98246082801DC012005E0BAF1F9
:104A5000100F01DC022000E004208046002596E0D3
:104A60004046B8F1010F05D0022871D0B8F1040F0B
:104A700025D17CE0BAF1090F21D2DFE80AF08605E2
:104A8000213F3F5959595900039815E001465A46AC
:104A90001198B847C5F1070188404FF67F72217819
:104AA000EA40114001436D1C217004EBE50425F040
:104AB0000700054109F101008146B042E6DD64E0EE
:104AC000039817E001465A461198B8470621A1EB12
:104AD000450188406B004FF63F722178DA40114063
:104AE00001436D1C217004EBA50425F00300054172
:104AF00009F101008146B042E4DD46E0039813E08D
:104B000001465A461198B8470421A1EB8501884017
:104B10002178AB000F229A401140014321702C44B0
:104B200085F0010509F101008146B042E8DD2CE085
:104B3000DDF80C9007E001465A461198B8472070FE
:104B400009F1010944444846B145F4DD1DE0FFE7A1
:104B5000DDF80C9007E001465A461198B8472080CE
:104B600009F1010944444846B145F4DD0DE0DDF8A2
:104B70000C9007E001465A461198B847206009F1A9
:104B8000010944444846B145F4DD0BF1010B069997
:104B90008B457FF765AF4DE7C000002010B50D4C89
:104BA0000D492068407C51F8200048B1C16811B11E
:104BB0000968042901D00068F7E708B1FCF7FFFF96
:104BC00020680021016600F108014161BDE8104044
:104BD00000F046B8C0000020D800002010B5044600
:104BE0000848006820B92146074800F08DFB04E022
:104BF00021460548803000F087FB012000F01CFCB6
:104C000010BD000048000020846801400149096887
:104C10004968084754010020044909680A7C520782
:104C200001D5C96B00E0896B08607047C0000020A7
:104C30007CB5094C05462068417C084850F82100A5
:104C4000C1680A6B6946904720686A462946083061
:104C5000FFF7A5F87CBD0000C0000020D8000020B0
:104C60000448016804484A7C083150F82200C268B0
:104C7000126B1047C0000020D800002001490968CD
:104C80000968084754010020044909680A7C520752
:104C900001D5896B00E0C96B08607047C000002037
:104CA00001490968896808475401002001490860E2
:104CB000704700003C000020F8B515460E46012460
:104CC000FCF7A2FF009058B1C0681021426A684604
:104CD0009047030004D02A463146009898470024A4
:104CE0002046F8BD13460A460F4930B40968B1F9A9
:104CF0000840844216DCB1F90C40844212DBB1F961
:104D00000A4094420EDCB1F90E4094420ADB4C7C1E
:104D1000064951F82440E1688D6901462046AC46B9
:104D200030BC604730BC7047C0000020D800002075
:104D3000F8B515460E460124FCF766FF009058B101
:104D4000C0680B21426A68469047030004D02A4697
:104D500031460098984700242046F8BDF8B515461E
:104D60000E460124FCF750FF009058B1C0680A219C
:104D7000426A68469047030004D02A4631460098AC
:104D8000984700242046F8BD10B5074C2068006BFA
:104D9000FFF77AFAFFF778FF2068406BFFF774FAA5
:104DA000BDE81040FFF738BFC000002010B5002359
:104DB0001A4612491248FCF79FFEFFF78DFC70B1AE
:104DC0004FF4F0724FF488710020FFF7B1FF4FF4F9
:104DD000F0724FF408710020FFF7C0FF0DE04FF4B0
:104DE00088724FF4F0710020FFF7A2FF4FF40872B1
:104DF0004FF4F0710020FFF7B1FF10BDE4E60308A7
:104E0000BC31010803460020704700002DE9FF4F28
:104E10008DB01746674ADDF870901E9E2098126884
:104E20001D4600248AB11D9B1F98CDE90293CDE950
:104E30000460DDE91A03CDE9000314682B463A4605
:104E40000D98A04711B0BDE8F08F0D9A01EB050851
:104E500002EB070CDDE91A231A43A8F10108ACF1B3
:104E6000010C012A06D0C9F108004FF0000B029195
:104E700005909CE0504A1268B2F90A40631A002B70
:104E800006DDED1A002DDDDD21461D9C03FB0466C9
:104E9000B2F90E30A8EB0303002B02DDED1A002D52
:104EA000D0DDB2F90C30ACEB0303002B00DDFF1AB0
:104EB0000D9B1C1AB2F90830A3420DDDA3EB040CC4
:104EC0000CEB0003181A20F007000444A7EB0C07B2
:104ED00006EBE30603F00700002FB3DDDDF874C036
:104EE0001F9BCDE902C6CDE90403CDE90059527CF0
:104EF00032483B4650F82200C26855680A462146AF
:104F0000A8479FE71B99029808440C902A49401E25
:104F100000900A68B2F90A30834242DCB2F90E10FE
:104F2000029881423DDB4FF0000A0D980A96D04668
:104F3000039034E0BAF1000F05D10A984FF0080A47
:104F400010F8014B0A900599AAEB090A34FA01F00E
:104F500004FA09F4E4B204D117490968097C890705
:104F600017D415490968C96B0A680B921F9A0AB1D0
:104F700052F82000086003991A98009B0A18DDE98E
:104F80000210521EFFF704FB0B490B980968C96B0E
:104F9000086003991A9808F1010808440390B8457D
:104FA000C8DB0C9802901D980BF1010B0644AB4531
:104FB000A8DB47E7FC000020C0000020D80000204C
:104FC000002818D0410817D0810817D0C10817D081
:104FD000010917D0410917D0010A17D0410A17D08B
:104FE000010B15D0C10B13D0010C11D0810C11D0C5
:104FF000000E11D02020704701207047022070471A
:105000000320704704207047052070470820704730
:1050100010207047122070471820704700B50022FA
:10502000FFF7CEFF012804D0811E062903D80822ED
:105030000BE0012209E0A0F10901072901D81022A3
:1050400003E011380F2800D82022104600BD0000D0
:1050500000B58FB00121880600F062FCFFF71CF854
:10506000FFF70CF9002000900190029003900C9043
:105070000D900E903648006888BB4FF4207035497B
:1050800008604FF4F0703449086002220721C02004
:1050900000F088FC4FF4803000F072FC012000F03A
:1050A0007BFC00BF3D2000F04BFC0028FAD01D2007
:1050B0000490022005908F2006902220079040F255
:1050C0000F30089040F20220099040F21F300A9001
:1050D0004FF403700B90684600F052F835E0FFE79C
:1050E0001B480068012830D14FF4F070194908605E
:1050F0004FF488701849086003220721C02000F08F
:1051000051FC4FF4003000F03BFC012000F044FC67
:1051100000BF3D2000F014FC0028FAD028200490A5
:10512000092005902A2006900B20079040F20A20C3
:10513000089040F21B1009904FF403700A9040F25F
:105140001D100B90684600F01BF80FB000BD00006A
:105150004C000020500000205400002030B10749CE
:10516000096841F00101054A116005E00349096839
:1051700021F00101014A11607047000018680140E8
:10518000F0B50021002200230024002500265B4FFB
:105190003F68DFF86CC107EA0C07DFF860C1CCF8A4
:1051A0000070078A390467463F68D0F814C04CEA9B
:1051B000010C47EA0C07DFF844C1CCF800700CF191
:1051C00004073F68DFF838C107EA0C07DFF82CC195
:1051D0000CF1040CCCF80070078B3A0467463F686A
:1051E000D0F81CC04CEA020C47EA0C07DFF80CC1EF
:1051F0000CF1040CCCF800700CF104073F68DFF8E8
:1052000000C107EA0C07DFF8F4C00CF1080CCCF879
:105210000070078C3B0467463F68D0F824C04CEA16
:10522000030C47EA0C07DFF8D4C00CF1080CCCF8EB
:1052300000700CF104073F68DFF8C4C007EA0C07F0
:10524000DFF8B8C00CF10C0CCCF80070078D3C04F2
:105250006746D7F800C0C76A27434CEA070C274FB8
:105260000C37C7F800C03F1D3F68DFF898C007EA59
:105270000C07DFF888C00CF1100CCCF80070D0E9F6
:10528000007C47EA0C07D0F808C047EA0C07D0F8C2
:105290000CC047EA0C07DFF864C00CF1100CDCF816
:1052A00000C047EA0C07DFF854C00CF1100CCCF832
:1052B0000070476B3D02078E3E04104F24373F6855
:1052C00007F07F47DFF834C00CF1240CCCF80070F5
:1052D00046EA0507D0F838C047EA0C07DFF81CC0DB
:1052E0000CF1240CDCF800C047EA0C07DFF80CC016
:1052F0000CF1240CCCF80070F0BD000008680140EF
:1053000000F800F08F88FE0F8162704721B10268BB
:1053100042F00102026003E0026822F00102026032
:1053200070472DE9F04100240025002600220027C7
:105330000023B1F804C04FEA0C44D0F804C00CF4C8
:10534000704CC0F804C0D1F800C04CEA040CC0F89E
:1053500004C0B1F80CC04FEA0C45D0F808C00CF4FA
:10536000704CC0F808C0D1F808C04CEA050CC0F871
:1053700008C0D0F810C02CF0070CC0F810C0D1F84D
:1053800010C0C0F810C0D1F81CC04FEA0C26B1F80C
:1053900020C04FEA0C4291F824C04FEA0C67D0F8C5
:1053A00018C09C46C0F818C0D1F818C04CEA060CCA
:1053B0004CEA020C4CEA070CC0F818C0D0F814C034
:1053C0002CF0FF0CC0F814C0D1F814C0C0F814C001
:1053D000D0F81CC040F207782CEA080CC0F81CC0BA
:1053E000D1E90AC84CEA080CC0F81CC0D0F828C0A3
:1053F0009C46C0F828C0D1F830C0C0F828C0B1F829
:1054000038C04FEA0C43D0F82CC00CF0E02CC0F8A8
:105410002CC0D1F834C04CEA030CC0F82CC0D0F832
:1054200030C06FF30A0CC0F830C0D1F83CC0C0F8EF
:1054300030C0BDE8F08100000149086070470000FD
:105440002468014000BFFEE7014608200E4A1070A4
:105450008888401C88808888402812D10020888055
:105460004888401C48804888B0F5006F09D100206A
:1054700048800888401C08800888022801D1042040
:1054800010700148007870471800002013B56020A4
:105490001C490870BDF80000BDF8021000EB410087
:1054A000BDF8041001EB801017490870BDF800002A
:1054B000BDF8021000EB4100BDF8041001EB8010B4
:1054C000000A11490870BDF80000BDF8021000EB99
:1054D0004100BDF8041001EB8010000C0A4908706F
:1054E000D0200849087000BF40210848FBF795FF0D
:1054F0000028F9D000F00EF8054908700846007839
:105500001CBD00000000018000000280000C024071
:105510001800002000B54FF0807300200C4908707F
:1055200000F034F90A49087004E000F02FF9084946
:1055300008705B1E06480078402801D0002BF4D18B
:1055400013B91020024908700148007800BD00001E
:105550001800002000B58FB00121582000F0C0F9DC
:105560000121084600F0CCF90C2200214F48FBF73E
:1055700031FF0C2201214D48FBF72CFF0C220421A6
:105580004A48FBF727FF0C2205214848FBF722FF7A
:105590000C2206214548FBF71DFF0C220B21434836
:1055A000FBF718FF0C2211464048FBF713FF0C22B3
:1055B0000E213E48FBF70EFF0C220F213B48FBF764
:1055C00009FF4DF673000D9002208DF8380003207E
:1055D0008DF8390000208DF83A0001208DF83B004D
:1055E0000DA93248FBF7AEFE0C2207213048FBF72D
:1055F000F1FE0C2208212E48FBF7ECFE0C220921BB
:105600002B48FBF7E7FE0C220A212948FBF7E2FEB4
:105610004FF4F0600D9002208DF8380003208DF8D3
:10562000390000208DF83A0001208DF83B000DA9CB
:105630001F48FBF787FE0C2209211E48FBF7CAFE14
:105640004FF400700D9002208DF8380003208DF883
:10565000390000208DF83A0001208DF83B000DA99B
:105660001448FBF76FFE0020099004200A900220E6
:105670000B9000200C904FF480700090022001905D
:1056800000200290402003904FF4C020049000209E
:105690000590069009A8079008906846FBF7EEFC75
:1056A00001210802FBF7BCFC0FB000BD000C02405A
:1056B00000100240001802402DE9FF4106461C463A
:1056C0000025A84608202D49087048E000202C49F4
:1056D00008702C4908700870BDF80400BDF8061069
:1056E00000EB4100BDF8081001EB8010254908705F
:1056F000BDF80400BDF8061000EB4100BDF808102D
:1057000001EB8010000A1F490870BDF80400BDF8C5
:10571000061000EB4100BDF8081001EB8010000CF2
:105720001849087030201649087008F10100C702B6
:1057300000BF40211448FBF770FE0028F9D004E0B8
:105740004FF00040007870556D1CBD42F8D308F151
:105750000108641E01A8FFF777FE084908701CB114
:10576000064800780428B1D1FFF7D4FE0349087039
:105770000846007804B0BDE8F08100001800002061
:105780000000018000000280000C02400021002087
:105790000D4A107070200D4A1070C006017801F09B
:1057A000010018B10120084A107009E001F0400022
:1057B000402802D1044A107002E00020024A107012
:1057C00001480078704700001800002000000180A8
:1057D000FF20014908707047000001802DE9FF415A
:1057E00006461C460025A84608203349087054E0A8
:1057F0008020324908700020314908700870BDF8D7
:105800000400BDF8061000EB4100BDF8081001EBE4
:1058100080102B490870BDF80400BDF8061000EB9D
:105820004100BDF8081001EB8010000A24490870FF
:10583000BDF80400BDF8061000EB4100BDF80810EB
:1058400001EB8010000C1E49087008F10100C7022E
:1058500000BF40211B48FBF7E0FD0028F9D004E021
:10586000705D4FF0004108706D1CBD42F8D31020F0
:1058700012490870FFF74EFE0F490870084600787D
:1058800040280AD108F10108641E01A8FFF7DCFDD9
:10589000082802D00420084908703CB10648007866
:1058A0000428A5D1044800784028A1D002480078F7
:1058B00004B0BDE8F0810000180000200000018065
:1058C00000000280000C02407047000010B5024842
:1058D00000F026FD10BD00002002002070470000EF
:1058E00029B1064A12680243044B1A6004E0034AD5
:1058F00012688243014B1A60704700003038024042
:1059000029B1064A12680243044B1A6004E0034AB4
:1059100012688243014B1A60704700003838024019
:1059200029B1064A12680243044B1A6004E0034A94
:1059300012688243014B1A607047000044380240ED
:1059400010B501460022002300204A11012A02D18D
:105950000A4C236808E0022A03D1084C70342368FB
:1059600002E0064C7434236801F01F0201249440C5
:105970001C400CB1012000E0002010BD00380240A6
:1059800001460020034A106820F4403008431060AC
:10599000704700008C3802400149086770470000DA
:1059A0000000474210B5830143EA016343EA0273F2
:1059B000014C236010BD0000883802401CB5012155
:1059C0007E20FFF78DFF02208DF804008DF8050082
:1059D00000208DF806008DF807000C220521724882
:1059E000FBF7F8FC0C2206216F48FBF7F3FC602064
:1059F000009069466C48FBF7A5FC0C2200216B481F
:105A0000FBF7E8FC0120009069466848FBF79AFC28
:105A10000C2200216648FBF7DDFC0C2201216448C2
:105A2000FBF7D8FC0C2208216148FBF7D3FC0C22C1
:105A300009215F48FBF7CEFC0C220A215C48FBF7EA
:105A4000C9FC0C220E215A48FBF7C4FC0C220F2182
:105A50005748FBF7BFFC4CF203700090694654486E
:105A6000FBF770FC0C2200215248FBF7B3FC0C2220
:105A700001215048FBF7AEFC0C2207214D48FBF7F3
:105A8000A9FC0C2208214B48FBF7A4FC0C2209219D
:105A90004848FBF79FFC0C220A214648FBF79AFC7A
:105AA0000C220B214348FBF795FC0C221146414880
:105AB000FBF790FC0C220D213E48FBF78BFC0C22DF
:105AC0000E213C48FBF786FC0C220F213948FBF7DE
:105AD00081FC4FF68370009069463648FBF732FC34
