:020000040800F2
:1000000098C200208D02000845770008196000089A
:10001000D1750008F31C00089F9000080000000044
:10002000000000000000000000000000657D0008E6
:10003000192900080000000059770008557E0008C3
:10004000A7020008A7020008A7020008A7020008EC
:10005000A7020008A7020008A7020008A7020008DC
:10006000A7020008A7020008A7020008A7020008CC
:10007000A7020008A7020008A7020008A7020008BC
:10008000A7020008A7020008A7020008A7020008AC
:10009000A7020008A7020008A7020008A70200089C
:1000A000A7020008A7020008A7020008A70200088C
:1000B000A7020008A7020008A7020008A70200087C
:1000C000A7020008A7020008A7020008A70200086C
:1000D000A7020008A7020008A7020008A70200085C
:1000E000A7020008A7020008A7020008A70200084C
:1000F000A7020008A7020008A7020008A70200083C
:10010000A7020008A7020008A7020008A70200082B
:10011000A7020008A7020008A7020008A70200081B
:10012000A7020008A7020008A7020008A70200080B
:10013000A7020008A7020008A7020008A7020008FB
:10014000A7020008A7020008A702000849770008D4
:10015000A7020008A7020008A7020008A7020008DB
:10016000A7020008A7020008A7020008A7020008CB
:10017000A7020008A7020008A7020008A7020008BB
:10018000A7020008A702000800F002F800F06EF8CD
:100190000AA090E8000C82448344AAF10107DA45E2
:1001A00001D100F063F8AFF2090EBAE80F0013F0C6
:1001B000010F18BFFB1A43F0010318471C35050057
:1001C0003C3505000A444FF0000C10F8013B13F0D9
:1001D000070408BF10F8014B1D1108BF10F8015BA0
:1001E000641E05D010F8016B641E01F8016BF9D193
:1001F00013F0080F1EBF10F8014BAD1C0C1B09D1EA
:100200006D1E58BF01F801CBFAD505E014F8016B5B
:1002100001F8016B6D1EF9D59142D6D370470000ED
:100220000023002400250026103A28BF78C1FBD8FF
:10023000520728BF30C148BF0B6070471FB523F07D
:1002400012FD9DE8030000F0A9FA00F0FDFE040095
:100250000020002122F038FE401C606000200021B8
:1002600022F01CFEE0601FBD10B510BD00F0DDFBEC
:100270001146FFF7E3FF16F05FF900F055FE03B4F7
:10028000FFF7F2FF03BC00F067FA0000094880475F
:1002900009480047FEE7FEE7FEE7FEE7FEE7FEE768
:1002A000FEE7FEE7FEE7FEE704480549054A064B80
:1002B00070470000657E0008890100089842002010
:1002C00098C20020988200209882002070B50646CF
:1002D00000F048FA056806F10B0020F00704B4426C
:1002E0009CBF002070BD2B466A68BAB11068A0425E
:1002F00010D304F1080188423CBF5068586007D30E
:100300005168101941601168091B01605860146040
:10031000101D70BD13465268002AE7D121462846B9
:1003200000F028FA0028DED170BD70B50446051F24
:1003300000F018FA0068002C14BF446870BD002C4F
:1003400018BFAC423CBF20466468F8D301680A1865
:10035000AA4218BF456003D12A68054611440160CE
:1003600028684119A1421CBF6C6070BD616869605A
:1003700021680844286070BD002000F0A1FAFFF752
:1003800073FF012000F0E8F940EA010310B59B0774
:100390000FD1042A0DD310C808C9121F9C42F8D0EF
:1003A00020BA19BA884201D9012010BD4FF0FF30A0
:1003B00010BD1AB1D30703D0521C07E0002010BDB6
:1003C00010F8013B11F8014B1B1B07D110F8013B42
:1003D00011F8014B1B1B01D1921EF1D1184610BD23
:1003E00040EA0103024630B59B0710D14FF00134BB
:1003F00000E008C208C91D1B9D4315EAC41FF8D0C0
:1004000013F0FF0102F8011B0DD01B0AF8E711F8E9
:10041000013B002B02F8013B05D011F8013B002BFA
:1004200002F8013BF3D130BD10B5431C02E010F8D7
:10043000011B71B18107FAD14FF0013202C88C1A49
:100440008C4314EAC211F9D0C01A0A0603D0C01EA8
:1004500010BDC01A10BD0A0401D0801E10BD0902D3
:10046000FCD0401E10BD032A40F2308010F0030C77
:1004700000F0158011F8013BBCF1020F624498BFF7
:1004800011F801CB00F8013B38BF11F8013BA2F194
:10049000040298BF00F801CB38BF00F8013B11F00F
:1004A000030300F06B80083AC0F0088051F8043B69
:1004B000083A51F804CBA0E80810F5E7121D5CBF1C
:1004C00051F8043B40F8043BAFF30080D20724BF4F
:1004D00011F8013B11F801CB48BF11F8012B24BFE3
:1004E00000F8013B00F801CB48BF00F8012B704732
:1004F000431A28BF9A427FF6B6AF032A104411442C
:1005000040F2268010F0030F1EBF11F8013D521E6D
:1005100000F8013D10F0030F7FF4F6AF11F0030374
:1005200000F0E881083AC0F00B8051F8043D083A29
:1005300051F804CD40F8043D40F804CDFFF7F3BF77
:10054000121D5CBF51F8043D40F8043DAFF300803C
:10055000D20724BF11F8013D11F801CD48BF11F8B1
:10056000012C24BF00F8013D00F801CD48BF00F880
:10057000012C704701B5FFF776FF01BD10B5203A99
:10058000C0F00B80B1E81850203AA0E81850B1E84C
:100590001850A0E81850BFF4F5AF5FEA027C24BF02
:1005A000B1E81850A0E8185044BF18C918C0BDE8F9
:1005B00010405FEA827C24BF51F8043B40F8043BC2
:1005C00008BF7047D20728BF31F8023B48BF11F877
:1005D000012B28BF20F8023B48BF00F8012B7047D1
:1005E00001F0FF03114601B543EA032242EA024249
:1005F00000F00BF801BD02F0FF0343EA032242EAD8
:10060000024200F002B84FF000020429C0F012804C
:1006100010F0030C00F01B80CCF1040CBCF1020FB5
:1006200018BF00F8012BA8BF20F8022BA1EB0C018A
:1006300000F00DB85FEAC17C24BF00F8012B00F880
:10064000012B48BF00F8012B70474FF0000200B5A6
:10065000134694469646203922BFA0E80C50A0E8E5
:100660000C50B1F12001BFF4F7AF090728BFA0E893
:100670000C5048BF0CC05DF804EB890028BF40F85F
:10068000042B08BF704748BF20F8022B11F0804FA1
:1006900018BF00F8012B704710B5044610F0030F87
:1006A00008BF11F0030F40F015804FF0013E121FFC
:1006B000C0F20E8051F8043BA3EB0E0C2CEA030CA5
:1006C0001CEACE1C08BF40F8043BF0D0A1F10401A5
:1006D00002F10402521E08DB11F8013B002B00F866
:1006E000013BF7D11146FFF78EFF204610BD704742
:1006F00070477047A0E8004FF0C040F804DB01B538
:10070000AFF30080BDE8024001C10020A1EC068BE0
:10071000A1EC02BBA1EC06CBA1EC02FB704700F1FF
:100720002C080C46B8EC068BB8EC02BBB8EC06CB38
:10073000B8EC02FB00F12C0858F8040DAFF3008070
:1007400058F8040D8546200008BF012038E9F00064
:1007500018E9004F7047000001491820ABBEFEE7C2
:1007600026000200004870473C4200207047704756
:100770007047704738B504460A4600206946AFF313
:100780000080002808BF38BD02460099204600F0CE
:10079000E5F8012038BD012000F040B9F8B5AFF30D
:1007A0000080054600200C46102000BF0646A81910
:1007B000A0420DD9324669460020AFF30080070001
:1007C00008BF00F02BF90098A04218BF0546C419D5
:1007D000FFF7C8FF05600746F01D20F00700461927
:1007E000284600F00AF8B44208BFF8BDA21B314603
:1007F0003868BDE8F84000F0B1B800210160C0E9F8
:10080000011070471020704710B500F0A3F8006881
:1008100010BD10B5044600F09DF8046010BD000046
:100820000FB4002300B589B00CA900910B99CB60DF
:10083000204B7B440693204B7B44079304236FF0AB
:100840000042CDE901321D4A7A446B4608920246C5
:10085000002023F072FA09B05DF814FB70B506466B
:100860004FF0FF3015460C46324686B00091CDE978
:10087000010169460020049004A8FFF7D1FF034658
:100880000498211825B108B10A4600E022462A60E2
:1008900000280DD0002B02DD0098884208D0324697
:1008A000081B69460094CDE9010404A8FFF7B8FFCE
:1008B00006B070BD6D01000085010000450100001B
:1008C00010B500F093F8BDE8104000F08AB8431A64
:1008D00028BF9A427FF652AE104410F0030F114425
:1008E0001EBF11F8013D521E00F8013D10F0030F2C
:1008F0007FF4F6AF103AC0F00A8010B531E9185015
:10090000103A20E91850BFF4F9AFBDE81040530782
:1009100024BF31E9081020E9081044BF51F8043D14
:1009200040F8043D12F0030F08BF7047D20728BFFC
:1009300031F8023D48BF11F8012C28BF20F8023DD4
:1009400048BF00F8012C704700487047344200202F
:10095000704700000048704734420020034640685A
:100960008C46002818BF88423CBF03464068F8D335
:1009700018681844884207D00CF1030020F00700E3
:10098000001D411A521A0146081D0A60FFF7CDBC2E
:1009900010B5044600F06EF80068005D00F001003C
:1009A00010BD426842B1016811F8013B23B1521EEB
:1009B000C0E90012184670470121C160881E7047C7
:1009C00042685AB1C368016843B983688B4205D055
:1009D000491E521CC0E90012002070474FF0FF3042
:1009E0007047002801D0FFF7B7BE704710B500214F
:1009F00002A000F09FFA012010BD000053494741BA
:100A00004252543A2041626E6F726D616C2074657F
:100A1000726D696E6174696F6E00000010B500F050
:100A2000A3FABDE81040FFF7DCBF7546FFF78CFF67
:100A3000AE4605006946534620F00700854618B0CB
:100A400020B5FFF731FCBDE820404FF000064FF025
:100A500000074FF000084FF0000B21F00701AC46F3
:100A6000ACE8C009ACE8C009ACE8C009ACE8C00912
:100A70008D46704710B500F0E7FA001D10BD00BFAD
:100A8000492402002DE9FF4F064689B00878FF2867
:100A900006D0491C2D2805D000244FF0000908E09D
:100AA00000200CE00124F8E709EB8903491C00EB66
:100AB00043090878FF28F7D114B1C9F10000814635
:100AC000107800252C46AA4629462D2801D02B282F
:100AD00004D1521C2D2813D0002082468B4610785A
:100AE000FF280FD04FF0000C0A21521CA5FB017803
:100AF00004FB018105FB0C11C5194BEB0104EEE76A
:100B00000120EAE7002108464FF00000BAF1000F8B
:100B100002D000EB80004008C0F38158B8F1010F0B
:100B200001DD4FF0FF380C9809EB000755EA04008F
:100B300009D04FF0020917F5FA7F0BDA4FEACA70B5
:100B4000C6E900B012E04FEACA70C6E900B00DB0C5
:100B5000BDE8F08FB7F5FA7F0DDDF0487844D0E9B5
:100B60000010C6E9001040EACA707060FFF7F2FE9C
:100B7000C0F80090EBE7391E02DAC8F1000200E08D
:100B8000424600DA794206A800F062FA06AB93E822
:100B9000070003AB83E8070044F23E005BEA040170
:100BA0000090584604D144F21E012C465D46009147
:100BB000210C0904014306D10099240444EA154498
:100BC0002D041039009104F07F41014306D10099B2
:100BD000240244EA15642D020839009104F07041A2
:100BE000014306D10099240144EA15742D01091F1F
:100BF000009104F04041014306D10099A40044EA69
:100C00009574AD00891E009104F00041084304D1A1
:100C100000986D196441401E009042466846002FBE
:100C2000CDE9014503A902DD00F02DFF01E000F050
:100C300002FFBAF1000F04460D4601D084F00044D3
:100C400040F2FF7724F00040284303D0C4F30A5059
:100C5000B84212D1FFF77EFEC0F80090C4F30A50EC
:100C6000B8420AD1AE487844D0E90010C6E9001075
:100C700004F000410843706069E7C6E9005466E784
:100C80002DE9FF4F1F464FF0000A4FF0FF38454651
:100C900091B0D7E90146CDF83CA000F0D5F9C06885
:100CA0000168405C1090B96912986D1C8847396AD8
:100CB000814688470028F6D1B9F1FF3F0AD0002EBF
:100CC00024F4D06411DDB9F12B0F08D0B9F12D0F48
:100CD0000BD102E0404615B03AE744F48064B969AC
:100CE00012986D1C8847761E8146600504A901D5BF
:100CF0002D2000E02B20002E01F1010B0DF130081A
:100D00008DF810003FDDB9F1690F08D0B9F1490F36
:100D100005D0B9F16E0F02D0B9F14E0F1CD13B4690
:100D200001A8009580E85002DDE912126FF0020080
:100D300023F007F8C11CCED10EE0B96912986D1CE2
:100D4000884781461398761E44F4007405600F9816
:100D5000401C002E0F9016DDB9F1300FEDD0B9F127
:100D6000780F02D0B9F1580F0DD10F9801280AD190
:100D70003B46CDE90054DDE91212001F029622F035
:100D8000DEFFC11CA7D1109989453ED144F08004F3
:100D900006E01399681CAAF1010A44F40074086083
:100DA000B9696D1C1298761E884730288146F0D0AC
:100DB0002BE01099894505D1200603D4761E44F016
:100DC000800418E0484611F080FC08B3761E0DF14F
:100DD00023018B4544F4007408D2A9F130000BF8CC
:100DE000010B200607D5AAF1010003E0200602D47A
:100DF0000AF101008246A00502D51399681C08601B
:100E0000B96912986D1C88478146002ED1DC53E0E9
:100E1000002E51DDB9F1650F02D0B9F1450F4BD16C
:100E2000A00549D5B9696D1C1298761E24F440744A
:100E30008847002E81460CDD2B2804D0B9F12D0FF8
:100E400007D144F48074B96912986D1C8847761EE6
:100E50008146E00501D52D2100E02B2108F8011B7A
:100E6000CDF8008021E0761E0DF13901884544F46B
:100E700000740CD2A9F1300010F0FF0088F80000D7
:100E800002D10099884509D908F1010806E0E0057A
:100E900001D5244801E042F20F708246B9691298E8
:100EA0006D1C8847814613980560002E04DD484676
:100EB00011F00BFC0028D6D1F96912988847FF2061
:100EC00053468BF8000088F8000000200A900B9031
:100ED00004AA0CA90AA8FFF7D5FDA00502D46FF05B
:100EE0000100F8E614F0240F0AD0E00714D13868A6
:100EF000DDE90A12031D3B600068C0E900120BE047
:100F00000AA9684611F004FBE00705D13868009A89
:100F1000011D3960006802602846DCE6982B050058
:100F20008E2A0500F1D8FFFF0446AFF3008020466B
:100F3000FFF7A5F970B505460C460A2000E06D1CC8
:100F400000F07AF835B128780028F8D102E0641C66
:100F500000F072F814B120780028F8D1BDE8704094
:100F60000A2000F069B8000010B5012805D0002162
:100F700003A0FFF7DFFF012010BD09A1F8E7000083
:100F800053494752544D454D3A204F7574206F6672
:100F90002068656170206D656D6F727900000000DA
:100FA0003A2048656170206D656D6F727920636FBE
:100FB00072727570746564004FF0013C50F8042B38
:100FC00051F8043B9A4221D1A2EB0C03934313EA5C
:100FD000CC1317D150F8042B51F8043B9A4215D189
:100FE000A2EB0C03934313EACC130BD150F8042B60
:100FF00051F8043B9A4209D1A2EB0C03934313EA44
:10100000CC13DBD04FF00000704700BFD01A01BAFC
:10101000B1FA81F101F0180122FA01F0CB40C1F1DF
:101020002001DBB2C0B2C01A2CFA01F3D11A9143ED
:1010300011EAC311E6D1704708B569468DF8000082
:101040000320ABBE08BD000000487047544200209A
:101050002DE9F047814616468AB0334878440DC8DA
:101060008DE80D0030487844801C03AC0DC884E83E
:101070000D0041F69B300844372190FBF1F290FBC4
:10108000F1F5A5F1800501FB12041B3C02D5644279
:10109000012000E00020DFF890A080460027FA44FD
:1010A000AAF1BE0A0DE0E00709D03246684607EB18
:1010B00047010AEB810100F0D2FC8DE807006410C3
:1010C0007F1C002CEFD1184F7F44AC3F18E0E8079D
:1010D00014D007EB04100DF1180A90E80E008AE80E
:1010E0000E00C068F04201D198190890324606A956
:1010F00003A800F0B4FC03AB83E807006D10641C88
:10110000002DE4D132466946B8F1000F03A802D0A1
:1011100000F07DFC01E000F0A2FCC9E90001C9F883
:1011200008200AB0BDE8F087D42505002DE9FF4F5F
:101130001F464FF03C0987B04FF00042DDE9141024
:1011400001F10108DDF858A002EA405003900020A8
:1011500004908346054604460590B969461E0898E2
:101160008847AAF1010A0290BAF1000F37DD029810
:101170002E2815D0102100F012FA00282ADB4FF09B
:10118000010B0499014316D0B9F1000F0BDB4A465D
:10119000C11700F0F1F905430C43A9F1040905E07A
:1011A0000120059007E008B145F0010501200490F9
:1011B000059800B9361DB969089808F101088847F3
:1011C000BBF1000FAAF1010A0290CDD00999C1F834
:1011D0000080C9E70298702808D0502806D0F96925
:1011E00008988847BBF1000F14D04FE00020029010
:1011F0000120BBF1000F049009D0B969089808F1EB
:1012000001088847AAF10109B9F1000F07DCF96963
:10121000089888476FF001000BB0BDE8F08F2B28CD
:1012200004D02D280CD14FF0FF300490B9690898F4
:1012300008F101088847A9F10109B9F1000FE6DDBD
:10124000411CE4D00A2100F0AAF90028DFDB029952
:1012500008F1010801EB810100EB41000290B9693E
:10126000089888470A2100F09AF9099AA9F101091A
:10127000B9F1000FC2F8008001DD0028E7DAF96952
:10128000089888470499029800FB016655EA040013
:1012900004D004F04041090002D006E0039898E031
:1012A000A40044EA9574AD00B61E04F000410800A5
:1012B00002D16D196441761E159810F0240F03D0E9
:1012C0004FF00B095C4803E04FF028096FF07D00F8
:1012D0008246564507DAAAEB06018944B9F1410F67
:1012E00001DD4FF0410901200021A9F1010200F0C8
:1012F00043F9024628400B462140084301D0012112
:1013000000E00021501E029143F1FF3128402140AE
:10131000084301D0012000E000200299834651EAF1
:101320000B014FD0002108464FF00000039900F454
:10133000400039B100EB80004FF4400100EBD07069
:1013400001EA60008015012802DD4FF0FF3000E067
:1013500013D0401C36D0029860B3BBF1000F0CD103
:101360004A460120002100F007F9284021400843A7
:1013700001D0012000E00020E0B101204A46002118
:1013800000F0FAF8034640190A4661412D1A8C41D3
:1013900011D3B9F1400F09DD159810F0240F02D0D8
:1013A000AAF1340603E0AAF1170600E0761C002536
:1013B0004FF0004406E05B1E42F1FF3220EA0305D5
:1013C00021EA0204CAF10100B04206DA1B4903987F
:1013D00008430190002000900EE0039AC4F3D3214B
:1013E000E80A0A43164940EA44500A433146CDE927
:1013F0000002684611F0E8F8159810F0240F0BD0A1
:101400001598C00715D13868DDE90012031D3B604F
:101410000068C0E900120CE002A8694611F078F8F3
:101420001598C00705D13868029A011D3960006817
:1014300002604046F0E6000002FCFFFF0000F07F83
:101440000000F03F2DE9FF4F92461D4685B04FF05A
:101450000041DDE9124BDDE914727F1E01EA4B50B9
:10146000414940F0FF4940EA0108002122F02000F4
:101470004928049102D04E2828D04CE03BA00126F8
:1014800007C88DE80700A9690698641C88477F1E75
:10149000014606D41DF8060018B121F02001814252
:1014A0000BD0E96906988847032E34D0082E32D035
:1014B0006FF0010009B0BDE8F08F761C032E01D05B
:1014C000082EE0D1601CCAF80000DCE7A969069884
:1014D000641C88477F1E2AD420F02000412826D192
:1014E000A9690698641C88477F1E20D420F020003C
:1014F0004E281CD1A9690698641C88477F1E48F4B1
:10150000002849F48009CAF8004001D4282806D0F0
:10151000E969069888475FEACB7012D022E0A96992
:101520000698641C88477F1E01D4002803DAE96905
:1015300006988847BCE72928F1D1641CCAF8004006
:10154000E9E71BF0240F07D028680499031D2B60DE
:101550000068C0E9001805E02868021D2A600068DC
:10156000C0F800902046A5E70000F07F494E4649AC
:101570004E49545900000000B2F120030AD5C2F1CF
:10158000200301FA02F120FA03F300FA02F041EA23
:101590000301704700FA03F14FF0000070473A284A
:1015A00000D2303820F02002412A01D3A2F13700C6
:1015B000884201D34FF0FF30704720F07F4C80EA23
:1015C000030023F07F47ACEB070303F57C5300F0E7
:1015D000004003F1FF032DE980494FEA154B09B4A0
:1015E0004FEA144325EA0B4E24EA03480FF204267F
:1015F00006EB132749083E785FEA320203FB0667D1
:10160000C7F5000707FB06F64FEA54374FEAD64600
:1016100006F1020607FB066CCCF1005C4FEA1C47A2
:101620002CEA074C07FB06F40CFB06F504EB154609
:101630004FEA961634BF00204FF000404FEAD137F2
:1016400006FB07FC4FEA1C4C0CFB0BF7D21B03FB01
:101650000CF761EB07010CFB0EF7B0EB074072EBE8
:1016600017420CFB08F734BFA2EB0742B2EB07426C
:1016700061EB17414FEA0C444FEA910706FB07FC68
:101680004FEA1C4C0CFB0BF7B0EBC74072EB573228
:1016900003FB0CF734BFA2EBC742B2EBC74261EBCE
:1016A00057310CFB0EF7B0EBC70072EB57720CFB17
:1016B00008F734BFA2EBC702B2EBC70261EB577168
:1016C000039F4FEA816141EA921104EBCC044FEA97
:1016D000D1374FEA826206FB07FC42EA90124FEADA
:1016E00080604FEA1C4C0CFB0BF7D21B03FB0CF782
:1016F00061EB07010CFB0EF7B0EB074072EB1742F2
:101700000CFB08F734BFA2EB0742B2EB074261EBD8
:1017100017414FEA8C554FEA910704EB9C2406FBD6
:1017200007FC4FEA1C4C0CFB0BF7B0EBC74072EB0D
:10173000573203FB0CF734BFA2EBC742B2EBC742F0
:1017400061EB57310CFB0EF7B0EBC70072EB577231
:101750000CFB08F734BFA2EBC702B2EBC70261EB88
:10176000577115EB4C254FEA816141EA92114FEA1E
:1017700082624FEAD13742EA901206FB07FC44F13D
:1017800000044FEA80604FEA1C4C0CFB0BF7D21BA5
:1017900003FB0CF761EB07010CFB0EF7B0EB074006
:1017A00072EB17420CFB08F734BFA2EB0742B2EB17
:1017B000074261EB174115EB1C154FEA813141EAF5
:1017C00092414FEA823242EA90424FEA80304FEA39
:1017D0000C7644F1000448EA03434EEA0B484FF00C
:1017E000000EB2EB080C71EB030724BF62463946CA
:1017F0004EEB0E0E4FF0000B0018524149414BEBDF
:101800000B0BB2EB080C71EB03077BF1000B24BF51
:10181000624639464EEB0E0E4FF0000B0018524157
:1018200049414BEB0B0BB2EB080C71EB03077BF15F
:10183000000B24BF624639464EEB0E0E51EA0207FA
:1018400018BF46F0010616EB0E7655F1000254F172
:10185000000103D5BDE88901BDE80088BDE8890124
:10186000BDE80048B619524141EB0101A3F1010363
:10187000704780807F7E7D7C7B7A797877767675FD
:101880007473727171706F6E6E6D6C6C6B6A6A6975
:101890006868676666656464636362616160605F0F
:1018A0005F5E5E5D5D5C5C5B5B5A5A595958585788
:1018B00057565655555554545353525252515150F0
:1018C00050504F4F4F4E4E4D4D4D4C4C4C4B4B4B43
:1018D0004A4A4A4949494848484747474746464689
:1018E00045454544444444434343434242424241C4
:1018F0004141000046EA0646A3F570534FEA1646FA
:1019000046EA42564FEAD22242EA415210B54FEA25
:10191000D121A3F1010300F017F820F0004000F1FD
:10192000010C00F0004701EB00501146BCF5006FC0
:1019300040EA070000D210BD02484FF0000140EA23
:10194000070010BD0000F07F002B26D4770021D0C7
:101950001CB54FEA370703B44FF010004FF01001E9
:101960004FF000000FBCBDE810400BF1010BBBF1C4
:10197000010F08BF5FEA170722BF12F1010211F140
:1019800001014FF0004143F1000300F0004043EA41
:1019900000007047F9D35708DAE746EA064613F124
:1019A000400F4FEA16461FDD13F1200FDFBF16432D
:1019B0000A46002120335B42C8D0C3F1200746EA23
:1019C000064602FA07F74FEA164646EA0706C3F14B
:1019D000200722FA03F201FA07F721FA03F14FF088
:1019E000000342EA0702B1E746EA020646EA064673
:1019F0004FEA164646EA0106BCBF46EA0646360CE2
:101A00004FF000034FF000024FF000019EE72DE978
:101A1000C048934630B491E8380007C831EA400C1A
:101A200048BF34EA430C03D5FFF7C7FDFFF78CFF2F
:101A3000F0BCBDE800882DE9C048934630B491E879
:101A4000380007C831EA400C48BF34EA430C03D5DC
:101A5000FFF7B3FDFFF74EFFF0BCBDE800882DE9AE
:101A6000C048934630B491E8380007C810F0804F62
:101A700008BF13F0804F03D100F019F8FFF764FF9F
:101A8000F0BCBDE800882DE9C048934630B491E829
:101A9000380007C810F0804F08BF13F0804F03D103
:101AA00000F005F8FFF726FFF0BCBDE8008820F045
:101AB0007F4780EA030023F07F4C07EB0C03A3F57C
:101AC0007C5300F00040A3F1FE0392F0000F00F001
:101AD000B38095F0000F00F077802DE901494FEABF
:101AE00011404FEA144621EA004800FB06FC24EAB4
:101AF000064708FB06F607FB08F800FB07F718EB9C
:101B000006484CEB164C4FEA124B18EB07484FEACD
:101B100015464CEB174022EA0B4E0BFB06FC25EA60
:101B200006470EFB06F607FB0EFE0BFB07F71EEB48
:101B3000064E4CEB164C4FF000061EEB074E4CEBDE
:101B4000174B18EB0B0840F1000018EB0E0B58EB8D
:101B5000000840F100008F1A4FF000013CBFC9435C
:101B6000661B14BFB5EB040C00213CBFC943F61B38
:101B70004FEA17444EEA8E0E27EA04454FEA1C4707
:101B800004FB07622CEA074C05FB07F70CFB05F684
:101B900004FB0CFC16EB074642EB174216EB0C4617
:101BA00042EB1C421BEB060658EB0202414146EA9F
:101BB0009E0601D5BDE80189B619524141EB0101EC
:101BC000A3F10103BDE801894FEA14454FEA11472B
:101BD00024EA054621EA074C05FB07F406FB07F754
:101BE0000CFB06F105FB0CFC11EB074144EB174421
:101BF0004FEA124711EB0C4144EB1C4422EA074C1C
:101C000005FB07F206FB07F70CFB06F605FB0CFCD1
:101C100016EB074642EB174216EB0C4642EB1C450F
:101C20006A1854F1000148BF7047B619524141EBA0
:101C30000101A3F10103704795F0000F37D04FEA7F
:101C400011424FEA144721EA024624EA074C02FBFC
:101C500007F106FB07F70CFB06F402FB0CFC14EB88
:101C6000074441EB17414FEA154714EB0C4441EB95
:101C70001C4125EA074C02FB07F506FB07F70CFBA6
:101C800006F602FB0CFC16EB074645EB174516EB78
:101C90000C4645EB1C42121951F1000148BF704738
:101CA000B619524141EB0101A3F1010370474FEA1C
:101CB00014454FEA114724EA054621EA074C05FB83
:101CC00007F106FB07F70CFB06F24FF0000605FBD9
:101CD0000CFC12EB074241EB174112EB0C4251EBAB
:101CE0001C4148BF7047921841EB0101A3F1010369
:101CF000704700BFFEE770B506460C4604F0800052
:101D0000802808D104F07F0000EB800106F58E707A
:101D100000EBC10505E004EB840106F55D7000EB06
:101D2000C1050020A87004F07F002870C4F3C01023
:101D300068702946304606F0B1FF002070BD2DE9DD
:101D4000F04106460D4690461F4605F0800080286B
:101D500008D105F07F0000EB800106F58E7000EBE6
:101D6000C10407E005F07F0000EB800106F55D701F
:101D700000EBC10405F07F00207005F08000C00971
:101D80006070C4F80880E770607808B12078E0805F
:101D9000022F01D1002020712146304606F032FF8B
:101DA0000020BDE8F0812DE9F04105460E461746BA
:101DB000984606F07F0000EB800105F55D7000EBB2
:101DC000C104E760C4F814800020A061607006F0D0
:101DD0007F002070E878012800D12761207820B9A1
:101DE0002146284606F032FE03E02146284606F04A
:101DF000AFFF0020BDE8F08108B500220092009AF4
:101E000061F30A12009202691268009B1A43036987
:101E10001A6008BD70B506460C4604F080008028A4
:101E200008D104F07F0000EB800106F58E7000EB16
:101E3000C10505E004EB840106F55D7000EBC1050A
:101E40000120A87004F07F002870C4F3C0106870EF
:101E50002946304606F04AFF002070BD2DE9F041CA
:101E600007460D461646984605F07F0000EB8001B8
:101E700007F58E7000EBC1040120607005F07F0053
:101E80002070E66026610020A061C4F814802078EC
:101E900020B92146384606F0D9FD03E021463846F0
:101EA00006F056FF0020BDE8F0811CB50446204630
:101EB00006F097FDE068C0680090204607F06EF8D5
:101EC00003280BD10020A0704FF40070A080009870
:101ED00020F4705000F51050009009E00120A0702F
:101EE0004020A080009820F4705000F5A050009091
:101EF0000098E168C86000200190019820F400502B
:101F000000F5005001900198E168486101201CBD76
:101F1000F8B50546002400200090284607F071F827
:101F2000064690E006F0010000287DD0E1B2284688
:101F300000F0CAFA0090009800F0010030B30120D0
:101F400000FA04F72869406BB84329694863002008
:101F50000090009820F00100401C009005F118004E
:101F600050F8240000998160E1B239480068426865
:101F700028469047E878012808D13CB940F2111072
:101F8000405D042802D1284606F00BFE0098C0F3FD
:101F9000C00060B100200090009820F008000830D8
:101FA000009005F1180050F8240000998160009815
:101FB000C0F3001060B100200090009820F01000E5
:101FC0001030009005F1180050F82400009981604D
:101FD0000098C0F3801060B100200090009820F0BD
:101FE00040004030009005F1180050F8240000999E
:101FF00081600098C0F3400060B10020009000981C
:1020000020F00200801C009005F1180050F8240018
:10201000009981600098C0F3C01028B1214628467D
:1020200000F07CFA002000E00BE00090009820F027
:1020300080008030009005F1180050F824000099CD
:102040008160641C7608002E7FF46CAF0120F8BD1F
:10205000580300207CB5044600250020019020464E
:1020600006F0D7FF06466FE006F00100002869D0B1
:10207000E9B2204606F0D5FF0190019800F001007A
:10208000C8B300200190019820F00100401C01908D
:1020900004F1540050F8250001998160E07801288E
:1020A00017D104F1540050F825000069009005EBA9
:1020B000850104F55D7000EBC10080680099C1F3F3
:1020C0001201411A05EB850204F55D7000EBC200B8
:1020D0008161E9B21E480068026820469047E078B6
:1020E000012808D13DB940F21110005D052802D148
:1020F000204606F056FD0198C0F3400060B1002074
:102100000190019820F00200801C019004F154001D
:1021100050F82500019981600198C0F3C00088B192
:102120000B4800688168204688470020019001988C
:1021300020F008000830019004F1540050F8250008
:10214000019981606D1C7608002E8DD101207CBD27
:10215000580300203EB50446A07A70B1D4F80C01B3
:102160000090009820F002000090009820F00100FC
:1021700000900099D4F80C010160002001900198B2
:1021800020F00100401C01902069406801998843BB
:102190002169486008480068816920468847002016
:1021A0000290029820F0004000F100400290029856
:1021B000E168486101203EBD580300207CB504461B
:1021C00000200190019820F0100010300190E0688C
:1021D000806901998843E1688861E068006A00903D
:1021E000009800F00F0000EB800104F55D7000EB3B
:1021F000C1050098C0F3434007282DD2DFE800F066
:102200002C04051D1E2C1F0027E00098C0F30A10A7
:1022100090B10098C0F30A122046E96806F00BFF5F
:10222000E8680099C1F30A110844E860A8690099B8
:10223000C1F30A110844A8610FE00EE00DE0082286
:1022400004F2CC51204606F0F6FEA8690099C1F3CD
:102250000A110844A86100E000BF00BFE06880697F
:1022600001990843E168886101207CBD38B50446C6
:1022700008480068C1682046884700200090009800
:1022800020F00800083000900098E16848610120C3
:1022900038BD0000580300201FB504460020009000
:1022A0004FF48970005D0090234800684169204622
:1022B000884720698068019000200390039820F4EB
:1022C000006000F5006003900398E1684861A07A1F
:1022D00070B3019800F0010050B340F21510005D9A
:1022E000012825D19DF80000032821D1002002906B
:1022F000029820F00100401C0290D4F80C01006804
:1023000002990843D4F80C110860029820F00200EA
:10231000801C0290D4F80C01006802990843D4F89C
:102320000C1108600548006840F006000349086089
:10233000012004B010BD00005803002010ED00E0A3
:1023400030B587B0044600200290069005900490B6
:1023500003900190029820F00100401C0290206937
:10236000406802998843216948600021204606F0B0
:10237000EBFD00250BE0FF2104F1180050F82500CB
:10238000816004F1540050F8250081606D1C607874
:10239000A842F0D84FF0FF312069816106986FF3B1
:1023A0000F00401C0690069880B200F58030069021
:1023B00006992069C161059820F008000830059051
:1023C000059820F00100401C0590059820F00200BF
:1023D000801C0590059920694161049820F0010056
:1023E000401C0490049820F00800083004900498E1
:1023F00020F00200801C049004992069016120698A
:1024000000680390039820F4FE600390039920690C
:102410000160204606F0C5FB00200190019820F4E1
:10242000805000F5805001900198E16848610448AF
:102430000068016920468847012007B030BD0000D0
:102440005803002038B50446002000900748006873
:10245000C16920468847009820F4801000F580105C
:1024600000900098E1684861012038BD58030020C1
:1024700038B504460020009007480068016A2046ED
:102480008847009820F4001000F500100090009894
:10249000E1684861012038BD5803002038B5044682
:1024A000E068406800900098C0F3800020B10548C3
:1024B0000068816A204688470098E16848600120EA
:1024C00038BD00005803002030B5024615692B695D
:1024D00015696C6B24FA01F505F0010543EAC51393
:1024E00002F1180555F82150AD6805EA030030BD2A
:1024F00038B5044608480068416A204688470020ED
:102500000090009820F0804000F1804000900098FA
:10251000E1684861012038BD580300202DE9F843E7
:1025200007460E4600250020009006EB860107F5C1
:102530008E7000EBC104D4E90501451AA068A842D9
:1025400000D2A568E81C4FEA900807F1180050F87F
:102550002600806900901BE0D4E90501451AA068B7
:10256000A84200D2A568E81C4FEA9008ABB2F2B2CC
:102570003846E16806F073FDE0682844E060A06931
:102580002844A06107F1180050F8260080690090E7
:10259000009880B2404506D9D4E90510884202D29D
:1025A00060690028D8D10120BDE8F883F0B500218A
:1025B00000220023002400250026DFF8A0C00768C1
:1025C000CCF814706746BF696FF30D07CCF818702C
:1025D0006746BF69D0F804C047EA0C07DFF87CC043
:1025E000CCF8187067467F6ADFF874C007EA0C07FA
:1025F000DFF868C0CCF82470C768390107693A026F
:10260000878A3B04077E3C066746D7F824C0876864
:102610000F4317431F4327434CEA070C0F4FC7F8DC
:1026200024C0BF6A07F07F47DFF830C0CCF82870BD
:10263000076A3D02878C3E046746D7F828C0C76901
:102640002F4337434CEA070C044FC7F828C0DFF884
:102650000CC0876ACCF83070F0BD000000B00240BA
:10266000C000FC000021016041608160C160016127
:1026700041618161C1610162416281627047000014
:1026800000B5A1B00121C80505F068F800F036F8E2
:102690004FF4003017900220189015481D9000202C
:1026A0001A9019901B901C901E90E0201F904FF4E0
:1026B0006170209017A800F0B3F80CA800F096F80D
:1026C0000C480C9000200E9011900CA800F032F8ED
:1026D00001A8FFF7C7FF08480190002003900120E0
:1026E0000690FF20079001A8FFF760FF21B000BD12
:1026F000003831D0009C18D0000000D010B5012166
:10270000C80505F03BF800214FF4000005F036F84D
:1027100010BD000010B500F0F5F800BF022000F079
:1027200073F80028FAD03F200149886010BD0000EE
:1027300000B00240F0B50021002200230024002553
:102740000026DFF8A0C00768CCF80C7067463F6928
:102750006FF30D07CCF8107067463F69D0F804C0DE
:1027600047EA0C07DFF87CC0CCF810706746FF69B9
:10277000DFF874C007EA0C07DFF868C0CCF81C70FB
:10278000C768390107693A02878A3B04077E3C061D
:102790006746D7F81CC087680F4317431F4327437A
:1027A0004CEA070C0F4FC7F81CC03F6A07F07F4781
:1027B000DFF830C0CCF82070076A3D02878C3E04F9
:1027C0006746D7F820C0C7692F4337434CEA070C48
:1027D000044FC7F820C0DFF80CC0876ACCF82C7013
:1027E000F0BD000000B00240C000FC00002101600C
:1027F00041608160C160016141618161C1610162CB
:10280000416281627047000001460020034A52681D
:102810000A400AB1012000E00020704700B00240E9
:1028200070B50021002200230024344D2D68344E61
:102830003540324E356035462D68066835432F4E9B
:10284000356035466D6B25F00705756335466D6B54
:1028500046683543294E7563456835B9C568290210
:10286000058A2A04057D2B0621E04568012D05D146
:10287000C5682902058A2A04002318E04568022D4C
:1028800005D1C56869010569EA0200230FE04568C2
:10289000032D06D1C56869010569AA024569EB03E4
:1028A00005E0C568290105692A0245692B0341EA4B
:1028B0000205866835431D43104EB66B35430F4EF7
:1028C000B5638569F56335462D6C6FF30D05356489
:1028D00035462D6CC6693543084E3564858C2C040D
:1028E00035466D6C05F04045756435466D6C066A7D
:1028F00026433543014E756470BD000000B00240B0
:10290000FCE0FCFF0348006840F00100014908605A
:102910007047000000B002407047000008B500207A
:1029200000900548009002E00098401E009000983A
:102930000028F9D108BD000040420F0010B5024642
:1029400000200023102A03D14FF02044636E0FE0D3
:10295000B2F5807F02D10A4C236809E0B2F5805FAE
:1029600003D1074C2034236802E0054CD43423689B
:1029700003EA01048C4201D0002000E0012010BDD8
:10298000840000A00021D0E900231A4383685B1E65
:1029900042EA4312C36842EA4321014A1160704788
:1029A000500100A070B50021002200230024D0E9CE
:1029B00001563543C6683543066935434669354394
:1029C00086693543C6693543066A3543466A45EA32
:1029D0000601056835B90568AD00A5F1C045C5F823
:1029E00040110DE0D0E907563543466A45EA060333
:1029F000294D2B600568AD00A5F1C045C5F8401113
:102A0000056835BB856A2D686D1E866A7668761EF8
:102A100045EA0616856AAD686D1E46EA0526856A92
:102A2000ED686D1E46EA0536856A2D8A6D1E46EAFA
:102A30000546856AAD8A6D1E46EA0556856A2D7E75
:102A40006D1E46EA0562144D0835066845F82620D5
:102A500020E0856A2D686D1E866A7668761E45EAD6
:102A60000616856AAD686D1E46EA0526856A2D8ABA
:102A70006D1E46EA0542856AED686D1E2E03856A65
:102A8000AD8A6D1E46EA0554034D08352C60066874
:102A900045F8262070BD0000400100A004490968E7
:102AA00041EA40014FF02042C2F854117047000043
:102AB000540100A099B1102808D14FF02042126EA5
:102AC00042F004024FF020431A661BE00E4A1268DF
:102AD00042F004024FF02043C3F8802012E0102897
:102AE00008D14FF02042126E084B1A404FF020439D
:102AF0001A6607E0044A1268044B1A404FF020435C
:102B0000C3F8802070470000800000A0FBFF0F008A
:102B100030B5002100220023446844F00804856891
:102B20002C43C5682C4305692C43456944EA452478
:102B3000856944EA4531C4692468C5696D6844EA19
:102B40000524C5692D8944EA0544C5692D7B44EAFD
:102B50000562046A2468056A6D6844EA0524056A0A
:102B60002D8944EA0544056A2D7B44EA056304681F
:102B7000102C05D14FF020442166A266E36608E0E0
:102B8000044C21604FF02044C4F88820014C0C34E0
:102B9000236030BD800000A02DE9F0430446C568E5
:102BA00087B090468946002002F040F8064625B1DD
:102BB000287910B146F0020001E026F0020002F090
:102BC00035F82069012558B1D4E902128DE82600B4
:102BD000039563882288046841464846A0471EE062
:102BE000124F134B214638681B68427CE0689847B7
:102BF00030B9E088012801D0002001E03868806BFE
:102C0000A288E388A1680095CDE90410CDE90232DD
:102C10000195638822884146484603F03FFB07B090
:102C20003046BDE8F04302F001B80000B0030020D8
:102C3000A803002010B5002001F0DCFF6FF07F40FA
:102C400001F0E3FF012002F03BF8002002F046F81B
:102C5000002002F053F8002001F0E8FF044800686B
:102C600001F0F0FFBDE81040002001F0FBBF0000C4
:102C7000AC030020F0B50A4600210023002400BF69
:102C80003DE0012505FA01F3156805EA03049C42BD
:102C900034D105684F000326BE40B5430560157961
:102CA0004E00B5400668354305601579012D02D008
:102CB0001579022D16D185684F000326BE40B54315
:102CC000856055794E00B540866835438560456816
:102CD00001268E40B5434560456896798E40B6B270
:102CE00035434560C5684F000326BE40B543C56007
:102CF000D5794E00B540C6683543C560491C1029DA
:102D0000BFD3F0BDF0B5002300244D07ED0E02FA4D
:102D100005F3CE1000F1200555F826504E07F70EAA
:102D20000F26BE40B543CF1000F1200646F82750CD
:102D3000CE1000F1200555F8265045EA0304CE10C8
:102D400000F1200545F82640F0BD4183704701831E
:102D5000704700002DE9F04FDFF828B191B04FF037
:102D6000FF35DBF80030B3F922100691DE69B3F9C4
:102D70002490F469A189814206D8E289824203D372
:102D8000471AD4F8008012E0D4E9018100296FD0FD
:102D90000A8882426CD84D88854269D3801A82B2F3
:102DA000486800EB8200B0F90070B0F90250781C5E
:102DB0005ED0307EA17C10FB01FA217CCDE90701B9
:102DC000B3F92A60304603F007FFC0B20E90DBF87B
:102DD000000007FB0A81A37C826B0127CDE9041266
:102DE000CDE90273C069089AC17E807ECDE90001F9
:102DF000DDE90603494603F051FA681C18D046F095
:102E0000020003F0E9FEDBF80000A37C05FB0A8169
:102E1000826BCDE90273CDE90412C069089AC17EC4
:102E2000807ECDE90001DDE90603494603F036FA6C
:102E3000DBF800005D46C069417E007E814214D906
:102E4000022E12D086F0040003F0C6FE2868C06986
:102E5000027EC37E12FB0391437E857E089A06980C
:102E60004B4412FB050203F07BFB0E9803F0B4FE0B
:102E7000DBF80000627C418C1144418411B0BDE854
:102E8000F08F0000B003002004480068C069C069EA
:102E900009B1027C0A60407C70470000B00300204A
:102EA000022008807047C06982898A4202D8C2899C
:102EB0008A4210D2806880B102888A420DD8438845
:102EC0008B420AD3406800EB8100A0EB8200B0F98E
:102ED0000000002801DB012070470020704700003F
:102EE0002DE9F043304C034687B020681946B0F90D
:102EF0002A60C069C06900F0FAF8002850D0416823
:102F00000088181A01EBC0053046AF7803F064FE64
:102F1000814620686A680123816BCDE90237CDE9DB
:102F20000421C169CB7E8A7ECDE900230B7EB0F9F6
:102F300024102A78B0F9220003F0B0F92068C069A3
:102F4000417E027E91421FD9C07E11FB00F812FB28
:102F500000F7022E18D000F0BDFD064600F088FDF7
:102F600001F053FE21682A78CB69B1F92200DB7E9B
:102F700012FB0302B1F9241001EB0803394403F0FA
:102F8000EFFA304601F041FE484603F025FE206886
:102F90006A78C369B0F922109B7E12FB0311418449
:102FA00007B0BDE8F0830000B00300202DE9F34135
:102FB0001C4E0F46002530682C46C069417EC07EFD
:102FC00011FB00F81DE0684601F022FF054630685D
:102FD0002946C069C06900F04BF890B1416800888B
:102FE000281A00EB400001EB800090F902100079F4
:102FF00008443168C969897E10FB01F0002800DDB2
:1030000004447F1EDFD51DB1284602F03DFE044476
:103010004146204607F0BAFC034901200870BDE88C
:10302000FC810000B0030020AC0400202DE9F34136
:103030000D4D0E4F0E462868B0F92A40A0070AD160
:103040007A680098904706E0684601F0E1FE29683A
:10305000C96909688847761EF6D500203870286847
:103060004485BDE8FC810000B0030020AC040020D2
:1030700006E002888A4202D842888A4202D28068E8
:103080000028F6D1704700000149486070470000F1
:10309000AC04002030B50F4C05460B46206829468D
:1030A000C069C06900F023F8002812D04168008888
:1030B00024682A1A0120E46900EBC200085CA47E9F
:1030C00010FB04F0002B04D011F8321011FB04F1B6
:1030D000196030BDB003002001200880704700B5A2
:1030E000C06900F004F8002800D0012000BD06E00F
:1030F00002888A4202D842888A4202D28068002826
:10310000F6D1704770B50025124C19E020691249BC
:10311000C5EB051600EBC60070220968001DFDF71F
:103120002DFA2069002140F8361000EBC60000F1AE
:103130000C018161011D0A1DC0E90F126D1C416463
:10314000A0688542E2DB00F0F3FFBDE8704001F0CB
:1031500087BF0000C4040020B003002070B50F49F1
:103160000D480860084602F0C3FE0C4C143CA068F1
:10317000C0EB0010C500284600F080F82A46002168
:10318000206102F0F8FE4FF0FF30206002F005F9F8
:10319000BDE870400CF078B83D010108D80400206B
:1031A0007CB5084EDDE906543668367CCDE900541E
:1031B000B60702D40AF09AFE7CBD034C2468A047EF
:1031C0007CBD0000B00300205C04002010B50400AA
:1031D00009D000F0ADFF204607F010FA044601F0D8
:1031E0003FFF204610BD002010BD38B5054600F059
:1031F0009FFF2846FFF7EAFF040009D000F0BEF861
:103200002A460021009002F0B6FE684600F0F4F86D
:1032100001F026FF204638BD024A106021F003006D
:1032200050607047C040002010B5040016D000F078
:103230007FFF0B48406B10F8341059B1022909D2B6
:10324000042101EBC4014158486807F08FF920467A
:103250000DF092F8BDE8104001F002BF10BD000073
:1032600000400020002805D0034AD16B016001B165
:103270004860D06370470000004000202DE9F04115
:1032800004460CF0CDFC2848E41C24F00305016C36
:103290002D1DA94200D90D46C46B13E054F8042C2F
:1032A000AA420ED184B1216809B162684A6061689E
:1032B00009B122680A60C26BA24231D12168C163A0
:1032C0002EE02468002CE9D18046816BC0680F187D
:1032D00057F8040C3E1A306838B100200DF044F95C
:1032E00057F8040C3E1A3068D0B97068A84217DB52
:1032F0003044441B3046241D0DF0EEF8D8F80C1075
:10330000491BC8F80C10D8F814102944C8F8141038
:103310007068401B02D0314607F028F944F8045C7D
:103320002046BDE8F08100000040002010B50024D8
:103330000CF076FC0C490F2001EBC002526C1AB164
:1033400001EBC000406C08E0401EF5D508E0416884
:10335000A14200D90C46806810B180680028F6D1DF
:10336000A4F10C0010BD000000400020024881695B
:10337000491C816170470000004000200549CA696E
:10338000521CCA61496B01EBC0010A78521C0A70D9
:1033900000F04AB80040002010B500F0C9FEFFF769
:1033A000C5FF64220849B0F5800F04D990FBF2F400
:1033B000086A444303E0096A4143B1FBF2F401F0B7
:1033C0004FFE204610BD0000004000200549102897
:1033D00005D94A68B0EB520F02D3500800E0102024
:1033E00088607047C040002002488169491E8161A1
:1033F00070470000004000200A4902684B6B52F8F9
:10340000082C03EBC2021378022B03D3CB690BB158
:103410005B1ECB611178491E1170002101600846C6
:103420007047000000400020002806D00349042215
:1034300002EBC000496B085808307047004000207C
:1034400050F8080C704710B5C2B2CBB2D21A00D5F2
:10345000524293B25B43C0F30722C1F30724121B0D
:1034600000D55242000C92B2A0EB114002FB023296
:1034700000B2002801DA404200B280B200FB002016
:1034800010BD10B50021084600F07AFB43F6FF722C
:103490005042BDE810401346014600F001B800005C
:1034A0002DE9FC411C4615460E46074600F040FE3D
:1034B000042003F091FB80461248C068C16C006D87
:1034C0000F4406440D440444ADF80070ADF80450B8
:1034D000ADF80260ADF80640684606F0E9FC07E08A
:1034E00023462A463146384603F03AF806F0A2FC55
:1034F0000028F5D1404603F06FFB01F0B1FDBDE8B7
:10350000FC810000A40300202DE9F0411C46164672
:103510000D460746022B02DB0020BDE8F0811C208F
:10352000FFF7ACFE0028F8D00DB105610AE0094AAA
:1035300052F8241009B905E011460A68002AFBD1A7
:103540000969016184618682002101604160C0E9EE
:103550000217E2E7C803002070B51D46FFF7D4FF4D
:10356000040009D000F00EF8E068006820B90348B4
:10357000006800EB85008465204670BDB003002024
:10358000FFF770BE70B590B38269022A30DA1E4C24
:1035900054F8221019B944F8220032E019464B6859
:1035A000002BFBD106E0CB68C5681B682D68AB42D9
:1035B00003DD09680029F6D11AE0C1B1CB68C668FD
:1035C0001B683668B3420CD1838A012B05D008E012
:1035D0001946DB681B68AB4203DB0B68002BF7D195
:1035E00029B14B6833B118604A68426004E0FFE7D4
:1035F000012070BD44F822004860884200D10021BB
:103600000160002070BD0000C803002010B503E079
:103610000468FFF7B7FF20460028F9D110BD0DF070
:1036200049BB00002DE9F0410026DFF834800D4F42
:10363000354600BF58F8254009E0E0680068385C6E
:1036400020B120460DF036FB266026462468002C6B
:10365000F3D16D1C022DEDDB3046BDE8F08100009A
:10366000C8030020241D0508022801DB0020704744
:10367000054951F8200004E0C16809680029F6D026
:1036800000680028F8D17047C80300202DE9F041F8
:10369000044601F07BFE06191EE000BF00F052F95F
:1036A000052F00DD052700F043FD11480568FFF7F1
:1036B0005DFE2C0017D000BF01F0D2FC641EFBD1D0
:1036C000384601F053FE1DB100F032FD6D1EFBD1F6
:1036D000FFF78AFE01F0C4FC01F058FE371A002FF4
:1036E000DCDCBDE8F081384601F040FEF0E7000088
:1036F000D00400202DE9FC4706005FD000F018FD43
:1037000000F0F4F93C4C81462068B0F9228000F0CA
:1037100009FA216807468A8CD01B888441E000BFE3
:1037200047F6FF71304602F085FA82460146304680
:1037300002F056FA2168054691F82C0000F00300CB
:10374000012841D002283BD000204A8C101A48841E
:10375000ADF800006A1E1044ADF80400888CADF886
:103760000200A9F101010844ADF806006A4651467D
:10377000304601F09BFF2168BDF802008884514665
:10378000304601F05BFB064430780A281ED00D2835
:103790001CD0BDF80000216828444884307818B156
:1037A000761C30780028BBD12068818C3944818414
:1037B000818D21F00301818501F052FCBDE8FC8779
:1037C00005EBD5704010C0E72846BEE7206890F8AA
:1037D0002C1001F0030101290BD0022909D0018C22
:1037E000418431780A29D9D1828C02EB0901818484
:1037F000D4E7A0F82280F4E7B003002070B51446A7
:103800000D46064600F094FC054800684584848413
:103810003046FFF76FFFBDE8704001F021BC0000AB
:10382000B00300202DE9FF4F87B09046894607007E
:103830007DD000F07DFCD9F80040D9F8045021B2C9
:1038400028B2401A401C029000F050F9064618F0C9
:103850000C0F1ED038460A9A029901F00BFC08F0B2
:103860000C01042904D0082902D00C2911D104E04C
:10387000291400FB1610401C09E02114C1EB25425D
:1038800000FB1620401C00EBD07001EB600060F3E1
:103890001F44484606F000FA5FEA000B09D00246D2
:1038A000494604A8CDE9044502F017FA04A806F039
:1038B000F3F9A6F1010A38460A9A029902F02AFBA6
:1038C00003900AEB244060F31F45CDE900453846DC
:1038D000039902F085F918F003010ED001292CD0CC
:1038E00002290ED1B9F90420B9F90010521A101AA0
:1038F00000EBD07001EB600001E0B9F80000ADF81A
:1039000000006A463846039901F0D0FE38460A9A0C
:10391000029902F0F5FA074406EB244060F31F44D5
:1039200038780028C7D1584606F0B6F900E001E023
:1039300001F096FB0BB0BDE8F08FB9F80410081A3F
:10394000401CDCE710B5002400E0012400F004F87E
:103950000028FAD1204610BD094810B5006800249F
:1039600010B1804700B1012405F01AFF00B1012415
:103970000448006810B1804700B10124204610BD02
:10398000D4030020D00300202DE9F04F87B01C465F
:1039900015460E46074600F0CBFB2F48016802A8EB
:1039A000CA6C096D02EB070A02EB05090E4401EB34
:1039B0000408ADF808A0ADF80C90ADF80A60ADF8B9
:1039C0000E8006F075FAE0B3A8EB0600401C0590E7
:1039D000109C0598B0EB440F32DBA9EB0A00401CA9
:1039E000B0EB440F2CDB04FB04F02746354606EB16
:1039F000040B04901AE0049807FB170002F0FFFA8A
:103A00000AEB0401091A0191A9EB040108440246DA
:103A100000902946019802F043FDDDE90020A91B32
:103A2000A8EB010102F03CFD6D1C7F1EAB45E2DA04
:103A3000A8EB04034A46294650465B1E02F090FD5F
:103A400000E003E006F0F6F90028C1D101F008FB20
:103A500007B0BDE8F08F0000B0030020034951F823
:103A60002000C1688A6A082110470000C8030020AE
:103A700010B500F05DFB02F0ABFD02F06DFE0446F8
:103A800001F0EEFA204610BD10B5044600F050FBE0
:103A9000054800210068C0694268204690470446F6
:103AA00001F0DEFA204610BDB003002070B50C46D0
:103AB000054600F03DFB064821460068C0694268A3
:103AC00028469047044601F0CBFA204670BD00001E
:103AD000B003002010B500F02BFB02F081FD02F0D6
:103AE0003BFE044601F0BCFA204610BD10B500F0C4
:103AF0001FFB04480068C069447E01F0B1FA20460B
:103B000010BD0000B003002070B50C46054600F063
:103B10000FFB2146284602F0A9F8BDE8704001F0ED
:103B20009FBA000010B5002400F002FB0B480068AB
:103B300090F82C1001F00C01042904D0082906D0BB
:103B40000C2907D103E0C069047E641E02E0C0694D
:103B5000007E440801F084FA204610BDB003002026
:103B6000024951F82000006900687047C80300202E
:103B7000024951F82000006940687047C8030020DE
:103B800070B50D46044600F0D3FA20460BF01CFC3D
:103B9000044628460BF020FC044301F061FA20465D
:103BA00070BD000010B501F0B1FC0A492E2008706C
:103BB00001F0F2FB08480BF0A5FE02F0DDFD044623
:103BC0000021084601F05CF805F068FEFFF79AFA5C
:103BD000204610BDA4030020CC4000201CB5CDE938
:103BE00000016946014800F003F81CBD413F000890
:103BF0002DE9F8431E46174688468146012500F008
:103C000097FA48F2C040FFF7F0FA040009D03B46AB
:103C100042464946009608F019FC05462046FFF743
:103C200003FB01F01DFA2846BDE8F883F8B5054608
:103C3000FFF7A4FB009000F5E04090F82063684691
:103C4000FFF7DAFB002410E001232246194628463C
:103C500006F01BFF30B9082322460221284606F051
:103C600014FF08B10120F8BD641CB442ECDB002055
:103C7000F8BD00002DE9F04300F5E0448146D4F89A
:103C80009004A1B04FF00108002538B194F8100459
:103C9000F0B300BFD4F8880430B32BE094F81104DB
:103CA0000028484603D00CF097F890B915E007F0CB
:103CB00021FE70B9D4F82814D4F88C0488420CDCA6
:103CC000694648460CF06CFB18B99DF80000D928ED
:103CD00003D0012021B0BDE8F08384F81084D4F82B
:103CE0002804C4F89004D5E7D4F88404FFF746FB11
:103CF000C4F888040746D4F87C04FFF73FFB209003
:103D0000B8B10026D4F82004B0420FDD209800E0BE
:103D100011E000EBC61180226846FCF7A4FB39468F
:103D200068460BF087FB761C4037EBE720A8FFF7CF
:103D300063FB84F8105494F8120405281CD2DFE8C1
:103D400000F02B270B0F030094F89004C0070BD151
:103D5000484607F01DF90DE0484607F093F809E0E2
:103D600094F89004C00702D084F89C8404E048468C
:103D700006F0F6FF84F89C54D4F89004401EC4F872
:103D80009004D4F88C04401EC4F88C040020A1E7F1
:103D9000484606F08BFFEDE7D4F89014D4F82804D9
:103DA000461AD4F89404FFF7E9FA0090D4F888147E
:103DB00001EBC602D4F8141409E000BF52F8043B2A
:103DC00040F8043B52F83C3B40F8043B491E0029B4
:103DD000F4DC6846FFF710FBCCE7000070B500F597
:103DE000E044054694F82003042834D028460BF01C
:103DF0006BFF28B194F8200384F83103002132E0EE
:103E000094F878232AB1002194F87B331BB1012068
:103E100002E00121F8E7002094F87963B2421AD851
:103E200009B1C6B903E094F83123012A13D118B1BE
:103E300094F87A239A420ED121B108B10E4905E0D7
:103E40000E4903E008B10E4900E00E49284607F08C
:103E5000D3FE0028CAD0012070BD681800F5E040EC
:103E600080F83213491C94F831038842F5DC284667
:103E700006F074FC002070BDA9B80008C1B70008A6
:103E800019B70008A1B400082DE9F04100F5E0449D
:103E90000546D4F8880420B147F288402844FFF74B
:103EA000ABFAD4F8940408B1FFF7BEF9D4F898043B
:103EB00008B1FFF7B9F9D4F87C0408B1FFF7B4F9F9
:103EC000D4F8840408B1FFF7AFF900260FE000BF73
:103ED00005EB061707F5E047D7F8C80308B1FFF769
:103EE000A3F9D7F8880308B1FFF79EF9761C94F878
:103EF0002003B042ECDCD4F80C0408B1FFF794F9CD
:103F0000D4F88004002803D0BDE8F041FFF78CB955
:103F1000BDE8F081026811441378016003EB0320CF
:103F200000EB0340704730B5026802EB8101137863
:103F300054789578016043EA042040EA054030BD9A
:103F400030B5054600206C68E41A002C07DD944269
:103F500001DD104600E020462A681A440A6030BDA0
:103F6000F8B50C46064600F03BF8054654B130461D
:103F7000FFF704FA0090818A2160C08A6060684679
:103F8000FFF73AFA2846F8BD38B5054600F028F89C
:103F9000040023D128460BF0EDFC04001ED1284676
:103FA000FFF7ECF947F211410090095C81B106F08E
:103FB00081FB04000FD1009800F5004090F8A004A8
:103FC00048B96846FFF718FA284607F095FD38BD4E
:103FD0000BF07AFE04466846FFF70EFA204638BD1D
:103FE0007FB50025FFF7CAF901260090044680F846
:103FF00020601A4860600020E06102A920460BF0B2
:1040000078F920BB626803A920469047F8B99DF86B
:104010000800FF281BD19DF80C00D82817D18DF877
:10402000040001A900980CF0BBF980B99DF80400C8
:10403000C02808D0C12806D0C22809D1009800F5B0
:10404000E04080F8116400980BF022F800B10125DF
:104050006846FFF7D1F904B0284670BDF3F20008B6
:104060002DE9F84300F500410446D1F8A824D1F821
:10407000AC0404F5E0451044C1F8AC04002015E0A0
:1040800095F82123D1F8AC34022A08D1221802F580
:10409000E04292F82523C2F1030293FBF2F304EB12
:1040A000800202F50042401CC2F8B03495F820238B
:1040B0008242E5DC002628E004EB061847F27C315A
:1040C00008EB0107F868FFF759F90090BA683968FA
:1040D0004A4379684A43002101F04DFF6846FFF7E3
:1040E0008BF947F2BC3108EB0107F868FFF746F996
:1040F0000090BA6839684A4379684A43002101F060
:104100003AFF6846FFF778F9761C95F82003B0422D
:10411000D2DC47F2FC3010220021204401F02BFFBA
:10412000E08AC5F88C040020C5F89004BDE8F88347
:1041300070B5184CE06820B101F025F9616888423B
:1041400004D001F02BF901F01EF96060E068401C1A
:10415000E06001281CD10BF097F8054620688542E5
:1041600016D0002813DBFFF75DFA01462068C0EB8C
:104170000012206900EBC2025167C5EB0511064A27
:1041800000EBC100011D1160406FFFF73FFA256091
:1041900070BD0000C4040020B00300201CB5040062
:1041A00004D10E480068046E002C16D0FFF7C0FF43
:1041B0002046FFF7E3F8009044696846FFF71CF9D2
:1041C0004CB12046FFF7DAF801908168896888478A
:1041D00001A8FFF711F900F043FF1CBDB003002058
:1041E00001490A4600F002B801F0FFFF2DE9F04353
:1041F00087B015460C465FEA000846D0FFF798FFE7
:10420000002000F013FD814621480068066E4046FC
:10421000FFF7B4F800900068806900F0CFFC074613
:1042200040F6FF70C44204D10098B0F90440B0F9E0
:1042300006500098611E0289ADF804401144ADF8A3
:1042400008104189681E0844ADF80650ADF80A0010
:1042500005F0F2F86846FFF7CFF801A805F028FE50
:1042600006E02A462146404600F082FB05F0E2FDCA
:104270000028F6D1384600F0A1FC304600F08AF95B
:10428000484600F0D3FC00F0EBFE07B0BDE8F08339
:10429000B00300202DE9FE4F984691468A4683469A
:1042A00000270C9EFFF744FF184819490068407C1E
:1042B00051F82040E1680968042903D02468002CE3
:1042C000F8D100E01CB9FFF7CFF904001BD0E0687B
:1042D0000121C26A20469047050011D02469A068D8
:1042E0008047401C02D10B4C46F001060096CDE9F8
:1042F000015443464A465146584600F0DFF9074606
:1043000000F0AEFE3846BDE8FE8F0000B00300208E
:10431000C80300206033050838B504001CD0FFF73F
:1043200007FF0E480068006EA04201D100F038FC83
:104330002046FFF723F80090406908B100F079FEAD
:1043400000980068FFF71CF96846FFF755F820460B
:10435000FEF76AFF00F084FE38BD0000B0030020C5
:104360002DE9FF4FDFF83891074683B0D9F80000F8
:104370009A468B46447C4B4800570128204606DD70
:1043800002F0B4F90546204602F0BCF905E002F05F
:104390009BF90546204602F09DF904461FB302A989
:1043A00001A8FFF7B1FBB7F90000002800DA0020F0
:1043B000B7F902608046002E00DA00260198411904
:1043C000B7F90400491E0BF000FE054602980119DA
:1043D000B7F90600491E0BF0F8FDA5EB0802841B97
:1043E000521C641C03E04FF0000846462A46BAF10E
:1043F000000F01D1C4F1000A002A4FDD002C4DDD71
:1044000010980090534631464046FFF743FF5FEA5D
:10441000000A10D000F078F80746A04206D0D9F87C
:104420000000806C10B1322106F018F8504600F000
:10443000B1F8002521E0594605988847012007B0CA
:10444000BDE8F08F611BB94202DA504600F086F8F1
:104450003DB172194146504600F0C4F85046FFF78E
:104460009DFE5946059888470F48016809B100200C
:1044700088475046FFF7B4FE3D44A542E2DB504674
:10448000FFF74AFF002000F085F8A74206D0D9F8D0
:104490000000806C10B1332105F0E0FF0020CEE772
:1044A000B0030020E80300201005002038B5050007
:1044B0004FF0000411D0FFF73BFE2846FEF75EFFE9
:1044C0000090006800698068804702F0A5FD0446FE
:1044D0006846FEF791FF00F0C3FD204638BD38B5B1
:1044E00004000ED0FFF724FE2046FEF747FF00F140
:1044F000180400906846FEF77FFF00F0B1FD2046EB
:1045000038BD002038BD000038B504460025FFF74F
:104510000FFE1CB908480068046E44B12046FEF73F
:104520002DFF0090B0F90A506846FEF765FF00F0D5
:1045300097FD284638BD0000B003002070B5054641
:104540000024284606F08EFE641C18B1BDE87040B9
:1045500000F07AB8052CF4DB70BD000038B50C46CD
:10456000050004D10A480068056E002D0FD0FFF742
:10457000DFFD2846FEF702FF0090B0F90A10A142C5
:1045800000DD44816846FEF737FF00F069FD38BD65
:10459000B0030020F8B50546FFF7CAFD104E30689D
:1045A000046ECDB10CB100F0FBFA05F039F82846E5
:1045B000FEF7E4FE009031680D660068FEF7E2FF4A
:1045C0006846FEF719FF02F0B9FB02F0E5FA00BFFA
:1045D00000F046FD2046F8BD00F0E2FAF8E70000E2
:1045E000B00300207CB515460E46040004D11548E2
:1045F0000068046E002C24D0FFF79AFD2046FEF7D9
:10460000BDFE2DB20090C58034B2848002F0C4FAA1
:104610000098406980B1FEF7B1FE009A0190B2F9AE
:1046200008108180B2F90A20C28011B10AB1048059
:10463000458001A8FEF7E0FE6846FEF7DDFE00F0CB
:104640000FFD7CBDB003002001490A4600F002B80E
:1046500001F0FFFF7FB515460C4606002DD0FFF791
:1046600067FD3046FEF78AFE40F6FF710190CC42AE
:1046700003D1B0F90440B0F906500289611E11441B
:10468000ADF80840ADF80C104189681E0844ADF83B
:104690000E00ADF80A5001A8FEF7AEFE02A805F024
:1046A00007FC06E02A462146304600F049F905F0AD
:1046B000C1FB0028F6D100F0D3FC7FBD2DE9FF4FF0
:1046C000DFF8E8B083B01C46DBF80010DDE91060CD
:1046D00092464FF000084B7C42461299FEF714FFB9
:1046E000050060D028698068804702F095FC81460B
:1046F0000AFB09F1C91DCF08FEF74EFEF10705D1EF
:10470000C11700EB9170801000EB4000002C09DC19
:104710001FB11838B0FBF7F000E000206442A0425F
:1047200000DC0446F00707D10090DDE903012346D1
:10473000524600F003FC8046002C03DC2846FEF7BE
:104740001FFF30E004FB07F01830F10702D0FEF73E
:104750003DFD01E0FEF749FD06001CD0FEF70EFE10
:1047600001900560039981800499C180A0F808A098
:104770004481C0F81480C0E9037901A8FEF73CFE2B
:104780001298AE602861DBF80000407CA8613046DA
:1047900007B0BDE8F08F2846FEF7F2FE5FEA08009A
:1047A00001D0FEF741FD0020F2E70000B003002039
:1047B0002DE9F74F8EB0144689460E98FEF7DEFDC0
:1047C0000990B0F908B0B0F90A6000680069406863
:1047D0000C9009A8FEF710FE564D574F2868407CF4
:1047E00057F82000C1688A6A082190470790182866
:1047F00001D3202007902868407C57F820000069EA
:10480000069003C80B904D48814201D0012000E082
:1048100000200A90002000F0C3FD00287DD1286808
:1048200009EB0B01B0F90C20891A491E002902DDA1
:10483000ABEB010500E05D46B0F90810494505DD28
:10484000A1EB090189446D1A089101E0002108914A
:10485000002D6BDDB0F90E20A119891A491E00291F
:1048600002DDA6EB010800E0B046B0F90A00A04264
:1048700004DD061B3444A8EB060800E00026B8F16E
:10488000000F53DD089801900DA95F46DDF830A0B8
:104890000E980091FFF723FE774300EB8701019804
:1048A0002B4601EB800200994846CDE900A1214644
:1048B00000F054FF0090002838D00A98E8B1DDE9F4
:1048C00006322946009800F01BFEB0B90698009FFA
:1048D000DA46D0F810C0BCF1000F05D004235A46C8
:1048E00039463846E04708E00B993868884701C7E1
:1048F000AAF101005FEA000AF6D100990020079AA8
:10490000CDE90301059001200090CDE90102214687
:104910000346641C2A46484600E007E001F0BEFC5E
:10492000A8F10100761C5FEA0008ABD111B0BDE828
:10493000F08F0000B0030020C80300207767000854
:10494000F8B515460E460746FEF718FD00900068BC
:104950001621C068426A0020904704466846FEF768
:104960004BFD002C03D02A4631463846A047F8BDFF
:10497000F8B516460F46050012D0FEF7FFFC009072
:1049800044696846FEF738FD2846FFF78FFD034669
:10499000082800DD2CB13246394628460CF028FAAA
:1049A000F8BD3246394628460CF0C2FBF8BD10B5BA
:1049B000002821D009B30AB3B1F90040B2F90030A0
:1049C0009C4200DA23460380B1F90240B2F902307A
:1049D0009C4200DA23464380B1F90440B2F9043026
:1049E0009C4200DD23468380B1F90610B2F906200F
:1049F000914200DC1146C18010BD11460A68026078
:104A00004968416010BD00280BD003880B44038027
:104A1000838819448180418811444180C1881144B0
:104A2000C18070472DE9FC4104460D4616461F46DD
:104A3000002000900190FEF799FC009401953B4600
:104A400032466946044800F009F88046FEF7CCFC7F
:104A50004046BDE8FC8100008F4A00082DE9FE4376
:104A600004460D4616461F46002000900190029015
:104A7000FEF77CFC009402956A463946304607F002
:104A8000A7FA8046FEF7B0FC4046BDE8FE832DE95C
:104A9000F04704460D4616461F46D5F80090A0463E
:104AA000D8F80000C11932464846FBF7DCFC304616
:104AB000BDE8F08770B50025FFF73AFB094CD4E953
:104AC000002082420AD0D2E9005610460AF0B6FE13
:104AD00020603146284604F0D5FF012500F0C0FAD9
:104AE000284670BDB40400202DE9FC41154DDDE9D8
:104AF00008742D68B5F90860864200DD3046B5F9C6
:104B00000C60964200DA3246824219DBB5F90A603F
:104B10008E4200DD3146B5F90E509D4200DA2B463B
:104B20008B420DDB00E02C46E5682D6825B1042D95
:104B300002D02568002DF6D1CDE9007401F016FFF2
:104B4000BDE8FC81B0030020B0F90220B1F90630C5
:104B50009A4213DCB1F90220B0F906309A420DDC1A
:104B6000B0F90020B1F904309A4207DCB1F9001025
:104B7000B0F90400814201DC012070470020704739
:104B80000146024870220068FBF7F8BCB003002021
:104B9000024970220968FBF7F1BC0000B003002055
:104BA00010B5FFF7C5FA01F0ADFF02F0C7F804F049
:104BB00043FCBDE8104000F053BA000070B50B4D47
:104BC00004462868467CFFF7B3FA022C09D2204637
:104BD000FEF74AFD28B128684474FFF7E1FF044856
:104BE000046000F03DFA304670BD0000B0030020C4
:104BF0000404002010B50446FFF79AFA204601F09D
:104C0000A1FFBDE8104000F02BBA10B50446FFF735
:104C10008FFA204601F0CEFFBDE8104000F020BA28
:104C20000149886070470000A403002010B50446C5
:104C3000FFF77EFA204601F0CFFF044600F010FA9D
:104C4000204610BD70B50446FFF772FA04480068AC
:104C5000C56904B1C46100F003FA284670BD0000C4
:104C6000B003002070B50546FFF762FA03480068FC
:104C7000847E857600F0F4F9204670BDB0030020F4
:104C800070B50C460546FFF753FA094822460580E1
:104C90000848048008480068417C084850F8210012
:104CA000C1680B6A29469847BDE8704000F0D8B942
:104CB000F0030020F2030020B0030020C80300200E
:104CC00070B50546FFF734FA03480068047E0576A0
:104CD00000F0C6F9204670BDB003002070B5044650
:104CE000FFF726FA04480068B0F92C50848500F0DC
:104CF000B7F9284670BD0000B003002070B5044627
:104D0000FFF716FA04480068B0F92A50448500F00D
:104D1000A7F9284670BD0000B003002002480068D3
:104D2000002800D000477047F404002002498A6838
:104D300002B98860FFF7F2BFB404002010B5040088
:104D40000ED0FFF7F5F920460BF0E0FB20460BF004
:104D500089FF2046FEF768FABDE8104000F080B9F0
:104D600010BD38B50C46050011D0FFF7E1F9284613
:104D7000FEF704FB00908089204201D0012400E06E
:104D800000246846FEF738FB00F06AF900E00124D1
:104D9000204638BD38B5054600202860064804681E
:104DA00044B12046FEF7EAFA0090006928606846A0
:104DB000FEF722FB204638BDE004002038B5040091
:104DC0004FF000000D46086011D02046FEF7D6FADD
:104DD0000090846844B16846FEF70EFB2046FEF75B
:104DE000CDFA0090006928606846FEF705FB204672
:104DF00038BD000010B5FFF79BF904490248086070
:104E0000BDE8104000F02CB9FC200508B4030020D8
:104E10002DE9F041084E04460568306801682846CF
:104E200088470746306841682846884728442060FC
:104E30003846BDE8F0810000B40300202DE9F041C0
:104E40000C4606460025064F05E0386841683046A6
:104E5000884706440544641EF7D22846BDE8F08121
:104E6000B40300202DE9F0411E46069C17468846F3
:104E700005463A46A8687F1C3346D0F804C0414630
:104E80002846E047641EF4D1BDE8F08170B5B0F962
:104E90000040091BB0F904408C422CDD00F11404E1
:104EA000B0F902500069521B02FB0040CA1800EB27
:104EB000E104521ED010B0EBE10501F007034FF002
:104EC000FF0102F0070221FA03F0C2F1070201FA22
:104ED00002F1CEB221780FD001436D1E04F8011B00
:104EE000002D05DDFF2229462046FBF784FB2C44DC
:104EF00020783043207070BD30400143217070BD78
:104F000010B5B0F90030B0F90240C91A00F114032D
:104F10000069121B02FB003000EBE10001F0070307
:104F200002788021D9400A43027010BDB0F9061002
:104F3000026951431430FBF788BB00002DE9F843A8
:104F4000804602F10F000011470003FB07F01C46EA
:104F5000154689461430FEF748F9060018D0FFF7C9
:104F6000E7F83046FEF70AFA0090A0F80080A0F8B3
:104F700002908580C4800749816001218181076199
:104F80006846FEF739FA00F06BF83046BDE8F88362
:104F90000020FBE70C35050870B5B0F90660B0F9E4
:104FA00004400B6800F1140596421BDD0069A34222
:104FB00002FB005000EBE30214DA641EE010A0EBE9
:104FC000E30512F8010B03F00704A040C4B206E0A9
:104FD00045B1083312F8014B23F007036D1E002C76
:104FE000F6D004E0002070BD6006040E5B1C2006B5
:104FF000FAD5FF2C07D0184602E06406240E401CA8
:105000006606FAD400E0D81DC443640705D006E064
:1050100012F8014BFF2C09D108306D1EF8D5C01ACB
:10502000401C0B6070BD6206140E401C2206FAD4B0
:10503000F5E738B50546FFF77BF82846FEF79EF9F9
:1050400000908189491E0CB284816846FEF7D4F92C
:1050500014B92846FEF7E8F800F002F838BD000061
:105060000348C168491EC16001D100F098B970477A
:10507000C40400202DE9F04116460F4605460024E1
:10508000FFF756F832463946284600F039FF054406
:1050900008B1641CF6E7FFF7E3FF2046BDE8F081A6
:1050A000F0B587B01546044601A80C9A1F000E46BD
:1050B00000900BD0122101AB00207260B84728B9D4
:1050C000684600F003FF1D49884202D0012007B066
:1050D000F0BD684600F0F0FE2076684600F0ECFE79
:1050E0006076684600F0E8FE84F82000684600F02C
:1050F000E3FE84F82100684600F0DEFE84F822001A
:105100000120A076E076684600F0D6FE3080684642
:1051100000F0D2FE7080B760E661286820606868A1
:105120006060A868A060E868E0602869206168693C
:1051300060612046FFF786FD0020C8E747554958C3
:105140002DE9F3470D46FEF7C5FC1D4C824620684D
:1051500090F82A00400702D5FEF7BCFC01E0FEF7FC
:1051600087FCFFF752FD2068C1694A7EC97E12FBA9
:1051700001F80024B0F92270B0F92460A14608E0DB
:105180006846FFF745FE8146002100F01DF82044E7
:1051900004B26D1EF4D5484600F076FD204400B2FE
:1051A0003A1806EB08033146384601F0D9F9504663
:1051B000FFF72BFD034901200870BDE8FC870000C4
:1051C000B0030020AC0400207FB50D4619490968E2
:1051D000C969CC692188814202D86188814202D2A2
:1051E000002004B070BD01466A46204600F05AF81F
:1051F00000980028F5D003A80290D4E9012403AB5D
:1052000065B104210098A04760B902A800F054FEDF
:10521000044602A800F050FE286009E00221009830
:10522000A04708B10120DCE702A800F045FE0446D3
:105230002046D6E7B00300207FB50D461349096824
:10524000C969CC692188814212D8618881420FD313
:1052500001466A46204600F025F8009840B103A8B0
:105260000290D4E9012403AB04210098A04710B1B7
:10527000012004B070BD02A800F01EFE287102A833
:1052800000F01AFE28700020F3E70000B0030020B1
:1052900010F8202F8A704278CA7080780871012037
:1052A000088070477CB51446CDF804D002886B4660
:1052B000891A4A0002EB8105D0E90126042105F193
:1052C0001200B04718B10020206001207CBD01A869
:1052D00000F0FCFD206000207CBDFEB51646CDF838
:1052E00008D002881D46891A4A0002EB8104D0E9E1
:1052F00001276B46062104F11200B84708B10120CE
:10530000FEBD02A800F0E2FD306002A800F0D4FD6E
:1053100028800020FEBD08B5C06902888A4202D8F4
:1053200042888A4201D2002008BD6A46FFF7BAFFD0
:1053300000980028F8D0012008BD000010B50848EA
:10534000084908604FF4000106480068FDF764FF53
:105350008020FEF73BF80448FFF762FC10BD000018
:10536000005F37D0E002002024280508044A1268B4
:10537000111800BF024A12688A1A002AFADC704724
:10538000DC020020704700207047000001480068E0
:1053900070470000DC02002070477047704770477C
:1053A0000EB508B102AA00E00022002301A9684658
:1053B00000F0C8FB0EBD0000074910B50C7818B10D
:1053C00001200870801E03E0002008706FF07F400D
:1053D00000F056FE204610BDEA03002010B5082A52
:1053E0000EDC0346012A18D0022A56D0042A76D0B1
:1053F00010F8042B03F8012B491EF9D1012010BD30
:10540000102A08DC4FEA000230F8043B22F8023B85
:10541000491EF9D1F2E7002010BD10F8042BD20785
:10542000120E491E34D010F8044B491E04F001043A
:1054300042EA84122CD010F8044B491E04F00104F7
:1054400042EA441224D010F8044B491E04F001042F
:1054500042EA04121CD010F8044B491E04F0010467
:1054600042EAC40214D010F8044B491E04F00104AF
:1054700042EA84020CD010F8044B491E04F00104E7
:1054800042EA440204D010F8044B04F00104224321
:1054900003F8012B0029C0D1B0E710F8042B9207C4
:1054A000120E491E15D010F8044B491E04F00304D7
:1054B00042EA04120DD010F8044B491E04F0030414
:1054C00042EA840205D010F8044B04F0030422439E
:1054D000491E03F8012B0029DFD18FE7FFE710F801
:1054E000042B1207120E491E05D010F8044B04F0CD
:1054F0000F042243491E03F8012B0029EFD17DE759
:1055000038B50024009400F01DF838BD0B4810B5E4
:105510008169002910D101218161FFF70FFFFDF79B
:105520001DFE01F01DFC054905481C310860BDE861
:105530001040084600F0DCBC10BD0000A4030020B1
:10554000DD0001082DE9F0410D460699044601B938
:1055500001461F68082A09DC0E46012A1AD0022AD1
:105560005BD0042A7DD0082A13D18DE0102A07DCF5
:10557000D3F810C00E46BCF1000F04D0022389E01E
:105580000020BDE8F08101CCB84726F8020B6D1E63
:10559000F9D189E001CCB847C0074FEA10686D1E09
:1055A00036D001CCB84748EA801000F0FF086D1EE5
:1055B0002ED001CCB84748EA401000F0FF086D1E1D
:1055C00026D001CCB84748EA001000F0FF086D1E55
:1055D0001ED001CCB84748EAC00000F0FF086D1E9D
:1055E00016D001CCB84748EA800000F0FF086D1ED5
:1055F0000ED001CCB84748EA400000F0FF086D1E0D
:1056000006D001CCB84740EA080000F0FF086D1E44
:1056100006F8018B002DBDD146E001CCB8478007CC
:105620004FEA10686D1E16D001CCB84748EA00104A
:1056300000F0FF086D1E0ED001CCB84748EA80008C
:1056400000F0FF086D1E06D001CCB84740EA080004
:1056500000F0FF086D1E06F8018B002DDDD123E060
:10566000FFE701CCB84700074FEA10686D1E06D06F
:1056700001CCB84740EA080000F0FF086D1E06F8AC
:10568000018B002DEDD10FE0D3F810C0BCF1000F5D
:1056900004D001232A462046E04705E001CCB84764
:1056A00006F8010B6D1EF9D101206AE77CB50646AC
:1056B00028480D46006868B1002004F0F9FB06E0B8
:1056C0006A462946304606F049FC04F0B3FB002840
:1056D000F6D17CBD106800901F4C50680190226884
:1056E000BDF8000032F84C1F0844ADF80000BDF8CA
:1056F000020091880844ADF80200BDF8040011884A
:105700000844ADF80400BDF8060091880844ADF8DF
:105710000600684604F0CCFB0EE000BF2068BDF830
:1057200000106A464184BDF8021081842946304643
:1057300006F014FC04F07EFB0028EFD1206830F85E
:10574000221F428D891A01804188C28D891A4180A9
:105750007CBD0000EC030020B00300202DE9FF4FCA
:105760008DB00020DDF86CA0164600901D46044662
:105770000246CAF8000008AB03A902A800F0E2F94B
:1057800018B1002011B0BDE8F08F0898854200DD07
:105790000546614F0B9561493868407C51F82010EF
:1057A000049109690691FEF759F905903868407C23
:1057B000FEF7DEF95A498146884204D059498945A5
:1057C00001D0012000E000200A9001CE1A998847FC
:1057D0008346000E079077D0009870BB0D9800EBC1
:1057E00004084D480068B0F90800404503DDA0EB0F
:1057F0000807804600E000270298049900EB840027
:1058000000EB8700CDE900010B990D984218099231
:105810000E9B40461946521EFFF766F90120009084
:10582000059818280ADA0298DDE9052300EB8400C0
:1058300000EB8700E91B00F0E3F812E00A9880B162
:10584000029800EB840000EB87070998A0EB08089A
:1058500049463868884701C7A8F101005FEA000897
:10586000F6D13148C06980B3DDE9020700EB84005E
:1058700007EB8402CDE902022B4C361F3046E46967
:105880002B460299A047FF213068B1EB106F02D17F
:105890000298006804E0029A1268B1EB126F01D11D
:1058A000039A1060029806F10406001D0290039806
:1058B000001D03906D1EE7D10397DAF8000040F059
:1058C0000101CAF8001020E021E0FFE70798FF2857
:1058D00011D0C0F1FF02029850F82410584600F091
:1058E00091FA039941F82400DAF8000040F0010130
:1058F000CAF8001005E00298039950F8240041F816
:105900002400641C6D1E7FF460AF03983AE703998E
:1059100041F824B0E8E70000B0030020C8030020ED
:10592000776700087567000874030020F0B500EB86
:105930008103082A0ADC01254C1E092A10D2DFE85F
:1059400002F00F10263E3E5555555500102A07DC33
:1059500000EB4100491E30F8022D43F8042DF9D127
:10596000F0BD04F00702C2F1070200EBE40005FA03
:1059700002F604783440D440521C43F8044DA0EBA6
:10598000E20022F007042241491EF0D1F0BD04F0EC
:10599000030200EBA400C2F10302032405785600C1
:1059A00004FA06F73D40F540521C43F8045DA0EBB5
:1059B000A20022F003052A41491EEFD1F0BD8D431C
:1059C00000EB6400C5F101020F240578960004FA8B
:1059D00006F73D40F540521C43F8045DA0EB620021
:1059E00022F001052A41491EEFD1F0BD00EB010074
:1059F000491E10F8012D43F8042DF9D1F0BD000027
:105A00002DE9F05F0C1E16DD5E68014600EB840593
:105A1000082A12DC611E012A26D0022A47D0042A55
:105A20006AD0082A07D1071917F8010DB04745F8C1
:105A3000040D641EF8D1BDE8F09F102AFBDC5F69FD
:105A40003FB12246BC46BDE8F04F02235DF804EBAF
:105A5000604701EB440700BF37F8020DB04745F837
:105A6000040D641EF8D1E6E700EBE10001F0070742
:105A700010F801A98146802020FA07F8B5F1040545
:105A80000AEA0800C7F10701C840B04745F8040911
:105A90003FB14FEA48604FEA10687F1E641EEFD1A5
:105AA000C9E719F801A907274FF00108F6E700EB4D
:105AB000A10001F0030710F801A981467900C02078
:105AC00020FA01F84FF0060BB5F104050AEA0800C8
:105AD000ABEB4701C840B04745F804093FB14FEA76
