:020000040800F2
:1000000050D400200D0200084D0200084F020008E5
:1000100053020008570200085B02000800000000BD
:100020000000000000000000000000005F02000867
:100030006102000800000000630200086502000879
:1000400027020008270200082702000827020008EC
:1000500027020008270200082702000827020008DC
:1000600027020008270200082702000827020008CC
:1000700027020008270200082702000827020008BC
:1000800027020008270200082702000827020008AC
:100090002702000827020008270200087102000852
:1000A000270200082702000827020008270200088C
:1000B000270200082702000827020008270200087C
:1000C000270200082702000827020008270200086C
:1000D000270200082702000827020008270200085C
:1000E000270200082702000827020008270200084C
:1000F000270200082702000827020008270200083C
:10010000270200082702000827020008270200082B
:10011000270200082702000827020008270200081B
:10012000270200082702000827020008270200080B
:1001300000F002F800F05AF80AA090E8000C82449F
:100140008344AAF10107DA4501D100F04FF8AFF27C
:10015000090EBAE80F0013F0010F18BFFB1A43F0A5
:10016000010318476C4D01008C4D01000A444FF00B
:10017000000C10F8013B13F0070408BF10F8014B06
:100180001D1108BF10F8015B641E05D010F8016B4B
:10019000641E01F8016BF9D113F0080F1EBF10F8AF
:1001A000014BAD1C0C1B09D16D1E58BF01F801CBD2
:1001B000FAD505E014F8016B01F8016B6D1EF9D555
:1001C0009142D6D37047000000230024002500266A
:1001D000103A28BF78C1FBD8520728BF30C148BFAA
:1001E0000B6070471FB51FBD10B510BD02F0FEFBC0
:1001F0001146FFF7F7FF00F050F802F01CFC03B4C3
:10020000FFF7F2FF03BC02F01DFC00000948804725
:1002100009480047FEE7FEE7FEE7FEE7FEE7FEE7E8
:10022000FEE7FEE7FEE7FEE704480549054A064B00
:1002300070470000931400083101000850CC0020E2
:1002400050D4002050D0002050D00020704700BF74
:10025000FEE700BFFEE700BFFEE700BFFEE7704716
:100260007047704703480068401C024908607047A7
:10027000704700007000002010B501F00AF901215C
:1002800041F26C0001F032F80121402001F021F828
:100290000121084601F02AF810BDFFF7EDFF01F03B
:1002A00079F93249B1F1807F00D31DE021F07F4020
:1002B000401E4FF0E022506150170F22002807DA4D
:1002C00013071D0E2A4B00F00F04241F1D5503E0D9
:1002D00013071C0E274B1C5400BF00204FF0E022D8
:1002E00090610720106100BF01F071FA03F042F83D
:1002F000214803F0A9F9002003F07EF96FF07F4058
:1003000003F085F902F0C2FE3C2232211B4802F0C4
:10031000C1FF0522B4211A4802F0BCFF0522D221F8
:10032000184802F0B7FF0022F021174802F0B2FF90
:1003300005224FF48771154802F0ACFF15E0144810
:10034000006814490968401A642808D312480078E4
:10035000401E114908700E4800680E4908600E489A
:10036000007810B93F200C490870E8E740190100F7
:1003700018ED00E000E400E0844A01087C11010867
:1003800040160108041B0108C81F01088C2401083D
:1003900070000020040000200000002010B504467A
:1003A000BE48844208D10121801400F0B9FF002129
:1003B000A01400F0B5FF16E0B948844208D101212D
:1003C000001400F0BAFF0021201400F0B6FF0AE08C
:1003D000B448844207D10121C01300F0AEFF0021D0
:1003E000E01300F0AAFF10BD10B50022028802F44D
:1003F00041520B884C8823438C882343CC88234369
:100400000C8923434C8923438C892343CC89234380
:100410001A430280838B4FF2FF74234083830B8A3D
:10042000038210BD2DE9F04F85B005460C464FF014
:10043000000902274FF000084FF0010B0026B246DA
:10044000A88B4FF240010840A88302202884B5F809
:100450001C90A068022801D100BF38E0A08810B924
:100460004FF0010B01E04FF0020B8D48854200D1A7
:1004700000E000BF684600F0CCFEDDF800A0E08898
:10048000B0F5007F0AD14FEA1A2000EB800040004F
:10049000A168B0FBF1F0401D86B20BE04FEA4B10B3
:1004A000BAFBF0F000EB80004000A168B0FBF1F077
:1004B000401D86B20A20B6FBF0F606F00108A6EB56
:1004C0000800C0F34F074FF6FF7000EA0828022F1C
:1004D00001DBFF2F02DD02274FF00008E08840EA31
:1004E000080038432884A088A1890843618808430C
:1004F0002188084340F4006040EA0909A5F81C90EF
:1005000005B0BDE8F08F0021018041808180C1806D
:10051000018141818181C1810721018270470021D0
:10052000018041808180C180022181600021818120
:10053000704721B1028842F04002028004E0028844
:100540004FF6BF731A400280704721B1828B42F48C
:100550008062828304E0828B4FF6FF331A408283ED
:10056000704730B5002400230C110125A540ABB223
:100570001AB185881D43858002E085889D4385806A
:1005800030BD1AB183880B43838002E083888B439C
:1005900083807047818170470146888970474FF694
:1005A000FF62914204D0028842F48072028004E02B
:1005B00002884FF6FF631A400280704721B182889B
:1005C00042F00402828004E082884FF6FB731A40F6
:1005D0008280704702884FF2FF731A4002800288BF
:1005E0000A4302807047018841F4805101807047BE
:1005F00021B1028842F40052028004E002884DF6E4
:10060000FF731A400280704702460020012901D082
:10061000108B00E0908A70470146088A7047B1F558
:10062000804F04D1028842F48042028004E00288B4
:100630004BF6FF731A400280704702460020138970
:100640000B400BB1012000E000207047CA4302813B
:100650007047F0B50246002000240023002501F079
:100660000F070126BE40B4B20B1101269E40B3B263
:10067000968806EA03051689264016B10DB10120B9
:1006800000E00020F0BD10B5002201F00F040123AE
:10069000A3409AB2D343038110BD00000030014053
:1006A00000380040003C004030B943F2DB028100DA
:1006B000A1F1C0410A6005E043F2D2028100A1F13C
:1006C000C0410A606FF07042411C8900A1F1C04135
:1006D0000A608100A1F1C041C1F8042170471028CF
:1006E0000AD118214FF020421166402151664FF087
:1006F000FC319166D16610E01821F74A1160402163
:100700004FF02042C2F884104FF0FC31F24A083218
:1007100011604FF02042C2F88C1070471820EE494B
:100720002031086000200906C1F8A4004FF0FC3019
:10073000E94928310860091D0860091D08607047F3
:10074000D0E901121143C2681143026911434269A1
:10075000114382691143C2691143026A1143426A1B
:100760001143826A1143C26A1143026B114302684A
:100770009200A2F1C0421160816808290BD1016882
:100780008900A1F1C041096841F040020168890077
:10079000A1F1C0410A60416B0968426B526841EAAD
:1007A0000211426B926841EA0221426B928941EA4E
:1007B0000241426B128A41EA0251426B127D41EAC8
:1007C0000261426B926911430268521C9200A2F1CD
:1007D000C0421160C16AB1F5804F1BD1816B0968BD
:1007E000826B526841EA0211826B926841EA0221EF
:1007F000826B128A41EA0251826B127D41EA0261E8
:10080000826B9269114302689200A2F1C042C2F861
:10081000041107E06FF0704201688900A1F1C04146
:10082000C1F80421704730B500210022002344683C
:1008300044F0080485682C43C5682C4305692C43A3
:10084000456944EA4524856944EA4531C469246818
:10085000C5696D6844EA0524C5692D8944EA0544E3
:10086000C5692D7B44EA0562046A2468056A6D68DF
:1008700044EA0524056A2D8944EA0544056A2D7B6E
:1008800044EA05630468102C05D14FF0204421662A
:10089000A266E36608E0904C21604FF02044C4F863
:1008A00088208D4C0C34236030BD016841F010016C
:1008B000426841EA4221826841EA4231864A203256
:1008C0001160C1680968C268526841EA0221C268C1
:1008D000128941EA0241C268127B41EA02617E4A02
:1008E00028321160016909680269526841EA0221EF
:1008F0000269128941EA02410269127B41EA0261FE
:10090000754A2C321160416909684269526841EAAE
:1009100002214269128941EA02414269127B41EA9D
:1009200002614FF02042C2F8B01070470021016010
:100930000221416000218160C160016141618161EA
:10094000C16101624FF4805141624900816200211E
:10095000C16201630F21426B1160426B5160FF2144
:10096000426B91600F21426BD160426B1161426B0F
:1009700051610021426B91610F21826B1160826B8A
:100980005160FF21826B91600F21826BD160826B7D
:100990001161826B51610021826B9161704710215E
:1009A0000160002141608160C1600161416181613C
:1009B000FC21C2691160C2695160C2699160C2695B
:1009C000D160026A1160026A5160026A9160026A33
:1009D000D16070470021016041608160FC21C268E4
:1009E0001160C2685160C2689160C268D1600269DA
:1009F000116002695160026991600269D1604269C7
:100A0000116042695160426991604269D1607047EA
:100A100051B18200A2F1C042126842F0010382008B
:100A2000A2F1C042136009E08200A2F1C042126844
:100A30002A4B1A408300A3F1C0431A60704799B152
:100A4000102808D14FF02042126E42F004024FF0FD
:100A500020431A661DE0204A126842F004024FF05B
:100A60002043C3F8802014E0102809D14FF0204221
:100A7000126E1A4BDB1E1A404FF020431A6608E034
:100A8000154A1268154BDB1E1A404FF02043C3F87D
:100A90008020704748B110492031096841F00401B5
:100AA0004FF02042C2F8A01009E00B49203109683C
:100AB0000A4AD21E11404FF02042C2F8A0107047DF
:100AC000B9B110280CD14FF02042126E42F0400212
:100AD0004FF020431A661FE0800000A0FEFF0F00C9
:100AE000724A126842F040024FF02043C3F880205F
:100AF00012E0102808D14FF02042126E6C4B1A40C1
:100B00004FF020431A6607E0684A1268684B1A40A3
:100B10004FF02043C3F88020704701460020102981
:100B200003D14FF02042506F02E0604A1432106847
:100B3000704710B5F2B1102807D14FF020435B6E1B
:100B40000B434FF02044636632E0B0F5807F08D15C
:100B5000564B1B1D1B680B434FF02044C4F88430D8
:100B600026E0524B24331B680B434FF02044C4F85B
:100B7000A4301DE0102807D14FF020435B6E8B435B
:100B80004FF02044636613E0B0F5807F08D1474BF7
:100B90001B1D1B688B434FF02044C4F8843007E0D2
:100BA000424B24331B688B434FF02044C4F8A430DD
:100BB00010BD10B5024600200023102A03D14FF0CB
:100BC0002044636E09E0B2F5807F03D1374C241DC9
:100BD000236802E0354C2434236803EA01040CB195
:100BE000012000E0002010BD102807D14FF0204266
:100BF000526E8A434FF020435A6613E0B0F5807F6F
:100C000008D12A4A121D12688A434FF02043C3F8C4
:100C1000842007E0254A243212688A434FF020439B
:100C2000C3F8A420704770B50246002000230024BA
:100C30000025102A03D14FF02046736E09E0B2F56B
:100C4000807F03D1194E361D336802E0174E2436DB
:100C5000336803EA010403EAD10514B10DB10120A0
:100C600000E0002070BD102808D14FF02042526EE5
:100C700022EAD1024FF020435A6615E0B0F5807F9A
:100C800009D10A4A121D126822EAD1024FF020430C
:100C9000C3F8842008E0054A2432126822EAD1020F
:100CA0004FF02043C3F8A42070470000800000A04C
:100CB000BFFF0F0010B50446CC48844208D1012183
:100CC000042000F02DFB0021042000F029FB46E069
:100CD000C748844208D10121082000F021FB0021EF
:100CE000082000F01DFB3AE0C248844208D10121EF
:100CF000102000F015FB0021102000F011FB2EE069
:100D0000BD48844208D10121202000F009FB0021C8
:100D1000202000F005FB22E0B848844208D10121E0
:100D2000402000F0FDFA0021402000F0F9FA16E022
:100D3000B348844208D10121802000F0F1FA00215B
:100D4000802000F0EDFA0AE0AE48844207D101218C
:100D5000801500F0E5FA0021A01500F0E1FA10BDC1
:100D600010B50121084600F0DBFA0021012000F057
:100D7000D7FA10BD2DE9F0410246002500260020DB
:100D800000230024002791F803C00CF00F0591F810
:100D900003C00CF0100CBCF1000F03D091F802C09E
:100DA0004CEA050591F800C0BCF1000F31D0146881
:100DB00000202BE04FF0010C0CFA00F3B1F800C05A
:100DC0000CEA03069E4220D183004FF00F0C0CFA70
:100DD00003F7BC4305FA03FC4CEA040491F803C092
:100DE000BCF1280F06D14FF0010C0CFA00FCC2F840
:100DF00014C00AE091F803C0BCF1480F05D14FF0D0
:100E0000010C0CFA00FCC2F810C0401C0828D1D319
:100E10001460B1F800C0BCF1FF0F34DD546800204D
:100E20002EE000F1080C4FF0010808FA0CF3B1F8BD
:100E300000C00CEA03069E4221D183004FF00F0C44
:100E40000CFA03F7BC4305FA03FC4CEA040491F8DE
:100E500003C0BCF1280F05D100F1080C08FA0CF80A
:100E6000C2F8148091F803C0BCF1480F07D100F11B
:100E7000080C4FF0010808FA0CF8C2F81080401C6A
:100E80000828CED35460BDE8F0814FF6FF71018091
:100E9000022181700421C1707047024600209368CE
:100EA0000B400BB1012000E000207047014688682C
:100EB00080B2704702460020D3680B400BB101207E
:100EC00000E0002070470146C86880B270470161A9
:100ED0007047416170470AB1016100E041617047AC
:100EE000C16070474FF480320A4382618161826140
:100EF00082698269704702460020434B18684FF6AA
:100F00008073184040EA021008433F4B1860704756
:100F10003E49C8617047F0B50A460023002400210D
:100F2000002500F00046B6F1004F02D1364EF169BF
:100F300001E0354E7168C0F3034583B200F44016FA
:100F4000B6F5401F08D121F070612F4E766826F06B
:100F500070662D4F7E6012E000F48016B6F5801F9B
:100F600006D1032606FA05F4A14341F0706106E0BC
:100F7000460D360103FA06F6B14341F0706122B125
:100F8000460D360103FA06F6314300F00046B6F18D
:100F9000004F02D11C4EF16101E01B4E7160F0BDAB
:100FA00030B500228B071C0F0F2303FA04F2164BF7
:100FB00008338C1053F824309343134C08348D10AD
:100FC00044F8253023468C1053F824308C07240F26
:100FD00000FA04F423430C4C08348D1044F82530F7
:100FE00030BD0A49DC31086070470000000801404C
:100FF000000C0140001001400014014000180140A5
:10100000001C01400020014000000140000020427F
:10101000DF48006840F00100DD490860084640688C
:10102000DC490840DA49486008460068DA49084067
:10103000D74908600846006820F480200860084608
:10104000406820F4FE0048604FF41F00886070473D
:10105000CF49096821F48031CD4A116011460968F1
:1010600021F480211160B0F5803F03D0B0F5802FCE
:101070000ED106E0C649096841F48031C44A1160C6
:1010800007E0C349096841F4A021C14A116000E0AA
:1010900000BF00BF704710B50146002200230020AA
:1010A0004A11012A02D1BA4C236806E0022A02D171
:1010B000B74C236A01E0B64C636A01F01F020124B9
:1010C00094401C400CB1012000E0002010BD38B558
:1010D000002000900024002500BF3120FFF7DBFF37
:1010E00005460098401C00900098B0F5A06F01D014
:1010F000002DF2D03120FFF7CEFF08B1012400E02F
:101100000024204638BD01460020A14A106820F086
:10111000F80040EAC10010607047A04908607047BD
:10112000024600209A4B586820F47C1042EA0103E2
:101130001843974B586070479849086670470146B6
:101140000020934A506820F0030008435060704725
:101150008F48406800F00C007047014600208C4A20
:10116000506820F0F00008435060704701460020AE
:10117000874A506820F4E060084350607047014699
:101180000020834A506820F4605040EAC10050605B
:10119000704729B17E4A527A02437D4B5A7204E06D
:1011A0007B4A527A82437A4B5A7270477B49D831D4
:1011B0000860704701460020754A506820F440409E
:1011C0000843506070470021714A20321170704A04
:1011D00082F82010012802D004280AD104E001215D
:1011E0006B4A2032117005E00521694A20321170E6
:1011F00000E000BF00BF704769490860704764495C
:10120000096A0143624A11627047654944390860BE
:10121000704730B500210022002400235C4D6D682A
:1012200005F00C0121B1042905D0082923D105E0DE
:101230005C4D056022E05B4D05601FE0544D6D681C
:1012400005F47012524D6D6805F48034022505EBEB
:1012500092421CB9544D554305600BE04C4D6D68EE
:1012600005F400351DB1504D5543056002E04D4D6C
:101270005543056002E04B4D056000BF00BF444D83
:101280006D6805F0F0010909484D6B5C0568DD40AB
:1012900045603F4D6D6805F4E061090A434D6B5CA4
:1012A0004568DD4085603A4D6D6805F46051C90AB6
:1012B0003E4D6B5C4568DD40C560354D6D6805F49D
:1012C0004041890B3A4D6B5CC568B5FBF3F5056190
:1012D00030BD29B12E4A526902432D4B5A6104E0B8
:1012E0002B4A526982432A4B5A61704729B1284AD6
:1012F00092690243264B9A6104E0254A926982432F
:10130000234B9A61704729B1214AD2690243204B8D
:10131000DA6104E01E4AD26982431D4BDA617047EC
:1013200029B11B4AD2680243194BDA6004E0184A1B
:10133000D2688243164BDA60704729B1144A1269A9
:101340000243134B1A6104E0114A12698243104BA5
:101350001A61704712494039086070470F49C864E4
:1013600070470B49C87170470948406A40F0807067
:1013700007494862704701460020054A92680A40C2
:101380000AB1012000E000207047014988727047CF
:10139000001002400000FFF8FFFFF6FE000042428E
:1013A0008004424200127A0000093D00090000203A
:1013B000190000200CB50020019000906C480068D6
:1013C00040F480306A49086000BF6948006800F452
:1013D000003000900198401C0190009818B90198C5
:1013E000B0F5A06FF1D16248006800F4003010B190
:1013F0000120009001E0002000900098012843D1D6
:101400005C48006840F010005A49086008460068CF
:1014100020F0030008600846006840F00200086001
:10142000534840685249486008464068486008464A
:10143000406840F4806048600846406820F47C10B2
:1014400048600846406840F4E81048600846006874
:1014500040F08070086000BF4548006800F00070F0
:101460000028F9D04248406820F003004049486015
:101470000846406840F00200486000BF3C484068B1
:1014800000F00C000828F9D10CBD10B5FFF792FF51
:1014900010BD10B53648006840F0010034490860BE
:1014A00008464068344908403149486008460068A9
:1014B000324908402E4908600846006820F4802020
:1014C00008600846406820F4FE0048604FF41F00A2
:1014D0008860FFF7DAFF4FF000602949086010BD0F
:1014E00010B5002100200022214B5B6803F00C01A5
:1014F00021B1042906D0082928D107E0214B224C2C
:10150000236027E01F4B204C236023E0184B5B68CF
:1015100003F47010164B5B6803F48032022303EB74
:10152000904022B9194B4343174C23600DE0104BF8
:101530005B6803F4003323B1144B4343124C236024
:1015400003E0104B4343104C236003E00D4B0E4C63
:10155000236000BF00BF064B5B68C3F303130C4C52
:10156000E15C094B1B68CB40074C236010BD0000B9
:1015700000100240002002400000FFF8FFFFF6FECE
:1015800008ED00E000127A002000002000093D0074
:101590002400002000B597B001210802FFF799FE52
:1015A0004FF40050ADF8000010208DF80300032028
:1015B0008DF8020069464048FFF7DCFB4FF400510C
:1015C0003D48FFF784FCC020ADF8000010208DF8E6
:1015D000030003208DF8020069463848FFF7CAFB74
:1015E000E020ADF8000003208DF8020018208DF8EF
:1015F000030069463248FFF7BDFB0220ADF800004A
:1016000010208DF8030003208DF8020069462D4854
:10161000FFF7B0FB4CF23370ADF8000003208DF8FB
:10162000020018208DF8030069462348FFF7A2FB4B
:101630004FF68070ADF8000069462248FFF79AFB2C
:101640008020ADF8000069461B48FFF793FB4FF47C
:101650000060ADF8000069461748FFF78BFB0220D9
:101660000190002002900520039000200490059036
:1016700006904FF0805007900020089009900820B5
:101680000A9010200B9000200C900E900F9010905C
:101690004FF480501190002012901390149001A8E4
:1016A0001590169008A8FFF74BF801210020FFF7CE
:1016B000AFF917B000BD000000140140000C01405C
:1016C000000801400018014001B502E00098401EEA
:1016D000009000980028F9D108BD4FF0C041088063
:1016E00070474FF0C0421080FE4A118070470020C2
:1016F000FC4908887047FB4908807047F949088011
:10170000704710B50020F84908808880C88008819B
:101710004FF400704881302088810020C881072064
:1017200008824FF4827048800121F048FEF701FFE3
:10173000ED49EE48FEF758FE10BD10B5FFF7E1FF8A
:101740000020EB4908703DE00020EA490870802144
:10175000E948FFF7BEFB28E000BF0221E348FEF79F
:101760006CFF0028F9D0E548E14A127800EB42000E
:10177000E04A1278815CDD48FEF70CFF00BF0121D2
:10178000DA48FEF75AFF0028F9D0D848FEF704FFE0
:10179000C1B2DB48D64A127800EB4202D548037842
:1017A0000078401CD34C2070D154D24800780228D5
:1017B000D2DB8021D048FFF78AFBCD480078401C5F
:1017C000CB490870CA4800780928BDDB10BD10B5A8
:1017D0004021C948FFF77BFB8021C748FFF777FB13
:1017E0000221C848FFF775FBC748FFF76DFF0221CC
:1017F000C448FFF76CFBC448FFF766FFE220FFF721
:101800006CFF1D20FFF777FF0220FFF774FF042015
:10181000FFF771FFE020FFF760FF0120FFF76BFF8C
:101820004AF6FF70FFF750FFE020FFF756FF032056
:10183000FFF761FF4AF6FF70FFF746FF0120FFF751
:101840004CFF4AF6FF70FFF73FFFB020FFF745FF60
:101850002420FFF750FF4020FFF74DFFAB480088E2
:10186000C0F30720FFF747FFA8490878FFF743FFB9
:10187000A7480088C0F30720FFF73DFFA449087878
:10188000FFF739FF0020FFF736FFB420FFF725FFF1
:10189000A0480088C0F30720FFF72DFF9D49087876
:1018A000FFF729FF9C480088C0F30720FFF723FFBC
:1018B00099490878FFF71FFF98480078FFF71BFF4A
:1018C00097480088C0F30720FFF715FF9449087870
:1018D000FFF711FF0020FFF70EFFB620FFF7FDFE18
:1018E00090480088C0F30720FFF705FF8D4908786E
:1018F000FFF701FF8C480088C0F30720FFF7FBFECD
:1019000089490878FFF7F7FE88480078FFF7F3FE6B
:1019100087480088C0F30720FFF7EDFE8449087868
:10192000FFF7E9FEE620FFF7D8FE0120FFF7E3FE10
:101930001420FFF7E0FE7920FFF7DDFEB820FFF767
:10194000CCFE0F20FFF7D7FE0120FFF7D4FEBA2010
:10195000FFF7C3FE0F20FFF7CEFE3620FFF7BDFED8
:101960000020FFF7C8FEF020FFF7B7FE0320FFF7C7
:10197000C2FE4AF6FF70FFF7A7FE2920FFF7ADFE73
:10198000BE20FFF7AAFE0120FFF7B5FEFF20FFF7FC
:10199000B2FE0120FFF7AFFEFF20FFF7ACFE0020F4
:1019A000FFF7A9FE0020FFF7A6FE6248FFF78CFEB6
:1019B0006048FFF789FE5F48FFF786FE5D48FFF746
:1019C00083FE5C48FFF780FE5A48FFF77DFEFFF775
:1019D000B4FE10BD70B505460C462A20FFF77DFE0B
:1019E0002812FFF788FE2846FFF785FE511EC1F337
:1019F0000F20FFF780FE511E88B2FFF77CFE2B20E0
:101A0000FFF76BFE2012FFF776FE2046FFF773FE0E
:101A1000591EC1F30F20FFF76EFE591E88B2FFF763
:101A20006AFE2C20FFF759FE501B191B00FB01F624
:101A300003E04FF6FF70FFF75EFE3000A6F10106EF
:101A4000F7D170BD10B504460B462A20FFF745FEBE
:101A50002012FFF750FE2046FFF74DFE2012FFF741
:101A60004AFE2046FFF747FE2B20FFF736FE1812EE
:101A7000FFF741FE1846FFF73EFE1812FFF73BFE48
:101A80001846FFF738FE2C20FFF727FE1046FFF719
:101A900032FE10BD00B503460A462A20FFF71DFEA0
:101AA0001812FFF728FE1846FFF725FE1812FFF759
:101AB00022FE1846FFF71FFE2B20FFF70EFE101226
:101AC000FFF719FE1046FFF716FE1012FFF713FE80
:101AD0001046FFF710FE2E20FFF7FFFDFFF707FE71
:101AE00000BD000000000260A8010020003001409D
:101AF0006F0000206E000020000C01405C00002000
:101B0000BA01002000180140FFFF0A003400002045
:101B100048000020380000203C0000204000002049
:101B2000440000204C000020500000205400002001
:101B300058000020FFFF0F00F0B505460C462A2094
:101B4000FFF7CBFD2812FFF7D6FD2846FFF7D3FDA0
:101B50001012FFF7D0FD1046FFF7CDFD2B20FFF749
:101B6000BCFD2012FFF7C7FD2046FFF7C4FD201281
:101B7000FFF7C1FD2046FFF7BEFD2C20FFF7ADFDAE
:101B8000501B471C002603E01846FFF7B4FD761CE7
:101B9000BE42F9D9F0BDF0B505460C462A20FFF744
:101BA0009CFD2812FFF7A7FD2846FFF7A4FD281289
:101BB000FFF7A1FD2846FFF79EFD2B20FFF78DFDC7
:101BC0002012FFF798FD2046FFF795FD1012FFF752
:101BD00092FD1046FFF78FFD2C20FFF77EFD101BB6
:101BE000471C002603E01846FFF785FD761CBE4221
:101BF000F9D9F0BD2DE9F04105460C46069F2A2093
:101C0000FFF76BFD2812FFF776FD2846FFF773FDFF
:101C10001012FFF770FD1046FFF76DFD2B20FFF748
:101C20005CFD2012FFF767FD2046FFF764FD1812E8
:101C3000FFF761FD1846FFF75EFD2C20FFF74DFD15
:101C4000501B401C191B491C00FB01F8002603E037
:101C50003846FFF750FD761C4645F9D9BDE8F081BE
:101C60002DE9F04104460D46069F2A20FFF735FD79
:101C70002012FFF740FDE0B2FFF73DFDA118491E1D
:101C8000C1F30F20FFF737FDA118491EC8B2FFF7B7
:101C900032FD2B20FFF721FD2812FFF72CFDE8B2C3
:101CA000FFF729FDE918491EC1F30F20FFF723FDB7
:101CB000E918491EC8B2FFF71EFD2C20FFF70DFDE5
:101CC00002FB03F04FEA4008002603E0B85DFFF78F
:101CD00015FD761C4645F9D3BDE8F0810B48006838
:101CE00070470A4A1268111800BF084A12688A1A17
:101CF000002AFADC7047704770477047704770479A
:101D00007047704700207047704700007000002047
:101D100010B54FF44841034801F0BEF8024801F005
:101D200081FC10BDCC010020DC2B010810B5002384
:101D30001A462149214801F013FA02F08FFB68B1DD
:101D40004FF49672E021002002F018FD4FF49672D5
:101D50004FF4E071002002F027FD0CE0E0224FF488
:101D60009671002002F00AFD4FF4E0724FF4967174
:101D7000002002F019FD10BD2DE9F04106460F4686
:101D8000144625463020FFF7A8FC6968C1F30F20F0
:101D9000FFF7B1FCA98888B2FFF7ADFC0120FFF77F
:101DA000AAFC4FF4F270FFF7A6FC1220FFF795FC97
:101DB0000020BDE8F0810000D024010878730008FD
:101DC0002DE9F04107460C4615461E46B2B2A9B2AF
:101DD000A0B2FFF737FEBDE8F0812DE9F0410746DC
:101DE0000C461546A9B2A0B2FFF754FE064630468F
:101DF000BDE8F0812DE9F04104460D461646324615
:101E000029462046FFF7E9FF074621698868804791
:101E1000804687EA0803324629462046FFF7D0FF6E
:101E2000BDE8F0812DE9F84F81460D4614461E4667
:101E3000DDF82880FE480068C06BD0F800A0FC48A0
:101E40000068007C00F0010070B10AE02F4605E058
:101E5000224639464846FFF7CDFF7F1CB742F7DDE3
:101E6000641C4445F2DD09E01FFA8AF01FFA88F38A
:101E7000B2B2A1B20090A8B2FFF7BCFEBDE8F88FE5
:101E8000F8B505460E4614461F463B4622463146E7
:101E900028460094FFF7C6FFF8BDF8B506460C4685
:101EA00017461D4623463A46214630460095FFF721
:101EB000B9FFF8BD2DE9FE4F82460C4617461D4678
:101EC000DDE90C6804EB080000902A20FFF705FC10
:101ED000C4F30F20FFF70FFCA0B2FFF70CFC009833
:101EE000C0F30F20FFF707FC009988B2FFF703FC4F
:101EF0002B20FFF7F2FBC7F30F20FFF7FCFBB8B274
:101F0000FFF7F9FBC7F30F20FFF7F5FBB8B2FFF7B8
:101F1000F2FB2C20FFF7E1FB0E98006802900E9870
:101F2000406801903444C2480068007C00F003001F
:101F300030B1012836D002281AD0032857D130E01A
:101F400000BF297880223241114009B1019900E097
:101F5000029988B2FFF7CFFB701C0646082801D112
:101F600000266D1CA8F101005FEA0008E9D13EE0FF
:101F700000BF287880213141084028B13A462146E7
:101F80005046019BFFF71CFF641C701C0646082886
:101F900001D100266D1CA8F101005FEA0008E8D11C
:101FA00025E000BFDAF8101088688047814600BF3E
:101FB000287880213141084060B13A462146504698
:101FC000FFF70BFF83468BEA09033A46214650464A
:101FD000FFF7F6FE641C701C0646082801D1002697
:101FE0006D1CA8F101005FEA0008E1D100BF00BF4D
:101FF000BDE8FE8F2DE9FF4F83B00F46914698460E
:10200000DDE911AB07EB0A0000902A20FFF765FB22
:10201000C7F30F20FFF76FFBB8B2FFF76CFB009818
:10202000C0F30F20FFF767FB009988B2FFF763FB4F
:102030002B20FFF752FBC9F30F20FFF75CFB1FFAC1
:1020400089F0FFF758FBC9F30F20FFF754FB1FFA85
:1020500089F0FFF750FB2C20FFF73FFB98F80000BA
:102060000290109E109E374471480068007C00F07A
:10207000030010B1022844D144E0BBF1000F22D08C
:1020800000BFC6F103004400C4F10601C0200841AE
:102090000299084020FA04F55BF825100191019996
:1020A00088B2FFF728FB701C0646042805D10026DD
:1020B00008F10100804600780290AAF101005FEA71
:1020C000000ADED11DE000BFC6F103004400C4F1E8
:1020D0000601C02008410299084020FA04F5A8B280
:1020E000FFF709FB701C0646042805D1002608F1FD
:1020F0000100804600780290AAF101005FEA000A20
:10210000E2D14DE0BBF1000F26D000BFC6F10300C5
:102110004400C4F10601C02008410299084020FA99
:1021200004F545B15BF8250001904A463946019B0C
:102130000398FFF745FE7F1C701C0646042805D156
:10214000002608F10100804600780290AAF1010003
:102150005FEA000ADAD122E000BFC6F103004400C2
:10216000C4F10601C02008410299084020FA04F594
:102170002DB12B464A4639460398FFF721FE7F1CB6
:10218000701C0646042805D1002608F1010080468F
:1021900000780290AAF101005FEA000ADDD100BFD9
:1021A00000BF07B0BDE8F08F2DE9FF4F83B00F46A9
:1021B00091469846DDE911AB07EB0A0000902A2012
:1021C000FFF78BFAC7F30F20FFF795FAB8B2FFF7C6
:1021D00092FA0098C0F30F20FFF78DFA009988B2A9
:1021E000FFF789FA2B20FFF778FAC9F30F20FFF7E2
:1021F00082FA1FFA89F0FFF77EFAC9F30F20FFF782
:102200007AFA1FFA89F0FFF776FA2C20FFF765FAC1
:1022100098F800000290109E109E37440448006811
:10222000007C00F0030028B1022847D147E00000FD
:1022300088000020BBF1000F22D000BFC6F10100D2
:102240008400C4F10401F02008410299084020FAFA
:1022500004F55BF825100191019988B2FFF74BFA5C
:10226000701C0646022805D1002608F101008046B0
:1022700000780290AAF101005FEA000ADED11DE0B9
:1022800000BFC6F101008400C4F10401F020084140
:102290000299084020FA04F5A8B2FFF72CFA701C46
:1022A0000646022805D1002608F101008046007884
:1022B0000290AAF101005FEA000AE2D14DE0BBF111
:1022C000000F26D000BFC6F101008400C4F1040154
:1022D000F02008410299084020FA04F545B15BF866
:1022E000250001904A463946019B0398FFF768FD97
:1022F0007F1C701C0646022805D1002608F101004B
:10230000804600780290AAF101005FEA000ADAD163
:1023100022E000BFC6F101008400C4F10401F020F6
:1023200008410299084020FA04F52DB12B464A468F
:1023300039460398FFF744FD7F1C701C06460228AF
:1023400005D1002608F10100804600780290AAF12C
:1023500001005FEA000ADDD100BF00BF07B0BDE8A1
:10236000F08F2DE9F05F83460E4690461C46DDE96E
:102370000A5906EB050A2A20FFF7AFF9C6F30F202A
:10238000FFF7B9F9B0B2FFF7B6F9CAF30F20FFF7BC
:10239000B2F91FFA8AF0FFF7AEF92B20FFF79DF98B
:1023A000C8F30F20FFF7A7F91FFA88F0FFF7A3F98A
:1023B000C8F30F20FFF79FF91FFA88F0FFF79BF98A
:1023C0002C20FFF78AF9FA480068007C00F003002F
:1023D00010B102283CD119E0B9F1000F0CD008E08F
:1023E000277839F8271088B2FFF785F96D1E761C1B
:1023F000641C002DF4DC08E005E02078FFF77BF991
:102400006D1E761C641C002DF7DC21E0B9F1000F75
:102410000FD00BE0277837B159F8273042463146C4
:102420005846FFF7CDFC6D1E761C641C002DF1DCB8
:102430000DE00AE027782FB13B4642463146584628
:10244000FFF7BEFC6D1E761C641C002DF2DC00BF85
:1024500000BFBDE8F09F2DE9F04782460D461446C7
:102460001E46089F05EB07092A20FFF736F9C5F33A
:102470000F20FFF740F9A8B2FFF73DF9C9F30F208D
:10248000FFF739F91FFA89F0FFF735F92B20FFF72D
:1024900024F9C4F30F20FFF72EF9A0B2FFF72BF9B0
:1024A000C4F30F20FFF727F9A0B2FFF724F92C207F
:1024B000FFF713F94FF0000805E03088FFF71BF92C
:1024C000B61C08F10108B845F7D3BDE8F0872DE93F
:1024D000F04107460D4690461C46069E08E04246DF
:1024E000294638462368FFF76BFC761E6D1C241DB9
:1024F000002EF4DCBDE8F0812DE9FF4F83B01546D6
:102500001E46DDE914BADDE91297DDF84080119826
:1025100008283FD006DC012809D0022818D004285A
:1025200063D126E0102844D020285ED14FE000245B
:102530000BE062193B46CDE900B6CDF808A0DDE915
:102540000301FFF7B7FC4F44641C4445F1DB4CE04A
:1025500000240BE062193B46CDE900B6CDF808A097
:10256000DDE90301FFF746FD4F44641C4445F1DB00
:102570003BE000240BE062193B46CDE900B6CDF804
:1025800008A0DDE90301FFF70FFE4F44641C44453A
:10259000F1DB2AE0002409E062193B46CDE9006A3C
:1025A000DDE90301FFF7DDFE4F44641C4445F3DB26
:1025B0001BE0002408E062193B460096DDE90301B8
:1025C000FFF749FF4F44641C4445F4DB0DE0002451
:1025D00008E062193B460096DDE90301FFF777FF4B
:1025E0004F44641C4445F4DB00BF00BF07B0BDE8A6
:1025F000F08F70B50446A06858B91C2000F07EFC2E
:10260000A060A568216988688047064602F0CEF977
:10261000A861A06808B9012070BD0020FCE703464E
:102620000A4699680F2A1FD2DFE802F01E080A0C3A
:102630000E1E1E1E10121416181A1C004868704731
:102640008868FCE7C868FAE70869F8E78869F6E788
:102650000020F4E70120F2E70120F0E70020EEE798
:102660000020ECE70020EAE74FF0FF30E7E7024602
:10267000012901D14F4870470020FCE78268002300
:102680000B804B8093895B1E1BB28B80138A5B1E71
:102690001BB2CB8070477CB504460D461646002021
:1026A00000900190009501966A460321A069FFF70A
:1026B00063FB7CBDF8B504460D4600200090204623
:1026C000FFF797FFA06838B1A668356000956A46A5
:1026D0000221A069FFF750FBF8BD2DE9F041054646
:1026E0000E4617462846FFF784FFA86818B1AC6865
:1026F000E66027616661BDE8F0812DE9FC41054691
:102700000E4617460020009001902846FFF771FF03
:10271000A86878B1AC68606908B9304600E06069C3
:1027200060616660A760009601976A460721A86904
:10273000FFF722FBBDE8FC8170B504462046FFF799
:1027400058FF054600220121A069FFF715FB05434C
:10275000284670BD10B5044600220521A069FFF788
:102760000BFB10BD10B5044600220621A069FFF73F
:1027700003FB10BD7CB504460D46164600200090B4
:1027800001908DF8045000966A460421A069FFF775
:10279000F3FA7CBD0246A1F1090008281AD2DFE84D
:1027A00000F0040D0F1119131517034870470000AE
:1027B00088000020E84A0108B52600080648F5E729
:1027C0000648F3E70648F1E70648EFE70648EDE775
:1027D0000648EBE70020E9E7DB260008FB260008B7
:1027E00039270008552700086527000875270008C5
:1027F000032A40F2308010F0030C00F0158011F82D
:10280000013BBCF1020F624498BF11F801CB00F804
:10281000013B38BF11F8013BA2F1040298BF00F858
:1028200001CB38BF00F8013B11F0030300F06780D3
:10283000083AC0F0088051F8043B083A51F804CB3C
:10284000A0E80810F5E7121D5CBF51F8043B40F802
:10285000043BAFF30080D20724BF11F8013B11F80D
:1028600001CB48BF11F8012B24BF00F8013B00F851
:1028700001CB48BF00F8012B7047431A28BF9A428A
:102880007FF6B6AF032A1044114440F2268010F0C0
:10289000030F1EBF11F8013D521E00F8013D10F05C
:1028A000030F7FF4F6AF11F0030300F07080083AD5
:1028B000C0F00B8051F8043D083A51F804CD40F8BF
:1028C000043D40F804CDFFF7F3BF121D5CBF51F883
:1028D000043D40F8043DAFF30080D20724BF11F857
:1028E000013D11F801CD48BF11F8012C24BF00F8BB
:1028F000013D00F801CD48BF00F8012C704710B52C
:10290000203AC0F00B80B1E81850203AA0E81850E7
:10291000B1E81850A0E81850BFF4F5AF5FEA027CA8
:1029200024BFB1E81850A0E8185044BF18C918C017
:10293000BDE810405FEA827C24BF51F8043B40F8B8
:10294000043B08BF7047D20728BF31F8023B48BF9D
:1029500011F8012B28BF20F8023B48BF00F8012BDB
:102960007047704770477047431A28BF9A427FF6F6
:10297000C6AF104410F0030F11441EBF11F8013D03
:10298000521E00F8013D10F0030F7FF4F6AF103A2D
:10299000C0F00A8010B531E91850103A20E91850FB
:1029A000BFF4F9AFBDE81040530724BF31E9081068
:1029B00020E9081044BF51F8043D40F8043D12F0EE
:1029C000030F08BF7047D20728BF31F8023D48BF48
:1029D00011F8012C28BF20F8023D48BF00F8012C57
:1029E0007047000000487047F0CB00207546FFF7A5
:1029F000F9FFAE4605006946534620F007008546BC
:102A000018B020B5FDF710FCBDE820404FF00006DF
:102A10004FF000074FF000084FF0000B21F00701C6
:102A2000AC46ACE8C009ACE8C009ACE8C009ACE809
:102A3000C0098D4670470446AFF300802046FDF77D
:102A4000DEFB000001491820ABBEFEE726000200B5
:102A5000704700002DE9F0430446C56887B09046F2
:102A60008946002000F0E4FD064625B1287910B122
:102A700046F0020001E026F0020000F0D9FD2069D6
:102A8000012558B1D4E902128DE826000395638828
:102A90002288046841464846A0471EE0124F134B67
:102AA000214638681B68427CE068984730B9E08866
:102AB000012801D0002001E03868806BA288E388FB
:102AC000A1680095CDE90410CDE902320195638833
:102AD00022884146484601F0A3FA07B03046BDE8D7
:102AE000F04300F0A5BD0000880000208000002019
:102AF0002DE9F04FDFF828B191B04FF0FF35DBF84A
:102B00000030B3F922100691DE69B3F924A0F4690C
:102B1000A189814206D8E289824203D3471AD4F8B8
:102B2000008012E0D4E90181002970D00A88824235
:102B30006DD84D8885426AD3801A82B2486800EB0E
:102B40008200B0F90070B0F90250781C5FD0307E7E
:102B5000A27C014600FB02F9207CCDE90710B3F905
:102B60002A60304601F0EEFDC0B20E90DBF8001096
:102B700007FB0980A37C8A6B0127CDE90402CDE91C
:102B80000273C869089AC17E807ECDE90001DDE943
:102B90000603514601F044FA681C18D046F00200C2
:102BA00001F0D0FDDBF80000A37C05FB0981826BFE
:102BB000CDE90273CDE90412C069089AC17E807E16
:102BC000CDE90001DDE90603514601F029FADBF801
:102BD00000005D46C069417E007E814214D9022E0C
:102BE00012D086F0040001F0ADFD2868C069027EB5
:102BF000C37E857E02FB03A1437E089A0698534458
:102C000002FB050201F06EFB0E9801F09BFDDBF864
:102C10000000627C418C1144418411B0BDE8F08F0A
:102C20008800002004480068C069C06909B1027CBE
:102C30000A60407C70470000880000200220088065
:102C40007047C06982898A4202D8C2898A4210D2FA
:102C5000806880B102888A420DD843888B420AD3AB
:102C6000406800EB8100A0EB8200B0F90000002872
:102C700001DB012070470020704700002DE9F04380
:102C80002F4C034687B020681946B0F92A80C069E6
:102C9000C06900F082F800284ED041680088181AF8
:102CA00001EBC0054046AE7801F04CFD814620683E
:102CB0006A680123816BCDE90236CDE90421C1693F
:102CC000CB7E8A7ECDE900230B7EB0F924102A78D2
:102CD000B0F9220001F0A4F92068C069477E067EA1
:102CE000B7421DD9C07E47434643B8F1020F17D003
:102CF00000F012FB804600F003FB00F088FC216826
:102D00002A78CB69B1F92200B1F92410DB7E02FBED
:102D10000302CB19314401F0E5FA404600F077FC9C
:102D2000484601F00FFD20686A78C369B0F92210A7
:102D30009B7E02FB0311418407B0BDE8F0830000D5
:102D40008800002030B50E4C05460B462068294609
:102D5000C069C06900F021F8002810D041680088DF
:102D600024682A1A0120E46900EBC200085CA47EF2
:102D70006043002B03D011F832106143196030BD5D
:102D80008800002001200880704700B5C06900F06D
:102D900004F8002800D0012000BD06E002888A4225
:102DA00002D842888A4202D280680028F6D1704751
:102DB00070B50025124C19E020691249C5EB0516C3
:102DC00000EBC60070220968001DFFF798FD20691E
:102DD000002140F8361000EBC60000F10C018161C3
:102DE000011D0A1DC0E90F126D1C4164A0688542D7
:102DF000E2DB00F0DBFABDE8704000F08FBC0000C1
:102E0000580100208800002070B50F490D48086067
:102E1000084601F073F80C4C143CA068C0EB00109D
:102E2000C500284600F06AF82A460021206101F01A
:102E3000A5F84FF0FF302060FEF766FFBDE8704058
:102E400003F04EBA756800086C01002010B504004C
:102E500009D000F0ABFA204602F0BCFA044600F0BC
:102E60005DFC204610BD002010BD38B5054600F0C1
:102E70009DFA2846FFF7EAFF040009D000F0B6F8F3
:102E80002A460021009001F079F8684600F0BCF86D
:102E900000F044FC204638BD024A106021F00300D7
:102EA000506070478CCA002010B5040016D000F0A6
:102EB0007DFA0B48406B10F8341059B1022909D241
:102EC000042101EBC4014158486802F03BFA204656
:102ED00003F004FDBDE8104000F020BC10BD000070
:102EE000CCC90020002805D0034AD16B016001B194
:102EF0004860D06370470000CCC900202DE9F04144
:102F0000044603F0B3FA2848E41C24F00305016CDE
:102F10002D1DA94200D90D46C46B13E054F8042CB2
:102F2000AA420ED184B1216809B162684A60616821
:102F300009B122680A60C26BA24231D12168C16323
:102F40002EE02468002CE9D18046816BC0680F1800
:102F500057F8040C3E1A306838B1002003F0ECFC3E
:102F600057F8040C3E1A3068D0B97068A84217DBD5
:102F70003044441B3046241D03F0C4FCD8F80C1028
:102F8000491BC8F80C10D8F814102944C8F81410BC
:102F90007068401B02D0314602F0D4F944F8045C5A
:102FA0002046BDE8F0810000CCC9002010B5002407
:102FB00003F05CFA0C490F2001EBC002526C1AB10D
:102FC00001EBC000406C08E0401EF5D508E0416808
:102FD000A14200D90C46806810B180680028F6D163
:102FE000A4F10C0010BD0000CCC900200549CA693D
:102FF000521CCA61496B01EBC0010A78521C0A706D
:1030000000F01AB8CCC900200A4902684B6B52F88C
:10301000082C03EBC2021378022B03D3CB690BB14C
:103020005B1ECB611178491E1170002101600846BA
:1030300070470000CCC90020002806D003490422B4
:1030400002EBC000496B085808307047CCC900201B
:1030500010B5C2B2CBB2D21A00D5524293B25B4382
:10306000C0F30722C1F30724121B00D55242000C03
:1030700092B2A0EB114002FB023200B2002801DA4A
:10308000404200B280B200FB002010BD10B500210C
:10309000084600F05DF943F6FF725042BDE810406B
:1030A00013460146AFF300802DE9FC411C4615464E
:1030B0000E46074600F07AF9042001F043FB8046F3
:1030C0001248C068C16C006D0F4406440D440444AE
:1030D000ADF80070ADF80450ADF80260ADF80640F0
:1030E000684601F0B9FF07E023462A4631463846D4
:1030F00001F0F8F801F072FF0028F5D1404601F028
:1031000021FB00F00BFBBDE8FC8100007C000020EF
:103110002DE9F0411C4616460D460746022B02DB00
:103120000020BDE8F0811C20FFF7E8FE0028F8D061
:103130000DB105610AE0094A52F8241009B905E009
:1031400011460A68002AFBD10969016184618682FF
:10315000002101604160C0E90217E2E7A000002001
:1031600070B51D46FFF7D4FF040009D000F00EF83B
:10317000E068006820B90348006800EB85008465BA
:10318000204670BD88000020FFF7ACBE70B590B33C
:103190008269022A30DA1E4C54F8221019B944F818
:1031A000220032E019464B68002BFBD106E0CB68C9
:1031B000C5681B682D68AB4203DD09680029F6D19C
:1031C0001AE0C1B1CB68C6681B683668B3420CD13F
:1031D000838A012B05D008E01946DB681B68AB42E7
:1031E00003DB0B68002BF7D129B14B6833B11860B2
:1031F0004A68426004E0FFE7012070BD44F8220005
:103200004860884200D100210160002070BD0000AC
:10321000A000002010B503E00468FFF7B7FF2046C8
:103220000028F9D110BD03F0D5BC00002DE9F04114
:103230000026DFF834800D4F354600BF58F8254092
:1032400009E0E0680068385C20B1204603F0C2FC69
:10325000266026462468002CF3D16D1C022DEDDB80
:103260003046BDE8F0810000A0000020A82401083D
:10327000022801DB00207047054951F8200004E0D6
:10328000C16809680029F6D000680028F8D17047A5
:10329000A00000207CB514460D46064600F086F8D6
:1032A00011480068C16C006D0D4404443188681EEB
:1032B0000844ADF80400ADF800507188601E084461
:1032C000ADF80600ADF80240684601F0C5FE06E024
:1032D000224629463046FFF7BDFB01F07FFE00285D
:1032E000F6D100F01BFA7CBD88000020034951F89C
:1032F0002000C1688A6A082110470000A000002051
:1033000010B500F053F801F01DF801F0D9F80446AB
:1033100000F004FA204610BD10B500F047F801F0A7
:1033200019F801F0CDF8044600F0F8F9204610BD78
:10333000024951F82000006900687047A000002091
:10334000024951F82000006940687047A000002041
:1033500070B50D46044600F029F8204602F0DEFF65
:103360000446284602F0E2FF044300F0D7F9204665
:1033700070BD000010B500F06DFA0A492E200870EB
:10338000FEF7B9FC084803F039F801F0D3F8044619
:103390000021084600F068F901F08EFCFFF708FDF7
:1033A000204610BD7C00002098CA002070B5184C43
:1033B000E06820B1FEF7A6FC6168884204D0FEF701
:1033C000A0FCFEF79FFC6060E068401CE060012804
:1033D0001CD102F085FF05462068854216D00028E2
:1033E00013DBFFF723FF01462068C0EB00122069C2
:1033F00000EBC2025167C5EB0511064A00EBC100A4
:10340000011D1160406FFFF705FF256070BD0000D2
:10341000580100208800002038B504001CD0FFF7B8
:10342000C5FF0E480068006EA04201D100F0BBF855
:103430002046FFF7DBFD0090406908B100F058F925
:1034400000980068FFF7A0FE6846FFF7DDFD204604
:10345000FFF72AFD00F062F938BD00008800002067
:1034600038B505004FF0000411D0FFF79FFF284644
:10347000FFF7BCFD0090006800698068804701F09C
:10348000C3FA04466846FFF7BFFD00F047F920463F
:1034900038BD38B504000ED0FFF788FF2046FFF78F
:1034A000A5FD00F1180400906846FFF7ADFD00F09F
:1034B00035F9204638BD002038BDF8B516460F4610
:1034C000050012D0FFF792FD009044696846FFF7AF
:1034D0009BFD2846FFF7C4FF0346082800DD2CB1FA
:1034E00032463946284603F095FBF8BD3246394648
:1034F000284603F02FFDF8BD10B5002821D009B3F0
:103500000AB3B1F90040B2F900309C4200DA234618
:103510000380B1F90240B2F902309C4200DA23463E
:103520004380B1F90440B2F904309C4200DD2346E7
:103530008380B1F90610B2F90620914200DC1146F1
:10354000C18010BD11460A6802604968416010BD23
:1035500000280BD003880B440380838819448180A2
:10356000418811444180C1881144C1807047B0F93D
:103570000220B1F906309A4213DCB1F90220B0F909
:1035800006309A420DDCB0F90020B1F904309A42BD
:1035900007DCB1F90010B0F90400814201DC012020
:1035A00070470020704710B5FFF700FF01F060F88A
:1035B00001F010F901F042FABDE8104000F0AEB899
:1035C00070B50B4D04462868467CFFF7EFFE022CD1
:1035D00009D22046FFF74CFE28B128684474FFF753
:1035E000E2FF0448046000F099F8304670BD000026
:1035F00088000020C800002010B50446FFF7D6FE62
:10360000204601F055F8BDE8104000F087B810B52D
:103610000446FFF7CBFE204601F082F8BDE81040DB
:1036200000F07CB801498860704700007C000020F1
:1036300010B50446FFF7BAFE204601F083F80446B1
:1036400000F06CF8204610BD70B50446FFF7AEFEE2
:1036500004480068C56904B1C46100F05FF82846F9
:1036600070BD00008800002070B50C460546FFF7CD
:103670009DFE0948224605800848048008480068E5
:10368000417C084850F82100C1680B6A29469847D8
:10369000BDE8704000F042B8B0000020B200002049
:1036A00088000020A000002002480068002800D008
:1036B000004770477401002002498A6802B9886097
:1036C000FFF7F2BF480100202DE9F0411E46069C9D
:1036D0001746884605463A46A8687F1C3346D0F808
:1036E00004C041462846E047641EF4D1BDE8F0819D
:1036F00038B50546FFF75AFE2846FFF777FC0090DD
:103700008189491E0CB284816846FFF77DFC14B99B
:103710002846FFF7C9FB00F001F838BD0348C1682F
:10372000491EC16001D1FEF7EBBA70475801002075
:1037300010B5082A0EDC0346012A18D0022A56D0FA
:10374000042A76D010F8042B03F8012B491EF9D176
:10375000012010BD102A08DC4FEA000230F8043BBB
:1037600022F8023B491EF9D1F2E7002010BD10F803
:10377000042BD207120E491E34D010F8044B491EF8
:1037800004F0010442EA84122CD010F8044B491EC4
:1037900004F0010442EA441224D010F8044B491EFC
:1037A00004F0010442EA04121CD010F8044B491E34
:1037B00004F0010442EAC40214D010F8044B491E7C
:1037C00004F0010442EA84020CD010F8044B491EB4
:1037D00004F0010442EA440204D010F8044B04F05F
:1037E0000104224303F8012B0029C0D1B0E710F8EF
:1037F000042B9207120E491E15D010F8044B491ED7
:1038000004F0030442EA04120DD010F8044B491EE0
:1038100004F0030442EA840205D010F8044B04F0DB
:1038200003042243491E03F8012B0029DFD18FE74F
:10383000FFE710F8042B1207120E491E05D010F8EE
:10384000044B04F00F042243491E03F8012B002906
:10385000EFD17DE70B4810B58169002910D1012116
:103860008161FEF755FAFFF7CFFAFEF75FFA0549D7
:1038700005481C310860BDE81040084600F03EBB1A
:1038800010BD00007C000020ED6700082DE9F04F1E
:103890008FB01D4616460F468146DDF87480189C91
:1038A000FFF73AFD0B9000F055FD0190DDE91A019C
:1038B00008434FEA460B012803D04FF0000A09974E
:1038C00009E188480068407CFFF73AFD1C994FF0F9
:1038D000000C884211D101200DF104081021009044
:1038E00088E80308CDE9044C2B4632463946484661
:1038F00000F096FB0FB0BDE8F08F7819401E0490E1
:1039000009EB0600A0F1010A76480168B1F90A2026
:10391000BA4207DDD31B174603FB0BF222F001026C
:103920001444ED1AB1F90E30049AD21A002A00DDBF
:10393000AD1A002DDEDDB1F90C30AAEB0302002A2E
:1039400000DDB61AB1F90800484505DDA0EB090015
:10395000361A04EB40048144002ECBDD0020CDF864
:1039600018C00890B8F1000F09D0D8F814000890DA
:1039700028B100231A46194606A800F0D3F900F032
:10398000F1FC804657480068407CFFF7D1FC059069
:10399000D8F800C0524639464846049BE047002804
:1039A0005CD10698E8B34F484F490068407C51F815
:1039B000200000690069049030E0089F022332462D
:1039C00020460699B847049830B10699049F04230D
:1039D00032460846B8470EE00698002782468146E0
:1039E00007E000BF059959F8040B88474AF8040B13
:1039F0007F1CB742F6DB0027DDF8189006E000BF19
:103A0000D8F8041059F8040B88477F1CB742F7DB3D
:103A1000D8F8080080472BF0010004446D1ECCD27A
:103A200019E016E0A14600270AE000BF1C9939F80A
:103A3000020B884705998847D8F8041088477F1CEF
:103A4000B742F3DB3DB1D8F8080080472BF0010006
:103A500004446D1EE6D2D8F80C0080473DE01B9967
:103A6000099808440D90401E07901E480168079869
:103A7000B1F90A20824225DCB1F90E100998814281
:103A800020DBA0460027CDF8289019E038F8020B7B
:103A90000090DDE90001884205D01C99884700F0BC
:103AA0003FFE009801900A991A98079B0A18009205
:103AB000DDE90910521E00F015FC009A7F1C0A92E5
:103AC000B742E3DB0BEBDB7020F0010004440D9800
:103AD0000AF1010A0990AA45C1DB0B98FFF797FD8F
:103AE00008E7000088000020A00000202DE9FF4F1B
:103AF00091B000201E9C0F90DDF888B06FF07040F0
:103B00000490DDE920501746054302EB470008907A
:103B100083489A460068407CFFF70AFC0C90012D10
:103B200004D012984FF000090990F5E07C48006835
:103B3000407CFFF705FC584501D101200F90002380
:103B40000AAA1946184600F0EDF800287ED1002593
:103B5000A9462678FF2E01D086B155E06D1CBD42E6
:103B600007D1002509F10109BAF1000F73D0AAF1BC
:103B7000010A14F8030FFF28F0D066E011980A9E9E
:103B800028440E9012984FF0000848440D900F986A
:103B900078B1A1786078E41C01EB00206D1C08F17D
:103BA000010826F8020BBD4214D020780028F0D07E
:103BB00019E0A078617800EB012080B2594688476F
:103BC0000C998847E41C6D1C08F1010826F8020BCB
:103BD000BD4205D1002509F10109AAF1010A02E05F
:103BE00020780028E5D002AE002310200A9A089918
:103BF00086E80F000120009003460190DDE90D10DA
:103C0000424600F00DFA20E0A178607801EB002038
:103C100080B25946884703461298C6F1FF0200EB6E
:103C200009011198284400F071F96D1CBD4207D1BB
:103C3000002509F10109BAF1000F0CD0AAF1010A1F
:103C400014F8036F701EFE28DED300E003E0BAF123
:103C5000000F7FF47EAF15B0BDE8F08F2199099871
:103C600008440E90401E07902D4801680798B1F94E
:103C70000A2082424CDCB1F90E100998814247DBE0
:103C800011980026069041E0A1786078257801EB34
:103C9000002080B25946884704990090884203D09A
:103CA00000F03EFD00980490FF2D29D2069805B340
:103CB0000F9009980390209906980844A0F10108F4
:103CC00007980890C5F1FF000290009801900F9DA1
:103CD00006E0DDE902212846019B00F017F96D1C82
:103CE0004545F6DD0398401C039008998842EEDDB7
:103CF00006E02099079B4218521E099900F0F2FA3B
:103D000020990698E41C0844761C0690BE42BBDB52
:103D10000E9809F101090990D1459FDB9BE700004E
:103D2000880000202DE9F047224C06461F46A06976
:103D300090468946002540B90120A06104F1200188
:103D40001D480860084600F0D9F8606930B91B4882
:103D50000068606110B900F089FB606107B13860EC
:103D60004EB1A06830B960698000FFF7C7F8A06065
:103D700000B901253060B9F1000F0AD0E06830B910
:103D800060698000FFF7BAF8E06000B90125C9F862
:103D90000000B8F1000F0AD0206930B960698000D6
:103DA000FFF7ACF8206100B90125C8F800002846EB
:103DB000BDE8F087200100204D680008A800002021
:103DC000B0F90030B1F90020934200DA0280B0F976
:103DD0000230B1F90220934200DA4280B0F9043097
:103DE000B1F90420934200DD8280B0F90620B1F9D8
:103DF00006108A4200DDC180704770B5B1F90040FD
:103E0000B2F900309C4200DD23460380B1F9025034
:103E1000B2F90240A54200DD2C464480B1F90460AD
:103E2000B2F90450AE4200DA35468580B1F9061089
:103E3000B2F90620914200DB1146C1809D4201DBB0
:103E4000A14201DA002070BD012070BD70B5FF23D2
:103E5000B3EB116F29D0C3B200F47F4500F47F04A7
:103E6000060E5343554354435643C2F1FF00CAB2B2
:103E700002FB003201F47F4303FB005301F47F0592
:103E800005FB0044090E01FB0065C2F307204FF457
:103E90007F4101EA1322090201EA14214FF07F4316
:103EA000104303EA05430843184370BD2DE9F04F62
:103EB0000646DDE90CB915460C46002080465845FB
:103EC00019D20B9F4FF0FF0A01CE08CCAAEB10626B
:103ED00002FB09F2B2FBFAF1CAB21946FFF7B6FFCC
:103EE00020F07F4001C57F1EEED1099804EB8004CD
:103EF00008F10100E2E7BDE8F08F000002494A69DD
:103F000042604861704700007C0000202DE9F041CC
:103F1000184C06460D46206898461746B0F90A1018
:103F2000A94224DCB0F90E10A94220DBB0F9081038
:103F3000B1421CDCB0F90C00B04218DB2946304617
:103F400000F054FA01463A464046FFF77FFF00F082
:103F500059F8034620682A46417C074850F821005A
:103F6000C1688C693146A446BDE8F0416047BDE8B0
:103F7000F081000088000020A000002010B502E0C1
:103F800000F8011B521E0AB18307F9D1930818D01B
:103F900001EB014402F0030204EB042406E010C02C
:103FA0001B1F10C040F8084B40F8044C042BF6DAF5
:103FB00001E010C05B1E002BFBD102E000F8011BEA
:103FC000521E002AFAD110BD10B5830702D520F881
:103FD000021B521E530811D001EB0144042B09DBD4
:103FE00010C01B1F10C0042B40F8084B40F8044CB5
:103FF000F6DA01E010C05B1E002BFBD1D20700D027
:10400000018010BD0449054A0968497C52F8211015
:10401000096909680847000088000020A000002006
:104020002DE9F04F05468DB07B48DDF860901A9C75
:1040300000681E4617464FF0000A78B11B9B199A7C
:10404000CDF808900593CDE90324DDE91623CDE9E9
:104050000023046833463A46284680E0DDE916022C
:1040600001EB060805EB070C1043A8F10108ACF1C1
:10407000010C012806D0C9F108000590002002912A
:104080000990C6E065480268B2F90A30581A00285B
:1040900006DD361A002E63DD1946199B00FB03442A
:1040A000B2F90E00A8EB0000002802DD361A002E3F
:1040B00056DDB2F90C00ACEB0000002800DD3F1A21
:1040C000B2F908300020AB4235DD581B3F1A4B4691
:1040D000B9F1080F26D006DC012B0BD0022B11D032
:1040E000042B28D116E0102B1ED0182B1FD0202B0C
:1040F00021D11CE020F0070304EBE0041D4400F094
:10410000070018E020F0030304EBA0041D4400F0B6
:10411000030010E020F0010304EB60041D4400F0F4
:10412000010008E0044404E004EB400401E004EB77
:10413000800405440020002F12DD1B9BDDF864C0C5
:10414000CDE90403CDE90069CDE902C4527C3448CD
:104150003B4650F82200C26854680A462946A047E8
:104160000DB0BDE8F08F1799029808440C902B49C8
:10417000401E00900A68B2F90A30834241DCB2F96D
:104180000E10029881423CDB4FF0000BD84603959D
:104190000A9434E0BBF1000F05D10A984FF0080BE8
:1041A00010F801AB0A900599ABEB090B3AFA01F054
:1041B0000AFA09F101F0FF0A04D118490968097CDB
:1041C000890716D415490968C96B0A680B921B9AAE
:1041D0000AB152F82000086016990398009B421813
:1041E000521E029900F07EF80C490B980968C96BC1
:1041F00008600399169808F1010808440390B8452F
:10420000C8DB0998401C09900C9802901998044446
:104210000998B042A7DBA3E7AC000020880000208B
:10422000A0000020F0B40C4612490968B1F90A3028
:10423000A3421CDCB1F90E30A34218DBB1F90830FF
:10424000834200DD1846B1F90C30934200DA1A4679
:1042500082420CDB4B7C084951F82350134622461E
:10426000E9688E6801462846B446F0BC6047F0BC59
:104270007047000088000020A00000200A4617496F
:1042800030B40968B1F90A30934225DCB1F90E3037
:10429000934221DBB1F9083083421DDCB1F90C30C7
:1042A000834219DB0B7C0E4CDB0709D0497C54F8A8
:1042B0002130D968CC690146A44630BC1846604715
:1042C000CB6B497C1B6854F82140E1688D6901463D
:1042D0002046AC4630BC604730BC704788000020A8
:1042E000A000002038B5134C2468B4F9085085426A
:1042F00000DD2846B4F90C50954200DA2A46824285
:1043000017DBB4F90A508D4200DD2946B4F90E508E
:104310009D4200DA2B468B420BDB0093647C064BFC
:1043200053F82440E3681D6913460A4601462046B7
:10433000A84738BD88000020A0000020082101F017
:104340004BBF000002480068806B006870470000A7
:104350008800002002480068C06B006870470000B9
:1043600088000020084808B500680849407C51F8DA
:1043700020000090C068426A22B108216846904738
:10438000002800D1024808BD88000020A0000020BD
:1043900098010020024809210068407C01F01CBF00
:1043A00088000020092101F017BF70B500252C46B8
:1043B0002046FEF75DFF00B16D1C641C022CF7DB8C
:1043C000284670BD02480068407C00F003B8000039
:1043D0008800002010B5FEF74BFF002805D0C1680B
:1043E000CA6ABDE810400221104710BD10B500F0A8
:1043F00005F8BDE8104000F063B800002DE9FC416D
:10440000144E0546144F30680C46407C57F8200087
:10441000C1680A6B69469047BDF90000A8420BDCF1
:10442000BDF90400A84207DBBDF90200A04203DC8D
:10443000BDF90600A04202DA0020BDE8FC81306828
:104440002246407C57F82000C1684B6929469847AE
:10445000F3E7000088000020A000002002480E21A1
:104460000068407C01F0B8BE88000020032001F005
:10447000F9BE00F001B800002DE9F041002809D094
:10448000876837B10D4E716819B10468B4F5807F43
:1044900002DD0020BDE8F0813068844200DD044682
:1044A000002507E057F82500FFF7ACFD716841F8DB
:1044B00025006D1CA542F5DB7068EBE78401002048
:1044C0000449054A0968497C52F82110096949687C
:1044D0000847000088000020A000002010B5084A0E
:1044E000084B00F01F01C0F34514C0F3C420515C19
:1044F0001B5D105C01EB032101EB004010BD0000CF
:104500001C4D01083C4D010810B500F01F01074A81
:10451000074BC0F34514C0F3C4201B5D105C515C15
:1045200000EB032000EB014010BD00001C4D010812
:104530003C4D0108F8B500F0E5F800F041F8040042
:104540003BD100252846FEF793FE009048B1C06895
:104550000C21426A68469047010007D000988847BE
:1045600004436D1C022DEDDB14B126E00120F8BDE3
:1045700000F040F8012543F6FF762846FEF778FE66
:104580000090C0B12846FFF71BF8042000F0DAF8CD
:104590000021324633460846FFF7A4FE002000F013
:1045A000D1F800980E21C068426A68469047010021
:1045B00001D0009888476D1EDFD52046F8BD000069
:1045C00010B50A4C606860B920688000FEF796FC60
:1045D000606040B104F10801054808600846FFF733
:1045E0008DFC002010BD012010BD000084010020C2
:1045F000896800082DE9F047FFF7D7FE0746002439
:10460000DFF860802AE02046FEF732FE28B3D8F8B3
:10461000000090F8119044742046FFF78FFE0828A0
:1046200017DC1148114950F824000069884210D065
:104630002046FFF7B7FE0646002508E0E8B2FFF780
:104640003FFF0246E9B2204600F082F86D1CB542F9
:10465000F4DBD8F8001081F81190641CBC42D2DB66
:10466000BDE8F08788000020A0000020B84E0108B7
:1046700010B50D4C0D492068407C51F8200048B120
:10468000C16811B10968042901D00068F7E708B1D1
:10469000FEF7C9FD20680021016600F108014161B3
:1046A000BDE8104000F02EB888000020A0000020D7
:1046B00001490968496808478001002004490968E0
:1046C0000A7C520701D5C96B00E0896B086070470E
:1046D000880000207CB5094C05462068417C0848CC
:1046E00050F82100C1680A6B6946904720686A4605
:1046F00029460830FFF781FB7CBD000088000020C0
:10470000A00000200448016804484A7C083150F8A1
:104710002200C268126B104788000020A000002011
:1047200001490968096808478001002004490968AF
:104730000A7C520701D5896B00E0C96B086070479D
:104740008800002001490968896808478001002025
:10475000F8B515460E460124FEF78AFD009058B1C3
:10476000C0681021426A68469047030004D02A4678
:1047700031460098984700242046F8BDF8B5154604
:104780000E460124FEF774FD009058B1C0680B215D
:10479000426A68469047030004D02A463146009892
:1047A000984700242046F8BDF8B515460E4601246A
:1047B000FEF75EFD009058B1C0680A21426A684663
:1047C0009047030004D02A463146009898470024B9
:1047D0002046F8BD10B5074C2068006BFFF712FCAF
:1047E000FFF7A4FF2068406BFFF70CFCBDE810400A
:1047F000FFF764BF880000202DE9FF4F8DB01746FA
:10480000674ADDF870901E9E209812681D460024AD
:104810008AB11D9B1F98CDE90293CDE90460DDE9C3
:104820001A03CDE9000314682B463A460D98A047B9
:1048300011B0BDE8F08F0D9A01EB050802EB070CF3
:10484000DDE91A231A43A8F10108ACF1010C012A91
:1048500006D0C9F108004FF0000B029105909CE0D2
:10486000504A1268B2F90A40631A002B06DDED1AAD
:10487000002DDDDD21461D9C03FB0466B2F90E30E0
:10488000A8EB0303002B02DDED1A002DD0DDB2F9F9
:104890000C30ACEB0303002B00DDFF1A0D9B1C1A40
:1048A000B2F90830A3420DDDA3EB040C0CEB0003BE
:1048B000181A20F007000444A7EB0C0706EBE306E8
:1048C00003F00700002FB3DDDDF874C01F9BCDE9B6
:1048D00002C6CDE90403CDE90059527C32483B467B
:1048E00050F82200C26855680A462146A8479FE74B
:1048F0001B99029808440C902A49401E00900A68AF
:10490000B2F90A30834242DCB2F90E1002988142B9
:104910003DDB4FF0000A0D980A96D046039034E034
:10492000BAF1000F05D10A984FF0080A10F8014BB0
:104930000A900599AAEB090A34FA01F004FA09F47D
:10494000E4B204D117490968097C890717D41549CD
:104950000968C96B0A680B921F9A0AB152F82000C5
:10496000086003991A98009B0A18DDE90210521E8C
:10497000FFF7B8FC0B490B980968C96B08600399ED
:104980001A9808F1010808440390B845C8DB0C9850
:1049900002901D980BF1010B0644AB45A8DB47E7DD
:1049A000AC00002088000020A0000020002818D0C3
:1049B000410817D0810817D0C10817D0010917D0B6
:1049C000410917D0010A17D0410A17D0010B15D0A1
:1049D000C10B13D0010C11D0810C11D0000E11D0DD
:1049E0002020704701207047022070470320704745
:1049F000042070470520704708207047102070473A
:104A0000122070471820704700B50022FFF7CEFF34
:104A1000012804D0811E062903D808220BE00122B8
:104A200009E0A0F10901072901D8102203E011389B
:104A30000F2800D82022104600BD000002490120A6
:104A4000096881F854007047880000202DE9F04182
:104A50008AB00446FEF7AAFCBCB32046FEF7C6FAAD
:104A60000190D0E90012CDE90412876A056A01A815
:104A7000FEF7CAFA204600F0D1FA060025D02046FB
:104A800000F00DF98046B80704D52A46414604A82F
:104A900000F015FC2046FEF7A9FA01904046FEF70B
:104AA000A5FA06903046FEF7A1FA03900562069833
:104AB000019AC1691162C46101A8FEF7A5FA06A8AE
:104AC000FEF7A2FA03A8FEF79FFAFEF727FE0AB048
:104AD000BDE8F0812DE9FC5F9846DDE90C54914674
:104AE0000E460746DDF83CB0FEF760FCDFF828A173
:104AF000DAF8180004434DB9BAF8020048B3474841
:104B00000AF144010068407C51F82050681C0ED026
:104B1000FDB12846FEF76AFA0190B0F90010B0F92D
:104B200002200F441644B9F1000F02D006E0002520
:104B30000FE0B0F90430591A01F10109B8F1000F82
:104B400004D1B0F90600801A00F1010801A8FEF7AF
:104B50005BFA0BF12C00FEF788F95FEA000B56D0E8
:104B6000BAF80200401CAAF802005846FEF73EFAC6
:104B70000090078007EB09014680491E818006EB03
:104B80000801491EC1800E990161254A816A2240AF
:104B9000114381626846FEF737FADAF810005E4684
:104BA00050B1FEF749FA07463046FEF745FA01468E
:104BB000786948617E6101E0CAF810B0294658461C
:104BC00000F0C2FAA00602D5584600F051F9E007FD
:104BD00004D0DAF82410491CCAF82410600602D563
:104BE0005846FFF733FFA0070DD55846FEF7FEF9EC
:104BF0000090816A41F0020181626846FEF704FA82
:104C0000584600F003F90121584600F093FBFEF7E7
:104C100085FD5846BDE8FC9FBC00002088000020B0
:104C20009F3F3F0010B50446C168D4E90020172A11
:104C30000DD004DC0E2A0CD0142A07D104E0222A5D
:104C40000CD0282A02D10CE000F0A3F90020E0608B
:104C500010BD2146BDE8104000F02CB96FF0704047
:104C6000F5E7BDE8104000F0D1B800000348044962
:104C70000068407C51F82000704700008800002048
:104C80000001002010B5040007D0FEF78FFB20467E
:104C9000FEF7D2F9C469FEF741FD204610BD10B5FC
:104CA000040007D0FEF782FB2046FEF7C5F98469B1
:104CB000FEF734FD204610BD2DE9FF5F2C4D6878CE
:104CC000002853D100272B482F616F630068DFF85D
:104CD000A8903C464764AF806F804FF0020A4FF0C7
:104CE000FF3B43F6FF7805F144062046FEF7C0FA85
:104CF00098B1CDE90297CDE900BA0021424643467A
:104D00000846FFF7E7FE1A4A46F824004C326FF0D7
:104D1000704142F8241000F079F8641C022CE4DBA6
:104D2000164FDFF85C80DFF85C90002407EBC400CE
:104D300000F0F8F808EBC40000F0F4F809EBC40048
:104D400000F0F0F8641C022CF0DB306800F090F802
:104D5000FFF774FE0120064968703C310A4808607C
:104D600004B00846BDE8F05FFFF7C8B8BDE8FF9F94
:104D7000BC000020880000202973000890CB002090
:104D8000A0CB0020B0CB00201968000870B586B019
:104D90000D46060031D0FEF709FB3046FEF726F936
:104DA0000090846AA10723D5D0E90010CDE9011055
:104DB000E00302D5304600F01DFA5DB1286803908B
:104DC0006868049003A9009800F0B4F803A901A84A
:104DD000FEF7F6FF314601A800F0B4F840B140F606
:104DE00001000440012C0AD001A9304600F0FEF970
:104DF0006846FEF709F9FEF791FC06B070BD009811
:104E0000026A816901A800F05AFAF1E70021FFF770
:104E1000BDBFFEB515460E4604001CD0FEF7E6F8F1
:104E20000246009090F82800800711D5314601A86D
:104E3000FEF7E3FF60B16846FEF7E6F82A4601A9EF
:104E4000204601F067FB2046FFF71CFF04460CE0FC
:104E50006846FEF7D9F8FEBD2A4601A92046FFF7AD
:104E6000D8FF2046FEF7E8F8046A002CF4D1FEBD16
:104E700070B50446FEF79AFA0C4D2868866C0CB99A
:104E80000B490C698464204600F02CFAFFF73AFCC9
:104E90002046FEF7D1F82968B0F90020CA64B0F9BD
:104EA00002000865FEF73AFC304670BD880000201D
:104EB000BC00002070B50C0005460DD0FEF776FA58
:104EC0002846FFF7ECFE18B12146A56000F014FA61
:104ED000BDE87040FEF722BC70BD00000EB50E4864
:104EE000006890F8541009B10C4811E0806CFEF78E
:104EF0007DF80090D0E90010CDE901106846FEF77A
:104F000083F80748816A11B101A800F01BF801A8D5
:104F100001F072FD0EBD00008800002010CB0020C3
:104F2000BC00002002490A68026008607047000067
:104F3000D00000200B46B0F90220B0F9001018464E
:104F4000FEF706BB38B50C4605462046FEF74EF880
:104F50000146009090F82800800703D46846FEF7C9
:104F600053F812E02846FEF72BFF0098806920B125
:104F700004466846FEF748F8E7E76846FEF744F857
:104F8000204600F055FB002801DA002038BD012042
:104F900038BD38B50C4600280AD0002C08D0FEF7E2
:104FA00025F82146009000F004F86846FEF72CF83A
:104FB00038BD00224A800A8082880388D21A8A80FB
:104FC000C2884088101AC880704710B5FFF767FE86
:104FD000002802D0FEF730F8C06910BD0D4810B5AA
:104FE000006890F85400002806D00B4C6069012836
:104FF00003DD401E6061002010BD2069401C20615F
:1050000000F068FF18B1FFF769FF012010BD60696B
:10501000EFE700008800002008CB002070B50546AF
:10502000FFF7D3FF08E0AC4201D1002406E0FEF711
:1050300003F8006AA84201D00400F4D1204670BDF4
:1050400010B50446FDF7F8FF80690028F9D1204625
:10505000BDE8104000F0ECBAF0B5384E074687B016
:10506000306890F8541041B1354C6169491C616158
:10507000012905DD012007B0F0BDFFF72FFFF9E79B
:10508000806CFDF7B3FF2F4D4FF0FF310090216191
:10509000297821B181680291C068039007E090F8F7
:1050A000281089073CD5D0E90010CDE902101FB1C6
:1050B000394602A8FEF784FE3068406C78B3009849
:1050C00004903068406C0168059140680690A86AB9
:1050D00030B104A8FDF798FFA86AFDF787FF049098
:1050E00005A90498FFF726FF05A902A8FEF768FEA8
:1050F0000DF11000FDF788FFA96A19B102A8FFF7AA
:1051000021FFB0B13068816C02A8FFF71BFF80B1AE
:10511000DDE90201C4E90001FFF760FFABE706E04B
:105120006069401E60616846FDF76EFF04E06846F6
:10513000E0E76069401E606100209CE78800002075
:1051400008CB0020BC000020FEB50D00044647D06F
:10515000FDF74CFF00900021856101622846FDF7B4
:1051600045FF00990290C56991F8281001F00806E2
:105170002DB12846FDF73AFF019036B115E0C46124
:105180006846FDF741FF02A828E090F828000007D4
:105190000BD5009805620298C4616846FDF734FF9C
:1051A00002A8FDF731FF01A818E002A8FDF72CFFC7
:1051B00001A8FDF729FF2846FDF73EFF11E0046234
:1051C0000BE02846FDF738FF5EB990F82810090774
:1051D00007D501980462009805626846FDF714FF40
:1051E000FEBD0190056A002DEBD1E8E7202201F019
:1051F00091B9000038B5040022D0FDF7F7FE009009
:1052000090F82810890718D5406A40B10D49C96A3D
:10521000A14204D0FEF700F9009900204862204620
:10522000FFF730FD044606E02046FFF7E3FF204687
:10523000FDF702FF046A002CF6D16846FDF7E4FE94
:1052400038BD0000BC0000202DE9FF4198461646FD
:1052500007460D0031D00846FDF7C8FE0090846A6D
:105260000246A00726D5394601A8FEF7C6FD08B3B9
:1052700040F601000440012C07D0424601A928460F
:1052800001F048F90098C46912E000984346026AA8
:10529000816901A8FFF7D8FFF4E7B4420AD042467B
:1052A00001A92046FFF7B5FD2046FDF7C5FE046ABB
:1052B000002CF2D16846FDF7A7FEBDE8FF81202350
:1052C000FFF7C2BFB0F90010B0F90420914205DC2D
:1052D000B0F90210B0F90600814201DD00207047EC
:1052E0000120704710B5FFF7ABFE002803DBBDE8D7
:1052F0001040FEF765B910BD70B50D4C06460D4661
:10530000206814280DDA3046FDF796FE01696E60BC
:1053100041B12068401C2060284688472068401E14
:10532000206070BD2846BDE87040FFF77BBC0000E0
:10533000940100201FB5CDE900106946FFF7DCFF9E
:105340001FBD00002DE9F041214D0C460646E968DD
:10535000A86B0844A119401E814206D80846096876
:1053600019B941680E4401F0CDFAA86BA0420AD2E7
:1053700054F8040C271A386828B978680644384667
:1053800001F0C0FA3C46304600F07CFF10281CD2E9
:1053900005EBC0073246002120467B6C01F032FC51
:1053A00057F8440F083400B144602060002060606A
:1053B0003C6028683044286095F8291029B9E968CC
:1053C000081AA968814200D2A8603046BDE8F08181
:1053D000CCC900202DE9F041054601F047F82A48E4
:1053E000046CAC4202D8ED1C25F003048046006832
:1053F0000C34A04202D20020BDE8F08101F04EFA48
:105400000700F9D0204600F03DFF414630E000BFE4
:1054100001EBC002526C52B3956845B36B68A3426E
:1054200006D2AA681AB395680DB36B68A342F8D385
:10543000D8F84000191B0C301E46814200D2344679
:10544000284601F05FFA0421D8F8340001EBC701C7
:105450000023455022463946284601F0D3FBA64298
:1054600003DD2919301BFFF76DFF3846C4E7401CE8
:105470001028CDD3204601F05FFA0028C2D038466C
:1054800001F02CFAB7E70000CCC9002001207047DA
:10549000F0B40E4C246814B1A446F0BC60470C4D27
:1054A000DFF830C010C8521EE6B2AF5DC4F3072665
:1054B000C4F307441CF806602C5D04EB461404EBAF
:1054C000C7240C801944EDD1F0BC7047B400002013
:1054D0001C4B01081C4C0108F0B50B4DDFF82CC02B
:1054E00010C8521EE6B2C4F30727C4F30744AE5DEA
:1054F0001CF807702C5D06EB471606EBC4240C80E5
:105500001944EDD1F0BD00001C4B01081C4C0108F2
:105510002DE9F0478146FEF73DFF4FF000080746B2
:105520006FF07F444546FEF74DFF060018D000BFE0
:1055300056F82510494502D12846BDE8F0876D1C74
:10554000BD42F5DB5FF00005484656F82510FDF733
:105550007FFDA04201D20446A8466D1CBD42F3DB8C
:105560004046EAE710B5074A074BC1B2C0F307242B
:10557000C0F30740515C1B5D105C01EB431101EB74
:10558000C02010BD1C4B01081C4C010810B5C1B255
:10559000064A074BC0F30724C0F307401B5D105CAD
:1055A000515C00EB431000EBC12010BD1C4B010807
:1055B0001C4C01082DE9F05F9A46DDE90A87914607
:1055C0000C4605468B46164635F8020B4146884781
:1055D000B84701C4761EF7D15046BAF1200F06D263
:1055E000024649465846BDE8F05FFEF7A1B8BDE85F
:1055F000F09F2DE9F05F9A46DDE90A8791460C4657
:1056000005468B46164615F8010B41468847B847B4
:1056100001C4761EF7D15046BAF1200F06D20246D9
:1056200049465846BDE8F05FFEF782B8BDE8F09FF6
:105630000146064A002000BF52F820308B4204D0B9
:10564000401C0228F8DB4FF0FF30704700010020BB
:105650002DE9FF5F9046DDE90E924D4B99F8005021
:10566000C2F108048A465D5DDDE91071D540494A02
:10567000139E1268127C12F0030226D0012A03D076
:10568000022A37D0032A72D10069806880471FFA46
:1056900080FBBC4200D93C463F1BBAF1000F68D0EA
:1056A000E8070AD0DAF808004146039A0368504632
:1056B0009847318881EA0B0131806D0808F10108B3
:1056C000641E06F10206EBD15EE0314ABC4200D90D
:1056D0003C463F1B05F001006D0831F8200026F81C
:1056E000020B641EF6D1002F50D019F8010F0824C8
:1056F000155CEBE788881FFA80FBBC4200D93C466A
:105700003F1BBAF1000F17D095B1E80708D0DAF8BF
:1057100008004146039A036850469847A6F800B02F
:1057200008F10108641E06F1020612D06D08EBE7CD
:1057300006EB4406A0440CE04DB1E80701D0A6F802
:1057400000B0641E06F1020603D06D08F4E706EB14
:105750004406002F1AD019F8011F0D480824455C93
:10576000CBE719F8011F0A480824455C91E70DE0D2
:10577000FFE7E80703D0308880EA0B0030806D082F
:10578000641E06F10206F4D1002FEAD1BDE8FF9FA6
:10579000B04D0108880000202DE9FF5F8B460FA95E
:1057A000DDF8388091E82104C0F10401CCB298F80A
:1057B0000010400081402F48129F91460068CEB2F1
:1057C000007C10F0030004D001283AD002284FD109
:1057D00014E0AC4200DDECB22D1BB1093AF8210017
:1057E00027F8020BB006060E641E14F0FF04F4D175
:1057F000002D3DD0042418F8016FEAE7AC4200DD2B
:10580000ECB22D1BB0090DD0B109BBF1000F3AF875
:105810002100388006D0DBF808004946039A036867
:1058200058469847B006060E641EBF1C09F10109D0
:1058300014F0FF04E6D1002D1AD0042418F8016FEB
:10584000DCE7AC4200DDECB22D1BB00903D0388898
:1058500080F0FF003880B006060E641EBF1C14F0F6
:10586000FF04F2D1002D03D0042418F8016FE8E7FB
:10587000BDE8FF9F880000202DE9F05F92460BAA4B
:10588000894692E842010A9F9B468B003A78C1F113
:1058900002009A40D5B24F4A0E9CC0B21268127CE8
:1058A00012F003021BD0012A7CD0022A3AD1D9B3CC
:1058B00028090DD02909B9F1000F38F821002080FE
:1058C00006D0D9F808005A4651460368484698471A
:1058D000A41C0AF1010A17F8015F761E4CE039B1E9
:1058E0002909761E38F8210024F8020B17F8015F09
:1058F000022E11DB701006F001062A09401E38F84E
:10590000221005F00F0224F8021B38F8221024F8A8
:10591000021B17F8015FF0D1002E03D0290938F8D7
:1059200021002080BDE8F09F26E028090DD029093C
:10593000B9F1000F38F82100208006D0D9F808000E
:105940005A46514603684846984715F00F000DD057
:1059500038F820006080B9F1000F07D0D9F80800AE
:105960005A460AF1010103684846984717F8015F53
:10597000241D0AF1020AB61E022ED6DA002ED1D05C
:105980002809CFD038F820002080B9F1000FC9D005
:10599000D9F808005A46514603684846BDE8F05F0A
:1059A0001847FFE7B04200DDF0B2361AA90903D06C
:1059B000218881F0FF01218029070D0E401EA41CC3
:1059C00010F0FF00F2D1002EACD0022017F8015FDA
:1059D000E8E7000088000020F0B587B00DF1300C3A
:1059E000DFF81CE09CE8F000DFF810C0CDE904EC23
:1059F0008DE8F000FDF74AFF07B0F0BD8C4D0108BF
:105A0000DD4400082DE9FF4F8FB0A448DDE91F8673
:105A10000068DDE91C970C46006EFDF7E7FA079079
:105A2000406908B1FDF7E2FA0A900798C0680C9047
:105A300007A8FDF7E9FAA01910900A9858B19749FC
:105A40000968097C890706D110ACCDF8009094E86C
:105A50000E00FDF739FEDDE9100101F01DFC0446E2
:105A6000102F03D0182F5DDB002057E000251EE02B
:105A7000DDE910B02844DDF828A00190129E5FEA0D
:105A8000080120460ED068B17200FCF7B1FEBAF1F1
:105A9000000F07D0DAF808003346594647685046E9
:105AA000019AB8471E990C98884404446D1C4D45D2
:105AB000DEDBEAE00A980390DDE910B10698DDF834
:105AC00048A0084401905FEA0805264620D0FEB1B0
:105AD000039830B18068534659464768019A039845
