:020000040800F2
:1000000090D300200D0200084D0200084F020008A6
:1000100053020008570200085B02000800000000BD
:100020000000000000000000000000005F02000867
:100030006102000800000000630200086502000879
:1000400027020008270200082702000827020008EC
:1000500027020008270200082702000827020008DC
:1000600027020008270200082702000827020008CC
:1000700027020008270200082702000827020008BC
:1000800027020008270200082702000827020008AC
:100090002702000827020008270200087102000852
:1000A000270200082702000827020008270200088C
:1000B000270200082702000827020008270200087C
:1000C000270200082702000827020008270200086C
:1000D000270200082702000827020008270200085C
:1000E000270200082702000827020008270200084C
:1000F000270200082702000827020008270200083C
:10010000270200082702000827020008270200082B
:10011000270200082702000827020008270200081B
:10012000270200082702000827020008270200080B
:1001300000F002F800F05AF80AA090E8000C82449F
:100140008344AAF10107DA4501D100F04FF8AFF27C
:10015000090EBAE80F0013F0010F18BFFB1A43F0A5
:10016000010318479C8D0000BC8D00000A444FF02D
:10017000000C10F8013B13F0070408BF10F8014B06
:100180001D1108BF10F8015B641E05D010F8016B4B
:10019000641E01F8016BF9D113F0080F1EBF10F8AF
:1001A000014BAD1C0C1B09D16D1E58BF01F801CBD2
:1001B000FAD505E014F8016B01F8016B6D1EF9D555
:1001C0009142D6D37047000000230024002500266A
:1001D000103A28BF78C1FBD8520728BF30C148BFAA
:1001E0000B6070471FB51FBD10B510BD02F0C8F9F8
:1001F0001146FFF7F7FF00F04FF802F0E6F903B4FD
:10020000FFF7F2FF03BC02F0E7F90000094880475E
:1002100009480047FEE7FEE7FEE7FEE7FEE7FEE7E8
:10022000FEE7FEE7FEE7FEE704480549054A064B00
:1002300070470000831100083101000890CB0020B6
:1002400090D3002090CF002090CF0020704700BFB7
:10025000FEE700BFFEE700BFFEE700BFFEE7704716
:100260007047704703480068401C024908607047A7
:10027000704700005800002010B500F082FF0121F7
:10028000602000F0ABFE0121402000F09AFE012129
:10029000084600F0A3FE10BDFFF7EEFF00F0F2FFEE
:1002A0003349B1F1807F00D31DE021F07F40401E33
:1002B0004FF0E022506150170F22002807DA130791
:1002C0001D0E2C4B00F00F04241F1D5503E01307D7
:1002D0001C0E294B1C5400BF00204FF0E0229061FF
:1002E0000720106100BF01F066F802F0E7FD234827
:1002F00002F0EEFE4FF47F0002F0E0FE4FF6FF70DA
:1003000002F0DEFE02F00CFC002211461CA002F0FE
:1003100069FD2BE01D4800681D490968401A0A283C
:100320001DD3BE2001F033F8012001F03EF8194939
:1003300008780978491E174B197001F036F801202A
:1003400001F033F8F02001F030F8002001F02DF832
:10035000002001F02AF80D4800680D4908600423C8
:10036000182200210B48007802F0AAFCD2E7000016
:100370004019010018ED00E000E400E08C83000863
:10038000626C61636B6C69676874000058000020E0
:10039000040000200000002030B943F2DB0281009D
:1003A000A1F1C0410A6005E043F2D2028100A1F14F
:1003B000C0410A606FF07042411C8900A1F1C04148
:1003C0000A608100A1F1C041C1F8042170471028E2
:1003D0000AD118214FF020421166402151664FF09A
:1003E000FC319166D16610E01821F74A1160402176
:1003F0004FF02042C2F884104FF0FC31F24A08322C
:1004000011604FF02042C2F88C1070471820EE495E
:100410002031086000200906C1F8A4004FF0FC302C
:10042000E94928310860091D0860091D0860704706
:10043000D0E901121143C2681143026911434269B4
:10044000114382691143C2691143026A1143426A2E
:100450001143826A1143C26A1143026B114302685D
:100460009200A2F1C0421160816808290BD1016895
:100470008900A1F1C041096841F04002016889008A
:10048000A1F1C0410A60416B0968426B526841EAC0
:100490000211426B926841EA0221426B928941EA61
:1004A0000241426B128A41EA0251426B127D41EADB
:1004B0000261426B926911430268521C9200A2F1E0
:1004C000C0421160C16AB1F5804F1BD1816B0968D0
:1004D000826B526841EA0211826B926841EA022102
:1004E000826B128A41EA0251826B127D41EA0261FB
:1004F000826B9269114302689200A2F1C042C2F875
:10050000041107E06FF0704201688900A1F1C04159
:10051000C1F80421704730B500210022002344684F
:1005200044F0080485682C43C5682C4305692C43B6
:10053000456944EA4524856944EA4531C46924682B
:10054000C5696D6844EA0524C5692D8944EA0544F6
:10055000C5692D7B44EA0562046A2468056A6D68F2
:1005600044EA0524056A2D8944EA0544056A2D7B81
:1005700044EA05630468102C05D14FF0204421663D
:10058000A266E36608E0904C21604FF02044C4F876
:1005900088208D4C0C34236030BD016841F010017F
:1005A000426841EA4221826841EA4231864A203269
:1005B0001160C1680968C268526841EA0221C268D4
:1005C000128941EA0241C268127B41EA02617E4A15
:1005D00028321160016909680269526841EA022102
:1005E0000269128941EA02410269127B41EA026111
:1005F000754A2C321160416909684269526841EAC2
:1006000002214269128941EA02414269127B41EAB0
:1006100002614FF02042C2F8B01070470021016023
:100620000221416000218160C160016141618161FD
:10063000C16101624FF48051416249008162002131
:10064000C16201630F21426B1160426B5160FF2157
:10065000426B91600F21426BD160426B1161426B22
:1006600051610021426B91610F21826B1160826B9D
:100670005160FF21826B91600F21826BD160826B90
:100680001161826B51610021826B91617047102171
:100690000160002141608160C1600161416181614F
:1006A000FC21C2691160C2695160C2699160C2696E
:1006B000D160026A1160026A5160026A9160026A46
:1006C000D16070470021016041608160FC21C268F7
:1006D0001160C2685160C2689160C268D1600269ED
:1006E000116002695160026991600269D1604269DA
:1006F000116042695160426991604269D1607047FE
:1007000051B18200A2F1C042126842F0010382009E
:10071000A2F1C042136009E08200A2F1C042126857
:100720002A4B1A408300A3F1C0431A60704799B165
:10073000102808D14FF02042126E42F004024FF010
:1007400020431A661DE0204A126842F004024FF06E
:100750002043C3F8802014E0102809D14FF0204234
:10076000126E1A4BDB1E1A404FF020431A6608E047
:10077000154A1268154BDB1E1A404FF02043C3F890
:100780008020704748B110492031096841F00401C8
:100790004FF02042C2F8A01009E00B49203109684F
:1007A0000A4AD21E11404FF02042C2F8A0107047F2
:1007B000B9B110280CD14FF02042126E42F0400225
:1007C0004FF020431A661FE0800000A0FEFF0F00DC
:1007D000724A126842F040024FF02043C3F8802072
:1007E00012E0102808D14FF02042126E6C4B1A40D4
:1007F0004FF020431A6607E0684A1268684B1A40B7
:100800004FF02043C3F88020704701460020102994
:1008100003D14FF02042506F02E0604A143210685A
:10082000704710B5F2B1102807D14FF020435B6E2E
:100830000B434FF02044636632E0B0F5807F08D16F
:10084000564B1B1D1B680B434FF02044C4F88430EB
:1008500026E0524B24331B680B434FF02044C4F86E
:10086000A4301DE0102807D14FF020435B6E8B436E
:100870004FF02044636613E0B0F5807F08D1474B0A
:100880001B1D1B688B434FF02044C4F8843007E0E5
:10089000424B24331B688B434FF02044C4F8A430F0
:1008A00010BD10B5024600200023102A03D14FF0DE
:1008B0002044636E09E0B2F5807F03D1374C241DDC
:1008C000236802E0354C2434236803EA01040CB1A8
:1008D000012000E0002010BD102807D14FF0204279
:1008E000526E8A434FF020435A6613E0B0F5807F82
:1008F00008D12A4A121D12688A434FF02043C3F8D8
:10090000842007E0254A243212688A434FF02043AE
:10091000C3F8A420704770B50246002000230024CD
:100920000025102A03D14FF02046736E09E0B2F57E
:10093000807F03D1194E361D336802E0174E2436EE
:10094000336803EA010403EAD10514B10DB10120B3
:1009500000E0002070BD102808D14FF02042526EF8
:1009600022EAD1024FF020435A6615E0B0F5807FAD
:1009700009D10A4A121D126822EAD1024FF020431F
:10098000C3F8842008E0054A2432126822EAD10222
:100990004FF02043C3F8A42070470000800000A05F
:1009A000BFFF0F0010B50446CC48844208D1012196
:1009B000042000F02DFB0021042000F029FB46E07C
:1009C000C748844208D10121082000F021FB002102
:1009D000082000F01DFB3AE0C248844208D1012102
:1009E000102000F015FB0021102000F011FB2EE07C
:1009F000BD48844208D10121202000F009FB0021DC
:100A0000202000F005FB22E0B848844208D10121F3
:100A1000402000F0FDFA0021402000F0F9FA16E035
:100A2000B348844208D10121802000F0F1FA00216E
:100A3000802000F0EDFA0AE0AE48844207D101219F
:100A4000801500F0E5FA0021A01500F0E1FA10BDD4
:100A500010B50121084600F0DBFA0021012000F06A
:100A6000D7FA10BD2DE9F0410246002500260020EE
:100A700000230024002791F803C00CF00F0591F823
:100A800003C00CF0100CBCF1000F03D091F802C0B1
:100A90004CEA050591F800C0BCF1000F31D0146894
:100AA00000202BE04FF0010C0CFA00F3B1F800C06D
:100AB0000CEA03069E4220D183004FF00F0C0CFA83
:100AC00003F7BC4305FA03FC4CEA040491F803C0A5
:100AD000BCF1280F06D14FF0010C0CFA00FCC2F853
:100AE00014C00AE091F803C0BCF1480F05D14FF0E3
:100AF000010C0CFA00FCC2F810C0401C0828D1D32D
:100B00001460B1F800C0BCF1FF0F34DD5468002060
:100B10002EE000F1080C4FF0010808FA0CF3B1F8D0
:100B200000C00CEA03069E4221D183004FF00F0C57
:100B30000CFA03F7BC4305FA03FC4CEA040491F8F1
:100B400003C0BCF1280F05D100F1080C08FA0CF81D
:100B5000C2F8148091F803C0BCF1480F07D100F12E
:100B6000080C4FF0010808FA0CF8C2F81080401C7D
:100B70000828CED35460BDE8F0814FF6FF710180A4
:100B8000022181700421C1707047024600209368E1
:100B90000B400BB1012000E000207047014688683F
:100BA00080B2704702460020D3680B400BB1012091
:100BB00000E0002070470146C86880B270470161BC
:100BC0007047416170470AB1016100E041617047BF
:100BD000C16070474FF480320A4382618161826153
:100BE00082698269704702460020434B18684FF6BD
:100BF0008073184040EA021008433F4B186070476A
:100C00003E49C8617047F0B50A4600230024002120
:100C1000002500F00046B6F1004F02D1364EF169D2
:100C200001E0354E7168C0F3034583B200F440160D
:100C3000B6F5401F08D121F070612F4E766826F07E
:100C400070662D4F7E6012E000F48016B6F5801FAE
:100C500006D1032606FA05F4A14341F0706106E0CF
:100C6000460D360103FA06F6B14341F0706122B138
:100C7000460D360103FA06F6314300F00046B6F1A0
:100C8000004F02D11C4EF16101E01B4E7160F0BDBE
:100C900030B500228B071C0F0F2303FA04F2164B0A
:100CA00008338C1053F824309343134C08348D10C0
:100CB00044F8253023468C1053F824308C07240F39
:100CC00000FA04F423430C4C08348D1044F825300A
:100CD00030BD0A49DC31086070470000000801405F
:100CE000000C0140001001400014014000180140B8
:100CF000001C014000200140000001400000204293
:100D0000DF48006840F00100DD490860084640689F
:100D1000DC490840DA49486008460068DA4908407A
:100D2000D74908600846006820F48020086008461B
:100D3000406820F4FE0048604FF41F008860704750
:100D4000CF49096821F48031CD4A11601146096804
:100D500021F480211160B0F5803F03D0B0F5802FE1
:100D60000ED106E0C649096841F48031C44A1160D9
:100D700007E0C349096841F4A021C14A116000E0BD
:100D800000BF00BF704710B50146002200230020BD
:100D90004A11012A02D1BA4C236806E0022A02D184
:100DA000B74C236A01E0B64C636A01F01F020124CC
:100DB00094401C400CB1012000E0002010BD38B56B
:100DC000002000900024002500BF3120FFF7DBFF4A
:100DD00005460098401C00900098B0F5A06F01D027
:100DE000002DF2D03120FFF7CEFF08B1012400E042
:100DF0000024204638BD01460020A14A106820F09A
:100E0000F80040EAC10010607047A04908607047D0
:100E1000024600209A4B586820F47C1042EA0103F5
:100E20001843974B586070479849086670470146C9
:100E30000020934A506820F0030008435060704738
:100E40008F48406800F00C007047014600208C4A33
:100E5000506820F0F00008435060704701460020C1
:100E6000874A506820F4E0600843506070470146AC
:100E70000020834A506820F4605040EAC10050606E
:100E8000704729B17E4A527A02437D4B5A7204E080
:100E90007B4A527A82437A4B5A7270477B49D831E7
:100EA0000860704701460020754A506820F44040B1
:100EB0000843506070470021714A20321170704A17
:100EC00082F82010012802D004280AD104E0012170
:100ED0006B4A2032117005E00521694A20321170F9
:100EE00000E000BF00BF704769490860704764496F
:100EF000096A0143624A11627047654944390860D2
:100F0000704730B500210022002400235C4D6D683D
:100F100005F00C0121B1042905D0082923D105E0F1
:100F20005C4D056022E05B4D05601FE0544D6D682F
:100F300005F47012524D6D6805F48034022505EBFE
:100F400092421CB9544D554305600BE04C4D6D6801
:100F500005F400351DB1504D5543056002E04D4D7F
:100F60005543056002E04B4D056000BF00BF444D96
:100F70006D6805F0F0010909484D6B5C0568DD40BE
:100F800045603F4D6D6805F4E061090A434D6B5CB7
:100F90004568DD4085603A4D6D6805F46051C90AC9
:100FA0003E4D6B5C4568DD40C560354D6D6805F4B0
:100FB0004041890B3A4D6B5CC568B5FBF3F50561A3
:100FC00030BD29B12E4A526902432D4B5A6104E0CB
:100FD0002B4A526982432A4B5A61704729B1284AE9
:100FE00092690243264B9A6104E0254A9269824342
:100FF000234B9A61704729B1214AD2690243204BA1
:10100000DA6104E01E4AD26982431D4BDA617047FF
:1010100029B11B4AD2680243194BDA6004E0184A2E
:10102000D2688243164BDA60704729B1144A1269BC
:101030000243134B1A6104E0114A12698243104BB8
:101040001A61704712494039086070470F49C864F7
:1010500070470B49C87170470948406A40F080707A
:1010600007494862704701460020054A92680A40D5
:101070000AB1012000E000207047014988727047E2
:10108000001002400000FFF8FFFFF6FE00004242A1
:101090008004424200127A0000093D00080000204E
:1010A000180000200CB50020019000906C480068EA
:1010B00040F480306A49086000BF6948006800F465
:1010C000003000900198401C0190009818B90198D8
:1010D000B0F5A06FF1D16248006800F4003010B1A3
:1010E0000120009001E0002000900098012843D1E9
:1010F0005C48006840F010005A49086008460068E3
:1011000020F0030008600846006840F00200086014
:10111000534840685249486008464068486008465D
:10112000406840F4806048600846406820F47C10C5
:1011300048600846406840F4E81048600846006887
:1011400040F08070086000BF4548006800F0007003
:101150000028F9D04248406820F003004049486028
:101160000846406840F00200486000BF3C484068C4
:1011700000F00C000828F9D10CBD10B5FFF792FF64
:1011800010BD10B53648006840F0010034490860D1
:1011900008464068344908403149486008460068BC
:1011A000324908402E4908600846006820F4802033
:1011B00008600846406820F4FE0048604FF41F00B5
:1011C0008860FFF7DAFF4FF000602949086010BD22
:1011D00010B5002100200022214B5B6803F00C01B8
:1011E00021B1042906D0082928D107E0214B224C3F
:1011F000236027E01F4B204C236023E0184B5B68E3
:1012000003F47010164B5B6803F48032022303EB87
:10121000904022B9194B4343174C23600DE0104B0B
:101220005B6803F4003323B1144B4343124C236037
:1012300003E0104B4343104C236003E00D4B0E4C76
:10124000236000BF00BF064B5B68C3F303130C4C65
:10125000E15C094B1B68CB40074C236010BD0000CC
:1012600000100240002002400000FFF8FFFFF6FEE1
:1012700008ED00E000127A001C00002000093D008B
:101280002000002000B597B001210802FFF799FE69
:101290004FF40050ADF8000010208DF8030003203B
:1012A0008DF8020069463348FFF7DCFB4FF400512C
:1012B0003048FFF784FC0220ADF8000010208DF8C4
:1012C000030003208DF8020069462B48FFF7CAFB94
:1012D0004CF23370ADF8000003208DF802001820A6
:1012E0008DF8030069462348FFF7BCFB4FF680707A
:1012F000ADF8000069462048FFF7B4FB8020ADF848
:10130000000069461B48FFF7ADFB4FF40060ADF8E5
:10131000000069461748FFF7A5FB02200190002056
:1013200002900520039000200490059006904FF055
:101330008050079000200890099008200A90102003
:101340000B9000200C900E900F9010904FF4805056
:101350001190002012901390149001A815901690EF
:1013600008A8FFF765F801210020FFF7C9F917B0B9
:1013700000BD0000001401400018014001B502E06A
:101380000098401E009000980028F9D108BD4FF049
:10139000C041088070474FF0C0421080FE4A118063
:1013A00070470020FC4908887047FB490880704757
:1013B000F9490880704710B50221F848FFF701FC91
:1013C000F748FFF7DBFF0221F448FFF7F8FBF4488A
:1013D000FFF7D4FFE220FFF7DAFF2320FFF7E5FF56
:1013E0000220FFF7E2FF0420FFF7DFFFE020FFF716
:1013F000CEFF0120FFF7D9FF4AF6FF70FFF7BEFFCF
:10140000E020FFF7C4FF0320FFF7CFFF4AF6FF708D
:10141000FFF7B4FF0120FFF7BAFF4AF6FF70FFF7AE
:10142000ADFFE620FFF7B3FF0420FFF7BEFF9320D8
:10143000FFF7BBFFE020FFF7B8FFB020FFF7A7FFE3
:101440000020FFF7B2FF0020FFF7AFFFD54800886C
:10145000C0F30720FFF7A9FFD2490878FFF7A5FFDF
:10146000D1480088C0F30720FFF79FFFCE490878D6
:10147000FFF79BFF0020FFF798FFB420FFF787FFDF
:10148000CA480088C0F30720FFF78FFFC7490878D4
:10149000FFF78BFFC6480088C0F30720FFF785FFE2
:1014A000C3490878FFF781FFC2480078FFF77DFF46
:1014B000C1480088C0F30720FFF777FFBE490878CE
:1014C000FFF773FF0020FFF770FFB620FFF75FFF05
:1014D000BA480088C0F30720FFF767FFB7490878CC
:1014E000FFF763FFB6480088C0F30720FFF75DFFF2
:1014F000B3490878FFF759FFB2480078FFF755FF66
:10150000B1480088C0F30720FFF74FFFAE490878C5
:10151000FFF74BFFB820FFF73AFF0F20FFF745FF1B
:101520000120FFF742FFBA20FFF731FF0F20FFF73E
:101530003CFF3620FFF72BFF0020FFF736FFF0209F
:10154000FFF725FF0320FFF730FF4AF6FF70FFF794
:1015500015FF2920FFF71BFFBE20FFF718FF012012
:10156000FFF723FFFF20FFF720FF0120FFF71DFFFC
:10157000F020FFF71AFF0020FFF717FF0020FFF70A
:1015800014FF10BD70B505460C462A20FFF7FFFE7C
:101590002812FFF70AFF2846FFF707FF511EC1F385
:1015A0000F20FFF702FF511E88B2FFF7FEFE2B202F
:1015B000FFF7EDFE2012FFF7F8FE2046FFF7F5FEDD
:1015C000591EC1F30F20FFF7F0FE591E88B2FFF736
:1015D000ECFE2C20FFF7DBFE501B191B00FB01F675
:1015E00003E04FF6FF70FFF7E0FE3000A6F10106C2
:1015F000F7D170BD10B504460B462A20FFF7C7FE91
:101600002012FFF7D2FE2046FFF7CFFE2012FFF791
:10161000CCFE2046FFF7C9FE2B20FFF7B8FE1812BC
:10162000FFF7C3FE1846FFF7C0FE1812FFF7BDFE16
:101630001846FFF7BAFE2C20FFF7A9FE1046FFF769
:10164000B4FE10BD00B503460A462A20FFF79FFEF0
:101650001812FFF7AAFE1846FFF7A7FE1812FFF7A9
:10166000A4FE1846FFF7A1FE2B20FFF790FE1012F4
:10167000FFF79BFE1046FFF798FE1012FFF795FE4E
:101680001046FFF792FE2E20FFF781FEFFF789FE3E
:1016900000BDF0B505460C462A20FFF778FE28125B
:1016A000FFF783FE2846FFF780FE1012FFF77DFE4E
:1016B0001046FFF77AFE2B20FFF769FE2012FFF796
:1016C00074FE2046FFF771FE2012FFF76EFE2046E3
:1016D000FFF76BFE2C20FFF75AFE501B471C00261D
:1016E00003E01846FFF761FE761CBE42F9D9F0BD53
:1016F000F0B505460C462A20FFF749FE2812FFF7F1
:1017000054FE2846FFF751FE2812FFF74EFE2846EA
:10171000FFF74BFE2B20FFF73AFE2012FFF745FEA6
:101720002046FFF742FE1012FFF73FFE1046FFF77C
:101730003CFE2C20FFF72BFE101B471C002603E06D
:101740001846FFF732FE761CBE42F9D9F0BD2DE9EE
:10175000F04105460C46069F2A20FFF718FE281286
:10176000FFF723FE2846FFF720FE1012FFF71DFEAD
:101770001046FFF71AFE2B20FFF709FE2012FFF795
:1017800014FE2046FFF711FE1812FFF70EFE184652
:10179000FFF70BFE2C2019E000000260001801404A
:1017A000FFFF0A0030000020440000203400002029
:1017B000380000203C0000204000002048000020AD
:1017C0004C0000205000002054000020FFF7DFFDF7
:1017D000501B401C191B491C00FB01F8002603E0AC
:1017E0003846FFF7E2FD761C4645F9D9BDE8F081A1
:1017F0002DE9F04104460D46069F2A20FFF7C7FD5C
:101800002012FFF7D2FDE0B2FFF7CFFDA118491E6D
:10181000C1F30F20FFF7C9FDA118491EC8B2FFF799
:10182000C4FD2B20FFF7B3FD2812FFF7BEFDE8B281
:10183000FFF7BBFDE918491EC1F30F20FFF7B5FD07
:10184000E918491EC8B2FFF7B0FD2C20FFF79FFD35
:1018500002FB03F04FEA4008002603E0B85DFFF703
:10186000A7FD761C4645F9D3BDE8F0810B4800681A
:1018700070470A4A1268111800BF084A12688A1A8B
:10188000002AFADC7047704770477047704770470E
:1018900070477047002070477047000058000020D4
:1018A00010B54FF44841034801F016F8024801F022
:1018B00009FC10BD38010020A48A000810B50023DF
:1018C0001A462249224801F091F902F0ADF870B1B0
:1018D0004FF448724FF4F271002002F0D1F94FF446
:1018E00048724FF47271002002F0E0F90DE04FF4FD
:1018F000F2724FF44871002002F0C2F94FF4727294
:101900004FF44871002002F0D1F910BD2DE9F041EB
:1019100006460F46144625463020FFF738FD696815
:10192000C1F30F20FFF741FDA98888B2FFF73DFD05
:101930000120FFF73AFD4FF4F270FFF736FD122059
:10194000FFF725FD0020BDE8F0810000E8640008F5
:10195000B46400082DE9F04107460C4615461E46C2
:10196000B2B2A9B2A0B2FFF745FEBDE8F0812DE901
:10197000F04107460C461546A9B2A0B2FFF762FE39
:1019800006463046BDE8F0812DE9F04104460D469B
:101990001646324629462046FFF7E9FF07462169E9
:1019A00088688047804687EA0803324629462046F1
:1019B000FFF7D0FFBDE8F0812DE9F84F81460D46D5
:1019C00014461E46DDF82880FE480068C06BD0F83B
:1019D00000A0FC480068007C00F0010070B10AE043
:1019E0002F4605E0224639464846FFF7CDFF7F1CCB
:1019F000B742F7DD641C4445F2DD09E01FFA8AF0C6
:101A00001FFA88F3B2B2A1B20090A8B2FFF79FFE0E
:101A1000BDE8F88FF8B505460E4614461F463B460E
:101A20002246314628460094FFF7C6FFF8BDF8B5B8
:101A300006460C4617461D4623463A462146304682
:101A40000095FFF7B9FFF8BD2DE9FE4F82460C4621
:101A500017461D46DDE90C6804EB080000902A20BB
:101A6000FFF795FCC4F30F20FFF79FFCA0B2FFF730
:101A70009CFC0098C0F30F20FFF797FC009988B2F8
:101A8000FFF793FC2B20FFF782FCC7F30F20FFF733
:101A90008CFCB8B2FFF789FCC7F30F20FFF785FC79
:101AA000B8B2FFF782FC2C20FFF771FC0E9800689B
:101AB00002900E98406801903444C2480068007C4F
:101AC00000F0030030B1012836D002281AD00328D4
:101AD00057D130E000BF297880223241114009B14E
:101AE000019900E0029988B2FFF75FFC701C06467E
:101AF000082801D100266D1CA8F101005FEA00084A
:101B0000E9D13EE000BF287880213141084028B16A
:101B10003A4621465046019BFFF71CFF641C701C8F
:101B20000646082801D100266D1CA8F101005FEAD5
:101B30000008E8D125E000BFDAF810108868804777
:101B4000814600BF287880213141084060B13A4683
:101B500021465046FFF70BFF83468BEA09033A46BE
:101B600021465046FFF7F6FE641C701C0646082806
:101B700001D100266D1CA8F101005FEA0008E1D147
:101B800000BF00BFBDE8FE8F2DE9FF4F83B00F46B9
:101B900091469846DDE911AB07EB0A0000902A2038
:101BA000FFF7F5FBC7F30F20FFF7FFFBB8B2FFF716
:101BB000FCFB0098C0F30F20FFF7F7FB009988B2F9
:101BC000FFF7F3FB2B20FFF7E2FBC9F30F20FFF732
:101BD000ECFB1FFA89F0FFF7E8FBC9F30F20FFF7D2
:101BE000E4FB1FFA89F0FFF7E0FB2C20FFF7CFFBA7
:101BF00098F800000290109E109E374471480068CB
:101C0000007C00F0030010B1022844D144E0BBF195
:101C1000000F22D000BFC6F103004400C4F106014A
:101C2000C02008410299084020FA04F55BF825100D
:101C30000191019988B2FFF7B8FB701C0646042891
:101C400005D1002608F10100804600780290AAF133
:101C500001005FEA000ADED11DE000BFC6F103000B
:101C60004400C4F10601C02008410299084020FA4E
:101C700004F5A8B2FFF799FB701C0646042805D1AD
:101C8000002608F10100804600780290AAF10100C8
:101C90005FEA000AE2D14DE0BBF1000F26D000BFA1
:101CA000C6F103004400C4F10601C02008410299B6
:101CB000084020FA04F545B15BF8250001904A463A
:101CC0003946019B0398FFF745FE7F1C701C0646B2
:101CD000042805D1002608F1010080460078029012
:101CE000AAF101005FEA000ADAD122E000BFC6F1E2
:101CF00003004400C4F10601C020084102990840D5
:101D000020FA04F52DB12B464A4639460398FFF7D1
:101D100021FE7F1C701C0646042805D1002608F110
:101D20000100804600780290AAF101005FEA000AF3
:101D3000DDD100BF00BF07B0BDE8F08F2DE9FF4F38
:101D400083B00F4691469846DDE911AB07EB0A00D8
:101D500000902A20FFF71BFBC7F30F20FFF725FB9E
:101D6000B8B2FFF722FB0098C0F30F20FFF71DFB6E
:101D7000009988B2FFF719FB2B20FFF708FBC9F386
:101D80000F20FFF712FB1FFA89F0FFF70EFBC9F3D4
:101D90000F20FFF70AFB1FFA89F0FFF706FB2C2044
:101DA000FFF7F5FA98F800000290109E109E374455
:101DB00004480068007C00F0030028B1022847D1E5
:101DC00047E0000078000020BBF1000F22D000BFE8
:101DD000C6F101008400C4F10401F0200841029919
:101DE000084020FA04F55BF825100191019988B2AA
:101DF000FFF7DBFA701C0646022805D1002608F121
:101E00000100804600780290AAF101005FEA000A12
:101E1000DED11DE000BFC6F101008400C4F1040161
:101E2000F02008410299084020FA04F5A8B2FFF713
:101E3000BCFA701C0646022805D1002608F10100F4
:101E4000804600780290AAF101005FEA000AE2D120
:101E50004DE0BBF1000F26D000BFC6F101008400A9
:101E6000C4F10401F02008410299084020FA04F569
:101E700045B15BF8250001904A463946019B03981D
:101E8000FFF768FD7F1C701C0646022805D100265E
:101E900008F10100804600780290AAF101005FEA93
:101EA000000ADAD122E000BFC6F101008400C4F1CB
:101EB0000401F02008410299084020FA04F52DB1F0
:101EC0002B464A4639460398FFF744FD7F1C701C99
:101ED0000646022805D1002608F101008046007858
:101EE0000290AAF101005FEA000ADDD100BF00BF45
:101EF00007B0BDE8F08F2DE9F05F83460E469046AF
:101F00001C46DDE90A5906EB050A2A20FFF73FFACD
:101F1000C6F30F20FFF749FAB0B2FFF746FACAF34B
:101F20000F20FFF742FA1FFA8AF0FFF73EFA2B2044
:101F3000FFF72DFAC8F30F20FFF737FA1FFA88F0E2
:101F4000FFF733FAC8F30F20FFF72FFA1FFA88F0D4
:101F5000FFF72BFA2C20FFF71AFAFA480068007CEA
:101F600000F0030010B102283CD119E0B9F1000FD4
:101F70000CD008E0277839F8271088B2FFF715FA57
:101F80006D1E761C641C002DF4DC08E005E0207852
:101F9000FFF70BFA6D1E761C641C002DF7DC21E0A8
:101FA000B9F1000F0FD00BE0277837B159F827307F
:101FB000424631465846FFF7CDFC6D1E761C641C28
:101FC000002DF1DC0DE00AE027782FB13B464246B8
:101FD00031465846FFF7BEFC6D1E761C641C002D72
:101FE000F2DC00BF00BFBDE8F09F2DE9F04782465C
:101FF0000D4614461E46089F05EB07092A20FFF7E9
:10200000C6F9C5F30F20FFF7D0F9A8B2FFF7CDF955
:10201000C9F30F20FFF7C9F91FFA89F0FFF7C5F9D7
:102020002B20FFF7B4F9C4F30F20FFF7BEF9A0B2DD
:10203000FFF7BBF9C4F30F20FFF7B7F9A0B2FFF722
:10204000B4F92C20FFF7A3F94FF0000805E0308821
:10205000FFF7ABF9B61C08F10108B845F7D3BDE8A6
:10206000F0872DE9F04107460D4690461C46069E36
:1020700008E04246294638462368FFF76BFC761E87
:102080006D1C241D002EF4DCBDE8F0812DE9FF4F0E
:1020900083B015461E46DDE914BADDE91297DDF876
:1020A0004080119808283FD006DC012809D002287A
:1020B00018D0042863D126E0102844D020285ED10F
:1020C0004FE000240BE062193B46CDE900B6CDF8A5
:1020D00008A0DDE90301FFF7B7FC4F44641C444549
:1020E000F1DB4CE000240BE062193B46CDE900B681
:1020F000CDF808A0DDE90301FFF746FD4F44641C5D
:102100004445F1DB3BE000240BE062193B46CDE99E
:1021100000B6CDF808A0DDE90301FFF70FFE4F443C
:10212000641C4445F1DB2AE0002409E062193B46C7
:10213000CDE9006ADDE90301FFF7DDFE4F44641CD1
:102140004445F3DB1BE0002408E062193B4600969F
:10215000DDE90301FFF749FF4F44641C4445F4DB0C
:102160000DE0002408E062193B460096DDE903011A
:10217000FFF777FF4F44641C4445F4DB00BF00BF0A
:1021800007B0BDE8F08F70B50446A06858B91C20B0
:1021900000F0D2FBA060A5682169886880470646E8
:1021A00001F086FEA861A06808B9012070BD00207A
:1021B000FCE703460A4699680F2A1FD2DFE802F0BF
:1021C0001E080A0C0E1E1E1E10121416181A1C00D1
:1021D000486870478868FCE7C868FAE70869F8E764
:1021E0008869F6E70020F4E70120F2E70120F0E734
:1021F0000020EEE70020ECE70020EAE74FF0FF3098
:10220000E7E70246012901D14F4870470020FCE76B
:10221000826800230B804B8093895B1E1BB28B80EE
:10222000138A5B1E1BB2CB8070477CB504460D46FB
:102230001646002000900190009501966A46032101
:10224000A069FFF763FB7CBDF8B504460D4600208E
:1022500000902046FFF797FFA06838B1A668356068
:1022600000956A460221A069FFF750FBF8BD2DE9F1
:10227000F04105460E4617462846FFF784FFA8683A
:1022800018B1AC68E66027616661BDE8F0812DE9B0
:10229000FC4105460E461746002000900190284656
:1022A000FFF771FFA86878B1AC68606908B930467B
:1022B00000E0606960616660A760009601976A4609
:1022C0000721A869FFF722FBBDE8FC8170B5044631
:1022D0002046FFF758FF054600220121A069FFF7BD
:1022E00015FB0543284670BD10B5044600220521A4
:1022F000A069FFF70BFB10BD10B5044600220621B4
:10230000A069FFF703FB10BD7CB504460D461646D9
:102310000020009001908DF8045000966A46042138
:10232000A069FFF7F3FA7CBD0246A1F10900082875
:102330001AD2DFE800F0040D0F1119131517034826
:102340007047000078000020088B00084922000830
:102350000648F5E70648F3E70648F1E70648EFE7E1
:102360000648EDE70648EBE70020E9E76F220008A2
:102370008F220008CD220008E9220008F922000877
:1023800009230008032A40F2308010F0030C00F00B
:10239000158011F8013BBCF1020F624498BF11F89F
:1023A00001CB00F8013B38BF11F8013BA2F1040258
:1023B00098BF00F801CB38BF00F8013B11F00303D0
:1023C00000F06780083AC0F0088051F8043B083AF2
:1023D00051F804CBA0E80810F5E7121D5CBF51F8D6
:1023E000043B40F8043BAFF30080D20724BF11F850
:1023F000013B11F801CB48BF11F8012B24BF00F8B5
:10240000013B00F801CB48BF00F8012B7047431A8D
:1024100028BF9A427FF6B6AF032A1044114440F217
:10242000268010F0030F1EBF11F8013D521E00F868
:10243000013D10F0030F7FF4F6AF11F0030300F03D
:102440007080083AC0F00B8051F8043D083A51F80A
:1024500004CD40F8043D40F804CDFFF7F3BF121D52
:102460005CBF51F8043D40F8043DAFF30080D20753
:1024700024BF11F8013D11F801CD48BF11F8012C1E
:1024800024BF00F8013D00F801CD48BF00F8012C41
:10249000704710B5203AC0F00B80B1E81850203AD0
:1024A000A0E81850B1E81850A0E81850BFF4F5AFF4
:1024B0005FEA027C24BFB1E81850A0E8185044BF7E
:1024C00018C918C0BDE810405FEA827C24BF51F8EB
:1024D000043B40F8043B08BF7047D20728BF31F8DF
:1024E000023B48BF11F8012B28BF20F8023B48BF30
:1024F00000F8012B7047704770477047431A28BF98
:102500009A427FF6C6AF104410F0030F11441EBF6D
:1025100011F8013D521E00F8013D10F0030F7FF449
:10252000F6AF103AC0F00A8010B531E91850103AF1
:1025300020E91850BFF4F9AFBDE81040530724BF9D
:1025400031E9081020E9081044BF51F8043D40F873
:10255000043D12F0030F08BF7047D20728BF31F8BF
:10256000023D48BF11F8012C28BF20F8023D48BFAA
:1025700000F8012C704700000048704730CB002065
:102580007546FFF7F9FFAE4605006946534620F051
:102590000700854618B020B5FDF746FEBDE820408F
:1025A0004FF000064FF000074FF000084FF0000B0F
:1025B00021F00701AC46ACE8C009ACE8C009ACE8C2
:1025C000C009ACE8C0098D4670470446AFF30080EF
:1025D0002046FDF714FE000001491820ABBEFEE7BF
:1025E00026000200704700002DE9F04FDFF828B107
:1025F00091B04FF0FF35DBF80030B3F922100691AF
:10260000DE69B3F924A0F469A189814206D8E28980
:10261000824203D3471AD4F8008012E0D4E9018142
:10262000002970D00A8882426DD84D8885426AD3CD
:10263000801A82B2486800EB8200B0F90070B0F9ED
:102640000250781C5FD0307EA27C014600FB02F96C
:10265000207CCDE90810B3F92A60304601F0F4FA85
:10266000C0B20E90DBF8001007FB0980A37C8A6BD8
:102670000127CDE90402CDE90273C869DDE908321A
:10268000C17E807ECDE900015146069800F0FCFF36
:10269000681C18D046F0020001F0D6FADBF8000002
:1026A000A37C05FB0981826BCDE90273CDE904129D
:1026B000C069DDE90832C17E807ECDE90001514666
:1026C000069800F0E1FFDBF800005D46C069417E3E
:1026D000007E814214D9022E12D086F0040001F04F
:1026E000B3FA2868C069027EC37E857E02FB03A11F
:1026F000437E099A0698534402FB050201F028F92B
:102700000E9801F0A1FADBF80000627C418C1144C4
:10271000418411B0BDE8F08F7800002004480068C3
:10272000C069C06909B1027C0A60407C7047000042
:1027300078000020022008807047C06982898A42A0
:1027400002D8C2898A4210D2806880B102888A4247
:102750000DD843888B420AD3406800EB8100A0EB80
:102760008200B0F90000002801DB01207047002042
:10277000704700002DE9F0432F4C034687B02068D6
:102780001946B0F92A80C069C06900F082F80028B3
:102790004ED041680088181A01EBC0054046AE785B
:1027A00001F052FA814620686A680123816BCDE905
:1027B0000236CDE90421C169CB7E8A7ECDE90023B2
:1027C0000B7EB0F924102A78B0F9220000F05CFFEB
:1027D0002068C069477E067EB7421DD9C07E474348
:1027E0004643B8F1020F17D000F026FB804600F0F8
:1027F0000BFB00F065FC21682A78CB69B1F9220057
:10280000B1F92410DB7E02FB0302CB19314401F045
:102810009FF8404600F054FC484601F015FA206845
:102820006A78C369B0F922109B7E02FB03114184D0
:1028300007B0BDE8F08300007800002030B50E4CF2
:1028400005460B4620682946C069C06900F021F89A
:10285000002810D04168008824682A1A0120E46901
:1028600000EBC200085CA47E6043002B03D011F88B
:1028700032106143196030BD7800002001200880CB
:10288000704700B5C06900F004F8002800D00120AE
:1028900000BD06E002888A4202D842888A4202D2FB
:1028A00080680028F6D17047002801D001F0E2BF0F
:1028B000704738B50546FFF7F7FF040009D000F070
:1028C0008FF82A460021009000F08CFE684600F048
:1028D00095F8204638BD0000024A106021F0030040
:1028E00050607047F4C9002010B5002814D0044689
:1028F0000A48006B10F8341000290DD002290BD2C1
:10290000042101EBC4014158486801F077FF2046DB
:10291000BDE8104003F06EB810BD000038C90020BB
:10292000002805D0034A916B016001B148609063B3
:102930007047000038C900202DE9F041044602F03C
:1029400051FF2648E41C24F00305C16B2D1DA9424C
:1029500000D90D46846B13E054F8042CAA420ED122
:1029600084B1216809B162684A60616809B122686E
:102970000A60826BA2422ED1216881632BE0246819
:10298000002CE9D18046416B80680F1857F8040C81
:102990003E1A306838B1002003F058F857F8040C9C
:1029A0003E1A3068B8B97068A84214DB3044441B42
:1029B000304603F031F8D8F80810491BC8F8081061
:1029C000D8F810102944C8F8101070683146401B20
:1029D00001F014FF20C42046BDE8F08138C9002072
:1029E00005498A69521C8A61096B01EBC0010A78AA
:1029F000521C0A7000F01AB838C900200A4902684F
:102A00000B6B52F8082C03EBC2021378022B03D392
:102A10008B690BB15B1E8B611178491E117000210F
:102A2000016008467047000038C90020002806D021
:102A30000349042202EBC000096B085808307047B4
:102A400038C90020F0B52D271C68B0F1004F08D020
:102A5000002500280DDA661C1E6027704042012404
:102A600008E0661C01251E606FF000402770491EBB
:102A700001E00024091BC9B22AB3491EC9B222E0F1
:102A80000C46491EC9B2944205D1124C27781C68E5
:102A9000661C1E602770104C54F8216090FBF6F401
:102AA000E4B20A2C11D804FB160011B90DB1641C54
:102AB000E4B20A2C02D10124491CC9B21E68303488
:102AC000771C1F6034700029DAD119680020087063
:102AD000F0BD00006C0000209C8D000810B5C2B253
:102AE000CBB2D21A02D5C2F1000212B293B2C0F335
:102AF0000722C1F3072403FB03F3121B01D5524243
:102B000012B2000C92B2A0EB114002FB023200B2F2
:102B1000002801DA404200B280B200FB002010BD64
:102B200010B50021084600F0BFF940F6FF72504290
:102B3000BDE8104013460146AFF300802DE9FC418B
:102B400007461C4615460E46042001F07DF88046D7
:102B50001148C068C16C006D0F4406440D44044424
:102B6000ADF80070ADF80450ADF80260ADF8064065
:102B7000684601F0D5FC07E023462A463146384630
:102B800000F0E6FE01F08EFC0028F5D1404601F091
:102B90005BF8BDE8FC8100006C0000202DE9F041ED
:102BA0001C4616460D460746022B02DB0020BDE8F8
:102BB000F0811C20FFF7C0FE0028F8D00DB10561A0
:102BC0000AE0094A52F8241009B905E011460A68DA
:102BD000002AFBD1096901618461868200210160BC
:102BE0004160C0E90217E2E79000002070B51D4681
:102BF000FFF7D4FF040001D000F00EF8E068006891
:102C000020B90348006800EB85008465204670BD4C
:102C100078000020FFF784BE70B590B38269022A65
:102C200030DA1C4C54F8221019B944F822002FE075
:102C300019464B68002BFBD106E0CB68C5681B68C2
:102C40002D68AB4203DD09680029F6D11AE0C1B155
:102C5000CB68C6681B683668B3420CD1838A012BE7
:102C600005D008E01946DB681B68AB4203DB0B6844
:102C7000002BF7D129B14B6833B118604A68426024
:102C800004E0FFE7012070BD44F8220048600160C5
:102C9000002070BD9000002003F022B8022801DB64
:102CA00000207047054951F8200004E0C168096818
:102CB0000029F6D000680028F8D170479000002065
:102CC0007FB51E4614460D46CDF80CD003AB00224E
:102CD0003146FFF7B7FE22462946684600F082F8E3
:102CE0007FBD00002DE9FC4706005BD000F0ACF88A
:102CF0003B4C81462068B0F9228000F0ADF8216895
:102D000007468A8CD01B888441E000BF47F6FF71DC
:102D1000304600F093FB82460146304600F064FBEB
:102D20002168054691F82C0000F0030001283FD0EF
:102D3000022839D000204A8C101A4884ADF80000CF
:102D40006A1E1044ADF80400888CADF80200A9F1A9
:102D500001010844ADF806006A465146304600F0CD
:102D6000EBFA2168BDF8020088845146304600F035
:102D7000FBF9064430780A281CD00D281AD0BDF87B
:102D80000000216828444884307818B1761C3078D7
:102D90000028BBD12068818C39448184818D21F049
:102DA00003018185BDE8FC8705EBD5704010C2E7C3
:102DB0002846C0E7206890F82C1001F00301012993
:102DC0000BD0022909D0018C418431780A29DBD14A
:102DD000828C02EB09018184D6E7A0F82280F4E717
:102DE00078000020024B1B6859849A84FFF77ABF51
:102DF00078000020034951F82000C1688A6A082140
:102E0000104700009000002010B500F0D1FDBDE893
:102E1000104000F037BE000002490968C9694A68DD
:102E20000021104778000020024A1268D2695268D7
:102E3000104700007800002010B500F0C1FDBDE88B
:102E4000104000F01FBE000002480068C069407ECC
:102E500070470000780000200A490020096891F8B6
:102E60002C2002F00C02042A07D0082A01D00C2AD8
:102E700002D1C869007E40087047C869007E401EC4
:102E80007047000078000020024951F820000069D6
:102E90000068704790000020024951F82000006946
:102EA000406870479000002070B50D4602F016FC97
:102EB0000446284602F01AFC204370BD124810B5A3
:102EC000016821F001010160104801218160104971
:102ED000016000680F49884200D0FEE700F012FA56
:102EE0000D492E200870FEF7CEFC0C4802F042FC83
:102EF00003F09AFA04460021084600F0F3F801F0C6
:102F00004BF9204610BD0000002000E000300240D8
:102F1000C2A507F4CDB5E8B56C00002000CA0020BA
:102F200038B5040018D00D480068006EA04201D1E9
:102F300000F0A8F82046FFF753FD0090406908B163
:102F400000F03AF900980068FFF764FE6846FFF762
:102F500055FD2046FFF7C8FC38BD00007800002072
:102F600038B5002460B1FFF73BFD009000680069B0
:102F70008068804700F0CAFF04466846FFF73EFDC0
:102F8000204638BD38B5FFF72BFD00F1180400903E
:102F90006846FFF733FD204638BDF8B515460E46A6
:102FA0000746FFF71DFD009044696846FFF726FDC0
:102FB0003846FFF7D5FF0346082800DD2CB12A4626
:102FC0003146384602F0ACFEF8BD2A463146384656
:102FD00003F03EF8F8BD10B5002821D009B30AB3BC
:102FE000B1F90040B2F900309C4200DA2346038078
:102FF000B1F90240B2F902309C4200DA2346438024
:10300000B1F90440B2F904309C4200DD23468380CC
:10301000B1F90610B2F90620914200DC1146C180D8
:1030200010BD11460A6802604968416010BD002861
:103030000BD003880B440380838819448180418826
:1030400011444180C1881144C1807047B0F9022009
:10305000B1F906309A4213DCB1F90220B0F906301A
:103060009A420DDCB0F90020B1F904309A4207DC35
:10307000B1F90010B0F90400814201DC0120704771
:103080000020704710B500F073FD00F025FEBDE88C
:10309000104000F055BF000070B504460548022CF2
:1030A0000068457C02D24474FFF7ECFF02480460DC
:1030B000284670BD78000020AC00002000F07ABDEA
:1030C00000F0B0BD01498860704700006C0000202E
:1030D00003490968CA6900B1C86110467047000019
:1030E00078000020094A30B41080094A1180094A4A
:1030F0001268537C084A52F82330DA68146A0A4688
:10310000A446014630BC184660470000A0000020DD
:10311000A2000020780000209000002002480068F3
:10312000002800D0004770471401002002498A6837
:1031300002B98860FFF7F2BF080100202DE9F041D5
:10314000084E0446056830680168284688470746E7
:103150003068416828468847284420603846BDE8E2
:10316000F08100007C0000202DE9F0410C4606466D
:103170000025064F05E03868416830468847064418
:103180000544641EF7D22846BDE8F0817C0000208B
:103190002DE9F0411E46069C1746884605463A46EC
:1031A000A8687F1C3346D0F804C041462846E04753
:1031B000641EF4D1BDE8F08138B50546FFF710FC78
:1031C00000908189491E0CB284816846FFF716FC85
:1031D000002C02D12846FFF787FB38BD10B5082A1E
:1031E0000EDC0346012A1AD0022A58D0042A78D0CD
:1031F00010F8042B03F8012B491EF9D1012010BD52
:10320000102A0ADC0222022AF8D1024630F8043BD6
:1032100022F8023B491EF9D1F0E7002010BD10F85A
:10322000042BD207120E491E34D010F8044B491E4D
:1032300004F0010442EA84122CD010F8044B491E19
:1032400004F0010442EA441224D010F8044B491E51
:1032500004F0010442EA04121CD010F8044B491E89
:1032600004F0010442EAC40214D010F8044B491ED1
:1032700004F0010442EA84020CD010F8044B491E09
:1032800004F0010442EA440204D010F8044B04F0B4
:103290000104224303F8012B0029C0D1AEE710F846
:1032A000042B9207120E491E15D010F8044B491E2C
:1032B00004F0030442EA04120DD010F8044B491E36
:1032C00004F0030442EA840205D010F8044B04F031
:1032D00003042243491E03F8012B0029DFD18DE7A7
:1032E000FFE710F8042B1207120E491E05D010F844
:1032F000044B04F00F042243491E03F8012B00295C
:10330000EFD17BE70A4810B5816900290ED1012170
:103310008161FEF7C5FAFEF7D1FA054905481C316F
:103320000860BDE81040084600F054B910BD000028
:103330006C000020415900087CB5064628480D461F
:10334000006868B1002001F0EBF806E06A46294603
:10335000304601F081FB01F0A5F80028F6D17CBDD4
:10336000106800901F4C506801902268BDF8000062
:1033700032F84C1F0844ADF80000BDF802009188F7
:103380000844ADF80200BDF8040011880844ADF807
:103390000400BDF8060091880844ADF806006846B0
:1033A00001F0BEF80EE000BF2068BDF800106A46CC
:1033B0004184BDF8021081842946304601F04CFB5F
:1033C00001F070F80028EFD1206830F8221F428DFC
:1033D000891A01804188C28D891A41807CBD000014
:1033E0009C0000207800002073B5124A01A90098C3
:1033F0001268904700240090C8B10F490025096861
:10340000C969496959B10A684AB1019990477CBDB7
:103410006846FFF793FE0546FFF7FEFC044401985B
:10342000401E0190F4D5284600F024F804442046BC
:103430007CBD0000040100207800002073B50D461B
:103440000098002490B10A490968C969496959B1CD
:103450004A684AB1294690477CBD6846FFF76EFE30
:1034600020B10A2802D0641CAC42F6DB20467CBDA9
:103470007800002038B5002469460094FFF7D4FC9A
:103480000099814200DD0C1A204638BDB0F90030A9
:10349000B1F90020934200DA0280B0F90230B1F9AC
:1034A0000220934200DA4280B0F90430B1F90420DE
:1034B000934200DD8280B0F90620B1F906108A42FD
:1034C00000DDC180704770B5B1F90040B2F900303D
:1034D0009C4200DD23460380B1F90250B2F902405C
:1034E000A54200DD2C464480B1F90460B2F90450D5
:1034F000AE4200DA35468580B1F90610B2F90620F1
:10350000914200DB1146C1809D4201DBA14201DAFC
:10351000002070BD012070BD014602480068407C5B
:1035200000F002B878000020F8B501260F460546E5
:1035300002284BDA264C5FB3012F02D0022F45D16F
:1035400016E054F8250088B92846FFF7A7FB00903D
:10355000B8B3C0680D21426A68469047020035D072
:1035600039460098904754F825000026401C2BE06F
:10357000FFF794FB009020B3C0680D21426A6846B3
:103580009047020022D039460098904700261DE05F
:1035900054F8250001280FD12846FFF77FFB009043
:1035A00050B1C0680D21426A68469047020003D0BE
:1035B000394600989047002654F8250010B10121A3
:1035C00001E003E00021401A44F825003046F8BD30
:1035D000FC00002002494A694260486170470000CF
:1035E0006C00002010B502E000F8011B521E0AB169
:1035F0008307F9D1930818D001EB014402F00302CC
:1036000004EB042405E0046044608460C46010306E
:103610001B1F042BF7DA01E010C05B1E002BFBD14F
:1036200003E000BF00F8011B521E002AFAD110BDB2
:1036300010B5830702D520F8021B521E530810D084
:1036400001EB0144042B08DB046044608460C46027
:1036500010301B1F042BF7DA01E010C05B1E002B9B
:10366000FBD1D20700D0018010BD00000449054AFB
:103670000968497C52F82110096909680847000067
:1036800078000020900000202DE9F04F05468DB015
:103690007C48DDF860901A9C00681E4617464FF083
:1036A000000A78B11B9B199ACDF808900593CDE9D3
:1036B0000324DDE91623CDE90023046833463A46A6
:1036C000284682E0DDE9160201EB060805EB070C4F
:1036D0001043A8F10108ACF1010C012806D0C9F192
:1036E00008000590002002910890C8E06648026832
:1036F000B2F90A30581A002806DD361A002E65DDA8
:103700001946199B00FB0344B2F90E00A8EB000018
:10371000002802DD361A002E58DDB2F90C00ACEBA1
:103720000000002800DD3F1AB2F908300020AB424B
:1037300037DD581B3F1A4B46B9F1080F28D007DC7C
:10374000012B0DD0022B13D0B9F1040F29D117E0B2
:10375000102B1FD0182B20D0B9F1200F21D11CE045
:1037600020F0070304EBE0041D4400F0070018E01C
:1037700020F0030304EBA0041D4400F0030010E05C
:1037800020F0010304EB60041D4400F0010008E098
:10379000044404E004EB400401E004EB800405442D
:1037A0000020002F12DD1B9BDDF864C0CDE904036F
:1037B000CDE902C4CDE90069527C34483B4650F85B
:1037C0002200C26854680A462946A0470DB0BDE8E9
:1037D000F08F17990298084409902B49401E0090D9
:1037E0000A68B2F90A30834241DCB2F90E1002983D
:1037F00081423CDB4FF0000BD84603950B9434E03C
:10380000BBF1000F05D10B984FF0080B10F801AB7E
:103810000B900599ABEB090B3AFA01F00AFA09F1A2
:1038200001F0FF0A04D118490968097C890716D4F8
:1038300015490968C96B0A680C921B9A0AB152F8BB
:103840002000086016990398009B4218521E0299A6
:1038500000F07EF80C490C980968C96B0860039960
:10386000169808F1010808440390B845C8DB089889
:10387000401C089009980290199804440898B04296
:10388000A7DBA3E79C000020780000209000002028
:10389000F0B40C4612490968B1F90A30A3421CDCA5
:1038A000B1F90E30A34218DBB1F90830834200DDD4
:1038B0001846B1F90C30934200DA1A4682420CDB0A
:1038C0004B7C084951F8235013462246E9688E681C
:1038D00001462846B446F0BC6047F0BC7047000083
:1038E00078000020900000200A46174930B409688B
:1038F000B1F90A30934225DCB1F90E30934221DB55
:10390000B1F9083083421DDCB1F90C30834219DB78
:103910000B7C0E4CDB0709D0497C54F82130D96868
:10392000CC690146A44630BC18466047CB6B497C45
:103930001B6854F82140E1688D6901462046AC4679
:1039400030BC604730BC70477800002090000020F9
:1039500038B5134C2468B4F90850854200DD284678
:10396000B4F90C50954200DA2A46824217DBB4F9CA
:103970000A508D4200DD2946B4F90E509D4200DA0E
:103980002B468B420BDB0093647C064B53F82440A0
:10399000E3681D6913460A4601462046A84738BD1C
:1039A0007800002090000020082101F029BE0000CE
:1039B00002480068806B00687047000078000020B3
:1039C00002480068C06B0068704700007800002063
:1039D000024809210068407C01F012BE78000020F6
:1039E000092101F00DBE70B500252C462046FFF7D9
:1039F00055F900B16D1C641C022CF7DB284670BD24
:103A000002480068407C00F003B800007800002005
:103A100010B5FFF743F9002805D0C168CA6ABDE8B0
:103A200010400221104710BD02480E210068407C62
:103A300001F0E6BD78000020AFF300802DE9F041F1
:103A4000002809D0876837B10D4E716819B1046834
:103A5000B4F5807F02DD0020BDE8F081306884424B
:103A600000DD0446002507E057F82500FFF7FEFDBE
:103A7000716841F825006D1CA542F5DB7068EBE725
:103A8000240100200449054A0968497C52F82110A4
:103A9000096949680847000078000020900000206C
:103AA00010B500F01F01074A074BC0F34514C0F3DF
:103AB000C4201B5D105C515C00EB032000EB014057
:103AC00010BD00003C8D00085C8D000810B50A4C4C
:103AD000606860B920688000FEF72EFF606040B12A
:103AE00004F10801054808600846FFF773FD00204F
:103AF00010BD012010BD000024010020A1590008C4
:103B00002DE9F041FFF76FFF0746002528E0284622
:103B1000FFF7C4F818B32846FFF7BEFA80462846D8
:103B2000FFF742FF082817DC0F48104950F825001E
:103B30000069884210D02846FFF752FF064600244D
:103B400008E0E0B2FFF79EFF0246E1B2284600F02F
:103B500081F8641CB442F4DB4046FFF79DFA6D1C0B
:103B6000BD42D4DBBDE8F08190000020E88E000863
:103B700010B50E4C0E492068407C51F8200050B121
:103B8000C1680968042903D000680028F8D102E060
:103B900008B1FFF781F820680021016600F10801F3
:103BA0004161BDE8104000F02FB80000780000200F
:103BB0009000002001490968496808472001002059
:103BC000044909680A7C520701D5C96B00E0896B7A
:103BD00008607047780000207CB5094C05462068D5
:103BE000417C084850F82100C1680A6B694690473B
:103BF00020686A4629460830FFF765FC7CBD000056
:103C000078000020900000200448016804484A7CA5
:103C1000083150F82200C268126B1047780000206B
:103C20009000002001490968096808472001002028
:103C3000044909680A7C520701D5896B00E0C96B09
:103C400008607047780000200149096889680847C2
:103C500020010020F8B515460E460124FFF71EF896
:103C6000009058B1C0681021426A6846904703002E
:103C700004D02A4631460098984700242046F8BDD3
:103C8000F8B515460E460124FFF708F8009058B124
:103C9000C0680B21426A68469047030004D02A4658
:103CA00031460098984700242046F8BDF8B51546DF
:103CB0000E460124FEF7F2FF009058B1C0680A21B9
:103CC000426A68469047030004D02A46314600986D
:103CD000984700242046F8BD10B5074C2068006BBB
:103CE000FFF7C4FCFFF7A4FF2068406BFFF7BEFCA2
:103CF000BDE81040FFF764BF780000202DE9FF4FBA
:103D00008DB01746674ADDF870901E9E20981268A5
:103D10001D4600248AB11D9B1F98CDE90293CDE971
:103D20000460DDE91A03CDE9000314682B463A4626
:103D30000D98A04711B0BDE8F08F0D9A01EB050872
:103D400002EB070CDDE91A231A43A8F10108ACF1D4
:103D5000010C012A06D0C9F108004FF0000B0291B6
:103D600005909CE0504A1268B2F90A40631A002B91
:103D700006DDED1A002DDDDD21461D9C03FB0466EA
:103D8000B2F90E30A8EB0303002B02DDED1A002D73
:103D9000D0DDB2F90C30ACEB0303002B00DDFF1AD1
:103DA0000D9B1C1AB2F90830A3420DDDA3EB040CE5
:103DB0000CEB0003181A20F007000444A7EB0C07D3
:103DC00006EBE30603F00700002FB3DD1F9BDDF8D1
:103DD00074C0CDE9040303968DE82012527C334869
:103DE0003B4650F82200C26855680A462146A8475B
:103DF000A0E71B990298084409902B49401E0390A4
:103E00000A68B2F90A30834243DCB2F90E10029814
:103E100081423EDB4FF0000A0D980B96D046009091
:103E200035E000BFBAF1000F05D10B984FF0080A3A
:103E300010F8014B0B900599AAEB090A34FA01F02E
:103E400004FA09F4E4B204D117490968097C890726
:103E500017D415490968C96B0A680C921F9A0AB1F0
:103E600052F82000086000991A980A180846DDE9FF
:103E70000213521EFFF76CFD0B490C980968C96BC1
:103E8000086000991A9808F1010808440090B845A4
:103E9000C8DB099802901D980BF1010B0644AB4555
:103EA000A7DB47E79C00002078000020900000205E
:103EB000002818D0410817D0810817D0C10817D0A2
:103EC000010917D0410917D0010A17D0410A17D0AC
:103ED000010B15D0C10B13D0010C11D0810C11D0E6
:103EE000000E11D02020704701207047022070473B
:103EF0000320704704207047052070470820704752
:103F000010207047122070471820704700B500221B
:103F1000FFF7CEFF012804D0811E062903D808220E
:103F20000BE0012209E0A0F10901072901D81022C4
:103F300003E011380F2800D82022104600BD0000F1
:103F400002490120096881F8540070477800002078
:103F50002DE9F0418AB0040036D0FEF741FD019012
:103F6000D0E90012CDE90412876A056A01A8FEF7BC
:103F700045FD204600F0B6FA060025D0204600F0A8
:103F800004F98046B80704D52A46414604A800F043
:103F9000F2FB2046FEF724FD01904046FEF720FD8F
:103FA00006903046FEF71CFD039005620698019AC4
:103FB000C1691162C46101A8FEF720FD06A8FEF7E1
:103FC0001DFD03A8FEF71AFD0AB0BDE8F081000050
:103FD0002DE9FC5FDFF838A10746DDE90C54DAF87B
:103FE0001400DDF83CB0984691460E4604434DB9A6
:103FF000BAF8020048B347480AF138010068407C2B
:1040000051F82050681C0ED0FDB12846FEF7E8FCA0
:104010000190B0F90010B0F902200F441644B9F134
:10402000000F02D006E000250FE0B0F90430591A65
:1040300001F10109B8F1000F04D1B0F90600801AAE
:1040400000F1010801A8FEF7D9FC0BF12C00FEF7E6
:1040500030FC5FEA000B57D0BAF80200401CAAF807
:1040600002005846FEF7BCFC0090078007EB0901F0
:104070004680491E818006EB0801491EC1800E99C9
:104080000161254A816A2240114381626846FEF738
:10409000B5FCDAF80C005E4650B1FEF7C7FC0746E7
:1040A0003046FEF7C3FC0146786948617E6101E055
:1040B000CAF80CB02946584600F0AAFAA00602D564
:1040C000584600F041F9E00705D0DAF8201001F178
:1040D0000101CAF82010600602D55846FFF738FFE4
:1040E000A0070DD55846FEF77BFC0090816A41F091
:1040F000020181626846FEF781FC584600F0F1F843
:104100000121584600F072FB5846BDE8FC9F0000B4
:10411000A4000020780000209F3F070010B504464F
:10412000C168D4E90020172A0DD004DC0E2A0CD077
:10413000142A07D104E0222A0CD0282A02D10CE04C
:1041400000F08BF90020E06010BD2146BDE8104072
:1041500000F018B96FF07040F5E7BDE8104000F0CE
:10416000C0B80000034804490068407C51F82000B2
:104170007047000078000020DC00002010B5002807
:1041800002D0FEF753FCC06910BD10B5002802D064
:10419000FEF74CFC806910BD2DE9FF5F2C4D68785F
:1041A000002853D100272B48EF60AF620068DFF88A
:1041B000A8903C464764AF806F804FF0020A4FF0F2
:1041C000FF3B40F6FF7805F138062046FEF766FD16
:1041D00098B1CDE90297CDE900BA002142464346A5
:1041E0000846FFF7F5FE1A4A46F8240040326FF001
:1041F000704142F8241000F074F8641C022CE4DBD7
:10420000164FDFF85C80DFF85C90002407EBC400F9
:1042100000F0ECF808EBC40000F0E8F809EBC4008B
:1042200000F0E4F8641C022CF0DB306800F08CF83D
:10423000FFF786FE01200649687030310A480860A1
:1042400004B00846BDE8F05FFFF7C4B9BDE8FF9FC2
:10425000A400002078000020D963000800CB0020D3
:1042600010CB002020CB00206D59000870B586B01F
:104270000D4606002CD0FEF7B3FB0090846AA10720
:1042800023D5D0E90010CDE90110E00302D5304676
:1042900000F013FA5DB1286803906868049003A9E0
:1042A000009800F0ABF803A901A8FFF7EFF831463A
:1042B00001A800F0ABF840B140F601000440012C29
:1042C00008D001A9304600F0F5F96846FEF796FBE4
:1042D00006B070BD0098026A816901A800F04BFA2F
:1042E000F3E70021FFF7C2BFFEB515460E460400F6
:1042F0001CD0FEF775FB0246009090F8280080075E
:1043000011D5314601A8FFF7DEF860B16846FEF727
:1043100075FB2A4601A9204601F0B6FA2046FFF7B0
:104320002DFF04460CE06846FEF768FBFEBD2A46FA
:1043300001A92046FFF7D8FF2046FEF777FB046A65
:10434000002CF4D1FEBD000070B50C4D04002868AF
:10435000866C01D10A49CC688464204600F01EFABC
:10436000FFF752FC2046FEF761FB2968B0F90020F8
:10437000CA64B0F902000865304670BD78000020BC
:10438000A400002070B50C00054609D0FFF7FDFE23
:10439000002805D02146A560BDE8704000F008BAAD
:1043A00070BD00000EB50E48006890F8541009B1B9
:1043B0000C4811E0806CFEF713FB0090D0E9001070
:1043C000CDE901106846FEF719FB0748416A11B1B3
:1043D00001A800F01BF801A801F098FB0EBD000039
:1043E0007800002080CA0020A400002002490A684A
:1043F0000260086070470000B40000200B46B0F96E
:104400000220B0F900101846FEF711BE38B50C4670
:1044100005462046FEF7E4FA0146009090F8280091
:10442000800703D46846FEF7E9FA12E02846FFF752
:104430002DF80098806920B104466846FEF7DEFA40
:10444000E7E76846FEF7DAFA204600F0F5FA0028BA
:1044500001DA002038BD012038BD38B50C460028EF
:104460000AD0002C08D0FEF7BBFA2146009000F0DD
:1044700004F86846FEF7C2FA38BD00224A800A8076
:1044800082880388D21A8A80C2884088101AC8801D
:10449000704710B5FFF779FE002802D0FEF7C6FA84
:1044A000C06910BD0D4810B5006890F85400002890
:1044B00006D00B4C6069012803DD401E60610020BE
:1044C00010BD2069401C206100F01AFF18B1FFF7F1
:1044D00069FF012010BD6069EFE70000780000204F
:1044E00078CA002070B50546FFF7D3FF08E0AC425C
:1044F00001D1002406E0FEF799FA006AA84201D033
:104500000400F4D1204670BD10B50446FEF78EFAC3
:1045100080690028F9D12046BDE8104000F08CBA2F
:10452000F0B5384E074687B0306890F8541041B166
:10453000354C6169491C6161012905DD012007B025
:10454000F0BDFFF72FFFF9E7806CFEF749FA2F4D1A
:104550004FF0FF3100902161297821B181680291EB
:10456000C068039007E090F8281089073CD5D0E98F
:104570000010CDE902101FB1394602A8FEF786FFF0
:104580003068406C78B3009804903068406C0168E3
:10459000059140680690686A30B104A8FEF72EFACB
:1045A000686AFEF71DFA049005A90498FFF726FF34
:1045B00005A902A8FEF76AFF0DF11000FEF71EFA2A
:1045C000696A19B102A8FFF721FFB0B13068816CA8
:1045D00002A8FFF71BFF80B1DDE90201C4E9000179
:1045E000FFF760FFABE706E06069401E6061684668
:1045F000FEF704FA04E06846E0E76069401E606187
:1046000000209CE77800002078CA0020A400002049
:10461000FEB50D00044647D0FEF7E2F900900021F8
:10462000856101622846FEF7DBF900990290C569B1
:1046300091F8281001F008062DB12846FEF7D0F9B0
:10464000019036B115E0C4616846FEF7D7F902A8BB
:1046500028E090F8280000070BD500980562029822
:10466000C4616846FEF7CAF902A8FEF7C7F901A8B7
:1046700018E002A8FEF7C2F901A8FEF7BFF9284624
:10468000FEF7D4F911E004620BE02846FEF7CEF9FC
:104690005EB990F82810090707D5019804620098C0
:1046A00005626846FEF7AAF9FEBD0190056A002D75
:1046B000EBD1E8E7202201F0E7B838B504001ED0BE
:1046C000FEF78EF9009090F82810890714D5406AFB
:1046D00020B1FEF725FC0099002048622046FFF734
:1046E0004DFD044606E02046FFF7E7FF2046FEF7B3
:1046F0009DF9046A002CF6D16846FEF77FF938BDB3
:104700002DE9FF419846164607460D0031D0084670
:10471000FEF766F90090846A0246A00726D539465E
:1047200001A8FEF7D0FE08B340F601000440012CBA
:1047300007D0424601A9284601F0A6F80098C469AE
:1047400012E000984346026A816901A8FFF7D8FF8A
:10475000F4E7B4420AD0424601A92046FFF7C4FD5F
:104760002046FEF763F9046A002CF2D16846FEF792
:1047700045F9BDE8FF812023FFF7C2BFB0F9001063
:10478000B0F90420914205DCB0F90210B0F906003E
:10479000814201DD002070470120704710B5FFF70E
:1047A000B3FE002803DBBDE81040FEF775BC10BD6A
:1047B00070B50D4C06460D46206814280DDA3046BB
:1047C000FEF734F901696E6041B12068401C206039
:1047D000284688472068401E206070BD2846BDE8F6
:1047E0007040FFF79BBC0000340100201FB5CDE9ED
:1047F00000106946FFF7DCFF1FBD00002DE9F04106
:104800001B4D0C460646A968686B0144491EA01959
:10481000884205D8016819B941680E4401F0FCF8D6
:10482000686BA0420AD254F8040C271A386828B9D9
:1048300078680644384601F0EFF83C46304600F010
:104840001FFF05EBC0073246002120463B6C01F0FC
:104850005FFA57F8400F083400B144602060002030
:1048600060603C602868304428603046BDE8F081D4
:1048700038C900202DE9F041054600F0B3FF2B4870
:10488000C46BAC4202D8ED1C25F0030480460068DE
:104890000C34A04202D20020BDE8F08101F08AF879
:1048A0000600F9D0204600F0EBFE424611E000BFC2
:1048B00002EBC001096C59B18D686B68A3420BD241
:1048C000A96829B18D686B68A34205D2002DF7D184
:1048D000401C1028ECD31FE0F5B1D8F83C00191BA0
:1048E0000C301F46814200D23C46284601F094F825
:1048F0000421D8F8300001EBC601002345502246C0
:104900003146284601F004FAA74203DD2919381B75
:10491000FFF774FF3046BFE7204601F097F8002804
:10492000C0D0304601F066F8B5E7000038C9002075
:1049300001207047F0B40E4C246814B1A446F0BCBA
:1049400060470C4DDFF830C010C8521EE6B2AF5DB4
:10495000C4F30726C4F307441CF806602C5D04EB7F
:10496000461404EBC7240C801944EDD1F0BC704709
:104970005C0000203C8B00083C8C00082DE9F047CF
:104980008146FFF725F84FF0000807466FF07F4497
:104990004546FFF735F8060018D000BF56F8251039
:1049A000494502D12846BDE8F0876D1CBD42F5DBC4
:1049B0005FF00005484656F82510FEF78FF8A04234
:1049C00001D20446A8466D1CBD42F3DB4046EAE72F
:1049D00010B5C1B2064A074BC0F30724C0F3074025
:1049E0001B5D105C515C00EB431000EBC12010BD5F
:1049F0003C8B00083C8C00082DE9F05F9A46DDE90D
:104A00000A8791460C4605468B46164635F8020B3A
:104A100041468847B84701C4761EF7D15046BAF1DF
:104A2000200F06D2024649465846BDE8F05FFEF721
:104A3000D5BBBDE8F09F00000146064A002000BF3C
:104A400052F820308B4204D0401C0228F8DB4FF093
:104A5000FF307047DC000020F7B51546184A01A961
:104A6000009812689047174C00902068406920B168
:104A70002946FEF7EBFA002821D00120FEF74CFD75
:104A80002068C069406920B18268DDE90001904773
:104A900012E00D4D0CE06846FEF750FB064620681C
:104AA000C069016830468847296809B1304688479F
:104AB0000198401E0190EED50020FEF72DFDFEBDB1
:104AC0000401002078000020980000202DE9FF5FFD
:104AD0009046DDE90E924B4B99F80050C2F1080464
:104AE0008A465D5DDDE91071D540474A139E126824
:104AF000127C12F0030225D0012A03D0022A37D0FB
:104B0000032A7DD10069806880471FFA80FBBC4280
:104B100000D93C463F1BBAF1000F65D0E8070AD028
:104B2000DAF808004146039A0368504698473188EE
:104B300081EA0B013180B61C6D0808F10108641E82
:104B4000ECD15BE02F4ABC4200D93C46B7EB0407EE
:104B500005F001006D0831F8200026F8020B641EF4
:104B6000F6D1002F4CD019F8010F0824155CEAE7A4
:104B700088881FFA80FBBC4200D93C463F1BBAF133
:104B8000000F16D08DB1E80708D0DAF808004146CA
:104B9000039A036850469847A6F800B0B61C08F17F
:104BA0000108641E11D06D08ECE706EB4406A04432
:104BB0000BE045B1E80701D0A6F800B0B61C641EB2
:104BC00003D06D08F5E706EB4406002F18D019F85E
:104BD000011F0C480824455CCDE719F8011F09485E
:104BE0000824455C93E70BE0E80703D0308880EAAF
:104BF0000B003080B61C6D08641EF5D1002FECD17F
:104C0000BDE8FF9FE08D0008780000202DE9FF5FE0
:104C10008B460FA9DDF83880B1E82104C0F104010A
:104C2000CCB298F80010400081402F48129F914666
:104C30000068CEB2007C10F0030004D001283AD006
:104C400002284FD114E0AC4200DDECB22D1BB109BB
:104C50003AF8210027F8020BB006060E641E14F085
:104C6000FF04F4D1002D3DD0042418F8016FEAE7C9
:104C7000AC4200DDECB22D1BB0090DD0B109BBF187
:104C8000000F3AF82100388006D0DBF808004946CA
:104C9000039A036858469847B006BF1C060E641E68
:104CA00009F1010914F0FF04E6D1002D1AD0042403
:104CB00018F8016FDCE7AC4200DDECB22D1BB00947
:104CC00003D0388880F0FF003880B006BF1C060E85
:104CD000641E14F0FF04F2D1002D03D0042418F850
:104CE000016FE8E7BDE8FF9F780000202DE9F05F45
:104CF00092460BAA8946B2E842010A9F9B468B0066
:104D00003A78C1F102009A40D5B24D4A0E9CC0B229
:104D10001268127C12F003021AD0012A79D0022AFA
:104D200038D100295FD028090DD02909B9F1000F29
:104D300038F82100208006D0D9F808005A4651469C
:104D4000036848469847A41C0AF1010A761E48E009
:104D500039B12909761E38F8210024F8020B17F81A
:104D6000015F022E10DB701006F001062A0938F8E8
:104D7000221005F00F02218038F822106180241DD6
:104D800017F8015F401EF1D1002E03D0290938F831
:104D900021002080BDE8F09F28090DD02909B9F134
:104DA000000F38F82100208006D0D9F808005A46B4
:104DB000514603684846984715F00F000DD038F863
:104DC00020006080B9F1000F07D0D9F808005A46DA
:104DD0000AF10101036848469847241D0AF1020AB6
:104DE000B61E17F8015F022ED6DA002ED2D028099F
:104DF000D0D038F820002080B9F1000FCAD0D9F8FF
:104E000008005A46514603684846BDE8F05F184717
:104E1000FFE7B04200DDF0B2361AA90903D02188BD
:104E200081F0FF0121802907A41C0D0E401E10F007
:104E3000FF00F2D1002EADD0022017F8015FE8E7A5
:104E4000780000202DE9FF4F8DB0A848DDE91D86D0
:104E50000068DDE91A970C46006EFDF7C1FD06906B
:104E6000406908B1FDF7BCFD0A900698C06808903B
:104E700006A8FDF7C3FDA0190E900A9850B19B49F2
:104E80000968097C890705D10EACCDF800900ECCDD
:104E9000FEF77EF9DDE90E0101F056FA0446102F07
:104EA00003D0182F5CDB002056E000251FE000BF78
:104EB000DDE90EB02844DDF828A0109E02905FEADC
:104EC00008010FD020000DD07200FDF75BFABAF197
:104ED000000F07D0DAF808003346594647685046B5
:104EE000029AB8471C986D1C8044089804444D45AC
:104EF000DEDBF1E00A980390DDE90EB10B985FEA82
:104F0000080508440190DDF840A026461ED0EEB109
:104F1000039830B18068534659464768019A039810
:104F2000B8470D992868096909688847308003984F
:104F300028B180685946019A036803989847B61CBF
:104F40002D1D0BF1010BBAF1010AEAD108981C9949
:104F500004440B988844401C0B904845CADBBBE0D6
:104F6000082F03D01F9800286CD06DE0002065E06A
:104F70001F9800280A9832D0DDE90EA102900BEBB1
:104F8000010000901F9804905848109F4546006803
:104F90002646007C10F0030002D0022848D109E028
:104FA00015F8011B04987F1E30F8210026F8020B2B
:104FB000F6D13DE0287858B1049931F820003080CE
:104FC000029828B180685146009A03680298984771
:104FD000B61C6D1C0AF1010A7F1EEBD128E0DDE949
:104FE0000EA101900BEB010002904048109F464635
:104FF00000682546007C10F0030002D0022817D17B
:1050000005E03A4641462046FDF7BCF910E030780D
:1050100040B12880019828B1806851460368DDE9D5
:1050200001029847AD1C761C0AF1010A7F1EEED1E1
:1050300008981C99044488440BF1010083464845B4
:1050400096DB49E02A481F90002543E03846012FAF
:1050500004D002281CD0042F37D128E02348006850
:10506000006EFDF7BDFC0690CDF80080109A1F99E8
:105070000594CDE90310CDE901620F980A992B1828
:10508000DDE90D02FFF722FD06A8FDF7B7FC1CE0E5
:1050900010991F98CDE90086CDE902100F9804946D
:1050A0002B18DDE90D020A99FFF7B0FD0DE010990C
:1050B0001F98CDE90086CDE902100F9804942B18B3
:1050C000DDE90D020A99FFF711FE1C990898884442
:1050D00004446D1C4D45B9DB0A98002802D00AA88B
:1050E000FDF78CFC11B0BDE8F08F000078000020C7
:1050F000C88A000808B5009200F0ACF808BD0000AE
:105100002DE9FC47DFF8AC8081461E46D8F8000048
:1051100015468A46006EFDF763FC0190406908B1B0
:10512000FDF75EFC00902946504601F00DF904465B
:105130000198C768D8F80000017CC90715D0D9F8D4
:1051400010008068804787B2009820B181682A46A5
:105150000B685146984720886D1C78402080019844
:10516000B542C0680444EFDD19E0C06B01680098E7
:1051700070B11FFA81F800982A4681680B68514681
:105180009847A4F800806D1C3C44B542F3DD06E06E
:10519000701B401C89B221803C44401EFBD101A8F9
:1051A000FDF72CFC0098002802D06846FDF726FC8D
:1051B000BDE8FC87780000200170012070470000E6
:1051C0002DE9F047224C0426A06AE0B1E06806EB26
:1051D000D0014518E800FFF74DFB070036D0216BE2
:1051E00006EBC700B1460E58E0680836C2003046EC
:1051F000D4F82880FDF74DF9A7622663E0684B4696
:1052000001466A1E0EE01248BC30D0E90110083099
:10521000B1FBF0F5AD1CDDE7471C03EBC00C401CF7
:1052200046F80C709042F7D309EBC00000223250D0
:1052300021626068691A0844E56060605FEA0800FE
:1052400001D0FDF751FB0020BDE8F0870120FBE70E
:1052500038C900202DE9FF4FDFF8A0A00C4685B02B
:10526000DAF80000DDF848801F46C16B1546096872
:105270000391006EFDF7B4FB01902946204601F032
:1052800063F806460198391B01F1010BD0F80C9028
:10529000406950B3FDF7A4FBA8EB0501491C009140
:1052A0005B462A4602902146FDF772FF02A8FDF7F1
:1052B000A5FB1AE0DAF80000007CC0070DD00598C5
:1052C0005F46344600698068804780B2218841404B
:1052D00024F8021B7F1EF9D105E003985A4681B2DB
:1052E0003046FEF7A5F94E446D1C4545E2DD01A8A8
:1052F000FDF784FB09B0BDE8F08F000078000020C6
:10530000FEB54F4CD4E90201CDE90001206970B32C
:10531000A089401C00B2ADF800006189ADF8021010
:10532000B4F90410884207DD2088ADF80000E08958
:1053300010F10100ADF80200BDF90200B4F9061049
:10534000884274DC3F4D2868806CFDF749FB029071
:10535000BDF90000B4F90010884220D1E088ADF812
:105360000600A088ADF804002868806C0FE0FFE715
:105370002088ADF800006088DCE700BFFDF756FB31
:105380000646006A0022694600F0D5F8B069002898
:10539000F4D1029800226946C06900F0CCF8BDF84B
:1053A0000000ADF804002868806C0AE0FDF73EFBC1
:1053B0000646006A0022694600F046F80028EED151
:1053C000B0690028F2D1029800226946C06900F055
:1053D0003BF80028E3D1B4F90400BDF90010ADF8A2
:1053E0000400884207DADDE90001C4E9020102A8ED
:1053F000FDF704FB98E72868806C08E0FDF716FBD2
:105400000546006A0022694600F05CF8A869002899
:10541000F4D1029800226946C06900F053F802A84E
:10542000FDF7ECFA206944F62061884201DD002096
:10543000FEBDDDE90001C4E902010120FEBD00005E
:1054400078CA002078000020FEB517460E460546B3
:10545000002433E02846FDF7C3FA0090856A014630
:10546000A80726D527B13A4601A8FEF72CF803E095
:10547000D1E90001CDE9010101A93046FDF7E6FDC2
:10548000B8B1E80702D00098C56910E0BDF808007F
:10549000401C308001240CE001AA31462846FFF769
:1054A000D3FF00B101242846FDF7C0FA056A002D9C
:1054B000F2D10098056A6846FDF7A0FA002DC9D11F
:1054C0002046FEBDFEB516460D46044630E0204699
:1054D000FDF786FA0090846A0146A00723D526B11D
:1054E000324601A8FDF7EFFF03E0D1E90001CDE965
:1054F000010101A92846FDF7A9FDA0B1E00702D0EE
:105500000098C4690DE0BDF80400401EA8800AE0C0
:1055100001AA29462046FFF7D5FF2046FDF786FA67
:10552000046A002CF4D10098046A6846FDF766FA14
:10553000002CCCD1FEBDFEB516460D46044648E013
:105540002046FDF74DFA0090846A0146A0073BD53E
:1055500026B1324601A8FDF7B6FF03E0D1E900010C
:10556000CDE9010101A92846FDF770FD00B3E00770
:1055700002D00098C46925E000983EB1B0F902104D
:10558000B6F90200814203DD084601E0B0F90200ED
:10559000B5F90210814205DABDF90600401E03E0AC
:1055A000E88011E0BDF90A00B5F906108842F7DB82
:1055B0000AE001AA29462046FFF7BDFF2046FDF775
:1055C00035FA046A002CF4D10098046A6846FDF7A5
:1055D00015FA002CB4D1FEBD007870470120704749
:1055E000012901D00020704700487047088B00084F
:1055F000162901D000207047004870479B2F0008F3
:1056000070B500240D46022807DAFDF747FB20B1EC
:10561000C1688A6A294690470446204670BD0068E2
:10562000C268926A104710B5FEF7D2F9B0F5807FD4
:1056300003D0802803D307211AE0082118E040286E
:1056400001D3062114E0202801D3052110E0102801
:1056500001D304210CE0082801D3032108E0042829
:1056600001D3022104E0022801D3012100E000213E
:1056700001208840401E10BD4FF6FF7070470000AB
:105680000146054A0F2000BF02EBC003DB6B8B42D3
:1056900001D9401EF8D5704738C9002010B508461A
:1056A000114600F051FE008810BD38B50C468068E8
:1056B000FDF796F9009081882180C18861808188FA
:1056C00002891144491EA180C18840890844401EB6
:1056D000E0806846FDF792F938BD0000024909688C
:1056E00048840020704700007800002002490968C3
:1056F000888400207047000078000020F0B4124C2D
:10570000646814B1A446F0BC6047541E04FB030453
:1057100001EB82000D4DDFF838C0001F2188E41A2C
:1057200001F01F06521EAF5DC1F3451605EBD121F6
:105730001CF80660097801EB062101EB074140F8EF
:105740000419EBD1F0BC70475C0000203C8D0008D0
:105750005C8D000870B50446FEF73AF90546FEF781
:105760004FF9AC4201D3002070BD0028FCD050F8A6
:10577000240070BD70B5184D0446E868011DC0E9ED
:105780000E01091D00646161417C05F1240050F89F
:105790002100C1680A6B04F1080190470F48E066D8
:1057A000A868E061E8680830606101202076FEF7B3
:1057B000D9FCA064032084F870006FF0704020636F
:1057C00060630020FEF7F6F96FF07F40FEF72AFADB
:1057D0000348286170BD00006C00002000650008CF
:1057E000C48D00082DE9F041244C94F824000028D1
:1057F00041D1012504F1BC0684F8245071684FF4AE
:105800002050814200D90146306800F0F3F9B068B9
:1058100010B970688008B0601A49194808600846D5
:10582000FDF7D8FE5A20E0610020102101FA00F2B5
:1058300004EBC003401CDA631028F7D3D6E900104C
:105840000223C4E902030E18143EC4E90C610022CD
:105850004FF0040C5B1E05E0571C0CEBC20E521CF3
:1058600046F80E709342F7D825626360FEF7C6FFD4
:10587000FFF7A6FCE562BDE8F081000038C9002012
:105880000D59000864000020FEB514460D4606467A
:10589000FDF7CCF80090836A980731D52846FEF7CB
:1058A0006DFF00282CD040F601000340012B27D0CB
:1058B0003046FDF795F802460090294601A8FDF70D
:1058C00002FE01A8FEF75AFFB8B1009944F2200287
:1058D000886A104205D0083101AA0846FDF77BFB13
:1058E0000BE0DDE9012320438862C1E90223054979
:1058F0008888401C8880FDF711FC6846FDF77EF81B
:10590000FEBD0000A4000020704700000B4910B548
:10591000002081F824000146084880223C30FDF731
:1059200061FEBC2200210548FDF75CFE03480C2205
:105930000021BDE81040BC30FDF754BE38C900203E
:10594000084910B500208861014678220648FDF715
:1059500049FE044808220021BDE810402430FDF72C
:1059600041BE00006C00002000CA00200B4A10B5A8
:1059700000215170D162084602F1500402F148033F
:10598000C2F8101044F8201043F82010401C0228E0
:10599000F8D3116251625161D16110BDA4000020A1
:1059A00010B5034C6068FCF7BBFF0020606010BDC1
:1059B0002401002010B50E4C6168E06A814209D8CC
:1059C000401EE062FFF7FCFBE16A491CE16208B19E
:1059D000002010BD60680422401E6060206A216BB8
:1059E00002EBC0028A582262012201F8302010BD69
:1059F00038C90020074910B54A680424521C4A607F
:105A00000A6B04EBC0040B6A1351002302F8303018
:105A1000086210BD38C9002010B504464068FFF781
:105A20002FFE0146084863680268D21A026000EB44
:105A3000C102D4E90201403200B1416009B10860FD
:105A400010BD106010BD000038C900202DE9F05FC6
:105A5000DFF894808346D8F83440D8F80810601EE8
:105A60000F182046D0E90015B9BB6619BE4236D2E0
:105A7000D6E9001989B3D8F8303013F83130012B4A
:105A80002DD1D8F82820914201D1012100E0002138
:105A90008A46FFF7C1FF3068D8F83010042202EBC5
:105AA000C0004A460C5031462046FCF7B0FCBAF123
:105AB000000F05D0D8F83010321B891AC8F8301002
:105AC00004EB09012846FEF799FEBBF1000F05D053
:105AD000834503D80020BDE8F09F00E04D462C44EC
