:020000040800F2
:10000000E8460020CD0100080D0200080F0200089C
:1000100013020008170200081B020008000000007D
:100020000000000000000000000000001F020008A7
:100030002102000800000000230200082502000839
:10004000E7010008E7010008E7010008E7010008F0
:10005000E7010008E7010008E7010008E7010008E0
:10006000E7010008E7010008E7010008E7010008D0
:10007000E7010008E7010008E7010008E7010008C0
:10008000E7010008E7010008E7010008E7010008B0
:10009000E7010008E7010008E7010008270200085F
:1000A000E7010008E7010008E7010008E701000890
:1000B000E7010008E7010008E7010008E701000880
:1000C000E7010008E7010008E7010008E701000870
:1000D000E7010008E7010008E7010008E701000860
:1000E000E7010008E7010008E7010008E701000850
:1000F000E7010008E7010008E7010008E701000840
:10010000E7010008E7010008E7010008E70100082F
:10011000E7010008E7010008E7010008E70100081F
:10012000E7010008E7010008E7010008E70100080F
:1001300000F002F800F03AF80AA090E8000C8244BF
:100140008344AAF10107DA4501D100F02FF8AFF29C
:10015000090EBAE80F0013F0010F18BFFB1A43F0A5
:1001600001031847AC710100CC710100103A24BFA3
:1001700078C878C1FAD8520724BF30C830C144BF0C
:1001800004680C607047000000230024002500264E
:10019000103A28BF78C1FBD8520728BF30C148BFEA
:1001A0000B6070471FB51FBD10B510BD06F0C5F937
:1001B0001146FFF7F7FF00F043F806F063F803B4C9
:1001C000FFF7F2FF03BC06F0B1F9000009488047D1
:1001D00009480047FEE7FEE7FEE7FEE7FEE7FEE729
:1001E000FEE7FEE7FEE7FEE704480549054A064B41
:1001F000704700007710000831010008E840002037
:10020000E8460020E8420020E8420020704700BF96
:10021000FEE700BFFEE700BFFEE700BFFEE7704756
:10022000704770477047704710B500F024FF0121F8
:10023000602000F04DFE0121084600F049FE10BD8F
:10024000FFF7F2FF00F098FF02F040FDFF2001F001
:1002500019FF02F02EFD022001F07AFF074801F09D
:100260005DFF0A22114606A001F018FD002211468A
:10027000054801F073FD00BFFEE70000988C000800
:100280004142434400000000FC72010830B943F2CF
:10029000DB028100A1F1C0410A6005E043F2D20215
:1002A0008100A1F1C0410A606FF07042411C8900D9
:1002B000A1F1C0410A608100A1F1C041C1F804214F
:1002C000704710280AD118214FF0204211664021B2
:1002D00051664FF0FC319166D16610E01821F74A63
:1002E000116040214FF02042C2F884104FF0FC31E1
:1002F000F24A083211604FF02042C2F88C10704769
:100300001820EE492031086000200906C1F8A40039
:100310004FF0FC30E94928310860091D0860091DCB
:1003200008607047D0E901121143C26811430269A5
:1003300011434269114382691143C2691143026A40
:100340001143426A1143826A1143C26A1143026B2C
:10035000114302689200A2F1C0421160816808292D
:100360000BD101688900A1F1C041096841F0400248
:1003700001688900A1F1C0410A60416B0968426BC4
:10038000526841EA0211426B926841EA0221426BD3
:10039000928941EA0241426B128A41EA0251426B60
:1003A000127D41EA0261426B926911430268521C5C
:1003B0009200A2F1C0421160C16AB1F5804F1BD119
:1003C000816B0968826B526841EA0211826B926804
:1003D00041EA0221826B128A41EA0251826B127D4C
:1003E00041EA0261826B9269114302689200A2F1B4
:1003F000C042C2F8041107E06FF070420168890042
:10040000A1F1C041C1F80421704730B5002100229C
:100410000023446844F0080485682C43C5682C43D5
:1004200005692C43456944EA4524856944EA453118
:10043000C4692468C5696D6844EA0524C5692D89C5
:1004400044EA0544C5692D7B44EA0562046A2468D0
:10045000056A6D6844EA0524056A2D8944EA054465
:10046000056A2D7B44EA05630468102C05D14FF022
:1004700020442166A266E36608E0904C21604FF0BC
:100480002044C4F888208D4C0C34236030BD0168B2
:1004900041F01001426841EA4221826841EA42315A
:1004A000864A20321160C1680968C268526841EA10
:1004B0000221C268128941EA0241C268127B41EA04
:1004C00002617E4A28321160016909680269526836
:1004D00041EA02210269128941EA02410269127B62
:1004E00041EA0261754A2C3211604169096842692A
:1004F000526841EA02214269128941EA0241426995
:10050000127B41EA02614FF02042C2F8B0107047FE
:10051000002101600221416000218160C160016110
:1005200041618161C16101624FF4805141624900C2
:1005300081620021C16201630F21426B1160426B35
:100540005160FF21426B91600F21426BD160426B81
:100550001161426B51610021426B91610F21826BED
:100560001160826B5160FF21826B91600F21826B61
:10057000D160826B1161826B51610021826B91614C
:10058000704710210160002141608160C1600161FC
:1005900041618161FC21C2691160C2695160C26917
:1005A0009160C269D160026A1160026A5160026A98
:1005B0009160026AD16070470021016041608160F2
:1005C000FC21C2681160C2685160C2689160C26853
:1005D000D16002691160026951600269916002692B
:1005E000D16042691160426951604269916042691B
:1005F000D160704751B18200A2F1C042126842F04E
:1006000001038200A2F1C042136009E08200A2F15E
:10061000C04212682A4B1A408300A3F1C0431A60FB
:10062000704799B1102808D14FF02042126E42F065
:1006300004024FF020431A661DE0204A126842F07F
:1006400004024FF02043C3F8802014E0102809D1A1
:100650004FF02042126E1A4BDB1E1A404FF020431F
:100660001A6608E0154A1268154BDB1E1A404FF057
:100670002043C3F88020704748B1104920310968F1
:1006800041F004014FF02042C2F8A01009E00B49EC
:10069000203109680A4AD21E11404FF02042C2F8A8
:1006A000A0107047B9B110280CD14FF02042126E43
:1006B00042F040024FF020431A661FE0800000A085
:1006C000FEFF0F00724A126842F040024FF02043D2
:1006D000C3F8802012E0102808D14FF02042126E9B
:1006E0006C4B1A404FF020431A6607E0684A1268C4
:1006F000684B1A404FF02043C3F8802070470146F2
:100700000020102903D14FF02042506F02E0604AD0
:1007100014321068704710B5F2B1102807D14FF0AD
:1007200020435B6E0B434FF02044636632E0B0F52C
:10073000807F08D1564B1B1D1B680B434FF0204494
:10074000C4F8843026E0524B24331B680B434FF02F
:100750002044C4F8A4301DE0102807D14FF02043F6
:100760005B6E8B434FF02044636613E0B0F5807FEF
:1007700008D1474B1B1D1B688B434FF02044C4F826
:10078000843007E0424B24331B688B434FF02044F6
:10079000C4F8A43010BD10B5024600200023102A72
:1007A00003D14FF02044636E09E0B2F5807F03D19E
:1007B000374C241D236802E0354C2434236803EAB7
:1007C00001040CB1012000E0002010BD102807D169
:1007D0004FF02042526E8A434FF020435A6613E096
:1007E000B0F5807F08D12A4A121D12688A434FF063
:1007F0002043C3F8842007E0254A243212688A4344
:100800004FF02043C3F8A420704770B50246002083
:10081000002300240025102A03D14FF02046736ED8
:1008200009E0B2F5807F03D1194E361D336802E02E
:10083000174E2436336803EA010403EAD10514B1E4
:100840000DB1012000E0002070BD102808D14FF04C
:100850002042526E22EAD1024FF020435A6615E040
:10086000B0F5807F09D10A4A121D126822EAD1022E
:100870004FF02043C3F8842008E0054A2432126870
:1008800022EAD1024FF02043C3F8A42070470000B1
:10089000800000A0BFFF0F0010B50446CC48844282
:1008A00008D10121042000F02DFB0021042000F0DC
:1008B00029FB46E0C748844208D10121082000F006
:1008C00021FB0021082000F01DFB3AE0C2488442D1
:1008D00008D10121102000F015FB0021102000F0AC
:1008E00011FB2EE0BD48844208D10121202000F0F8
:1008F00009FB0021202000F005FB22E0B8488442DB
:1009000008D10121402000F0FDFA0021402000F034
:10091000F9FA16E0B348844208D10121802000F0A2
:10092000F1FA0021802000F0EDFA0AE0AE4884429E
:1009300007D10121801500F0E5FA0021A01500F093
:10094000E1FA10BD10B50121084600F0DBFA0021E4
:10095000012000F0D7FA10BD2DE9F0410246002534
:100960000026002000230024002791F803C00CF08B
:100970000F0591F803C00CF0100CBCF1000F03D070
:1009800091F802C04CEA050591F800C0BCF1000FD7
:1009900031D0146800202BE04FF0010C0CFA00F36A
:1009A000B1F800C00CEA03069E4220D183004FF04C
:1009B0000F0C0CFA03F7BC4305FA03FC4CEA0404E1
:1009C00091F803C0BCF1280F06D14FF0010C0CFACE
:1009D00000FCC2F814C00AE091F803C0BCF1480F53
:1009E00005D14FF0010C0CFA00FCC2F810C0401CFD
:1009F0000828D1D31460B1F800C0BCF1FF0F34DD7A
:100A0000546800202EE000F1080C4FF0010808FAAD
:100A10000CF3B1F800C00CEA03069E4221D183001A
:100A20004FF00F0C0CFA03F7BC4305FA03FC4CEA39
:100A3000040491F803C0BCF1280F05D100F1080CA3
:100A400008FA0CF8C2F8148091F803C0BCF1480F02
:100A500007D100F1080C4FF0010808FA0CF8C2F8B1
:100A60001080401C0828CED35460BDE8F0814FF6BA
:100A7000FF710180022181700421C170704702461C
:100A8000002093680B400BB1012000E0002070476C
:100A90000146886880B2704702460020D3680B4048
:100AA0000BB1012000E0002070470146C86880B209
:100AB000704701617047416170470AB1016100E010
:100AC00041617047C16070474FF480320A438261D0
:100AD0008161826182698269704702460020434BCE
:100AE00018684FF68073184040EA021008433F4BE5
:100AF000186070473E49C8617047F0B50A46002348
:100B000000240021002500F00046B6F1004F02D17C
:100B1000364EF16901E0354E7168C0F3034583B28A
:100B200000F44016B6F5401F08D121F070612F4E39
:100B3000766826F070662D4F7E6012E000F4801615
:100B4000B6F5801F06D1032606FA05F4A14341F04D
:100B5000706106E0460D360103FA06F6B14341F036
:100B6000706122B1460D360103FA06F6314300F0FA
:100B70000046B6F1004F02D11C4EF16101E01B4E60
:100B80007160F0BD30B500228B071C0F0F2303FAF4
:100B900004F2164B08338C1053F824309343134C53
:100BA00008348D1044F8253023468C1053F8243037
:100BB0008C07240F00FA04F423430C4C08348D10E6
:100BC00044F8253030BD0A49DC3108607047000028
:100BD00000080140000C01400010014000140140D9
:100BE00000180140001C01400020014000000140AD
:100BF00000002042DF48006840F00100DD49086045
:100C000008464068DC490840DA4948600846006800
:100C1000DA490840D74908600846006820F4802077
:100C200008600846406820F4FE0048604FF41F004A
:100C300088607047CF49096821F48031CD4A11603E
:100C40001146096821F480211160B0F5803F03D07E
:100C5000B0F5802F0ED106E0C649096841F4803115
:100C6000C44A116007E0C349096841F4A021C14AA0
:100C7000116000E000BF00BF704710B501460022C0
:100C8000002300204A11012A02D1BA4C236806E051
:100C9000022A02D1B74C236A01E0B64C636A01F024
:100CA0001F02012494401C400CB1012000E00020F0
:100CB00010BD38B5002000900024002500BF312071
:100CC000FFF7DBFF05460098401C00900098B0F548
:100CD000A06F01D0002DF2D03120FFF7CEFF08B178
:100CE000012400E00024204638BD01460020A14A2E
:100CF000106820F0F80040EAC10010607047A04979
:100D000008607047024600209A4B586820F47C1017
:100D100042EA01031843974B5860704798490866A8
:100D2000704701460020934A506820F003000843B2
:100D3000506070478F48406800F00C0070470146D3
:100D400000208C4A506820F0F00008435060704743
:100D500001460020874A506820F4E0600843506054
:100D6000704701460020834A506820F4605040EAF2
:100D7000C1005060704729B17E4A527A02437D4BD0
:100D80005A7204E07B4A527A82437A4B5A72704715
:100D90007B49D8310860704701460020754A506889
:100DA00020F440400843506070470021714A2032CF
:100DB0001170704A82F82010012802D004280AD14C
:100DC00004E001216B4A2032117005E00521694AD7
:100DD0002032117000E000BF00BF70476949086011
:100DE00070476449096A0143624A11627047654964
:100DF00044390860704730B50021002200240023E8
:100E00005C4D6D6805F00C0121B1042905D008295D
:100E100023D105E05C4D056022E05B4D05601FE0DD
:100E2000544D6D6805F47012524D6D6805F48034B0
:100E3000022505EB92421CB9544D554305600BE069
:100E40004C4D6D6805F400351DB1504D554305609E
:100E500002E04D4D5543056002E04B4D056000BF7B
:100E600000BF444D6D6805F0F0010909484D6B5C09
:100E70000568DD4045603F4D6D6805F4E061090A95
:100E8000434D6B5C4568DD4085603A4D6D6805F407
:100E90006051C90A3E4D6B5C4568DD40C560354D0B
:100EA0006D6805F44041890B3A4D6B5CC568B5FB34
:100EB000F3F5056130BD29B12E4A526902432D4B2D
:100EC0005A6104E02B4A526982432A4B5A617047A7
:100ED00029B1284A92690243264B9A6104E0254AC7
:100EE00092698243234B9A61704729B1214AD269A2
:100EF0000243204BDA6104E01E4AD26982431D4B53
:100F0000DA61704729B11B4AD2680243194BDA6093
:100F100004E0184AD2688243164BDA60704729B160
:100F2000144A12690243134B1A6104E0114A126910
:100F30008243104B1A61704712494039086070476C
:100F40000F49C86470470B49C87170470948406A27
:100F500040F0807007494862704701460020054A0A
:100F600092680A400AB1012000E000207047014960
:100F700088727047001002400000FFF8FFFFF6FE85
:100F8000000042428004424200127A0000093D0003
:100F900000000020100000200CB5002001900090FF
:100FA0006C48006840F480306A49086000BF6948B6
:100FB000006800F4003000900198401C01900098F7
:100FC00018B90198B0F5A06FF1D16248006800F43B
:100FD000003010B10120009001E000200090009846
:100FE000012843D15C48006840F010005A4908606D
:100FF0000846006820F0030008600846006840F0DA
:1010000002000860534840685249486008464068FA
:1010100048600846406840F4806048600846406880
:1010200020F47C1048600846406840F4E8104860AE
:101030000846006840F08070086000BF45480068BE
:1010400000F000700028F9D04248406820F003000A
:10105000404948600846406840F00200486000BFD0
:101060003C48406800F00C000828F9D10CBD10B5D0
:10107000FFF792FF10BD10B53648006840F0010040
:10108000344908600846406834490840314948609E
:1010900008460068324908402E4908600846006842
:1010A00020F4802008600846406820F4FE00486074
:1010B0004FF41F008860FFF7DAFF4FF00060294906
:1010C000086010BD10B5002100200022214B5B6894
:1010D00003F00C0121B1042906D0082928D107E02A
:1010E000214B224C236027E01F4B204C236023E040
:1010F000184B5B6803F47010164B5B6803F4803286
:10110000022303EB904022B9194B4343174C236051
:101110000DE0104B5B6803F4003323B1144B4343E1
:10112000124C236003E0104B4343104C236003E058
:101130000D4B0E4C236000BF00BF064B5B68C3F332
:1011400003130C4CE15C094B1B68CB40074C23603C
:1011500010BD000000100240002002400000FFF817
:10116000FFFFF6FE08ED00E000127A0014000020F8
:1011700000093D001800002000B597B001210802C9
:10118000FFF799FE4FF40050ADF8000010208DF8E5
:10119000030003208DF8020069463248FFF7DCFBAC
:1011A0004FF400512F48FFF784FC0220ADF80000F7
:1011B00010208DF8030003208DF8020069462A48AC
:1011C000FFF7CAFB4CF23370ADF8000003208DF836
:1011D000020018208DF8030069462248FFF7BCFB87
:1011E0004FF68070ADF8000069461F48FFF7B4FB6A
:1011F0008020ADF8000069461A48FFF7ADFB4FF4B8
:101200000060ADF8000069461648FFF7A5FB002016
:101210000190029001200390002004900590069018
:101220004FF08050079000200890099008200A9005
:1012300010200B9000200C900E900F9010904FF407
:1012400080501190002012901390149001A81590D6
:10125000169008A8FFF766F801210020FFF7CAF9E9
:1012600017B000BD001401400018014001B502E0B4
:101270000098401E009000980028F9D108BD4FF05A
:10128000C041088070474FF0C0421080FE4A118074
:1012900070470020FC4908887047FB490880704768
:1012A000F9490880704710B50221F848FFF703FCA0
:1012B000F748FFF7DBFF0221F448FFF7FAFBF44899
:1012C000FFF7D4FFE220FFF7DAFF2320FFF7E5FF67
:1012D0000220FFF7E2FF0420FFF7DFFFE020FFF727
:1012E000CEFF0120FFF7D9FF4AF6FF70FFF7BEFFE0
:1012F000E020FFF7C4FF0320FFF7CFFF4AF6FF709F
:10130000FFF7B4FF0120FFF7BAFF4AF6FF70FFF7BF
:10131000ADFFE620FFF7B3FF0420FFF7BEFF9320E9
:10132000FFF7BBFFE020FFF7B8FFB020FFF7A7FFF4
:101330000020FFF7B2FF0020FFF7AFFFD54800887D
:10134000C0F30720FFF7A9FFD2490878FFF7A5FFF0
:10135000D1480088C0F30720FFF79FFFCE490878E7
:10136000FFF79BFF0020FFF798FFB420FFF787FFF0
:10137000CA480088C0F30720FFF78FFFC7490878E5
:10138000FFF78BFFC6480088C0F30720FFF785FFF3
:10139000C3490878FFF781FFC2480078FFF77DFF57
:1013A000C1480088C0F30720FFF777FFBE490878DF
:1013B000FFF773FF0020FFF770FFB620FFF75FFF16
:1013C000BA480088C0F30720FFF767FFB7490878DD
:1013D000FFF763FFB6480088C0F30720FFF75DFF03
:1013E000B3490878FFF759FFB2480078FFF755FF77
:1013F000B1480088C0F30720FFF74FFFAE490878D7
:10140000FFF74BFFBA20FFF73AFF0D20FFF745FF2C
:10141000B820FFF734FF0720FFF73FFF0120FFF759
:101420003CFF3620FFF72BFF0020FFF736FFF020B0
:10143000FFF725FF0320FFF730FF4AF6FF70FFF7A5
:1014400015FF2920FFF71BFFBE20FFF718FF06201E
:10145000FFF723FFFF20FFF720FF0120FFF71DFF0D
:10146000F020FFF71AFF0020FFF717FF0020FFF71B
:1014700014FFD020FFF703FF0D20FFF70EFF10BD74
:1014800070B505460C462A20FFF7F9FE2812FFF733
:1014900004FF2846FFF701FF511EC1F30F20FFF79D
:1014A000FCFE511E88B2FFF7F8FE2B20FFF7E7FE87
:1014B0002012FFF7F2FE2046FFF7EFFE591EC1F3A0
:1014C0000F20FFF7EAFE591E88B2FFF7E6FE2C2038
:1014D000FFF7D5FE501B191B00FB01F603E04FF68A
:1014E000FF70FFF7DAFE3000A6F10106F7D170BDFC
:1014F00010B504460B462A20FFF7C1FE2012FFF765
:10150000CCFE2046FFF7C9FE2012FFF7C6FE20469C
:10151000FFF7C3FE2B20FFF7B2FE1812FFF7BDFE48
:101520001846FFF7BAFE1812FFF7B7FE1846FFF786
:10153000B4FE2C20FFF7A3FE1046FFF7AEFE10BD51
:1015400000B503460A462A20FFF799FE1812FFF756
:10155000A4FE1846FFF7A1FE1812FFF79EFE1846DC
:10156000FFF79BFE2B20FFF78AFE1012FFF795FE78
:101570001046FFF792FE1012FFF78FFE1046FFF79E
:101580008CFE2E20FFF77BFEFFF783FE00BDF0B53B
:1015900005460C462A20FFF772FE2812FFF77DFE53
:1015A0002846FFF77AFE1012FFF777FE1046FFF786
:1015B00074FE2B20FFF763FE2012FFF76EFE20461D
:1015C000FFF76BFE2012FFF768FE2046FFF765FE6F
:1015D0002C20FFF754FE501B471C002603E0184642
:1015E000FFF75BFE761CBE42F9D9F0BDF0B50546AB
:1015F0000C462A20FFF743FE2812FFF74EFE28462E
:10160000FFF74BFE2812FFF748FE2846FFF745FE7E
:101610002B20FFF734FE2012FFF73FFE2046FFF796
:101620003CFE1012FFF739FE1046FFF736FE2C2065
:10163000FFF725FE101B471C002603E01846FFF7A6
:101640002CFE761CBE42F9D9F0BD2DE9F0410546CD
:101650000C46069F2A20FFF712FE2812FFF71DFEF8
:101660002846FFF71AFE1012FFF717FE1046FFF785
:1016700014FE2B20FFF703FE2012FFF70EFE20467C
:10168000FFF70BFE181219E000000260001801407D
:10169000FFFF0A00280000203C0000202C00002052
:1016A00030000020340000203800002040000020DE
:1016B00044000020480000204C000020FFF7EDFD12
:1016C0001846FFF7EAFD2C20FFF7D9FD501B401C00
:1016D000191B491C00FB01F8002603E03846FFF700
:1016E000DCFD761C4645F9D9BDE8F0812DE9F041D5
:1016F00004460D46069F2A20FFF7C1FD2012FFF782
:10170000CCFDE0B2FFF7C9FDA118491EC1F30F20BF
:10171000FFF7C3FDA118491EC8B2FFF7BEFD2B207D
:10172000FFF7ADFD2812FFF7B8FDE8B2FFF7B5FDF2
:10173000E918491EC1F30F20FFF7AFFDE918491E54
:10174000C8B2FFF7AAFD2C20FFF799FD02FB03F0BA
:101750004FEA4008002603E0B85DFFF7A1FD761CC4
:101760004645F9D3BDE8F08110B50146C1F3C40286
:10177000C1F38523C1F3C44404EB431000EBC22042
:1017800010BD4FF6FF7070472DE9F04F8BB0064645
:10179000894615461F46002007901598159001F0C0
:1017A000E8FC0A900A980990DDF850A0DDE91601DE
:1017B000084308904FEA4508089801281AD10020EC
:1017C00006908048B0F84C0040B17E49B1F94C0019
:1017D00000F0AFFE0446206A069004E07949487C98
:1017E00001F02AFD069018990698884201D101203F
:1017F000079000BF079880B1002110221498CDE90E
:101800000228CDE90401012000903B462A464946C2
:101810000190304601F03AFBD2E0089801287BD1D4
:1018200009EB0700401E05907019401E06906548A0
:10183000B0F90A0048450DDD6248B0F90A00A0EB96
:1018400009046048B0F90A9004FB08F040080AEB6C
:10185000400A3F1B5B48B0F90E100598441A002C53
:1018600000DD3F1B002F02DC0BB0BDE8F08F5548B8
:10187000B0F90C100698441A002C00DD2D1B5148BD
:10188000B0F90800B04207DD4E48B0F90800841BEB
:101890002D1B0AEB440A2644002D00DCE4E74FF040
:1018A000000B35E0CDF80CA00020049025E0039853
:1018B000008802900398801C03900999029888423E
:1018C00007D0189902988847019001F03EFC0298D1
:1018D0000990DFF8F0C0BCF802200BEB0901DDF83D
:1018E00010C00CEB0600DFF8DCC0DCF848C0DCF808
:1018F000243098470498401C04900498A842D6DBF2
:10190000404608EBD07149100AEB410A0BF1010B7C
:10191000BB45C7DB51E0FFE74C460020059048E09F
:1019200017982044401E04902648B0F90A100498E5
:10193000814230DC2348B0F90E00A0422BDBCDF809
:1019400008A006960020039021E0029800880190EC
:101950000298801C029009990198884207D0189932
:1019600001988847009001F0F0FB019809901699C2
:1019700006980844421E2146049B069801F04EFA40
:101980000398401C03901699069808440690039803
:10199000A842DADB00BF404608EBD07149100AEBE1
:1019A000410A0598401C0590179804441498404437
:1019B00014900598B842B3DB00BF0A9800F078FB9A
:1019C00000BF51E7043E0020B0F90020B1F900301B
:1019D0009A4201DA0A880280B0F90220B1F9023095
:1019E0009A4201DA4A884280B0F90420B1F9043001
:1019F0009A4201DD8A888280B0F90620B1F906306A
:101A00009A4201DDCA88C280704710B50346B1F919
:101A10000000B2F90040A04202DDB1F9000001E08F
:101A2000B2F900001880B1F90200B2F90240A042F8
:101A300002DDB1F9020001E0B2F902005880B1F90B
:101A40000400B2F90440A04202DDB2F9040001E052
:101A5000B1F904009880B1F90600B2F90640A0423D
:101A600002DDB2F9060001E0B1F90600D880B3F951
:101A70000400B3F90040A04201DA002010BDB3F920
:101A80000600B3F90240A04201DA0020F6E7012087
:101A9000F4E770B503460D4602E003F8015B521E01
:101AA0001AB103F003000028F7D19108A9B102F0A0
:101AB000030205EB054606EB0624184604E010C0B9
:101AC00010C010C010C0091F0429F8DA01E010C0CE
:101AD000491E0029FBD1034600BF02E003F8015B69
:101AE000521E002AFAD170BD70B503460C46154649
:101AF00003F0020010B123F8024B6D1E6908A9B172
:101B000004EB04421846042909DB00BF026042606E
:101B10008260C26010300E1F3146042EF6DA01E0FA
:101B200004C0491E0029FBD1034600BF05F0010097
:101B300000B11C8070BD70B50446204600F0EEFC7C
:101B400005463DB1284600F0F4FC06462246002139
:101B5000FFF79FFF284670BD2DE9FC4704460CB9EE
:101B6000BDE8FC8700F04EFD07464B48B0F92280E7
:101B700000F06FFD06464848808C801B00B2464945
:101B8000888477E047F6FF71204600F0C3FD824667
:101B90005146204600F0DEFD05463F4890F82C00F7
:101BA00000F00300012807D0022807D1284605EBE2
:101BB000D0714FEA610904E0A94602E04FF0000944
:101BC00000BF00BF3448408CA0EB090000B232498E
:101BD0004884ADF80000BDF800002844401E00B263
:101BE000ADF804000846808CADF80200BDF8020094
:101BF0003844401E00B2ADF806006A465146204601
:101C000000F0C8FDBDF802002349888451462046F3
:101C100000F0BBFA044420780A2802D020780D286E
:101C20001ED11D4890F82C0000F00300012802D0BE
:101C3000022805D100BF0FFA88F01749488404E054
:101C40001548008C1449488400BF00BF20780A283A
:101C50000CD11148808C384400B20F49888405E0CB
:101C6000BDF80000284400B20B494884207800B930
:101C700003E0641C2078002884D100BF0648808CD3
:101C8000304400B2044988840846B0F92C0020F0A2
:101C90000300888500BF63E7043E002070B5064658
:101CA0000C46154620B20449488428B28884304640
:101CB000FFF752FF70BD0000043E00202DE9F04305
:101CC00087B004460E461746D4F80C80002000F07A
:101CD0001DFA0546B8F1000F05D098F8041011B1AF
:101CE00045F0020101E025F00201084600F00EFA7D
:101CF000206970B10122D4E902018DE80700039246
:101D00006388228820693946D0F800C03046E04711
:101D10001EE0E06801F00DFB8146B9F1000F06D12D
:101D2000E088012801D0002000E022488146A188F7
:101D3000E288A068CDE90409CDE9022101200090E4
:101D40000190638822883946304601F09FF800BF31
:101D5000284600F0DBF907B0BDE8F0837CB5044607
:101D60000D4616461348006C05441248406C064464
:101D700028B2ADF8000021880844401E00B2ADF83A
:101D8000040030B2ADF8020061880844401E00B281
:101D9000ADF80600684603F067FE48B100BF324662
:101DA00029462046FFF78AFF03F03AFE0028F6D1C5
:101DB0007CBD0000043E00202DE9F04F85B00446B4
:101DC0000D4616461F46DDE910ABDDE90E891348C6
:101DD00040683B46324629468DE8000F0490204675
:101DE000FFF7D2FC05B0BDE8F08F2DE9F04F85B0CC
:101DF00004460D4616461F46DDE910ABDDE90E89A7
:101E0000074840683B46324629468DE8000F04905B
:101E10002046FFF7B9FC05B0BDE8F08F84650008E7
:101E20008C65000810B501F0A1F90446204610BDEC
:101E300070B501F09BF9054601F070F904462046A3
:101E400070BD10B501F095F90446204610BD70B57F
:101E500001F08FF9054601F061F90446204670BD96
:101E6000014608B2134A908400207047014608B228
:101E7000104A50840020704770B504462046FFF792
:101E8000EFFF0546284670BD70B504462046FFF7B3
:101E9000EDFF0546284670BD70B506460C46304637
:101EA000FFF7E4FF05462046FFF7DAFF0543284623
:101EB00070BD0000043E002010B570B371B36AB36A
:101EC000B1F90030B2F90040A34202DDB2F90030AE
:101ED00001E0B1F900300380B1F90230B2F90240FB
:101EE000A34202DDB2F9023001E0B1F902304380D1
:101EF000B1F90430B2F90440A34202DDB1F9043073
:101F000001E0B2F904308380B1F90630B2F906403D
:101F1000A34204DDB1F9063003E00CE003E0B2F9BE
:101F20000630C38010BD09B10B4600E013461C68A3
:101F300004605B68436000BFF4E778B103880B443A
:101F40001BB2038083880B441BB2838043881344F5
:101F50001BB24380C38813441BB2C3807047000088
:101F60002049086800211F4A116070471D4909680F
:101F700009B91C490860704700B500BFFFF7F0FFC2
:101F80000028FBD100BD184A106051600122174B98
:101F90001A60704770B500241448006898B113485F
:101FA0000068401E114908600F48056841682846CE
:101FB00004F03CF90C484068012802D12846FFF79C
:101FC000D5FF012400BF204670BD70B504460D4604
:101FD0002946204604F02AF918B929462046FFF779
:101FE000D2FF70BD5C000020540000205000002093
:101FF0000749087E70470649487E70470146044AF3
:10200000107E117670470146014A507E5176704726
:10201000043E00200246B2F90200B1F906309842AF
:1020200013DCB1F90200B2F9063098420DDCB2F9C6
:102030000000B1F90430984207DCB1F90000B2F9B0
:102040000430984201DC012070470020FCE70000CA
:1020500010B5044660220649204604F0A0F910BDE0
:1020600010B5044660222146014804F098F910BDDD
:10207000043E002010B501F007F901F027F903F044
:10208000A0FF10BD10B50446204601F04FF810BD6A
:1020900010B50446204601F058F810BD10B50446AE
:1020A0006FF0704007494863204600F03EFE10BDC7
:1020B00010B504466FF0704002490863204600F0F6
:1020C0002BFE10BD043E002010B50020FFF7DAFF04
:1020D0006FF07F40FFF7DCFF0120FFF78FFF00204C
:1020E00000F02CF8002000F033F8002000F00EF88B
:1020F000054800F013F8002000F018F810BD10B5E6
:10210000FFF7E2FF10BD0000D46D000870B5044673
:10211000204600F013FE0546284670BD0146024ADF
:10212000D06901B1D1617047043E00200146024AE6
:10213000907E917670470000043E00200146034ADD
:10214000B2F92C000AB2014B9A857047043E002078
:102150000146034AB2F92A000AB2014B5A85704778
:10216000043E002001460120704701460878704770
:10217000024611700846704701460120704701462B
:102180000A681078521C0A60704730B502460B4648
:10219000002002E001210A4408441C00A3F10103CD
:1021A000F8D130BD30B504460020002302E0012202
:1021B0001344401C9942FADC30BD00000146C81CA3
:1021C00020F0030000B270470146F84800EBC10060
:1021D000B0F90200704730B5F44901EBC0014988FD
:1021E00001B930BDF14901EBC001B1F90220F0495C
:1021F000C989114409B2EE4BD98119468989891AD6
:1022000009B299810021E94B03EBC0035980E949E8
:102210000968814201DDE7490860E44C04EBC00431
:10222000A188E24C04EBC004E388E04C04EBC30457
:10223000A18019B1DD4D05EBC105EB80DC49496892
:10224000491CDB4B596019460968491E196000BFDB
:10225000C7E7D848016809E0D44800EBC1004088CE
:1022600018B9D448016008B27047491CB1F5C47F61
:10227000F2DB0020F8E730B50246002111E0CB4840
:1022800030F83100C94D05EBC1056D882844C74DB4
:1022900035F83350281A04B2944201DB08B230BD3D
:1022A0001946C24800EBC1008388002BE7D1BF4824
:1022B00030F93100BD4C04EBC104B4F902402044B4
:1022C00043F2D404201A904201DB08B2E7E74FF052
:1022D000FF30E4E72DE9F04706464FF0FF390024D0
:1022E00038E0B24830F83400B04901EBC401498805
:1022F0000844AE4931F83510081A0FFA80FAB24591
:1023000027DAAA4830F83400A84901EBC40149880B
:102310000844A64931F83510081A07B2C7B1A348D6
:1023200030F93500A44900EB0108A04901EBC501D3
:10233000B1F90220A8EB0700414603F0EEFF9B48ED
:1023400030F83500C01B00B2984921F8350000BFB5
:1023500000BF2C46954800EBC4008588002DC0D1F5
:10236000924830F93400914901EBC401B1F90210EF
:10237000084443F2D401081AB04200DBA1460FFA28
:1023800089F0BDE8F08740F287108949486088608D
:1023900043F2D400C88108820020086088810420AC
:1023A0008249488000200880888001208349087085
:1023B000704700B58148007808B9FFF7E4FF00BD19
:1023C0002DE9F0410027FFF7F4FF002510E07748E2
:1023D00030F83500754901EBC50149880844734957
:1023E00031F83610081A04B2BC4200DD27463546E3
:1023F0006E4800EBC5008688002EE8D16B4830F8A7
:1024000035006A4901EBC5014988084443F2D4010B
:10241000081A04B2BC4200DD27463846BDE8F08108
:1024200010B56748006810B1FFF7CAFF10BD6048DB
:10243000B0F90E00FAE770B50646FFF7BAFF30466E
:10244000FFF7BCFE0646FFF7EBFFB04201DA0020C3
:1024500070BDFFF7FEFE050000D1F9E73046FFF73B
:102460000AFF0446601C30B95548006818B9304668
:10247000FFF730FF0446601C08B90020E8E74B4A2C
:1024800032F83420494B03EBC4035B881A4411B281
:10249000464A02EBC4029088444A02EBC5025680C9
:1024A000424A22F8351002EBC5029080002803DD75
:1024B0003E4B03EBC003DD803C4B03EBC503DC80EC
:1024C0003A4B03EBC4039D8039480068401C3849EF
:1024D000086008464068401E4860084680684968B1
:1024E000884203DD3248406831498860304880893D
:1024F000304400B22E4988810846C089801B00B252
:10250000C8810846B0F91000B1F90E10884203DD09
:102510002748C08926490882284699E770B50446AD
:102520000CB9002070BD2046FFF785FF0546284600
:10253000F8E7014609B9002070471C4830F931001E
:102540001D4A1044F8E710B5FFF733FF1848B0F9FB
:102550000E0010BD10B5FFF72CFF1548808800B2A3
:1025600010BD10B5FFF725FF1148B0F90C0010BDE4
:1025700010B5FFF71EFF0E48008800B210BD1048CE
:102580000068401C0E49086070470D480068401EF6
:102590000B490860704770B5044600251CB1204601
:1025A000FFF712FE0546284670BD0000B03100203E
:1025B000F03D00206C000020DC00002064000020C2
:1025C0006800002010B5044604B910BD2046FFF78E
:1025D00002FE00BFF9E710B50446B4F90000FFF7AA
:1025E000F1FF0020208010BD70B505460E46002486
:1025F00004E005EB4400FFF7EEFF641CB442F8DB97
:1026000070BD00002949C969487D704700B5FFF7D2
:10261000F9FF2649898C084400B224498884084679
:10262000008C488400BD10B504460A2C02D1FFF787
:10263000EDFF0DE00D2C0BD01C48C0690168204651
:1026400088471B48006818B120461949096888471F
:1026500010BD0020154991F82C1001F00C0104293F
:1026600004D008290ED00C2913D104E00F49C96900
:10267000097D481E0DE00D4AD269117D01EBD17232
:10268000501006E0094AD269117D01EBD172501059
:1026900000BF00BF704770B504460448C069416878
:1026A000204688470546284670BD0000043E0020AD
:1026B0007C000020F7B50C4615466948406930B1EA
:1026C000674948692946FFF7A5FC00B9FEBD644883
:1026D000C069006938B16248C069006921468268F2
:1026E0000098904714E00FE06846FFF748FD064663
:1026F0005B48C0690168304688475A48006818B18D
:102700003046584909688847601E041EECDA00BF4D
:1027100000BFDBE773B50D4600240098C0B15048F8
:10272000C069006938B14E48C069006929464268ED
:10273000009890477CBD08E06846FFF720FD0646FC
:102740000EB10A2E00D102E0641CAC42F4DB00BFE3
:102750002046EFE773B50C4600250098C0B140480D
:10276000C069006938B13E48C06900692146026805
:10277000009890477CBD07E06846FFF700FD0646DD
:102780003046FFF788FF0544601E041EF4DA00BFE0
:102790002846EFE77CB505460E46144632480068E9
:1027A00078B1002003F060F9002858D000BF6A46D5
:1027B00031462846FFF77EFF03F032F90028F6D1B4
:1027C0004DE02068009060680190BDF80000244949
:1027D000B1F84010084400B2ADF80000BDF80200A6
:1027E0001F49B1F84410084400B2ADF80200BDF82A
:1027F00004001B49B1F84010084400B2ADF80400D1
:10280000BDF806001649B1F84410084400B2ADF80E
:102810000600684603F028F980B100BFBDF800004B
:102820000F494884BDF8020088846A46314628462C
:10283000FFF740FF03F0F4F80028EFD10848408C80
:102840000749B1F84010401A00B2054948840846CB
:10285000808CB1F84410401A00B2014988847CBDD4
:10286000043E00207C000020800000202DE9F04F75
:102870008BB005467348B0F922000A907148B0F950
:1028800024A0C0698469B4F80C80A84509DCE089FB
:10289000A84206DBD4F80090A5EB08064FF0FF37FE
:1028A0001DE0A068D4F80490A8B1B0F80080A84555
:1028B0000DDC4188A9420ADB0288AA1A95B2416858
:1028C00001EB8501B1F90060B1F9027006E04FF04B
:1028D000FF36374602E04FF0FF36374600BF701C28
:1028E000002877D05748C069007DA17C48430990F3
:1028F000207C08905348C069007D07905148B0F98A
:102900002AB0584600F01AFAC0B206904D4A09980B
:1029100006FB0090A17C0123CDE90231CDE9040240
:102920001046C069C07D1146C969897DCDE9001096
:102930005146DDE907320A9800F0A8FA781CD8B1B0
:102940004BF0020000F0FAF93E4A099807FB0090AC
:10295000A17C0123CDE90231CDE904021046C06912
:10296000C07D1146C969897DCDE900105146DDE978
:1029700007320A9800F08AFA3248C069407D31492E
:10298000C969097D884221DDBBF1020F1ED08BF0A1
:10299000040000F0D3F92B48C069007DDFF8A4C023
:1029A000DCF81CC09CF815C000FB0CA12548C069D0
:1029B000407D00EB0A032348C06990F816E0DDF87B
:1029C00020C00A980CFB0E0200F028FA069800F0CE
:1029D000B5F900BF1B48408C617C084400B219491E
:1029E00048840BB0BDE8F08F01461648C069826983
:1029F00000BF507C704700BF02220A807047F0B5CC
:102A00000446A3699D898D4204DCD889884201DB94
:102A10000120F0BD9A6892B1108888420FDC50887E
:102A200088420CDB506800EB81001788A0EB87061A
:102A3000B6F90000002801DB0120EAE700BF00BF73
:102A40000020E6E7043E002007E002888A4203DC1B
:102A500042888A4200DB02E080680028F5D100BF8E
:102A600070472DE9F04F87B005466048B0F92A80DD
:102A70000146C96988692946FFF7E6FF0646002E28
:102A80007DD03188691A706800EBC104A778404690
:102A900000F054F906905648007858B15348B0F900
:102AA00022006178514AD269927D01FB120000B286
:102AB0004E4948844D4901226068CDE90227CDE99D
:102AC00004010846C069C07DC969897DDFF81CC161
:102AD000CDE90010DCF81CC09CF814302278DFF837
:102AE0000CC1BCF92410BCF9220000F0CFF93F481A
:102AF000C069407D3D49C969097D884237DD3B4851
:102B0000C06990F817903948C069407D00FB09FA08
:102B10003648C069007D00FB09FBB8F1020F25D0E3
:102B2000FFF795F90590FFF783F90490FFF7B0FAE6
:102B3000DFF8B8C0BCF922C094F800E00CEB0E023C
:102B4000DFF8A8C0BCF924C00CEB0A03DFF89CC076
:102B5000BCF924C00CEB0B01DFF890C0BCF92200DB
:102B600000F05CF90598FFF793FA00BF00BF0698E4
:102B700000F0E4F81E48007868B91C4800E00BE05B
:102B8000B0F922006178194AD269927D01FB0200F6
:102B900000B21649488400BF07B0BDE8F08F70B599
:102BA00004461249C96988692146FFF74DFF054669
:102BB0004DB12988611A686810F831000B49C9695C
:102BC000897D484370BD0020FCE700BF01220A80D8
:102BD000704770B504460D462946A069FFF734FFDB
:102BE00006460EB1012070BD0020FCE7043E002027
:102BF0008800002010B504463D480068A0643D48A8
:102C0000606104F1080000F033FB3B48A0653B48DD
:102C1000E061384860610120207603F0E1FAA08786
:102C2000032084F85C006FF0704020636063002034
:102C300000F07CFA6FF07F4000F087FA10BD2DE9BC
:102C4000FC4104460D4616461F46042000F076F867
:102C5000804628480838006C044426480838406CF0
:102C6000054424480838006C064422480838406C63
:102C7000074420B2ADF8000030B2ADF8040028B22D
:102C8000ADF8020038B2ADF80600684602F0ECFE7E
:102C900050B100BF3B4632462946204600F0BEF800
:102CA00002F0BEFE0028F5D1404600F047F8BDE82E
:102CB000FC8110B500210846FFF7EEF840F6FF73DF
:102CC0001A4659420846FFF7BAFF10BD10B52E202C
:102CD0000B49087000F091FB06480838FFF78AFF9F
:102CE00000F0F5F9044603F08FF9204610BD00000E
:102CF0008C0000200C3E002094650008D46D000874
:102D0000700000200146FE48007C00F0040008B17D
:102D1000481E70470846FCE710B504460120FFF73F
:102D2000F1FFF74921F8104010BD10B5044600200E
:102D3000FFF7E8FFF24921F8104010BD10B5014639
:102D4000EF4A107C127C4A4002F004023AB1EC4B8C
:102D50001A885B88EA4C238023465A8000BFE84BE0
:102D6000197410BD70B504460D46E548B0F90A0067
:102D7000A84200DD70BDE248B0F90E00A84200DABA
:102D8000F8E7DF48B0F90800A04200DDF2E7DC48D0
:102D9000B0F90C00A04200DAECE7D948007C00F062
:102DA000010030B1D648806C2946826A204690479F
:102DB00006E0D3484288806C2946436A20469847FB
:102DC00000BFD7E770B504460D461646CC48B0F9AB
:102DD0000A00A84200DD70BDC948B0F90E00A84243
:102DE00000DAF8E7C648B0F90800A04202DDC4489E
:102DF000B0F90840C248B0F90C00B04202DAC0484D
:102E0000B0F90C60A64200DAE5E7BD48806C3246B6
:102E1000294603692046984700BFDCE72DE9F041C9
:102E200004460D4616461F46B548B0F90800A042B4
:102E300002DDB348B0F90840B148B0F90C00B04227
:102E400002DAAF48B0F90C60A64201DABDE8F081C1
:102E5000AB48B0F90A00A84202DDA948B0F90A500F
:102E6000A748B0F90E00B84202DAA548B0F90E70D2
:102E7000AF4200DAEAE7A248806C3B463246294678
:102E8000D0F818C02046E04700BFDFE72DE9FF4F2C
:102E90008BB0054690461F46DDF860A0DDF86890CF
:102EA0001C9E00200A909748006898B11B991D98B5
:102EB000CDE90291CDE904601998CDE900A09148CF
:102EC00000683B464246046828460C99A0470FB06C
:102ED000BDE8F08F0C983844401E089005EB0800C0
:102EE000401E099019984AEA000001287BD18448C5
:102EF000B0F90A100C980C1A002C0ADD3F1B002FA9
:102F000000DCE4E77E48B0F90A000C901B9804FB53
:102F100000667B48B0F90E100898441A002C03DDB7
:102F20003F1B002F00DCD2E77548B0F90C10099860
:102F3000441A002C01DDA8EB040800247048B0F905
:102F40000800A84239DD6E48B0F90800441BA8EB20
:102F50000408B9F1040F1ED006DCB9F1010F0AD044
:102F6000B9F1020F28D10EE0B9F1080F1BD0B9F169
:102F7000100F21D11BE006EBE406E01005EBC005C5
:102F800004F0070418E006EBA406A01005EB80058A
:102F900004F0030410E006EB6406601005EB400546
:102FA00004F0010408E026442544002404E006EB74
:102FB00044062544002400BF00BFB8F1000F00DC28
:102FC00085E71B991D98CDE90091CDE90264049035
:102FD0004B48806C3B464246D0F80CC028460C99C2
:102FE000E0476AE0FFE7C9F1080005900C9C00206B
:102FF00006905EE019982044401E04904048B0F9C5
:103000000A10049881424DDC3D48B0F90E00A04200
:1030100048DB002003900196079502903EE003985C
:1030200038B9019800780A900198401C0190082056
:10303000039005990A9840FA01FB0A9800FA09F0F2
:10304000C0B20A900398A0EB09000390BBF1000FF7
:1030500004D12B48007C00F00200C8B92848408801
:1030600000901D9828B11D9830F81B002449488015
:1030700002E02348A0F802B007985044421E2146BF
:10308000049B0798FFF7CAFE1D490098488000BFBF
:103090000298401C029007985044079002984045BF
:1030A000BDDB00BF0698401C0690199804441B988D
:1030B00006440698B8429DDB00BF00BF07E710B585
:1030C0000F48806C016A0E480830884710BD10B563
:1030D0000024FFF7F4FF00F07DFE044300F02FF919
:1030E0000420FFF72BFE40F6FF731A460021084626
:1030F000FFF794FE0020FFF721FE00F069FE03E0D9
:10310000043E002080000020204610BD10B504467B
:103110001548806C01682046884710BD10B50446EC
:103120001148806C41682046884710BD70B5044640
:103130000D48406BA04207D00B4844632046FFF780
:10314000E5FF0546FFF7F1FD70BD70B50446064882
:10315000006BA04207D0044804632046FFF7D6FF67
:103160000546FFF7D9FD70BD043E002002480088E7
:103170007047014840887047043E0020014611B95D
:103180004FF4A07070470020FCE7014609B9F02019
:1031900070470020FCE7014611B94FF4A07070475A
:1031A0000020FCE7014609B9F02070470020FCE749
:1031B000014609B9102070470020FCE7014609B913
:1031C000102070470020FCE7014611B94FF4803011
:1031D00070470020FCE7014609B901207047002034
:1031E000FCE7014609B9012070470020FCE70146D1
:1031F00011B940F2352070470020FCE7014609B9BB
:10320000002070470020FCE7014609B90020704704
:103210000020FCE7014609B9002070470020FCE7C8
:10322000014609B9012070470020FCE7014609B9B1
:10323000002070470020FCE710B5044614B900F0E8
:1032400003F810BD0020FCE70E48704770B5044637
:103250002046FEF789FA0546284670BD10B504469B
:10326000204600F0A1F810BD10B5FEF78AFA10BD97
:1032700000210180418040F23F118180EF21C18017
:1032800070470000A933000810B5064800680649D9
:1032900088640020A1F84C0001F108004861FFF7A4
:1032A0000EFF10BD8C000020043E00201CB504461B
:1032B0000548806C016A684688476A46214602488C
:1032C0000830FEF7A2FB1CBD043E002010B50749E4
:1032D000086BFFF71BFF0446FFF71EFD0349486B11
:1032E000FFF714FF0446FFF720FD10BD043E002049
:1032F0002DE9F041044614B90020BDE8F081A06832
:1033000008B90020F9E72068B0F5807F01DD0020D2
:10331000F3E72668A768002507E057F82500FFF7C0
:10332000F5FE074921F815006D1CB542F5DB044890
:10333000E3E710B504462046FFF7DAFF10BD7047FB
:10334000643E00204FF4A0707047F02070474FF4A7
:10335000A0707047F0207047102070474FF4803005
:103360007047012070470120704740F235207047B8
:1033700030B5014601F01F04C1F34512C1F3C42367
:10338000C4EB04201F25B0FBF5F4C2EB02203F255F
:10339000B0FBF5F2C3EB03201F25B0FBF5F304EB04
:1033A000022000EB034030BD30B5014601F01F03A1
:1033B000C1F34512C1F3C424C4EB04201F25B0FBA4
:1033C000F5F4C2EB02203F25B0FBF5F2C3EB03207E
:1033D0001F25B0FBF5F304EB022000EB034030BDEA
:1033E0000A4800687047094A1268111800BF074A66
:1033F00012688A1A002AFADC70477047704700BFCB
:10340000704700BF704700BF704700009000002069
:1034100070B504460D461646B2B2A9B2A0B2FEF788
:1034200067F870BD70B504460D46A9B2A0B2FEF7AC
:1034300087F870BD70B504460D46A9B2A0B2FEF77C
:103440007FF806464FF6FF739A1BA9B2A0B2FEF7AB
:103450004FF870BD2DE9F04104460D461646FD4F6C
:103460007B88B2B2A9B2A0B2FEF791F8BDE8F081B4
:103470002DE9F04104460D461646F64F7B88B2B260
:10348000A9B2A0B2FEF7B2F8BDE8F081F8B50446E3
:103490000D4616461F46EF484088BBB2B2B2A9B2ED
:1034A0000090A0B2FEF7D1F8F8BD2DE9F84F044620
:1034B0000F4690469946DDE90A5ABAF80000009096
:1034C000BAF802B098F80060E248007C00F003000F
:1034D00020B1012828D0022839D112E009F00700D4
:1034E00008280DD2DFE800F00405060708090A0BDA
:1034F000A4E0B3E0C3E0D3E0E3E0F3E003E113E1F1
:1035000025E009F0070008280DD2DFE800F00405E7
:10351000060708090A0B1CE029E036E043E050E00A
:103520005DE06AE077E012E009F0070008280DD2BC
:10353000DFE800F00405060708090A0B0AE115E1B7
:1035400020E12BE136E141E14CE157E100BF00BF52
:1035500000BF06F0800020B1B9B2A0B25A46FDF714
:10356000C7FF681E050001D1BDE8F88F00BF06F057
:10357000400028B1B9B2621C90B25A46FDF7B8FFBC
:10358000681E050000D1EFE700BF06F0200028B15B
:10359000B9B2A21C90B25A46FDF7AAFF681E0500F8
:1035A00000D1E1E700BF06F0100028B1B9B2E21C7B
:1035B00090B25A46FDF79CFF681E050000D1D3E784
:1035C00000BF06F0080028B1B9B2221D90B25A46D9
:1035D000FDF78EFF681E050000D1C5E700BF06F0AD
:1035E000040028B1B9B2621D90B25A46FDF780FFBF
:1035F000681E050000D1B7E700BF06F0020028B141
:10360000B9B2A21D90B25A46FDF772FF681E0500BE
:1036100000D1A9E700BF06F0010028B1B9B2E21D50
:1036200090B25A46FDF764FF681E050000D19BE783
:10363000083408F10100804606788AE706F0800326
:103640000BB15B4600E0009B1A46B9B2A0B2FDF791
:103650004FFF681E050000D186E700BF06F040035B
:103660000BB15B4600E0009B1A46B9B2631C98B2EE
:10367000FDF73EFF681E050000D175E700BF06F0AC
:1036800020030BB15B4600E0009B1A46B9B2A31CB5
:1036900098B2FDF72DFF681E050000D164E700BF5A
:1036A00006F010030BB15B4600E0009B1A46B9B26E
:1036B000E31C98B2FDF71CFF681E050000D153E71C
:1036C00000BF06F008030BB15B4600E0009B1A4602
:1036D000B9B2231D98B2FDF70BFF681E050000D19B
:1036E00042E700BF06F004030BB15B4600E0009B1D
:1036F0001A46B9B2631D98B2FDF7FAFE681E0500BE
:1037000000D131E700BF06F002030BB15B4600E0D9
:10371000009B1A46B9B2A31D98B2FDF7E9FE681ED8
:10372000050000D120E700BF06F001030BB15B46A6
:1037300000E0009B1A46B9B2E31D98B2FDF7D8FE2F
:10374000681E050000D10FE7083408F1010080462B
:10375000067873E706F0800018B139462046FFF777
:1037600069FE681E050000D1FEE600BF06F04000BD
:1037700018B13946601CFFF75DFE681E050000D1D8
:10378000F2E600BF06F0200018B13946A01CFFF792
:1037900051FE681E050000D1E6E600BF06F01000ED
:1037A00018B13946E01CFFF745FE681E050000D140
:1037B000DAE600BF06F0080018B13946201DFFF711
:1037C00039FE681E050000D1CEE600BF06F00400F9
:1037D00018B13946601DFFF72DFE681E050000D1A7
:1037E000C2E600BF06F0020018B13946A01DFFF77F
:1037F00021FE681E050000D1B6E600BF06F00100FC
:1038000018B13946E01DFFF715FE681E050000D10E
:10381000AAE6083408F10100804606789AE72DE907
:10382000F04704460E4691469A46DDE9087899F835
:103830000050B8F1000F7DD00648007C00F0020077
:1038400070B10AF0030038B1012806D0022806D171
:1038500004E00000043E00204CE05AE06CE07DE013
:103860000AF0030020B1012803D0022803D101E0AF
:1038700002E00EE01CE02AE0AB1138F81320B1B2F0
:10388000A0B2FDF735FE781E070001D1BDE8F08734
:1038900000BF032303EA251338F81320B1B2631CD9
:1038A00098B2FDF725FE781E070000D1EEE700BFB5
:1038B000032303EAA50338F81320B1B2A31C98B27E
:1038C000FDF716FE781E070000D1DFE700BF05F008
:1038D000030338F81320B1B2E31C98B2FDF708FED9
:1038E000781E070000D1D1E709F101008146057873
:1038F000241DC1E705F0C00030B1AB1138F813202A
:10390000B1B2A0B2FDF7F4FD781E070000D1BDE70B
:1039100000BF05F0300048B1032303EA251338F84F
:103920001320B1B2631C98B2FDF7E2FD781E0700C8
:1039300001D1ABE728E000BF05F00C0048B103233C
:1039400003EAA50338F81320B1B2A31C98B2FDF71F
:10395000CFFD781E070000D198E700BF05F00300F7
:1039600040B105F0030338F81320B1B2E31C98B25C
:10397000FDF7BEFD781E070000D187E709F10100C1
:1039800081460578241DB5E7F748007C00F0020069
:1039900058B10AF0030020B1012803D0022803D156
:1039A00001E043E04FE05EE06DE00AF0030020B18B
:1039B000012803D0022803D101E002E00BE017E068
:1039C00023E0AA11B1B2A0B2FDF792FD781E070064
:1039D00000D15BE700BF032303EA2512B1B2631CE9
:1039E00098B2FDF785FD781E070000D14EE700BFB5
:1039F000032303EAA502B1B2A31C98B2FDF778FD38
:103A0000781E070000D141E700BF05F00302B1B204
:103A1000E31C98B2FDF76CFD781E070000D135E776
:103A200009F1010081460578241DCAE705F0C000B0
:103A300020B1AA11B1B2A0B2FDF75AFD781E07005D
:103A400000D123E700BF05F0300038B1032303EABB
:103A50002512B1B2631C98B2FDF74AFD781E07002B
:103A600000D113E700BF05F00C0038B1032303EACF
:103A7000A502B1B2A31C98B2FDF73AFD781E07006B
:103A800000D103E700BF05F0030030B105F00302E9
:103A9000B1B2E31C98B2FDF72BFD781E070000D1F0
:103AA000F4E609F1010081460578241DBEE72DE901
:103AB000F04704460E4690469946DDE9087A98F8A4
:103AC0000050BAF1000F52D0A748007C00F002006D
:103AD00020B109F0010000B925E032E009F0010051
:103AE00000B900E00CE02B113AF81320B1B2A0B2FB
:103AF000FDF7FEFC781E070001D1BDE8F08700BF8E
:103B000005F00F033AF81320B1B2631C98B2FDF729
:103B1000EFFC781E070000D1EFE7A41C08F10100BC
:103B200080460578DFE7281130B12B113AF81320D1
:103B3000B1B2A0B2FDF7DCFC781E070000D1DCE7D3
:103B400000BF05F00F0040B105F00F033AF8132055
:103B5000B1B2631C98B2FDF7CBFC781E070000D110
:103B6000CBE7A41C08F1010080460578DBE77E481E
:103B7000007C00F0020020B109F0010000B920E053
:103B80002BE009F0010000B900E009E02A11B1B210
:103B9000A0B2FDF7ADFC781E070000D1ADE700BF75
:103BA00005F00F02B1B2631C98B2FDF7A1FC781EBC
:103BB000070000D1A1E7A41C08F1010080460578A8
:103BC000E4E7281120B12A11B1B2A0B2FDF790FCB0
:103BD000781E070000D190E700BF05F00F0030B15C
:103BE00005F00F02B1B2631C98B2FDF781FC781E9C
:103BF000070000D181E7A41C08F101008046057888
:103C0000DFE72DE9F0470446884615461E46DDF8F5
:103C100020905548007C00F00200F0B9B9F1000F87
:103C20000ED00AE02F7839F817201FFA88F1A0B2D9
:103C3000FDF75EFC761E641C6D1C002EF2DC2DE090
:103C400008E02A781FFA88F1A0B2FDF751FC761E31
:103C5000641C6D1C002EF4DC20E0B9F1000F0FD0C5
:103C60000BE02F7837B139F817201FFA88F1A0B28E
:103C7000FDF73EFC761E641C6D1C002EF1DC0DE091
:103C80000AE02F782FB11FFA88F1A0B23A46FDF76B
:103C90002FFC761E641C6D1C002EF2DCBDE8F08744
:103CA0002DE9F04104460F4615461E462E48007C7D
:103CB00000F0020058B907E02A88B9B2A0B2FDF7B7
:103CC00017FC761E641CAD1C002EF5DC0FE00CE02A
:103CD000B5F80080B8F1000F04D0B9B2A0B24246E6
:103CE000FDF706FC761E641CAD1C002EF0DCBDE862
:103CF000F0812DE9FF4F83B00D4690461E46DDE969
:103D000010B9DDF850A0129FBBF1040F2ED006DCD5
:103D1000BBF1010F0AD0BBF1020F52D115E0BBF18C
:103D2000080F32D0BBF1100F4BD13DE0002409E069
:103D30006119CDE9008A3A46139B0398FFF7B5FB5A
:103D40004F44641CB442F3DB3BE0002409E06119FA
:103D5000CDE9008A3A46139B0398FFF760FD4F4474
:103D6000641CB442F3DB2CE0043E0020002409E094
:103D70006119CDE9008A3A46139B0398FFF797FE35
:103D80004F44641CB442F3DB1BE0002409E06119DA
:103D900043463A46CDF800A00398FFF732FF4F4460
:103DA000641CB442F3DB0CE0002407E061194346D5
:103DB0003A460398FFF774FF4F44641CB442F5DBA6
:103DC00000BF00BF07B0BDE8F08F00BF00BF704765
:103DD0007047704710B5FDF766FA002010BD00BFB0
:103DE00000BF7047014600BF0020704770B5054610
:103DF000FC49B1F94C00FEF79CFB04462088288062
:103E0000608868802088A1880844401E00B2A8808D
:103E10006088E1880844401E00B2E88070BD70B53B
:103E20000446F049B1F94C00FEF783FB05462046F5
:103E3000E969884770BD70B50446EA49B1F94C009C
:103E4000FEF777FB05462046296A884770BD10B506
:103E5000E449B1F94C00FEF76CFB0446606A804708
:103E600010BD70B50546A5B1DE48B0F94C00A842BA
:103E700001D1FEF7FFF82846FEF75BFB0446208BD6
:103E800018B1B4F9180000F023FF2846FEF79AFB9A
:103E900000BF70BD2DE9FF4F83B090461D46DDF891
:103EA00040904FF0000A1198006C0290029908FBB4
:103EB00001F0C01D4FEAD00BFEF782FA064609F06A
:103EC000010030B93046F11706EB9171891001EB12
:103ED0004106002D0BDCA6F12C01B1FBFBF0694281
:103EE000884201DD694200E001460D4600BF09F04D
:103EF000010040B900202B4642460090DDE9030155
:103F000000F0F2FF8246002D03DC002007B0BDE880
:103F1000F08F05FB0BF000F12C0609F0010020B139
:103F200030B2FEF7FBFA074603E030B2FDF703FEBE
:103F3000074617B33846FEF7FCFA0446039800B26A
:103F40002080049800B260800FFA88F0A08028B228
:103F5000E080FFF703FAA060C4F80CB0A4F818A042
:103F60001298E06113982062149860621198A06220
:103F7000029820610020606105E0BAF1000F02D0D4
:103F80005046FEF71FFB3846C0E72DE9FF4F85B0CE
:103F900081468A469448D0F800B09248B0F84C0068
:103FA00048B99048806C04688E48806C45688D489C
:103FB000806C866809E08B49B1F94C00FEF7B9FACC
:103FC0000746FC693D6A7E6A00BFDBF83C0001A938
:103FD00071C11298009051464846DDE90723FFF76A
:103FE00059FF8046404609B0BDE8F08FF8B5044659
:103FF0000D4616461F4600203B4632462946009095
:104000002046FFF7C2FFF8BD70B504467548B0F909
:104010004C5014B9FEF72EF819E02046FEF789FA45
:10402000064601F0D2FF6F48B0F84C0030B96D4839
:104030004E306C498A680260C96841606948A0F8DE
:104040004C406849B06A8864FFF739F800BF2846D9
:1040500070BD2DE9F74F8CB092460C98FEF769FAC7
:104060000546B5F918000B90B5F906000A90EF68FF
:10407000D5F810B04FEADB00099005F12C080B9839
:1040800000285FD00B98FEF754FA0646002455E04E
:1040900000200890B068224608A943693046984736
:1040A0008146B5F90400484523D1079400E0641C1B
:1040B000B068621C08A94369304698474845F6D065
:1040C0000020CDE902B7CDE90480012000900190E5
:1040D0000798201A431CB5F9042007980AEB000141
:1040E0000D98FEF7D3FE0798201A401C00FB0788A6
:1040F00023E01EE00021DDE9082002FB0080CDE97D
:1041000002B7CDE90401012000900AEB04010190FF
:10411000089B0D9AD01801234A46FEF7B7FE08986F
:1041200048440890B068224608A943693046984739
:104130008146B9F1000FDDD1B844641C0A9884426D
:10414000A6DB0EE00020CDE902B7CDE90480012016
:1041500000900190B5F9042051460A9B0D98FEF796
:1041600095FE0FB0BDE8F08F2DE9FC4106460D46E7
:104170001746AEB31B48B0F94C803046FEF7D9F96C
:104180000446FDF777FF1948854203D1B4F9005082
:10419000B4F9027028B2ADF80000A1880844401EAE
:1041A00000B2ADF8040038B2ADF80200E18808446E
:1041B000401E00B2ADF8060001F003FF684601F0B2
:1041C00053FC48B100BF3A4629463046FFF741FF4D
:1041D00001F026FC0028F6D14046FFF715FF00BF8E
:1041E000BDE8FC81043E00208C00002001F0FFFFB0
:1041F00010B50446024A11462046FFF7B5FF10BD30
:1042000001F0FFFF2DE9F04705460F4691461C4699
:10421000DDE90886FC48007C00F0030010B10228AC
:104220001CD106E04FEA48022146304602F030F841
:1042300014E000BF208840B1208830802DB1A868EC
:104240004A4639460368284698477F1CB61CA41C7A
:10425000A8F101005FEA0008ECD100BF00BFBDE893
:10426000F0872DE9F04105460E46E749B1F94C00CB
:10427000FEF75FF9044604F12C076088301A80B21B
:10428000A18989B200FB017707EB4500B4F9001062
:10429000A0EB4100BDE8F0812DE9FF4F81B08146E0
:1042A0008A469846129E0F9D0E98C0F1080498F811
:1042B0000000D649085C0E9940FA01F7D248007C0C
:1042C00000F0030020B1012862D0022879D11CE05F
:1042D00000BFAC4200D92C462D1B00BF07F00101E6
:1042E000109830F8110026F8020B7F08601E0400B9
:1042F000F4D115B905B0BDE8F08F082408F101002C
:1043000080460078C1490F5CE3E71098B0F802B02E
:1043100000BFAC4200D92C462D1BB9F1000F1BD0B9
:1043200000BF1FB906EB4406A24414E007F00100E9
:1043300040B1D9F80800036851464846039A9847A7
:10434000A6F800B00AF1010AB61C601E040000D1F4
:1043500001E07F08E5E711E000BF17B906EB44066E
:104360000BE007F0010008B1A6F800B0B61C601E13
:10437000040000D101E07F08EFE700BF05B9B9E70D
:10438000082408F1010080460078A0490F5CC0E7CE
:104390001199486A804780B2009000BFAC4200D9B2
:1043A0002C462D1B00BF07F0010018B13088009982
:1043B00048403080B61C7F08601E0400F3D10DB960
:1043C00098E707E0082408F10100804600788F494B
:1043D0000F5CE3E700BF00BF8CE72DE9FF5F81467C
:1043E0008A469846DDE910B60F9C0E98C0F104008D
:1043F000C5B298F800000E9949008840C7B28248BB
:10440000007C00F0030020B1012843D002285DD1D8
:1044100018E000BFA54200DDE5B2641B00BFB81183
:104420003BF8100026F8020BB806070E681EC0B253
:104430000500F4D12CB1042508F10100804607786D
:10444000E8E743E000BFA54200DDE5B2641B00BF22
:1044500007F0C00068B1B8113BF810003080B9F126
:10446000000F06D0D9F80800036851464846029A62
:104470009847B61C0AF1010AB806070E681EC0B2BA
:104480000500E5D12CB1042508F10100804607782C
:10449000D9E71BE000BFA54200DDE5B2641B00BF09
:1044A00007F0C00018B1308880F0FF003080B61CE3
:1044B000B806070E681EC0B20500F1D12CB1042564
:1044C00008F1010080460778E5E700BF00BFBDE8BE
:1044D000FF9F2DE9FF4F81B007468A469946DDE9E7
:1044E0000EB6DDE91084CBF10200C0B2009099F85D
:1044F00000004FEA8B018840C5B24348007C00F0C1
:10450000030020B101287DD002282AD12AE0BBF186
:10451000000F09D0281138F810002080A41C761E46
:1045200009F1010081460578022E15DB701006F0B6
:10453000010600BF291138F81110218005F00F0184
:1045400038F811106180241D09F1010189460D78A8
:10455000411E0800EED100BF1EB1281138F810002E
:10456000208077E0BBF1000F15D005F0F00050B1CE
:10457000281138F8100020802FB1B8680368514620
:104580003846039A9847A41C0AF1010A761E09F1DD
:1045900001008146057824E005F0F00050B12811B3
:1045A00038F8100020802FB1B868036851463846AB
:1045B000039A984705F00F0005000AD038F8150057
:1045C000608037B1B86803680AF101013846039A80
:1045D0009847241D0AF1020AB61E09F1010081461E
:1045E0000578022ED8DA66B12811050009D038F80E
:1045F000150020802FB1B868036851463846039AE9
:10460000984727E004E00000043E0020E065000831
:1046100000BF0098B04201DDF0B200900098361A59
:1046200000BF05F0C00018B1208880F0FF00208096
:10463000A41C2807050E0098401EC0B20090002858
:10464000EFD136B10220009009F1010081460578D2
:10465000DFE700BF00BF05B0BDE8F08F2DE9F047F0
:1046600006460F4692461C46DDE908890A9DFE482B
:10467000007C00F0030010B1022824D10CE000BF40
:10468000207839F810002880AD1C641CA8F10100C6
:104690005FEA0008F4D116E000BF207850B120781E
:1046A00039F8100028802EB1B068524639460368A8
:1046B000304698477F1CAD1C641CA8F101005FEADE
:1046C0000008EAD100BF00BFBDE8F0872DE9F04740
:1046D00005460F4691461C46DDE90886E248007C07
:1046E00000F0030010B102281BD105E0424621462C
:1046F000304601F0CDFD14E000BF207840B12078B5
:1047000030802DB1A8684A46394603682846984744
:104710007F1CB61C641CA8F101005FEA0008ECD104
:1047200000BF00BFBDE8F0872DE9FF4F89B00E46FE
:1047300017469946DDE918ABDDF86880CA49B1F93A
:104740004C00FDF7F6FE08900898008B28B10899F8
:10475000B1F91800FDF7EDFE00E000200790089881
:10476000C0680690099858440990079860B1BE48FF
:10477000007C00F0020038B93B463246CDF800908C
:104780000999079800F0B3FA31460998FFF769FDD7
:1047900005461698102813D100240CE0A2195346A0
:1047A000CDE9007509990798FFF72CFD1798824409
:1047B00006980544641C4C45F0DB0DB0BDE8F08F55
:1047C000169808281ED1002419E0B8F1000F09D06E
:1047D000A2195346CDE90078029509990798FFF789
:1047E0003DFF07E0A2195346CDE9007509990798E6
:1047F000FFF76CFF1798824406980544641C4C45EB
:10480000E3DBDAE7B8F1000F01D1DFF860820024C2
:1048100030E01698012804D002280FD0042823D1B4
:1048200017E00898A2195346CDE900B7CDE90280F8
:10483000049509990798FFF72FFD15E0A219534633
:10484000CDE900B7CDE9028509990798FFF7C5FDC5
:104850000AE0A2195346CDE900B7CDE902850999CE
:104860000798FFF736FE00BF00BF179882440698EE
:104870000544641C4C45CCDB00BF9EE72DE9FE4F90
:1048800006460C4693461F467749B1F94C00FDF7A2
:1048900050FE054621463046FFF7E3FC8146E868B6
:1048A0000290ABEB060000F10108288B68B1B5F966
:1048B0001800FDF73EFE8246381B401C4346224648
:1048C00031460090504600F012FA23E06648007C22
:1048D00000F00100A8B1CDF80480CA46686A80479C
:1048E00080B2009000BFBAF8000000994840AAF8D2
:1048F00000000AF1020A0198401E01900028F2D13E
:1049000005E05948418842464846FDF7EDF80298CF
:104910008144641CBC42D9DDBDE8FE8F70B50546FC
:104920000C4616462346324621462846FFF7A6FF88
:1049300070BD2DE9F84F83460D4616464A49B1F938
:104940004C00FDF7F6FD0746B7F91880B8F1000FE7
:1049500003D04046FDF7EDFD00E0002081462946EA
:104960005846FFF77EFC0446D7F80CA03E48007C72
:1049700000F00100C8B1786A804780B2009000BFA3
:10498000B8F1000F06D0D9F808002A465946036846
:10499000484698472088009948402080F868044499
:1049A000681C0546B042EBDD1EE0B8F1000F10D0E8
:1049B00000BFD9F808002A46594603684846984778
:1049C0002948408820805444681C0546B042F0DDE8
:1049D0000AE0711B481C00BF2349498821805444C8
:1049E000411E0800F8D100BFBDE8F88F2DE9F05F47
:1049F00004460D4616461C49B1F94C00FDF799FDD9
:104A00008046B8F9187029462046FFF72AFC8146EF
:104A1000A9F800606FB13846FDF78BFD8346384634
:104A2000FDF787FD80682A462146D0F800A0584649
:104A3000D047BDE8F09F2DE9F05F04460D460A49D6
:104A4000B1F94C00FDF775FD0646B6F91870294618
:104A50002046FFF706FC8046706A80471FFA80F9FF
:104A6000B8F8000004E00000043E0020B88C000804
:104A700080EA0900A8F800006FB13846FDF759FD3B
:104A800083463846FDF755FD80682A462146D0F812
:104A900000A05846D047BDE8F09F70B504460D46CB
:104AA00029462046FFF7DDFB0646308870BD0246EA
:104AB0008A4201DC104670470846FCE72DE9FF4FAB
:104AC00085B004468B461F466CB3B4F9000000283D
:104AD00001DA002001E0B4F900008046B4F90200D8
:104AE000002801DA002001E0B4F902008146FEF757
:104AF00029FC461EB4F904003146FFF7D8FF0490A4
:104B0000FEF723FC461EB4F906003146FFF7CFFF3F
:104B100003900498A0EB080000F1010A0398A0EBB1
:104B20000900451C08E04FF00008C146FEF70AFCEA
:104B30008246FEF70AFC054607B96F42BAF1000F3C
:104B400001DD002D03DC002009B0BDE8F08F1298D4
:104B50003B465246494600904046FFF716FA0290FF
:104B6000029818B90798D8470120EDE7029800F09D
:104B700049F807460298FFF747FA002618E0A81BF5
:104B800001900198B84203DADDE9011000F04CF819
:104B900046B109EB06024146029800F05DF8029822
:104BA00000F010F80798D8470298FFF721FB3E4421
:104BB000AE42E4DB0298FFF754F90020FFF724FA35
:104BC0000020C1E72DE9F041044634B90C48B0F9A2
:104BD0004C00040001D1BDE8F0812046FDF7A9FC9E
:104BE0000746B7F9185045B12846FDF7A2FC06461E
:104BF000B06881683046884700BF00BFEBE700001F
:104C0000043E002070B50446002614B90548B0F9EA
:104C10004C402CB12046FDF78CFC0546B5F90660EA
:104C2000304670BD043E002070B504460D4614B9F0
:104C30000848B0F94C4004B970BD2046FDF779FC36
:104C40000646B6F90600A84201DD28B2F08000BF92
:104C5000F2E70000043E00202DE9F04180460E46B8
:104C60001746B8F1000F07D11348B0F94C005FEABE
:104C7000000801D1BDE8F0814046FDF75AFC04462A
:104C800038B2608030B22080FEF719FA208B88B1EC
:104C9000B4F91800FDF74DFC0546B4F90400A880EE
:104CA00038B1B4F90600E88018B130B2288038B2C3
:104CB000688000BF00BFDDE7043E002070B50446F9
:104CC0001749B1F94C00FDF734FC05462C8370BD43
:104CD00070B505462846FDF72CFC0446A089401E09
:104CE00000B2A08110B92846FDF76CFC70BD2DE91B
:104CF000F04104460E4615461F46DDF8188000BFF9
:104D00002A466D1CA0683B463146D0F804C02046B8
:104D1000E047A8F101005FEA0008F1D1BDE8F081A9
:104D2000043E0020F0B514460346B3F90050491B79
:104D300003F11402B3F90250651B1E6905FB06223C
:104D400002EBE102157801F0070780263E4135436A
:104D50001570F0BD2DE9FF4F81B005460E46914616
:104D60002F46B7F90000361A07F11404B7F902000C
:104D7000A9EB0000396900FB014404EBE604049848
:104D80003044401E00900098C010A0EBE60806F0EA
:104D90000701FF2040FA01FA009800F00700C0F177
:104DA0000701FF20884000F0FF0BB8F1000F05D18C
:104DB00020780AEA0B010843207013E0207840EACB
:104DC0000A0004F8010BA8F10100B0F1000805DDAC
:104DD000FF224146204601F014FB4444207840EA7B
:104DE0000B00207005B0BDE8F08F70B50446254675
:104DF000B5F906002A6900FB02F105F1140001F083
:104E00002AFB70BD2DE9F04705460F4694463968E8
:104E10002E46B6F9049006F11402B6F90600604574
:104E200002DC0020BDE8F08730690CFB002202EBB9
:104E3000E102494501DB0020F4E7A9F10100C010BF
:104E4000A0EBE10812F8010B01F0070A00FA0AF0E2
:104E5000C3B20CE0B8F1000F01D10020E2E712F874
:104E6000013BA8F1010801F1080020F00701002B27
:104E7000F0D002E05806030E491C03F08000002821
:104E8000F8D0FF2B09D00C4602E05806030E641C34
:104E900003F040000028F8D100E0CC1D04F007002A
:104EA000072817D110E012F801AB5346BAF1FF0FF3
:104EB00001D1083408E002E05806030E641C03F038
:104EC00080000028F8D104E0A8F10100B0F100084A
:104ED000E9DA00BF3960601A401CA3E710B5044648
:104EE0002046FDF76FFB10BD2DE9F84F07468846B9
:104EF00015461E46DDF828B000BF05F10F00001171
:104F00004FEA400906FB09F014300090009800B207
:104F1000FCF711FE8246BAF1000F02D10020BDE875
:104F2000F88F5046FDF705FB044638B220800FFA93
:104F300088F0608028B2A08030B2E0800348A06092
:104F40000120A081C4F810905046E8E71C8D0008AD
:104F50000146FD4A106806E0B0F904208A4201D1FA
:104F60000022828000680028F6D170470146F74889
:104F7000B0F90000884201D1002070474FF0FF30A7
:104F8000FBE70020F24908807047F249098819B10F
:104F9000F049B1F9000002E0EF49B1F93C00704777
:104FA00070B504460D46B4F90220B4F90010284645
:104FB000FCF7C3FF70BD7CB50446E748806B18B9A9
:104FC0002046FEF773F916E0E348806B0168009114
:104FD00040680190FFF7D9FF0646FDF7AAFA05469B
:104FE0006946FFF7DDFF21466846FCF7EDFC6846A1
:104FF000FEF75CF900BF7CBD0146B1F90000B1F9D4
:105000000420904201DD00207047B1F90200B1F99F
:105010000620904201DD0020F6E70120F4E72DE9AB
:10502000FC4107460D463846FDF783FA0446A68B39
:1050300006F0020008B9BDE8FC8140F601003040EE
:10504000012800D1F7E72846FFF7D6FF00B9F2E7BD
:10505000224629466846FCF7D8FC6846FFF7CCFF95
:10506000B8B1207F00F0200030B16A4604F1080199
:105070000846FCF721FF0CE00098A0600198E06072
:10508000A08B40F02000A083B4480088401CB349A6
:10509000088000BFCFE770B506460D4600BF284622
:1050A000FDF747FA0446207F00F0020008B900200F
:1050B00070BD21463046FCF787FCE08A00B902E06B
:1050C000B4F91650EBE700BF2846FFF74FFF002862
:1050D00001DA0020ECE70120EAE71CB5A0480078DF
:1050E00018B1A048FFF767FF16E09B49B1F93C00F3
:1050F000FDF71FFA0446D4E90001CDE90001954807
:10510000008828B19348B0F900106846FFF7C3FF44
:105110006846FFF750FF00BF1CBD2DE9F84F06465B
:105120008846B8F1000F3FD03046FDF702FA04463A
:1051300000206083A4F816804046FDF7FAF9074680
:10514000207F00F0080BB7F91890B9F1000F02D1D9
:105150003E83BDE8F88F4846FDF7EBF90546BBF105
:10516000000F07D1287F00F0080018B1A4F81A90AA
:105170003E83EEE700BFB5F91A00009008B96E83D0
:1051800011E00098FDF7D5F98246BBF1000F08D178
:105190009AF81C0000F0080018B16E830098608334
:1051A00001E05546E7E700BF00BFD2E72DE9F04731
:1051B00007463846FDF7BDF98146B9F91680B8F1C2
:1051C000000F20D04046FDF7B4F90646B6F9185056
:1051D000BD4206D12846FDF7ACF90446608B30830A
:1051E00011E00DE02846FDF7A4F90446B4F91A00D1
:1051F000B84203D1B9F81A00608303E0B4F91A5039
:10520000002DEFD100BFBDE8F0872DE9FC47074630
:10521000894637B33846FDF78CF90446B4F81C804C
:1052200008F0020008B9BDE8FC87224649466846F6
:10523000FCF7EBFB00B9F6E769463846FFF7EFFEEF
:10524000384600F0D3FF064609E069463046FFF7CE
:10525000DCFF3046FDF76DF90546B5F91A60002E02
:10526000F3D100BFDFE72DE9FC4781460E469246A9
:105270000EB9BDE8FC873046FDF75BF90446B4F88B
:105280001C8008F0020000B9F3E722464946684650
:10529000FCF7BBFB00B9ECE740F6010008EA0000B0
:1052A000012807D1B4F91A20B4F916106846FFF79F
:1052B000DAFF03E069463046FFF7B1FEB4F9185053
:1052C0000CE0554500D10BE069462846FFF79DFFED
:1052D0002846FDF72EF90746B7F91A50002DF0D1F0
:1052E00000BF00BFC5E770B505462846FDF721F9A8
:1052F0000446B4F916605EB1B4F91A20B4F9161078
:105300002046FFF7B0FF2846FFF750FF0020E0825D
:1053100070BD70B504461048B0F93C6014B912482D
:10532000B0F900400C4884872046FDF702F9054695
:10533000FDF7C5FEB5F9000007490864B5F902009C
:105340004864304670BD00009C000020A000002092
:10535000C2000020C0000020043E00209600002073
:10536000A800002078400020980000202DE9F0419E
:105370000646FE48B0F900700EE03846FDF7D9F851
:105380000446B4F91450B54205D13046FDF7D1F8C2
:10539000808AA08202E02F46002FEED100BFBDE838
:1053A000F0813EB505460C46ADF8045000946946C0
:1053B000284600F09FFE3EBD70B50546EB48B0F9AB
:1053C000004008E0AC4201D1012070BD2046FDF74D
:1053D000B0F8B0F91440002CF4D10020F5E770B516
:1053E000044604B970BD2046FFF7E6FF002848D008
:1053F0002046FDF79EF80546FFF7C3FDDC48B0F9EF
:105400000000A04202D10020D9490880D948B0F953
:105410000000A04202D10020D64908802046FFF7B4
:1054200097FD0721204600F0F5FE284600F02BF8F6
:105430000B212046FFF7B5FF2046FFF754FF20461B
:10544000FFF794FF287F00F0010020B1CA480068F0
:10545000401EC9490860287F00F0200020B1C748DD
:105460000088401EC5490880C5480088401EC449C0
:1054700008802046FDF7A6F8BC48B0F90000FFF709
:1054800048FF00BFAEE710B5044600BFB4F91800EE
:10549000FFF7A5FF208B0028F8D110BD70B504469A
:1054A000B248008868B1B148B0F90000FDF741F892
:1054B00006462046FDF73DF80546B08AA882B4822C
:1054C00001E0AA48048070BD2DE9FC4706460C4661
:1054D00017464EE03046FDF72CF80546B0F81C8024
:1054E00008F00200002842D02FB13A46294668460B
:1054F000FCF78BFA03E0D5E90001CDE9000169462C
:105500002046FCF787FD88B308F00100E0B9B5F943
:105510000200B4F9021088420CDDBDF90200401E01
:10552000B4F90610884221DABDF80200401E00B22C
:10553000E0801BE0BDF90600B4F90610884215DAD8
:10554000BDF80600E08011E0B5F918900AE0484681
:10555000FCF7EFFF82466A4621464846FFF7B4FF54
:10556000BAF91A90B9F1000FF1D100BF00BFB5F937
:105570001A60002EAED1BDE8FC872DE9FC5F06461F
:105580000D4617464FF0000B3BE03046FCF7D1FFCD
:105590000446B0F81C8008F0020080B32FB13A46F0
:1055A00021466846FCF731FA03E0D4E90001CDE971
:1055B000000169462846FCF72DFDF8B108F001000E
:1055C00038B9BDF80400401C00B228804FF0010B30
:1055D00014E0B4F918900DE04846FCF7AAFF8246A3
:1055E0006A4629464846FFF7C8FF08B14FF0010B4D
:1055F000BAF91A90B9F1000FEED100BF00BFB4F9AB
:105600001A60002EC1D15846BDE8FC9F2DE9FC4729
:1056100006460D46174636E03046FCF78AFF04463C
:10562000B0F81C8008F0020058B32FB13A4621466A
:105630006846FCF7EAF903E0D4E90001CDE900018E
:1056400069462846FCF7E6FCD0B108F0010028B90D
:10565000BDF80000401E00B2A88011E0B4F9189017
:105660000AE04846FCF765FF82466A4629464846F6
:10567000FFF7CCFFBAF91A90B9F1000FF1D100BFD2
:1056800000BFB4F91A60002EC6D1BDE8FC8770B522
:1056900004460D461CB12946204600F02BFD70BD86
:1056A00000224A800A8082880388D21A12B28A8035
:1056B000C2884388D21A12B2CA80704782680A60D0
:1056C000C2684A6070472DE9FF4105460E4655B352
:1056D0002846FCF72EFF0446A78B07F0020010B304
:1056E000D4E90001CDE9020166B13068009070682C
:1056F000019069462046FFF753FC694602A8FCF773
:1057000063F900BF294602A8FFF7C5FC58B140F66F
:1057100001003840012807D1B4F91A20B4F9161055
:1057200002A8FFF7A0FD03E002A92846FFF777FCD7
:10573000BDE8FF8110B5044600212046FFF7C3FFF6
:1057400010BD2DE9F84F8046894692469B46DDE91B
:105750000A750C48008805432FB90948008810B124
:105760000948B0F90070781C88B90FE09800002053
:10577000AE000020AC000020BC00002096000020FD
:1057800094000020AA000020A00000200027F7B10C
:105790003846FCF7CEFE0646B6F900008044B6F95E
:1057A00002008144BAF1000F06D1B6F90400B6F93F
:1057B0000010401A00F1010ABBF1000F06D1B6F942
:1057C0000600B6F90210401A00F1010B00BF0D9857
:1057D000203000B2FCF7AFF90090002849D0FE4815
:1057E0000088401CFC4908800098FCF7A2FE044693
:1057F0000FFA88F020800FFA89F0608008EB0A0029
:10580000401E00B2A08009EB0B00401E00B2E080F9
:105810000C982061A08B43F69F7129400843A08318
:105820000098FFF73BFE39460098FFF776FC05F03D
:10583000200010B10098FFF76CFD05F0010020B1C9
:10584000E6480068401CE549086005F0400010B1DA
:10585000009800F071FC05F0020030B1A08B40F020
:105860000200A0830098FFF765FF01210098FFF771
:1058700098FD0098BDE8F88F2DE9FF4704460D46D6
:1058800016461F46DDE90D9ADDF8308000203B46C4
:10589000324629468DE801072046FFF752FF04B043
:1058A000BDE8F087CE48B0F93C0070477CB5CD49E3
:1058B000D1E90201CDE90001CA48006940B9C948EF
:1058C0000088ADF80000C7484088ADF802001BE032
:1058D000C4488089401C00B2ADF80000C14840892E
:1058E000ADF80200BDF90000BE49B1F904108842CC
:1058F0000ADD00BFBB480088ADF80000B948C08988
:10590000401C00B2ADF80200BDF90200B549B1F982
:105910000610884201DD00207CBDB149B1F93C0090
:10592000FCF707FE0546BDF90000AE49B1F90010CD
:1059300088421FD1AB48C088ADF80600A9488088CE
:10594000ADF80400A648B0F93C600BE03046FCF727
:10595000F0FD0446B4F91A0000226946FFF7B4FDD1
:10596000B4F91660002EF1D1B5F91800002269468D
:10597000FFF7AAFD00BFBDF80000ADF8040098488D
:10598000B0F93C600DE03046FCF7D3FD0446B4F9B5
:105990001A0000226946FFF7F0FD00B1EBE7B4F909
:1059A0001660002EEFD1B5F9180000226946FFF706
:1059B000E4FD00B1DFE78B488088ADF80400BDF955
:1059C0000400BDF90010884205DA8648DDE90012BE
:1059D000C0E902128EE78248B0F93C600BE0304625
:1059E000FCF7A7FD0446B4F91A0000226946FFF748
:1059F0000DFEB4F91660002EF1D1B5F918000022A1
:105A00006946FFF703FE77480069C82801DD0020DA
:105A100082E77448DDE90012C0E9021201207BE749
:105A200010B57148007808B9002010BD6D48406974
:105A3000012806DD6B484069401E6A494861002024
:105A4000F3E768480069401C66490861FFF72EFFCC
:105A500030B964484069401E624948610020E4E76B
:105A6000FFF73BFB0120E0E77FB505465E48007885
:105A700020B9FFF732FB012004B070BD59484069DE
:105A8000401C58494861012801DD0120F4E75449D0
:105A9000B1F93C00FCF74DFD04464FF0FF30514991
:105AA00008615248007820B102A92046FFF706FE9F
:105AB0000FE0207F00F0020020B1D4E90001CDE921
:105AC000020106E047484069401E464948610020FF
:105AD000D2E71DB1294602A8FBF776FF4048806B4C
