:020000040800F2
:10000000B0EA00200D0200084D0200084F0200086F
:1000100053020008570200085B02000800000000BD
:100020000000000000000000000000005F02000867
:100030006102000800000000630200086502000879
:1000400027020008270200082702000827020008EC
:1000500027020008270200082702000827020008DC
:1000600027020008270200082702000827020008CC
:1000700027020008270200082702000827020008BC
:1000800027020008270200082702000827020008AC
:10009000270200082702000827020008790200084A
:1000A000270200082702000827020008270200088C
:1000B000270200082702000827020008270200087C
:1000C000270200082702000827020008270200086C
:1000D000270200082702000827020008270200085C
:1000E000270200082702000827020008270200084C
:1000F000270200082702000827020008270200083C
:1001000027020008710200082702000827020008E1
:10011000270200082702000827020008270200081B
:10012000270200082702000827020008270200080B
:1001300000F002F800F05AF80AA090E8000C82449F
:100140008344AAF10107DA4501D100F04FF8AFF27C
:10015000090EBAE80F0013F0010F18BFFB1A43F0A5
:100160000103184784C30300A4C303000A444FF0EB
:10017000000C10F8013B13F0070408BF10F8014B06
:100180001D1108BF10F8015B641E05D010F8016B4B
:10019000641E01F8016BF9D113F0080F1EBF10F8AF
:1001A000014BAD1C0C1B09D16D1E58BF01F801CBD2
:1001B000FAD505E014F8016B01F8016B6D1EF9D555
:1001C0009142D6D37047000000230024002500266A
:1001D000103A28BF78C1FBD8520728BF30C148BFAA
:1001E0000B6070471FB51FBD10B510BD07F02FFE87
:1001F0001146FFF7F7FF00F0E7F807F04DFE03B4F4
:10020000FFF7F2FF03BC07F0D9FD00000948804763
:1002100009480047FEE7FEE7FEE7FEE7FEE7FEE7E8
:10022000FEE7FEE7FEE7FEE704480549054A064B00
:1002300070470000AB17000831010008B0E2002051
:10024000B0EA0020B0E60020B0E60020704700BF12
:10025000FEE700BFFEE700BFFEE700BFFEE7704716
:100260007047704705480068401C044908607047A3
:1002700010B504F0C7FB10BD7047000068000020F7
:1002800008B54FF4C06000F09FFF31208DF80000EA
:1002900000208DF801008DF8020001208DF8030088
:1002A000684600F096FF08BD10B503F030FA6E49BD
:1002B00008706E4802F098FE6B4908706B49B1F8FF
:1002C0004C10080402F078FE674908704FF4006093
:1002D00002F02AFE64490870002002F015FC624911
:1002E0000870084600782A2807D14FF400720021D0
:1002F0005F4803F0B0FA5C49087010BD10B501F01A
:1003000054FA0121702000F0FBFE0121402000F092
:10031000EAFE0121084600F0F3FE10BD2DE9F84386
:1003200005460E4617461C46A846B7F5007F01D97C
:100330004FF40077012C03D100204E49086001E002
:100340004C4804604B480168404606F08BFA4A4925
:1003500008706B463A464949404606F01EF8464941
:100360000870464830600098BDE8F8837CB50446C4
:1003700011222146424805F04AFF3F4908700846CD
:10038000007800B17CBD3F4A3D493F4808F0F0F994
:1003900009F02CFA3B494968451A09F01FFA394916
:1003A0000968461A01200090019005EBD5704310B2
:1003B00006EBD67042103249334808F0D1F9304884
:1003C00006F045FA00BFDDE7ADF50C7DFFF796FFBF
:1003D00001F06CFA2D49B1F1807F00D31DE021F0CE
:1003E0007F40401E4FF0E022506150170F2200283E
:1003F00007DA13071D0E264B00F00F04241F1D55AE
:1004000003E013071C0E234B1C5400BF00204FF0C9
:10041000E02290610720106100BF01F0E0FAFFF7D1
:100420002FFFFFF741FF08F069F91B4808F022FD94
:100430004FF47F0008F014FD4FF6FF7008F012FD36
:1004400007F0A0FF002004F00BFC6946002005F037
:10045000CBFE12A0FFF78AFF0022114614A008F07D
:10046000E1F800BFFEE7000000000020C0DD002032
:1004700078090020140000200C00002078110020D2
:1004800078130020040000201D030008401901001B
:1004900018ED00E000E400E0A8B90308303A2F7737
:1004A0006561746865722F51512E6A706700000093
:1004B000626C61636B6C69676874000030B943F209
:1004C000DB028100A1F1C0410A6005E043F2D202E3
:1004D0008100A1F1C0410A606FF07042411C8900A7
:1004E000A1F1C0410A608100A1F1C041C1F804211D
:1004F000704710280AD118214FF020421166402180
:1005000051664FF0FC319166D16610E01821F74A30
:10051000116040214FF02042C2F884104FF0FC31AE
:10052000F24A083211604FF02042C2F88C10704736
:100530001820EE492031086000200906C1F8A40007
:100540004FF0FC30E94928310860091D0860091D99
:1005500008607047D0E901121143C2681143026973
:1005600011434269114382691143C2691143026A0E
:100570001143426A1143826A1143C26A1143026BFA
:10058000114302689200A2F1C042116081680829FB
:100590000BD101688900A1F1C041096841F0400216
:1005A00001688900A1F1C0410A60416B0968426B92
:1005B000526841EA0211426B926841EA0221426BA1
:1005C000928941EA0241426B128A41EA0251426B2E
:1005D000127D41EA0261426B926911430268521C2A
:1005E0009200A2F1C0421160C16AB1F5804F1BD1E7
:1005F000816B0968826B526841EA0211826B9268D2
:1006000041EA0221826B128A41EA0251826B127D19
:1006100041EA0261826B9269114302689200A2F181
:10062000C042C2F8041107E06FF07042016889000F
:10063000A1F1C041C1F80421704730B5002100226A
:100640000023446844F0080485682C43C5682C43A3
:1006500005692C43456944EA4524856944EA4531E6
:10066000C4692468C5696D6844EA0524C5692D8993
:1006700044EA0544C5692D7B44EA0562046A24689E
:10068000056A6D6844EA0524056A2D8944EA054433
:10069000056A2D7B44EA05630468102C05D14FF0F0
:1006A00020442166A266E36608E0904C21604FF08A
:1006B0002044C4F888208D4C0C34236030BD016880
:1006C00041F01001426841EA4221826841EA423128
:1006D000864A20321160C1680968C268526841EADE
:1006E0000221C268128941EA0241C268127B41EAD2
:1006F00002617E4A28321160016909680269526804
:1007000041EA02210269128941EA02410269127B2F
:1007100041EA0261754A2C321160416909684269F7
:10072000526841EA02214269128941EA0241426962
:10073000127B41EA02614FF02042C2F8B0107047CC
:10074000002101600221416000218160C1600161DE
:1007500041618161C16101624FF480514162490090
:1007600081620021C16201630F21426B1160426B03
:100770005160FF21426B91600F21426BD160426B4F
:100780001161426B51610021426B91610F21826BBB
:100790001160826B5160FF21826B91600F21826B2F
:1007A000D160826B1161826B51610021826B91611A
:1007B000704710210160002141608160C1600161CA
:1007C00041618161FC21C2691160C2695160C269E5
:1007D0009160C269D160026A1160026A5160026A66
:1007E0009160026AD16070470021016041608160C0
:1007F000FC21C2681160C2685160C2689160C26821
:10080000D1600269116002695160026991600269F8
:10081000D1604269116042695160426991604269E8
:10082000D160704751B18200A2F1C042126842F01B
:1008300001038200A2F1C042136009E08200A2F12C
:10084000C04212682A4B1A408300A3F1C0431A60C9
:10085000704799B1102808D14FF02042126E42F033
:1008600004024FF020431A661DE0204A126842F04D
:1008700004024FF02043C3F8802014E0102809D16F
:100880004FF02042126E1A4BDB1E1A404FF02043ED
:100890001A6608E0154A1268154BDB1E1A404FF025
:1008A0002043C3F88020704748B1104920310968BF
:1008B00041F004014FF02042C2F8A01009E00B49BA
:1008C000203109680A4AD21E11404FF02042C2F876
:1008D000A0107047B9B110280CD14FF02042126E11
:1008E00042F040024FF020431A661FE0800000A053
:1008F000FEFF0F00724A126842F040024FF02043A0
:10090000C3F8802012E0102808D14FF02042126E68
:100910006C4B1A404FF020431A6607E0684A126891
:10092000684B1A404FF02043C3F8802070470146BF
:100930000020102903D14FF02042506F02E0604A9E
:1009400014321068704710B5F2B1102807D14FF07B
:1009500020435B6E0B434FF02044636632E0B0F5FA
:10096000807F08D1564B1B1D1B680B434FF0204462
:10097000C4F8843026E0524B24331B680B434FF0FD
:100980002044C4F8A4301DE0102807D14FF02043C4
:100990005B6E8B434FF02044636613E0B0F5807FBD
:1009A00008D1474B1B1D1B688B434FF02044C4F8F4
:1009B000843007E0424B24331B688B434FF02044C4
:1009C000C4F8A43010BD10B5024600200023102A40
:1009D00003D14FF02044636E09E0B2F5807F03D16C
:1009E000374C241D236802E0354C2434236803EA85
:1009F00001040CB1012000E0002010BD102807D137
:100A00004FF02042526E8A434FF020435A6613E063
:100A1000B0F5807F08D12A4A121D12688A434FF030
:100A20002043C3F8842007E0254A243212688A4311
:100A30004FF02043C3F8A420704770B50246002051
:100A4000002300240025102A03D14FF02046736EA6
:100A500009E0B2F5807F03D1194E361D336802E0FC
:100A6000174E2436336803EA010403EAD10514B1B2
:100A70000DB1012000E0002070BD102808D14FF01A
:100A80002042526E22EAD1024FF020435A6615E00E
:100A9000B0F5807F09D10A4A121D126822EAD102FC
:100AA0004FF02043C3F8842008E0054A243212683E
:100AB00022EAD1024FF02043C3F8A420704700007F
:100AC000800000A0BFFF0F0010B50446CC48844250
:100AD00008D10121042000F02DFB0021042000F0AA
:100AE00029FB46E0C748844208D10121082000F0D4
:100AF00021FB0021082000F01DFB3AE0C24884429F
:100B000008D10121102000F015FB0021102000F079
:100B100011FB2EE0BD48844208D10121202000F0C5
:100B200009FB0021202000F005FB22E0B8488442A8
:100B300008D10121402000F0FDFA0021402000F002
:100B4000F9FA16E0B348844208D10121802000F070
:100B5000F1FA0021802000F0EDFA0AE0AE4884426C
:100B600007D10121801500F0E5FA0021A01500F061
:100B7000E1FA10BD10B50121084600F0DBFA0021B2
:100B8000012000F0D7FA10BD2DE9F0410246002502
:100B90000026002000230024002791F803C00CF059
:100BA0000F0591F803C00CF0100CBCF1000F03D03E
:100BB00091F802C04CEA050591F800C0BCF1000FA5
:100BC00031D0146800202BE04FF0010C0CFA00F338
:100BD000B1F800C00CEA03069E4220D183004FF01A
:100BE0000F0C0CFA03F7BC4305FA03FC4CEA0404AF
:100BF00091F803C0BCF1280F06D14FF0010C0CFA9C
:100C000000FCC2F814C00AE091F803C0BCF1480F20
:100C100005D14FF0010C0CFA00FCC2F810C0401CCA
:100C20000828D1D31460B1F800C0BCF1FF0F34DD47
:100C3000546800202EE000F1080C4FF0010808FA7B
:100C40000CF3B1F800C00CEA03069E4221D18300E8
:100C50004FF00F0C0CFA03F7BC4305FA03FC4CEA07
:100C6000040491F803C0BCF1280F05D100F1080C71
:100C700008FA0CF8C2F8148091F803C0BCF1480FD0
:100C800007D100F1080C4FF0010808FA0CF8C2F87F
:100C90001080401C0828CED35460BDE8F0814FF688
:100CA000FF710180022181700421C17070470246EA
:100CB000002093680B400BB1012000E0002070473A
:100CC0000146886880B2704702460020D3680B4016
:100CD0000BB1012000E0002070470146C86880B2D7
:100CE000704701617047416170470AB1016100E0DE
:100CF00041617047C16070474FF480320A4382619E
:100D00008161826182698269704702460020434B9B
:100D100018684FF68073184040EA021008433F4BB2
:100D2000186070473E49C8617047F0B50A46002315
:100D300000240021002500F00046B6F1004F02D14A
:100D4000364EF16901E0354E7168C0F3034583B258
:100D500000F44016B6F5401F08D121F070612F4E07
:100D6000766826F070662D4F7E6012E000F48016E3
:100D7000B6F5801F06D1032606FA05F4A14341F01B
:100D8000706106E0460D360103FA06F6B14341F004
:100D9000706122B1460D360103FA06F6314300F0C8
:100DA0000046B6F1004F02D11C4EF16101E01B4E2E
:100DB0007160F0BD30B500228B071C0F0F2303FAC2
:100DC00004F2164B08338C1053F824309343134C21
:100DD00008348D1044F8253023468C1053F8243005
:100DE0008C07240F00FA04F423430C4C08348D10B4
:100DF00044F8253030BD0A49DC31086070470000F6
:100E000000080140000C01400010014000140140A6
:100E100000180140001C014000200140000001407A
:100E200000002042DF48006840F00100DD49086012
:100E300008464068DC490840DA49486008460068CE
:100E4000DA490840D74908600846006820F4802045
:100E500008600846406820F4FE0048604FF41F0018
:100E600088607047CF49096821F48031CD4A11600C
:100E70001146096821F480211160B0F5803F03D04C
:100E8000B0F5802F0ED106E0C649096841F48031E3
:100E9000C44A116007E0C349096841F4A021C14A6E
:100EA000116000E000BF00BF704710B5014600228E
:100EB000002300204A11012A02D1BA4C236806E01F
:100EC000022A02D1B74C236A01E0B64C636A01F0F2
:100ED0001F02012494401C400CB1012000E00020BE
:100EE00010BD38B5002000900024002500BF31203F
:100EF000FFF7DBFF05460098401C00900098B0F516
:100F0000A06F01D0002DF2D03120FFF7CEFF08B145
:100F1000012400E00024204638BD01460020A14AFB
:100F2000106820F0F80040EAC10010607047A04946
:100F300008607047024600209A4B586820F47C10E5
:100F400042EA01031843974B586070479849086676
:100F5000704701460020934A506820F00300084380
:100F6000506070478F48406800F00C0070470146A1
:100F700000208C4A506820F0F00008435060704711
:100F800001460020874A506820F4E0600843506022
:100F9000704701460020834A506820F4605040EAC0
:100FA000C1005060704729B17E4A527A02437D4B9E
:100FB0005A7204E07B4A527A82437A4B5A727047E3
:100FC0007B49D8310860704701460020754A506857
:100FD00020F440400843506070470021714A20329D
:100FE0001170704A82F82010012802D004280AD11A
:100FF00004E001216B4A2032117005E00521694AA5
:101000002032117000E000BF00BF704769490860DE
:1010100070476449096A0143624A11627047654931
:1010200044390860704730B50021002200240023B5
:101030005C4D6D6805F00C0121B1042905D008292B
:1010400023D105E05C4D056022E05B4D05601FE0AB
:10105000544D6D6805F47012524D6D6805F480347E
:10106000022505EB92421CB9544D554305600BE037
:101070004C4D6D6805F400351DB1504D554305606C
:1010800002E04D4D5543056002E04B4D056000BF49
:1010900000BF444D6D6805F0F0010909484D6B5CD7
:1010A0000568DD4045603F4D6D6805F4E061090A63
:1010B000434D6B5C4568DD4085603A4D6D6805F4D5
:1010C0006051C90A3E4D6B5C4568DD40C560354DD9
:1010D0006D6805F44041890B3A4D6B5CC568B5FB02
:1010E000F3F5056130BD29B12E4A526902432D4BFB
:1010F0005A6104E02B4A526982432A4B5A61704775
:1011000029B1284A92690243264B9A6104E0254A94
:1011100092698243234B9A61704729B1214AD2696F
:101120000243204BDA6104E01E4AD26982431D4B20
:10113000DA61704729B11B4AD2680243194BDA6061
:1011400004E0184AD2688243164BDA60704729B12E
:10115000144A12690243134B1A6104E0114A1269DE
:101160008243104B1A61704712494039086070473A
:101170000F49C86470470B49C87170470948406AF5
:1011800040F0807007494862704701460020054AD8
:1011900092680A400AB1012000E00020704701492E
:1011A00088727047001002400000FFF8FFFFF6FE53
:1011B000000042428004424200127A0000093D00D1
:1011C000180000202800002031490143314A1160F5
:1011D000704770B5002100230F22C47804B32D4C52
:1011E000246804F4E064C4F5E064210AC1F1040356
:1011F000CA40447804FA03F1847814402143090179
:10120000254C0678A155047804F01F050124AC4054
:1012100005786D11AD0005F1E025C5F8004109E044
:10122000047804F01F050124AC401C4D06787611AB
:1012300045F8264070BD1A4A0A400243154B1B1F51
:101240001A60704739B1134A121D12680243114BDC
:101250001B1D1A6006E00F4A121D126882430D4BD7
:101260001B1D1A607047042808D14FF0E02109695E
:1012700041F004014FF0E022116107E04FF0E0215E
:10128000096921F004014FF0E0221161704700006C
:101290000000FA050CED00E000E400E080E100E071
:1012A00080FFFF1F01684FF6FE72114001600021B0
:1012B000016041608160C1608D49884208D18C49DC
:1012C0000839496841F00F01894A083A51608AE0BB
:1012D00087491431884208D185490839496841F065
:1012E000F001834A083A51607DE081492831884203
:1012F00008D17F490839496841F470617C4A083A4D
:10130000516070E07A493C31884208D17849083907
:10131000496841F47041764A083A516063E0744983
:101320005031884208D172490839496841F4702126
:101330006F4A083A516056E06D496431884208D1DD
:101340006B490839496841F47001694A083A5160AB
:1013500049E067497831884208D1654908394968C8
:1013600041F07061624A083A51603CE0614988424C
:1013700006D1011F096841F00F01021F116032E020
:101380005C491431884208D15A49091F096841F063
:10139000F001584A121F116025E056492831884251
:1013A00008D15449091F096841F47061514A121F5C
:1013B000116018E04F493C31884208D14D49091F5E
:1013C000096841F470414B4A121F11600BE0494912
:1013D0005031884207D14749091F096841F47021FB
:1013E000444A121F1160704710B50022026847F688
:1013F000F0739A430C6A8B6823430C6923434C694E
:1014000023438C692343CC6923434C6A23438C6A6E
:1014100023431A430260CB6843600B6883604B68C8
:10142000C36010BD0021016041608160C160016145
:1014300041618161C161016241628162704721B194
:10144000026842F00102026004E002684FF6FE7397
:101450001A40026070471AB103680B43036002E050
:1014600003688B43036070474160704701464868DA
:1014700080B2704701460020002201F080531BB16A
:101480001C4B083B1A6802E0194B083B1A6802EA39
:1014900001030BB1012000E00020704700F08051F3
:1014A00019B11449091F086002E011490839486060
:1014B000704701460020002201F080531BB10D4B04
:1014C000083B1A6802E00A4B083B1A6802EA01036B
:1014D0000BB1012000E00020704700F0805119B1ED
:1014E0000449091F086002E0014908394860704753
:1014F000080002400804024000206F49086048606C
:101500008860C86048628862C8626C48886300204E
:10151000C86370470021684A516847F6FF629143EB
:10152000027D83681A4343681A43C3681A430368F9
:101530001A4303691A4311435F4A516070470021FF
:101540000175016041608160C160016170475C4963
:10155000086070475849096821F00301564A116034
:10156000114609680143116070475348006800F054
:101570000300704729B1504AD26B02434E4BDA63E5
:1015800004E04D4AD26B82434B4BDA6370474D49BE
:10159000086070470021484B02689A601A46D1687B
:1015A0006FF30A01D0E901231A43C3681A430369A0
:1015B0001A431143404AD1607047002101604160E5
:1015C0008160C160016170473B480069C0B27047EB
:1015D00008B50146002000903748143008440090B8
:1015E0000098006808BD0021334B02685A624268C7
:1015F0009A621A46D16A21F0F701D0E902231A4310
:1016000003691A4343691A4311432B4AD162704755
:101610004FF0FF310160002141608160C1600161D4
:10162000416170472448006B704723488030006850
:10163000704721498031086070471F48806C7047AF
:1016400020491431086070471E49183108607047FE
:101650001C491C31086070471A49203108607047E6
:101660001949086070471849091D08607047012131
:101670008143154A08321160704713490C310860E4
:101680007047014600200C4A526B0A400AB1012003
:1016900000E0002070470849886370470146002039
:1016A000054A526B0A400AB1012000E00020704751
:1016B000014988637047000000800140FF07C000B7
:1016C000A00030428C053042AC0130420CB5002005
:1016D000019000906C48006840F480306A490860CE
:1016E00000BF6948006800F4003000900198401C79
:1016F0000190009818B90198B0F5A06FF1D1624837
:10170000006800F4003010B10120009001E00020DA
:1017100000900098012843D15C48006840F0100018
:101720005A4908600846006820F00300086008462F
:10173000006840F002000860534840685249486021
:101740000846406848600846406840F48060486049
:101750000846406820F47C1048600846406840F421
:10176000E81048600846006840F08070086000BFDC
:101770004548006800F000700028F9D042484068F1
:1017800020F00300404948600846406840F00200ED
:10179000486000BF3C48406800F00C000828F9D1C0
:1017A0000CBD10B5FFF792FF10BD10B536480068AC
:1017B00040F0010034490860084640683449084058
:1017C0003149486008460068324908402E4908609F
:1017D0000846006820F4802008600846406820F42D
:1017E000FE0048604FF41F008860FFF7DAFF4FF0FB
:1017F00000602949086010BD10B5002100200022BA
:10180000214B5B6803F00C0121B1042906D00829A3
:1018100028D107E0214B224C236027E01F4B204CAE
:10182000236023E0184B5B6803F47010164B5B6871
:1018300003F48032022303EB904022B9194B434357
:10184000174C23600DE0104B5B6803F4003323B1A9
:10185000144B4343124C236003E0104B4343104CA2
:10186000236003E00D4B0E4C236000BF00BF064B0E
:101870005B68C3F303130C4CE15C094B1B68CB4062
:10188000074C236010BD0000001002400020024001
:101890000000FFF8FFFFF6FE08ED00E000127A00FE
:1018A0002C00002000093D003000002000B597B05A
:1018B00001210802FFF717FC4FF40050ADF80000BB
:1018C00010208DF8030003208DF80200694633488C
:1018D000FFF75AF94FF400513048FFF702FA02209F
:1018E000ADF8000010208DF8030003208DF80200F1
:1018F00069462B48FFF748F94CF23370ADF8000009
:1019000003208DF8020018208DF803006946234853
:10191000FFF73AF94FF68070ADF8000069462048AD
:10192000FFF732F98020ADF8000069461B48FFF749
:101930002BF94FF40060ADF8000069461748FFF737
:1019400023F902200190002002900520039000203E
:101950000490059006904FF080500790002008906A
:10196000099008200A9010200B9000200C900E90F7
:101970000F9010904FF4805011900020129013900F
:10198000149001A81590169008A8FEF7E3FD012118
:101990000020FEF747FF17B000BD00000014014013
:1019A0000018014001B502E00098401E0090009828
:1019B0000028F9D108BD4FF0C041088070474FF0B2
:1019C000C0421080FE4A118070470020FC49088800
:1019D0007047FB4908807047F9490880704710B587
:1019E0000221F848FFF77FF9F748FFF7DBFF0221F4
:1019F000F448FFF776F9F448FFF7D4FFE220FFF749
:101A0000DAFF2320FFF7E5FF0220FFF7E2FF0420C3
:101A1000FFF7DFFFE020FFF7CEFF0120FFF7D9FF40
:101A20004AF6FF70FFF7BEFFE020FFF7C4FF032078
:101A3000FFF7CFFF4AF6FF70FFF7B4FF0120FFF773
:101A4000BAFF4AF6FF70FFF7ADFFE620FFF7B3FFDE
:101A50000420FFF7BEFF9320FFF7BBFFE020FFF756
:101A6000B8FFB020FFF7A7FF0020FFF7B2FF00206C
:101A7000FFF7AFFFD5480088C0F30720FFF7A9FFA5
:101A8000D2490878FFF7A5FFD1480088C0F30720A6
:101A9000FFF79FFFCE490878FFF79BFF0020FFF775
:101AA00098FFB420FFF787FFCA480088C0F30720DB
:101AB000FFF78FFFC7490878FFF78BFFC6480088FC
:101AC000C0F30720FFF785FFC3490878FFF781FFC0
:101AD000C2480078FFF77DFFC1480088C0F30720A7
:101AE000FFF777FFBE490878FFF773FF0020FFF785
:101AF00070FFB620FFF75FFFBA480088C0F30720E9
:101B0000FFF767FFB7490878FFF763FFB64800881B
:101B1000C0F30720FFF75DFFB3490878FFF759FFCF
:101B2000B2480078FFF755FFB1480088C0F307209E
:101B3000FFF74FFFAE490878FFF74BFFB820FFF7DC
:101B40003AFF0F20FFF745FF0120FFF742FFBA20C1
:101B5000FFF731FF0F20FFF73CFF3620FFF72BFF89
:101B60000020FFF736FFF020FFF725FF0320FFF7E7
:101B700030FF4AF6FF70FFF715FF2920FFF71BFF24
:101B8000BE20FFF718FF0120FFF723FFFF20FFF71C
:101B900020FF0120FFF71DFFF020FFF71AFF0020B4
:101BA000FFF717FF0020FFF714FF10BD70B50546C3
:101BB0000C462A20FFF7FFFE2812FFF70AFF2846EF
:101BC000FFF707FF511EC1F30F20FFF702FF511E61
:101BD00088B2FFF7FEFE2B20FFF7EDFE2012FFF785
:101BE000F8FE2046FFF7F5FE591EC1F30F20FFF760
:101BF000F0FE591E88B2FFF7ECFE2C20FFF7DBFE4B
:101C0000501B191B00FB01F603E04FF6FF70FFF7B6
:101C1000E0FE3000A6F10106F7D170BD10B5044614
:101C20000B462A20FFF7C7FE2012FFF7D2FE204600
:101C3000FFF7CFFE2012FFF7CCFE2046FFF7C9FECC
:101C40002B20FFF7B8FE1812FFF7C3FE1846FFF768
:101C5000C0FE1812FFF7BDFE1846FFF7BAFE2C2093
:101C6000FFF7A9FE1046FFF7B4FE10BD00B503460E
:101C70000A462A20FFF79FFE1812FFF7AAFE184611
:101C8000FFF7A7FE1812FFF7A4FE1846FFF7A1FE04
:101C90002B20FFF790FE1012FFF79BFE1046FFF778
:101CA00098FE1012FFF795FE1046FFF792FE2E20C9
:101CB000FFF781FEFFF789FE00BDF0B505460C4633
:101CC0002A20FFF778FE2812FFF783FE2846FFF749
:101CD00080FE1012FFF77DFE1046FFF77AFE2B20E4
:101CE000FFF769FE2012FFF774FE2046FFF771FE32
:101CF0002012FFF76EFE2046FFF76BFE2C20FFF749
:101D00005AFE501B471C002603E01846FFF761FEF1
:101D1000761CBE42F9D9F0BDF0B505460C462A2026
:101D2000FFF749FE2812FFF754FE2846FFF751FE41
:101D30002812FFF74EFE2846FFF74BFE2B20FFF739
:101D40003AFE2012FFF745FE2046FFF742FE101232
:101D5000FFF73FFE1046FFF73CFE2C20FFF72BFE5F
:101D6000101B471C002603E01846FFF732FE761CC6
:101D7000BE42F9D9F0BD2DE9F04105460C46069F5B
:101D80002A20FFF718FE2812FFF723FE2846FFF748
:101D900020FE1012FFF71DFE1046FFF71AFE2B2043
:101DA000FFF709FE2012FFF714FE2046FFF711FE91
:101DB0001812FFF70EFE1846FFF70BFE2C2019E055
:101DC0000000026000180140FFFF0A0040000020F0
:101DD0005400002044000020480000204C00002057
:101DE00050000020580000205C000020600000200F
:101DF00064000020FFF7DFFD501B401C191B491C2D
:101E000000FB01F8002603E03846FFF7E2FD761CF0
:101E10004645F9D9BDE8F0812DE9F04104460D466B
:101E2000069F2A20FFF7C7FD2012FFF7D2FDE0B280
:101E3000FFF7CFFDA118491EC1F30F20FFF7C9FD21
:101E4000A118491EC8B2FFF7C4FD2B20FFF7B3FD50
:101E50002812FFF7BEFDE8B2FFF7BBFDE918491EE7
:101E6000C1F30F20FFF7B5FDE918491EC8B2FFF70F
:101E7000B0FD2C20FFF79FFD02FB03F04FEA400866
:101E8000002603E0B85DFFF7A7FD761C4645F9D3B1
:101E9000BDE8F0810B48006870470A4A12681118C3
:101EA00000BF084A12688A1A002AFADC7047704795
:101EB0007047704770477047704770470020704701
:101EC000704700006800002010B54FF448410348F7
:101ED00006F060F9024806F0C7FF10BDA01500200B
:101EE000C0C0030810B500231A462249224806F054
:101EF000AFFA07F06BFC70B14FF448724FF4F27117
:101F0000002007F09FFD4FF448724FF472710020DB
:101F100007F0AEFD0DE04FF4F2724FF4487100206F
:101F200007F090FD4FF472724FF44871002007F0F3
:101F30009FFD10BD2DE9F04106460F46144625468B
:101F40003020FFF738FD6968C1F30F20FFF741FD2E
:101F5000A98888B2FFF73DFD0120FFF73AFD4FF455
:101F6000F270FFF736FD1220FFF725FD0020BDE8D7
:101F7000F081000028970308F0E900082DE9F041FE
:101F800007460C4615461E46B2B2A9B2A0B2FFF7EC
:101F900045FEBDE8F0812DE9F04107460C461546A7
:101FA000A9B2A0B2FFF762FE06463046BDE8F08156
:101FB0002DE9F04104460D46164632462946204694
:101FC000FFF7E9FF0746216988688047804687EA6E
:101FD0000803324629462046FFF7D0FFBDE8F081CE
:101FE0002DE9F84F81460D4614461E46DDF828803F
:101FF000FE480068C06BD0F800A0FC480068007C78
:1020000000F0010070B10AE02F4605E02246394693
:102010004846FFF7CDFF7F1CB742F7DD641C4445FF
:10202000F2DD09E01FFA8AF01FFA88F3B2B2A1B21A
:102030000090A8B2FFF79FFEBDE8F88FF8B50546FF
:102040000E4614461F463B4622463146284600941B
:10205000FFF7C6FFF8BDF8B506460C4617461D4605
:1020600023463A46214630460095FFF7B9FFF8BDB2
:102070002DE9FE4F82460C4617461D46DDE90C68E9
:1020800004EB080000902A20FFF795FCC4F30F2012
:10209000FFF79FFCA0B2FFF79CFC0098C0F30F2055
:1020A000FFF797FC009988B2FFF793FC2B20FFF70E
:1020B00082FCC7F30F20FFF78CFCB8B2FFF789FC56
:1020C000C7F30F20FFF785FCB8B2FFF782FC2C2086
:1020D000FFF771FC0E98006802900E98406801901E
:1020E0003444C2480068007C00F0030030B101288D
:1020F00036D002281AD0032857D130E000BF297803
:1021000080223241114009B1019900E0029988B260
:10211000FFF75FFC701C0646082801D100266D1CE5
:10212000A8F101005FEA0008E9D13EE000BF28788D
:1021300080213141084028B13A4621465046019B52
:10214000FFF71CFF641C701C0646082801D10026FE
:102150006D1CA8F101005FEA0008E8D125E000BF8E
:10216000DAF8101088688047814600BF28788021FF
:102170003141084060B13A4621465046FFF70BFF17
:1021800083468BEA09033A4621465046FFF7F6FE9E
:10219000641C701C0646082801D100266D1CA8F19D
:1021A00001005FEA0008E1D100BF00BFBDE8FE8F7B
:1021B0002DE9FF4F83B00F4691469846DDE911ABFC
:1021C00007EB0A0000902A20FFF7F5FBC7F30F206A
:1021D000FFF7FFFBB8B2FFF7FCFB0098C0F30F203E
:1021E000FFF7F7FB009988B2FFF7F3FB2B20FFF70F
:1021F000E2FBC9F30F20FFF7ECFB1FFA89F0FFF7B2
:10220000E8FBC9F30F20FFF7E4FB1FFA89F0FFF7A3
:10221000E0FB2C20FFF7CFFB98F800000290109E07
:10222000109E374471480068007C00F0030010B134
:10223000022844D144E0BBF1000F22D000BFC6F118
:1022400003004400C4F10601C0200841029908407F
:1022500020FA04F55BF825100191019988B2FFF787
:10226000B8FB701C0646042805D1002608F10100C1
:10227000804600780290AAF101005FEA000ADED1F0
:102280001DE000BFC6F103004400C4F10601C020F8
:1022900008410299084020FA04F5A8B2FFF799FB1B
:1022A000701C0646042805D1002608F1010080466E
:1022B00000780290AAF101005FEA000AE2D14DE045
:1022C000BBF1000F26D000BFC6F103004400C4F1EB
:1022D0000601C02008410299084020FA04F545B1E2
:1022E0005BF8250001904A463946019B0398FFF7A9
:1022F00045FE7F1C701C0646042805D1002608F107
:102300000100804600780290AAF101005FEA000A0D
:10231000DAD122E000BFC6F103004400C4F1060197
:10232000C02008410299084020FA04F52DB12B463F
:102330004A4639460398FFF721FE7F1C701C06466B
:10234000042805D1002608F101008046007802909B
:10235000AAF101005FEA000ADDD100BF00BF07B0AB
:10236000BDE8F08F2DE9FF4F83B00F4691469846A8
:10237000DDE911AB07EB0A0000902A20FFF71BFBF9
:10238000C7F30F20FFF725FBB8B2FFF722FB009839
:10239000C0F30F20FFF71DFB009988B2FFF719FB70
:1023A0002B20FFF708FBC9F30F20FFF712FB1FFAE2
:1023B00089F0FFF70EFBC9F30F20FFF70AFB1FFAA6
:1023C00089F0FFF706FB2C20FFF7F5FA98F80000DC
:1023D0000290109E109E374404480068007C00F074
:1023E000030028B1022847D147E00000B8000020D0
:1023F000BBF1000F22D000BFC6F101008400C4F180
:102400000401F02008410299084020FA04F55BF825
:1024100025100191019988B2FFF7DBFA701C06467E
:10242000022805D1002608F10100804600780290BC
:10243000AAF101005FEA000ADED11DE000BFC6F18B
:1024400001008400C4F10401F02008410299084011
:1024500020FA04F5A8B2FFF7BCFA701C0646022861
:1024600005D1002608F10100804600780290AAF10B
:1024700001005FEA000AE2D14DE0BBF1000F26D077
:1024800000BFC6F101008400C4F10401F02008413E
:102490000299084020FA04F545B15BF82500019047
:1024A0004A463946019B0398FFF768FD7F1C701C64
:1024B0000646022805D1002608F101008046007872
:1024C0000290AAF101005FEA000ADAD122E000BF1F
:1024D000C6F101008400C4F10401F0200841029912
:1024E000084020FA04F52DB12B464A463946039898
:1024F000FFF744FD7F1C701C0646022805D100260C
:1025000008F10100804600780290AAF101005FEA1C
:10251000000ADDD100BF00BF07B0BDE8F08F2DE994
:10252000F05F83460E4690461C46DDE90A5906EBED
:10253000050A2A20FFF73FFAC6F30F20FFF749FAF2
:10254000B0B2FFF746FACAF30F20FFF742FA1FFABC
:102550008AF0FFF73EFA2B20FFF72DFAC8F30F2081
:10256000FFF737FA1FFA88F0FFF733FAC8F30F20A6
:10257000FFF72FFA1FFA88F0FFF72BFA2C20FFF74E
:102580001AFAFA480068007C00F0030010B1022833
:102590003CD119E0B9F1000F0CD008E0277839F8E8
:1025A000271088B2FFF715FA6D1E761C641C002DEB
:1025B000F4DC08E005E02078FFF70BFA6D1E761CCE
:1025C000641C002DF7DC21E0B9F1000F0FD00BE007
:1025D000277837B159F82730424631465846FFF739
:1025E000CDFC6D1E761C641C002DF1DC0DE00AE0B4
:1025F00027782FB13B46424631465846FFF7BEFC8E
:102600006D1E761C641C002DF2DC00BF00BFBDE80F
:10261000F09F2DE9F04782460D4614461E46089F5E
:1026200005EB07092A20FFF7C6F9C5F30F20FFF7CE
:10263000D0F9A8B2FFF7CDF9C9F30F20FFF7C9F918
:102640001FFA89F0FFF7C5F92B20FFF7B4F9C4F39F
:102650000F20FFF7BEF9A0B2FFF7BBF9C4F30F20BC
:10266000FFF7B7F9A0B2FFF7B4F92C20FFF7A3F9F1
:102670004FF0000805E03088FFF7ABF9B61C08F111
:102680000108B845F7D3BDE8F0872DE9F0410746CA
:102690000D4690461C46069E08E0424629463846AE
:1026A0002368FFF76BFC761E6D1C241D002EF4DCE6
:1026B000BDE8F0812DE9FF4F83B015461E46DDE9E8
:1026C00014BADDE91297DDF84080119808283FD050
:1026D00006DC012809D0022818D0042863D126E09E
:1026E000102844D020285ED14FE000240BE062196E
:1026F0003B46CDE900B6CDF808A0DDE90301FFF7C0
:10270000B7FC4F44641C4445F1DB4CE000240BE073
:1027100062193B46CDE900B6CDF808A0DDE903011A
:10272000FFF746FD4F44641C4445F1DB3BE00024C9
:102730000BE062193B46CDE900B6CDF808A0DDE913
:102740000301FFF70FFE4F44641C4445F1DB2AE010
:10275000002409E062193B46CDE9006ADDE9030186
:10276000FFF7DDFE4F44641C4445F3DB1BE000240F
:1027700008E062193B460096DDE90301FFF749FFD7
:102780004F44641C4445F4DB0DE0002408E062196A
:102790003B460096DDE90301FFF777FF4F44641CD9
:1027A0004445F4DB00BF00BF07B0BDE8F08F70B553
:1027B0000446A06858B91C2005F01CFDA060A5685F
:1027C000216988688047064607F054FAA861A06826
:1027D00008B9012070BD0020FCE703460A4699684D
:1027E0000F2A1FD2DFE802F01E080A0C0E1E1E1E62
:1027F00010121416181A1C00486870478868FCE705
:10280000C868FAE70869F8E78869F6E70020F4E79E
:102810000120F2E70120F0E70020EEE70020ECE7DE
:102820000020EAE74FF0FF30E7E70246012901D137
:102830004F4870470020FCE7826800230B804B80E4
:1028400093895B1E1BB28B80138A5B1E1BB2CB80ED
:1028500070477CB504460D46164600200090019056
:10286000009501966A460321A069FFF763FB7CBDD2
:10287000F8B504460D46002000902046FFF797FF6C
:10288000A06838B1A668356000956A460221A06943
:10289000FFF750FBF8BD2DE9F04105460E461746FF
:1028A0002846FFF784FFA86818B1AC68E660276186
:1028B0006661BDE8F0812DE9FC4105460E461746EC
:1028C0000020009001902846FFF771FFA86878B1BA
:1028D000AC68606908B9304600E0606960616660B4
:1028E000A760009601976A460721A869FFF722FBB7
:1028F000BDE8FC8170B504462046FFF758FF054649
:1029000000220121A069FFF715FB0543284670BD91
:1029100010B5044600220521A069FFF70BFB10BD8E
:1029200010B5044600220621A069FFF703FB10BD85
:102930007CB504460D4616460020009001908DF8A7
:10294000045000966A460421A069FFF7F3FA7CBDA3
:102950000246A1F1090008281AD2DFE800F0040DB0
:102960000F1119131517034870470000B800002015
:1029700024C10308712800080648F5E70648F3E774
:102980000648F1E70648EFE70648EDE70648EBE7BB
:102990000020E9E797280008B7280008F528000874
:1029A00011290008212900083129000808B5002054
:1029B000FEF7CDFD0020FEF7CDFDFEF79DFD0021C9
:1029C0004FF48060FEF78FFB4FF4F850ADF8000035
:1029D00004208DF803006946FE48FEF7D5F8042070
:1029E000ADF800006946FC48FEF7CEF808BD08B512
:1029F0000121B020FEF784FB4FF4F850ADF8000041
:102A000003208DF8020018208DF803006946F14874
:102A1000FEF7BAF80420ADF800006946EE48FEF76C
:102A2000B3F84FF40060ADF8000048208DF80300C3
:102A30006946EA48FEF7A8F801218802FEF753FB31
:102A400001210220FEF74FFB08BD30B58BB00546D3
:102A50000C46E348FEF722FD0021E248FEF7EFFCBA
:102A6000E1480090019510200290A00803900020FA
:102A70000490802005908000069080000790002040
:102A800008904FF40050099000200A906946D548FC
:102A9000FEF7AAFC0121D348FEF7D1FC0BB030BDF4
:102AA00030B58BB005460C46CD48FEF7F7FC00214B
:102AB000CC48FEF7C4FCCC48009001950020029061
:102AC000A0080390002004908020059080000690CC
:102AD00080000790002008904FF4005009900020DB
:102AE0000A906946BF48FEF77FFC0121BD48FEF70A
:102AF000A6FC0BB030BD10B5BC48FEF7BBFC10BD4A
:102B000010B5FFF753FF10BD01462A2019B1012966
:102B100001D0022902D1B64A116000E02620704798
:102B20002DE9F04106462A27AF488038456B02E080
:102B3000AD488038456B05F045000028F8D005F019
:102B4000040030B103270420FEF7A5FD3846BDE898
:102B5000F08105F0010028B101270120FEF79BFD5F
:102B60003846F4E7FEF730FDB04202D01027384671
:102B7000EDE740F2FF50FEF78EFD0020FEF728FD46
:102B800004469C48204008B93846E0E704F000407D
:102B900008B11C20DBE704F0804008B10920D6E72B
:102BA00004F0005008B10A20D1E704F0805008B1C9
:102BB0000B20CCE704F0006008B10C20C7E704F05C
:102BC000806008B10D20C2E704F0807008B10E20CB
:102BD000BDE704F4000008B10F20B8E704F480005A
:102BE00008B11020B3E704F4001008B11120AEE7DB
:102BF00004F4801008B11220A9E704F4002008B101
:102C00001320A4E704F4802008B114209FE704F403
:102C1000003008B115209AE704F4803008B116207E
:102C200095E704F4004008B1172090E704F48040D1
:102C300008B118208BE704F4005008B1192086E78A
:102C400004F0080008B11A2081E738467FE72DE933
:102C5000FC4107460D4600262A24002000900190E2
:102C600008206549086010204860402088600020E6
:102C7000C8604FF4806008610846FEF78BFC1020A6
:102C8000FFF74EFF04462A2C02D02046BDE8FC8107
:102C90005A4800880004584908603720486040209E
:102CA00088600020C8604FF4806008610846FEF725
:102CB00071FC3720FFF734FF04462A2C01D0204650
:102CC000E4E74F484F49086008204860302088609A
:102CD0000220C86000200861012048610846FEF714
:102CE00082FC00204449086033204860402088600E
:102CF0000020C8604FF4806008610846FEF74AFC77
:102D00003320FFF70DFF04462A2C01D02046BDE7F3
:102D100009E04FF40010FEF7B4FC20B1FEF785FC8B
:102D20004DF82600761C30488038406B40F22A610E
:102D300008400028EDD00820FEF7A3FC28B10820A9
:102D4000FEF7A9FC04242046A0E70220FEF799FC28
:102D500028B10220FEF79FFC0224204696E720209F
:102D6000FEF78FFC28B12020FEF795FC06242046B4
:102D70008CE74FF40070FEF784FC30B14FF4007024
:102D8000FEF789FC0724204680E740F2FF50FEF75B
:102D900082FC00980006009901F47F4140EA01207E
:102DA000009901F47F0140EA1120009940EA116086
:102DB000686001980006019901F47F4140EA012012
:102DC000019901F47F0140EA1120019940EA116064
:102DD000286019E00010014000140140001C01406F
:102DE00000F00010440402408080014000200010E8
:102DF0007400002008E0FFFD28DE002070000020A5
:102E0000FFFF0F003CDE002020463FE77CB5054673
:102E10002A24002000900190FEF7DAFB00F00070F9
:102E200010B10E2420467CBDFE49098888B269464F
:102E3000FFF70DFF04462A2C01D02046F3E7012DB1
:102E400038D1019800F48020002830D0F54800885F
:102E50000004F54908603720486040208860002061
:102E6000C860A80208610846FEF794FB3720FFF708
:102E700057FE04462A2C01D02046D4E70220EA4916
:102E8000086006204860402088600020C8604FF439
:102E9000806008610846FEF77DFB0620FFF740FED4
:102EA00004462A2C01D02046BDE72046BBE7252456
:102EB0002046B8E7019800F4803078B3D9480088FC
:102EC0000004D9490860372048604020886000200D
:102ED000C8604FF4806008610846FEF75BFB37204E
:102EE000FFF71EFE04462A2C01D020469BE7002057
:102EF000CD49086006204860402088600020C860F6
:102F00004FF4806008610846FEF744FB0620FFF797
:102F100007FE04462A2C02D0204684E701E0204622
:102F200081E7252420467EE770B504462A25BF4860
:102F30000068032802D12725284670BDBB480068D9
:102F400038B1BA480068012803D0B84800680228A0
:102F500030D1B4F5805F02D127252846EDE7B4F5DE
:102F6000006F15D10120FFF751FF05462A2D21D111
:102F70000120AF49087500200860486088604FF460
:102F80000060C860002008610846FEF7C3FA11E03F
:102F90000020FFF73BFF05462A2D0BD10120A44955
:102FA00008750020086048608860C86008610846AD
:102FB000FEF7B0FA2846C0E770B504462A259A48BD
:102FC0000460072098494860402088600020C8605D
:102FD0004FF4806008610846FEF7DCFA0720FFF72F
:102FE0009FFD0546284670BD30B501462A200022C7
:102FF0008E4B1B7881F84E308A4B1B88A1F84C30E1
:103000008C4B1B681A0E93090B70C2F383034B7031
:1030100002F003038B70874B1B68C3F30742CA702F
:10302000844B1B88C3F307220A71824B1A784A71BA
:103030005B681A0E1301CB807E4B5B68C3F30742BB
:10304000CB8843EA1213CB8002F00F030B72794B4B
:103050009B88C3F30722D3094B72C2F380138B7290
:10306000C2F34013CB72C2F300130B7300234B73F4
:103070006E4B1B681BB16D4B1B68012B3CD193073A
:103080001B0D0B616B4B1A790B6943EA82030B61D1
:10309000684B9B681A0E0B6943EA92130B61C2F3EB
:1030A000C2030B7502F007034B75624B9B68C3F3B9
:1030B000074253098B75C2F38203CB7593075B0FED
:1030C0000B765C4B1B89C3F307220B7E43EAD213BA
:1030D0000B760B695B1C4B640C7E4B6CA41C0125AE
:1030E000A5406B434B640C7A0123A3408B64D1E968
:1030F000113463434B6421E04C4B1B68022B1DD100
:103100004C4B1A7993069B0A0B614A4B9B681A0E2B
:103110000B6943EA02230B61464B9B68C3F30742EA
:103120000B6913430B61434B1B89C3F307220B69E4
:103130005B1CDB044B644FF400738B64C2F380139D
:1031400001F8193F93065B0E4B703A4B1A7A4B7895
:1031500043EAD2134B7002F07F038B70354BDB6870
:103160001A0ED309CB70C2F341130B71C2F3820361
:103170004B7193071B0F8B712E4BDB68C3F3074218
:103180008B7943EA92138B71C2F34013CB71002306
:103190000B7202F001034B72264B9B89C3F307228B
:1031A000D3098B72C2F38013CB72C2F340130B733B
:1031B000C2F300134B73C2F381038B7302F003035A
:1031C000CB731C4B1A7B53080B7401234B741A4BA3
:1031D0001B681A0ECA741939174B1B68C3F30742D0
:1031E0001402CC85144B1B88C3F30722CB8D1343E9
:1031F000CB85114B1A7814060C635B681A0E0B6BA7
:1032000043EA02440C630C4B5B68C3F307420B6B4D
:1032100043EA02240C63084B9B88C3F307220B6B21
:1032200013430BE07000002028DE00206C0000201B
:1032300010DE0020A0DD0020B0DD00200B63FE4B7F
:103240001A7934235A54FC4B9B681A0E35235A546E
:10325000F94B9B68C3F3074214068C63F64B1B893A
:10326000C3F307228B6B43EA02448C63F24B1A7A56
:103270008B6B43EA02248C63EF4BDB681A0E8B6B7B
:1032800013438B63EC4BDB68C3F307423C235B5C6B
:1032900043EA12143C235C5413071C0DCC87E64B05
:1032A0009B89C3F30722CB8F1343CB87E24B1A7B57
:1032B000540840235C54012441235C5430BD70B554
:1032C0002A25DE48446B01E0DC48446B04F04500ED
:1032D0000028F9D004F0040028B103250420FEF7EB
:1032E000DAF9284670BD04F0010028B1012501205B
:1032F000FEF7D1F92846F5E740F2FF50FEF7CBF98B
:103300002846EFE72DE9F04106460F464FF02A0820
:10331000CA48456B01E0C948456B05F045000028E7
:10332000F9D005F0040038B14FF003080420FEF78F
:10333000B2F94046BDE8F08105F0010030B14FF030
:1033400001080120FEF7A7F94046F3E7FEF73CF934
:10335000B04203D04FF010084046EBE740F2FF5078
:10336000FEF799F90020FEF733F9044604F46040B3
:1033700018B9200C38804046DCE704F4005008B14E
:103380001320D7E704F4804008B11020D2E704F4FA
:10339000004008B10F20CDE74046CBE738B52A24DE
:1033A00001200090FEF7E1F810B92524204638BD31
:1033B000A3480068042829D00020A2490860022000
:1033C0004860C02088600020C8604FF480600861B9
:1033D0000846FEF7DFF8FFF772FF04462A2C01D0FB
:1033E0002046E4E70020FEF7F3F893490860042044
:1033F000FEF7EEF8904948600820FEF7E9F88E499C
:1034000088600C20FEF7E4F88B49C8608C4800689F
:1034100058B18B480068012807D089480068062801
:1034200003D087480068022817D10020854908602A
:1034300003204860402088600020C8604FF480600E
:1034400008610846FEF7A6F869460320FFF75AFF11
:1034500004462A2C01D02046A9E7794800680428B0
:103460002FD0BDF8000078490860BDF800000004C6
:103470007449086009204860C02088600020C86046
:103480004FF4806008610846FEF784F8FFF717FFE5
:1034900004462A2C01D0204689E70020FEF798F840
:1034A0006A4908600420FEF793F8684948600820DC
:1034B000FEF78EF8654988600C20FEF789F86349AD
:1034C000C8602A24204672E770B52A255B48446B01
:1034D00001E05A48446B04F045000028F9D004F09C
:1034E000040028B103250420FEF7D5F8284670BD56
:1034F00040F2FF50FEF7CFF82846F8E770B52A26CD
:103500004FF480354D48446B02E06D1E4B48446BD0
:1035100004F0450008B9002DF7D115B104F00400FE
:1035200028B103260420FEF7B6F8304670BD04F03B
:10353000400028B12A264020FEF7ADF83046F5E7D6
:103540003046F3E770B52A254FF4803400E0641E5E
:1035500024B18020FEF795F80028F8D014B903258F
:10356000284670BD40F2FF50FEF795F82846F8E770
:103570002DE9F0412A240026002500274FF00008FD
:10358000B220334908750020086048608860C86030
:1035900008610846FDF7BEFF0320FDF7DBFF0120B1
:1035A000FDF7D5FF00202749086048608860C860A3
:1035B0004FF4806008610846FDF7ECFFFFF7C2FF9B
:1035C00004462A2C02D02046BDE8F0814FF4D57085
:1035D0001C49086008204860402088600020C860BE
:1035E0004FF4806008610846FDF7D4FFFFF786FFBF
:1035F00004462A2C05D10120114908604FF080486B
:1036000012E000200F4908603720486040208860A1
:103610000020C8604FF4806008610846FDF7BAFFDB
:103620003720FFF77DFA044600200649086037205E
:103630004860402088600DE0B0DD0020008001403F
:103640006C00002028DE002070000020A0DD00209B
:1036500010DE00200020C8604FF48060086108463A
:10366000FDF798FF3720FFF75BFA04462A2C4CD170
:1036700038E00020FA490860372048604020886020
:103680000020C8604FF4806008610846FDF782FFA3
:103690003720FFF745FA04462A2C01D0204693E74D
:1036A000F04848EA0000EE490860292048604020C0
:1036B00088600020C8604FF4806008610846FDF70C
:1036C00069FFFFF701FF04462A2C01D020467BE763
:1036D0000020FDF77DFF0646012080EAD67080F0CD
:1036E00001076D1C1FB94FF6FF708542C1D34FF61D
:1036F000FF70854202D31B24204665E706F0804018
:10370000060002D00220D849086020465CE710B5C8
:103710002A24FFF76CF9FDF7EFFEFFF729FF0446B7
:103720002A2C01D0204610BDFFF738FE04462A2C73
:1037300001D02046F7E70120CC4908750020086039
:1037400048608860C86008610846FDF7E3FE2A2CDF
:1037500003D1C748FFF748FC04462A2C06D1C449C8
:10376000B1F84C100804FFF727FC04462A2C04D1BA
:103770004FF40060FFF7D8FB04462A2C03D1002049
:10378000FFF7C2F904462046CDE770B504462A2566
:1037900014B92625284670BDB64800880004B049F3
:1037A00008600D204860402088600020C8604FF409
:1037B000806008610846FDF7EDFE0D20FFF7B0F9C7
:1037C00005462A2D01D02846E5E70020FDF700FF39
:1037D00020602846DFE708B501200090C102A64816
:1037E000FDF765FA08B1002000909DF8000008BDC3
:1037F00008B500200090FFF7EEFF01280AD16846C7
:10380000FFF7C3FF2A2801D0FF2008BD0098C0F3AE
:103810004320FAE7FF20F8E710B50424FFF7E8FF9C
:103820000446042C01D1002010BDFF2C01D1022040
:10383000FAE70120F8E710B52A240020FDF78AFEF8
:10384000204610BD0146002002E04910421CD0B2C3
:103850000129FAD170472DE9F04706460F46144674
:103860004FF02A084FF0000935464FF0000A26B9FC
:103870004FF026084046BDE8F0872A207F490870AF
:1038800000207F4908607F4908607F487F490860C1
:10389000002048608860C860086148610846FDF7FC
:1038A000A2FE0020FDF773FE0020FDF791FE00F060
:1038B000007018B14FF00E084046DCE76A48006817
:1038C000022801D104027F0A002C21DDB4F5006F2B
:1038D0001EDC601E2040D8B92046FFF7B3FF8246A9
:1038E0005F48046010205E494860402088600020E6
:1038F000C8604FF4806008610846FDF74BFE102059
:10390000FFF70EF98046B8F12A0F05D04046B2E71E
:103910004FF026084046AEE75B485C490860084621
:1039200044604FEA0A1088600220C86000200861E5
:10393000012048610846FDF756FE52480460002009
:1039400053490860534806604548076011204449C0
:103950004860402088600020C8604FF480600861A3
:103960000846FDF717FE1120FFF7DAF88046B8F198
:103970002A0F01D040467EE747480068022857D109
:1039800011E04FF40040FDF77CFE60B14FF00009FC
:1039900005E0FDF74AFE45F8290009F10109B9F1F2
:1039A000080FF6D320353D48406B40F22A610840AD
:1039B0000028E6D00820FDF764FE30B10820FDF7AE
:1039C0006AFE4FF00408404655E70220FDF759FE15
:1039D00030B10220FDF75FFE4FF0020840464AE793
:1039E0002020FDF74EFE30B12020FDF754FE4FF0B1
:1039F000060840463FE74FF40070FDF742FE38B13D
:103A00004FF40070FDF747FE4FF00708404632E7DD
:103A100003E0FDF70AFE28602D1D4FF40010FDF7AE
:103A200030FE0028F5D140F2FF50FDF734FE58E09B
:103A300019480068012833D1012148F22A30FDF7E6
:103A400099FD00BF0E48006818B90C4800782A2874
:103A5000F8D00A4800782A2843D0084800780AE7B6
:103A600028DE0020000010806C00002010DE002006
:103A7000C0DD002070000020001C014088000020F4
:103A80008C00002078000020FFFF0F003CDE0020AB
:103A90007C00002084000020740000200080014091
:103AA000F8480068E8B9012140F22A30FDF762FDCC
:103AB0000120FDF76CFD21463046FEF7F1FF00BF07
:103AC000FFF719F830B9F048006818B9EF480078E6
:103AD0002A28F5D0ED4800782A2802D0EB48007853
:103AE000C9E64046C7E62DE9F05F07468946144619
:103AF0001D464FF02A084FF0000A3E464FF0000BDB
:103B000027B94FF026084046BDE8F09F2A20DF493C
:103B100008700020DC490860DD490860DD48DE49A6
:103B20000860002048608860C860086148610846F5
:103B3000FDF759FD0020FDF72AFD0020FDF748FDA7
:103B400000F0007018B14FF00E084046DCE7D34893
:103B50000068022802D104024FEA5929002C21DD15
:103B6000B4F5006F1EDC601E2040D8B92046FFF778
:103B700069FE8346CA4804601020C9494860402055
:103B800088600020C8604FF4806008610846FDF737
:103B900001FD1020FEF7C4FF8046B8F12A0F05D0C2
:103BA0004046B1E74FF026084046ADE7012D70D9F9
:103BB00005FB04F0B0F1007F03D34FF02608404628
:103BC000A2E705FB04F0B24908600120B54908608E
:103BD000B5480760AF48B049086005FB04F048608D
:103BE0004FEA0B1088600220C860002008610120A5
:103BF00048610846FDF7F7FCA948C0F8009012207C
:103C0000A7494860402088600020C8604FF4806069
:103C100008610846FDF7BEFC1220FEF781FF8046D2
:103C2000B8F12A0F01D040466EE796480068022896
:103C30007BD111E04FF40040FDF723FD60B14FF060
:103C4000000A05E0FDF7F1FC46F82A000AF1010A36
:103C5000BAF1080FF6D320369448406B40F22A316F
:103C600008400028E6D00820FDF70BFD30B1082001
:103C7000FDF711FD4FF00408404645E70220FDF72F
:103C800000FD38B10220FDF706FD4FF00208404666
:103C90003AE78AE02020FDF7F4FC30B12020FDF760
:103CA000FAFC4FF0060840462EE74FF40070FDF78F
:103CB000E8FC38B14FF40070FDF7EDFC4FF0070859
:103CC000404621E703E0FDF7B0FC3060361D4FF4BD
:103CD0000010FDF7D6FC0028F5D14FF48070FDF7F9
:103CE000D0FC18B36D48006838B16C4800680228F1
:103CF00003D06A480068012818D10020684908608C
:103D00000C204860402088600020C8604FF480602C
:103D100008610846FDF73EFC0C20FEF701FF8046D7
:103D2000B8F12A0F02D04046EEE604E040F2FF5020
:103D3000FDF7B1FC39E053480068012813D1012197
:103D400048F22A30FDF716FC00BF4F48006818B94A
:103D50004E4800782A28F8D04C4800782A2824D0E9
:103D60004A480078D0E647480068F0B9012140F29F
:103D70002A30FDF7FFFB0120FDF709FC05FB04F1EC
:103D80003846FEF78DFE00BFFEF7B5FE30B93E485F
:103D9000006818B93D4800782A28F5D03B480078DB
:103DA0002A2802D039480078AEE64046ACE67CB519
:103DB00004462A250020019000903D480088000418
:103DC000374908600D204860402088600020C860A6
:103DD0004FF4806008610846FDF7DCFB3348406B18
:103DE000009002E03148406B0090009800F04500E0
:103DF0000028F7D0009800F0040028B10325042023
:103E0000FDF749FC28467CBD009800F0010028B170
:103E100001250120FDF73FFC2846F4E7FDF7D4FB20
:103E2000009000980D2802D010252846EBE740F2BC
:103E3000FF50FDF730FC0020FDF7CAFB0190019810
:103E4000C0F3432020701B490198084008B9284658
:103E5000D9E7019800F0004008B11C20D3E7019891
:103E600000F0804008B10920CDE7019800F0005033
:103E700008B10A20C7E7019800F08050E0B10B209C
:103E8000C1E70000740000208C00002088000020A2
:103E900078000020FFFF0F003CDE00206C000020B7
:103EA00028DE00207C0000208400002000800140EB
:103EB0007000002008E0FFFD019800F0006008B1EC
:103EC0000C20A0E7019800F0806008B10D209AE76F
:103ED000019800F0807008B10E2094E7019800F47A
:103EE000000008B10F208EE7019800F4800008B1AF
:103EF000102088E7019800F4001008B1112082E733
:103F0000019800F4801008B112207CE7019800F4B9
:103F1000002008B1132076E7019800F4802008B152
:103F2000142070E7019800F4003008B115206AE70A
:103F3000019800F4803008B1162064E7019800F47D
:103F4000004008B117205EE7019800F4804008B1F6
:103F5000182058E7019800F4005008B1192052E7E2
:103F6000019800F0080008B11A204CE728464AE7FB
:103F70002DE9FF5F81468A4614462A2500200390DA
:103F8000029083460026019000270090C846B9F1B0
:103F9000000F04D12625284604B0BDE8F09F2A2052
:103FA000FE4908700020FE490860FE490860FE488E
:103FB000FE490860002048608860C8600861486168
:103FC0000846FDF710FB0020FDF7E1FA0020FDF7A1
:103FD000FFFA00F0007010B10E252846DCE7F44827
:103FE0000068022802D104024FEA5A2A002C20DD80
:103FF000B4F5006F1DDC601E2040D0B92046FFF7ED
:1040000021FC0390EB4804601020EA4948604020FE
:1040100088600020C8604FF4806008610846FDF7A2
:10402000B9FA1020FEF77CFD05462A2D04D028465B
:10403000B2E726252846AFE7DF4800880004DD49BF
:1040400008600D204860402088600020C8604FF460
:10405000806008610846FDF79DFA0D20FEF760FDBF
:1040600005462A2D01D0284696E70020FDF7B0FA34
:104070000190DFF834B31EE0ABF1010BCE480088AD
:104080000004CC4908600D20486040208860002072
:10409000C8604FF4806008610846FDF77BFA0D2088
:1040A000FEF73EFD05462A2D01D0284674E7002084
:1040B000FDF78EFA0190019800F4807010B9BBF101
:1040C000000FD9D1BBF1000F01D1292064E7B94815
:1040D000C0F800A01820B749486040208860002040
:1040E000C8604FF4806008610846FDF753FA182055
:1040F000FEF716FD05462A2D01D028464CE7A948B3
:1041000004600020AD490860AD48C0F80090A648A2
:10411000A6490860084644600398000188600020B2
:10412000C8600861012048610846FDF75CFAA548AF
:104130000068022866D134E04FF48040FDF7A1FA10
:1041400078B398480068801B20281ED295480078D4
:10415000801B00F0030020B992480068801B800893
:1041600004E090480068801B8008401C00900027F5
:1041700007E0D8F80000FDF75CFA7F1C08F104089E
:10418000361D009887420CD2F3E7002704E058F868
:104190002700FDF74EFA7F1C082FF8D308F12008FE
:1041A00020368948406B40F21A6108400028C3D08D
:1041B0000820FDF766FA28B10820FDF76CFA0425FF
:1041C0002846E9E60220FDF75CFA28B10220FDF757
:1041D00062FA02252846DFE61020FDF752FA28B1E0
:1041E0001020FDF758FA05252846D5E64FF4007053
:1041F000FDF747FAF0B34FF40070FDF74CFA0725CE
:104200002846C9E66F480068012813D1012144F20D
:104210001A30FDF7AFF900BF6148006818B95F4870
:1042200000782A28F8D05D4800782A2825D05B48F5
:104230000078B1E663480068E0B9012140F21A3025
:10424000FDF798F921464846FEF7FFFB0120FDF7F0
:104250009EF900BFFEF74FFC30B95148006818B90D
:104260004E4800782A28F5D04C4800782A2804D0F7
:104270004A4800E001E000788EE640F2FF50FDF78A
:104280000AFA02A8FFF793FD054603E002A8FFF72C
:104290008EFD05462A2D07D19DF808000728F5D088
:1042A0009DF808000628F1D0284675E62DE9FE4F56
:1042B00081468A4614461E462A254FF0000B0020F0
:1042C000029000270190C8460090B9F1000F03D179
:1042D00026252846BDE8FE8F2A2030490870002098
:1042E0002F4908602F4908602F4830490860002096
:1042F00048608860C860086148610846FDF773F946
:104300000020FDF744F90020FDF762F900F000708D
:1043100010B10E252846DDE725480068022802D1A5
:1043200004024FEA5A2A002C20DDB4F5006F1DDC90
:10433000601E2040D0B92046FFF784FA83461D480E
:10434000046010201B494860402088600020C8603D
:104350004FF4806008610846FDF71CF91020FEF755
:10436000DFFB05462A2D04D02846B3E7262528463C
:10437000B0E71148008800040E4908600D2048602D
:10438000402088600020C8604FF4806008610846C3
:10439000FDF700F90D20FEF7C3FB17E088000020B1
:1043A0008C00002078000020FFFF0F003CDE002082
:1043B0006C00002028DE0020700000207C0000201F
:1043C00080000020740000200080014005462A2D56
:1043D00001D028467EE7012E7AD906FB04F0B0F121
:1043E000007F02D32625284674E7FE48006838B1CE
:1043F000FC480068012803D0FA48006802282FD141
:10440000F94800880004F9490860372048604020D6
:1044100088600020C8604FF4806008610846FDF79E
:10442000B9F83720FEF77CFB05462A2D01D0284637
:1044300050E7EE4806601720EC494860402088604D
:104440000020C8604FF4806008610846FDF7A2F8BC
:104450001720FEF765FB05462A2D01D0284639E7CF
:10446000E248C0F800A01920E04948604020886078
:104470000020C8604FF4806008610846FDF78AF8A4
:104480001920FEF74DFB05462A2D01D0284621E7CD
:1044900006FB04F0D64908600120D6490860D648DA
:1044A000C0F80090D548D649086006FB04F0486083
:1044B0004FEA0B1088600020C86008610120486145
:1044C0000846FDF790F8CF480068022870D13EE01A
:1044D000D1E04FF48040FDF7D4F8C0B3C448006881
:1044E000C01B202811D30020009007E0009958F845
:1044F0002100FDF79EF80098401C009000980828C5
:10450000F4D308F12008203721E0B9480078C01B17
:1045100000F0030020B9B6480068C01B800804E022
:10452000B3480068C01B8008401C01900020009028
:1045300009E0D8F80000FDF77CF80098401C0090D6
:1045400008F104083F1DDDE900108142F1D3AE48B7
:10455000406B40F21A3108400028BAD00820FDF71D
:1045600090F828B10820FDF796F804252846B1E612
:104570000220FDF786F828B10220FDF78CF802250D
:104580002846A7E61020FDF77CF828B11020FDF79B
:1045900082F8052528469DE64FF40070FDF771F876
:1045A00038B14FF40070FDF776F80725284691E6FC
:1045B00027E04FF48070FDF764F800285BD089484D
:1045C000006838B187480068012803D08548006832
:1045D000022850D10020854908600C204860402006
:1045E00088600020C8604FF4806008610846FCF7CE
:1045F000D1FF0C20FEF794FA05462A2D3BD0284621
:1046000068E680480068012813D1012144F21A307D
:10461000FCF7B0FF00BF7D48006818B97C480078FF
:104620002A28F8D07A4800782A2824D078480078B8
:1046300050E674480068F0B9012140F21A30FCF7E6
:1046400099FF0120FCF7A3FF06FB04F14846FEF7A3
:10465000FCF900BFFEF74FFA30B96C48006818B992
:104660006B4800782A28F5D0694800782A2802D0BB
:10467000674800782EE640F2FF50FDF70CF8002066
:10468000009002E00098401C00904FF6FF710098E7
:104690008842F7D302A8FFF78AFB054603E002A889
:1046A000FFF785FB05462A2D07D19DF8080007284E
:1046B000F5D09DF808000628F1D028460AE65248B1
:1046C000406B00F4405008B1012070470020FCE727
:1046D00010B52A240020454908600C20486040207D
:1046E00088600020C8604FF4806008610846FCF7CD
:1046F00051FF0C20FEF714FA0446204610BD2DE9A8
:10470000FC4105460E462A24002700200190009017
:1047100040484068202101EA105018B9252420465D
:10472000BDE8FC8138484068C0B2801C3A49B1FB02
:10473000F0F001900020FCF74BFF00F0007010B18A
:104740000E242046ECE727480068022801D16D0AB4
:10475000760A2448006838B122480068012803D04E
:104760002048006802282DD12048056020201F49DC
:104770004860402088600020C8604FF48060086175
:104780000846FCF707FF2020FEF7CAF904462A2C4A
:1047900001D02046C4E7154806602120134948602F
:1047A000402088600020C8604FF48060086108469F
:1047B000FCF7F0FE2120FEF7B3F904462A2C01D0C5
:1047C0002046ADE7002009490860262048604020C7
:1047D00088600020C8604FF4806008610846FCF7DC
:1047E000D9FE1BE06C0000207000002028DE0020B5
:1047F000780000207C00002080000020FFFF0F00D8
:104800003CDE002074000020008001408C0000206D
:1048100088000020A0DD0020C0D401002620FEF783
:104820007FF904462A2C01D0204679E7002700E0D2
:104830007F1C01988742FBD36846FFF7B8FA04460D
:1048400003E06846FFF7B3FA04462A2C07D19DF827
:1048500000000728F5D09DF800000628F1D020467A
:104860005EE770B504462A2600250020FCF7B0FE5E
:1048700000F0007010B10E26304670BD4020EB49AC
:10488000086010204860402088600020C8604FF415
:10489000806008610846FCF77DFE1020FEF740F9B5
:1048A00006462A2E01D03046E7E7E148008800049A
:1048B000DE49086037204860402088600020C860DA
:1048C0004FF4806008610846FCF764FE3720FEF76D
:1048D00027F906462A2E01D03046CEE7D548D649DC
:1048E000086040204860602088600220C860002086
:1048F0000861012048610846FCF775FE0020CB499D
:1049000008600D204860402088600020C8604FF497
:10491000806008610846FCF73DFE0D20FEF700F9B7
:1049200006462A2E01D03046A7E70EE04FF400409D
:10493000FCF7A7FE48B1002504E0FCF776FE44F83A
:1049400025006D1C082DF8D32034BC48406B40F284
:104950002A6108400028E9D00820FCF792FE28B11F
:104960000820FCF798FE0426304686E70220FCF774
:1049700088FE28B10220FCF78EFE022630467CE736
:104980002020FCF77EFE28B12020FCF784FE0626BE
:10499000304672E74FF40070FCF773FE30B14FF40D
:1049A0000070FCF778FE0726304666E703E0FCF768
:1049B0003CFE2060241D4FF40010FCF762FE00282E
:1049C000F5D140F2FF50FCF766FE403C002515E0B3
:1049D00014F82500000634F8251001F47F4140EA60
:1049E000012054F8251001F47F0140EA112054F809
:1049F000251040EA116044F825006D1C102DE7D306
:104A000030463AE770B5002400258D48006801283B
:104A100067D1C003FCF742FEA8B100BF06E0FCF777
:104A200004FE8849096841F82400641C082CF6D368
:104A3000844800682030834908608348006820303B
:104A4000814908604DE04FF48040FCF727FE0028C4
:104A500047D07E4800687C490968401A20282BD23C
:104A60007A48007878490968401A00F0030030B9A4
:104A70007648006874490968401A800806E073485F
:104A8000006871490968401A8008401C05460024E6
:104A90000FE06F4909680868FCF7CBFD641C6C489F
:104AA0000068001D6A49086067480068001D664983
:104AB0000860AC42EDD314E0002406E064490968C4
:104AC00051F82400FCF7B5FD641C082CF6D36048AF
:104AD000006820305E4908605B48006820305A4911
:104AE00008604FF48070FCF7D9FDD8B354480068D3
:104AF000D0B10EE0FCF799FD5249096808605148B1
:104B00000068001D4F4908604F480068001D4E496D
:104B100008604FF40010FCF7B4FD28B14A48006863
:104B20004A4909688842E5D34A480068012804D107
:104B3000FFF7CEFD4849087002E02A204649087078
:104B40004FF48070FCF7B4FD00214CF23A30FCF7D2
:104B500011FD01204149086000203B4908603E48A2
:104B6000007870BDFFE70220FCF798FD70B10220CD
:104B7000FCF79EFD00214CF23A30FCF7FBFC0020D4
:104B800031490860022034490870EAE70820FCF740
:104B900085FD70B10820FCF78BFD00214CF23A3006
:104BA000FCF7E8FC00202849086004202A49087026
:104BB000D7E72020FCF772FD70B12020FCF778FDCC
:104BC00000214CF23A30FCF7D5FC00201E49086069
:104BD000062021490870C4E71020FCF75FFD70B182
:104BE0001020FCF765FD00214CF23A30FCF7C2FCC6
:104BF000002015490860052017490870B1E74FF4F7
:104C00000070FCF74BFD78B14FF40070FCF750FDDD
:104C100000214CF23A30FCF7ADFC00200A49086054
:104C200007200D4908709CE72A209AE728DE00201B
:104C300070000020FFFF0F003CDE002000800140DC
:104C400074000020840000209000002078000020E4
:104C5000800000207C000020880000208C000020C4
:104C60000146002070470146002070472DE9F041C1
:104C700007460C4615461E467006020C6902204681
:104C8000FEF7E9FD0020BDE8F0812DE9F04107467F
:104C90000C4615461E467006020C69022046FFF7B8
:104CA00067F90020BDE8F08103460020704700202E
:104CB0007047000070B503460C4603E014F8015B32
:104CC00003F8015B1500A2F10102F7D170BD30B508
:104CD000034601E003F8011B1400A2F10102F9D11F
:104CE00030BDF0B503461C460D46002000BF16003F
:104CF000A2F1010207D014F8017B15F801CBA7EB54
:104D00000C063000F3D0F0BD024600E0521C1078D3
:104D100010B110788842F9D1107870472DE9F04130
:104D200004460D46E66AAE422FD0207908B360787B
:104D30000123324604F13001FFF7A7FF10B1012033
:104D4000BDE8F08100202071D4E907100844B0428A
:104D50000FD9E7780AE0E06906446078012332461B
:104D600004F13001FFF791FF781EC7B2012FF2DC8A
:104D700000BF55B1607801232A4604F13001FFF7E6
:104D800075FF08B10120DBE7E5620020D8E770B5C8
:104D9000044600212046FFF7C1FF0546002D59D1EA
:104DA000207803284FD1607900284CD00020E062A1
:104DB0004FF40072002104F13000FFF788FF552105
:104DC00084F82E12AA2184F82F12522084F8300081
:104DD00052213120015561213220015541213320DA
:104DE0000155722184F8141284F81512412184F8B7
:104DF0001612612184F81712217C84F81812208A77
:104E0000010A84F819122069010C84F81A12206929
:104E1000010E84F81B12217B84F81C12A089010A60
:104E200084F81D12E068010C84F81E12E068010E7F
:104E300084F81F126078012304F130016269FFF7E2
:104E400024FF00206071607800221146FFF72CFFDC
:104E500000B10125284670BD0246891E9069801E5A
:104E6000884201D8002070479378906A01FB0300C4
:104E7000F9E72DE9F04105460C46022C02D3A8695A
:104E8000A04202D80120BDE8F0812878012804D092
:104E900002282CD003285AD13DE0274607EB5707BC
:104EA000286A00EB57212846FFF738FF00B14EE093
:104EB000C7F3080105F1300010F801807F1C286A53
:104EC00000EB57212846FFF729FF00B13FE0C7F369
:104ED000080105F13000405C48EA002804F00100B8
:104EE00010B14FEA1810CEE7C8F30B00CBE7286AE1
:104EF00000EB14212846FFF711FF00B127E040F234
:104F0000FF1000EA440105F130000E183078717886
:104F100040EA0120B7E7286A00EBD4112846FFF7E2
:104F2000FDFE00B113E040F2FF1000EA840105F13C
:104F300030000E18F0780006B17840EA0140717830
:104F400040EA01203178084320F070409BE700BF21
:104F50004FF0FF3097E72DE9F04705460E4617461C
:104F6000022E02D3A869B04202D84FF002088AE0AC
:104F70002878012804D0022841D003287DD154E0AC
:104F8000B14609EB5909286A00EB59212846FFF779
:104F9000C5FE8046B8F1000F00D071E0C9F30801EA
:104FA00005F130000C1806F0010020B1F9B22078AC
:104FB00061F31F1000E03846207009F1010901205B
:104FC0002871286A00EB59212846FFF7A7FE804682
:104FD000B8F1000F00D053E0C9F3080105F130002B
:104FE0000C1806F0010010B1C7F3071005E0207897
:104FF00000F0F000C7F303210843207040E0286A66
:1050000000EB16212846FFF789FE8046B8F1000F15
:1050100000D035E040F2FF1000EA460105F1300013
:105020000C182770380A60702AE0286A00EBD61145
:105030002846FFF773FE8046B8F1000F00D01FE04E
:1050400040F2FF1000EA860105F130000C18E0780C
:105050000006A17840EA0140617840EA0120217809
:10506000084300F0704007432770380A6070380C1E
:10507000A070380EE07003E0FFE74FF0020800BFB9
:1050800000BF012028714046BDE8F0872DE9F041BE
:1050900004460E46022E02D3A069B04201D8022770
:1050A00025E000271FE031462046FFF7E2FE0546D7
:1050B00005B91BE0012D01D1022717E0681C08B9D2
:1050C000012713E0002231462046FFF744FF074640
:1050D00007B10BE02069401C20B12069401C206111
:1050E000012060712E46A069B042DCD800BF38466E
:1050F000BDE8F0812DE9F04704468946B9F1000F7B
:1051000006D1E76817B1A069B84211D801270FE0AE
:1051100049462046FFF7ADFE0646022E02D2012088
:10512000BDE8F087A069B04201D93046F8E74F46A4
:105130003D4600BF6D1CA069A84204D80225BD42AF
:1051400001D90020ECE729462046FFF792FE0646EB
:1051500006B909E0701C08B1012E01D13046DFE725
:10516000BD42E7D10020DBE700BF6FF07042294667
:105170002046FFF7F0FE8046B8F1000F08D1B9F1E4
:10518000000F05D02A4649462046FFF7E4FE804638
:10519000B8F1000F09D1E5602069401C68B12069B1
:1051A000401E20610120607107E0B8F1010F02D1BB
:1051B0004FF0FF3000E0012005462846B0E770B50B
:1051C00003460D46586A021D680A1E68B678B0FB91
:1051D000F6F400BF02CA09B9002070BD8C4200D2AB
:1051E00002E0641A121DF5E700BF10682044F4E7DE
:1051F0002DE9F04104460E46E680A568012D03D056
:1052000020688069A84202D80220BDE8F0812DB94B
:1052100020680078032801D12068456A65B9E560F7
:1052200020680089B04201DC0220EEE72068406A75
:1052300000EB1610206120E020688078070112E062
:1052400029462068FFF715FE0546681C08B90120AD
:10525000DBE7022D03D320688069A84201D8022031
:10526000D3E7F01B86B2BE42EADAE5602946206841
:10527000FFF7F2FD00EB161020612068303006F0D9
:105280000F0100EB411060610020BEE72DE9F04105
:1052900004468846E088401C86B20EB1206910B9E9
:1052A0000420BDE8F08106F00F0000286FD12069CE
:1052B000401C2061E06828B920680089B04266DCA3
:1052C0000420EEE720688078401E00EA16100028CF
:1052D0005DD1E1682068FFF7CCFD0546012D01D8BE
:1052E0000220DEE7681C08B90120DAE7206880693F
:1052F000A84246D8B8F1000F01D10420D1E7E168F7
:105300002068FFF7F7FE05460DB90720C9E7012D14
:1053100001D10220C5E7681C08B90120C1E70021BE
:105320002068FFF7FBFC08B10120BAE7216801F112
:1053300030004FF400720021FFF7C9FC29462068B5
:10534000FFF78AFD2168C862002710E0012021686C
:10535000087100212068FFF7E1FC08B10120A0E7F7
:105360002068C06A401C2168C862781CC7B22068E7
:105370008078B842EADC2068C06AC01B2168C86235
:1053800000BFE56029462068FFF766FD2061E680E2
:105390002068303006F00F0100EB41106061002002
:1053A0007FE72DE9F04705460C46207820F04000C5
:1053B000401E00EB800101EBC00600274FF0010802
:1053C00000BFFE48C05D205CFC49C95D21444978AE
:1053D00040EA0129B8F1000F10D0484602F012FC53
:1053E0008046FF2E07D23146761C35F8110002F0B8
:1053F00009FC404508D00020BDE8F0874FF6FF705B
:10540000814501D00020F7E7781C07460D28D8D346
:10541000207800F0400038B1B8F1000F04D035F822
:10542000160008B10020E7E70120E5E7F0B50346E4
:10543000087800F03F00401E00EB800707EBC00239
:105440000025012600BFDD48405D085CDB4F7F5D25
:105450000F447F7840EA07244EB1FF2A01D3002091
:10546000F0BD26461046521C23F8104005E04FF6CA
:10547000FF70844201D00020F2E7681C05460D2829
:10548000E1D3087800F0400030B1FF2A01D30020BA
:10549000E6E7002023F812000120E1E7F0B504461A
:1054A0001D464D730F27CF7200270F738F76BC46B2
:1054B00081F81BC0571E07EB870C0CEBC7060027B3
:1054C00038463B4600BF4FF6FF77B84203D0374619
:1054D000761C34F81700DFF8E4C21CF803C001F8AA
:1054E0000C000712DFF8D4C21CF803C08C448CF8FF
:1054F000017008B94FF6FF705F1C3B460D2FE2D3D9
:105500004FF6FF77B84202D034F816700FB942F068
:1055100040020A70F0BD2DE9FC4707468A469046D6
:105520001C460B2251463846FFF7C4FB052C0BDD09
:1055300000BF601000EBC43138F8022B881884B229
:10554000B8F800000028F4D1072600BF2046E11774
:1055500004EB11710911A4EB0111303101F0FF09C5
:10556000B9F1390F03DD09F1070000F0FF093046FA
:10557000761E0DF800902046E11704EB1171C1F37F
:105580000F14002CE2D17E200DF8060000250BE060
:10559000785D812807DB785DFE2804DC701EA84258
:1055A00000D106E06D1C6D1CB54202D2785D20284A
:1055B000EED100BF00BF082E04D23046761C1DF885
:1055C000000000E0202029466D1C7854082DF2D3FD
:1055D000BDE8FC8730B5014600200B2200BF431018
:1055E00003EBC01411F8015B6319D8B2531E1A0003
:1055F000F5D130BD2DE9F047044600212046FFF7E4
:10560000F7FD074617B13846BDE8F0874FF0FF09B0
:10561000CA4600BF21692068FFF780FB074607B133
:1056200054E065692E780EB904274FE0E87A00F05F
:105630003F08E52E05D008F0080028B1B8F10F0F9B
:1056400002D04FF0FF093AE0B8F10F0F1CD1E0692A
:10565000A0B306F0400030B195F80DA026F040064A
:10566000B146E08820844E450AD1687B504507D179
:105670002946E069FFF795FE10B1A9F1010000E0AD
:10568000FF2000F0FF091AE0B9F1000F05D128460C
:10569000FFF7A0FF504500D118E04FF0FF094FF68B
:1056A000FF702084A069C07A00F0010030B90B229D
:1056B0002846A169FFF715FB00B907E0FFE70021C5
:1056C0002046FFF7E3FD0746002FA3D000BF384672
:1056D0009AE72DE9F04704464FF0FF09CA46042730
:1056E0004CE021692068FFF719FB074607B148E045
:1056F000666935780DB9042743E0F07A00F03F0879
:10570000E52D07D02E2D05D008F0080028B1B8F1FE
:105710000F0F02D04FF0FF0929E0B8F10F0F1AD197
:1057200005F0400030B196F80DA025F04005A946DF
:10573000E08820844D450AD1707B504507D1314621
:10574000E069FFF773FE10B1A9F1010000E0FF204E
:1057500000F0FF090BE0B9F1000F04D13046FFF76C
:1057600039FF504502D04FF6FF70208409E0002138
:105770002046FFF78BFD074607B102E020690028AD
:10578000AFD100BF0FB1002020613846BDE8F087DF
:105790002DE9F04F85B00446D4F81880D4F81CB039
:1057A0000C22414601A8FFF785FA00BF9DF80F00C3
:1057B00000F0010050B3002002E0000024EA0008DD
:1057C00088F80B00E06101270DE03B465A4601A92D
:1057D0004046FFF7A0FE2046FFF70CFF054605B147
:1057E00003E0781C87B2642FEFDB00BF642F03D186
:1057F000072005B0BDE8F08F042D01D02846F8E75A
:105800009DF80F0088F80B00C4F81CB09DF80F003D
:1058100000F0020070B1002601E0701C86B23BF877
:1058200016000028F9D106F119000D2190FBF1F0C6
:1058300086B200E0012600212046FFF7D9FC05468C
:105840000DB12846D5E700200746049000BF216926
:105850002068FFF763FA054605B119E0606990F822
:105860000090B9F1E50F02D0B9F1000F08D10FB9DE
:10587000E0880490781C80B20746B04201D107E06E
:10588000002701212046FFF701FD0546002DDED04F
:1058900000BF4DBB012E27DD20460499FFF7A8FC71
:1058A00005460DBBA069FFF795FE0090701E86B2FD
:1058B00000BF21692068FFF731FA054605B112E003
:1058C000F2B26169E069009BFFF7E8FD0120216801
:1058D000087100212046FFF7D9FC05461DB9701E4E
:1058E00080B20600E5D100BFD5B921692068FFF775
:1058F00015FA0546A5B9D4F814A020220021504677
:10590000FFF7E5F90B225046A169FFF7D3F9A0692B
:10591000C07A00F018008AF80C0001202168087194
:10592000284666E770B50446E688208C4FF6FF727D
:10593000904201D1304600E0208C01462046FFF71E
:1059400057FC0546E5B900BF21692068FFF7E6F975
:10595000054605B110E0E520616908700120216865
:105960000871E088B04200DB06E000212046FFF726
:105970008DFC0546002DE7D000BF042D00D1022587
:10598000284670BD2DE9F34F83B081460498006826
:10599000019002E00198401C0190019800782F28A6
:1059A000F8D0019800785C28F4D0D9F81CA0002524
:1059B0002F4600BF38467F1C01990C5C202C03DB6E
:1059C0002F2C01D05C2C00D132E0FF2D03D3062018
:1059D00005B0BDE8F08FE4B2812C13DBE0B2FE2805
:1059E00010DC38467F1C01990E5C402E01DB7E2EB8
:1059F00005DD802E01DBFE2E01DD0620E8E706EB4B
:105A0000042084B20121204602F0C2F804460CB9F9
:105A10000620DDE7802C06DA2146FEA0FFF774F9A8
:105A200008B10620D4E728466D1C2AF81040C1E7CB
:105A300000BF0198C11904980160202C01DA0420EC
:105A400000E00020804608E0681E3AF81040202C54
:105A500002D02E2C00D002E06D1E002DF4D100BF2C
:105A60000DB90620B4E700202AF815000B222021EA
:105A7000D9F81800FFF72BF9002700E07F1C3AF84F
:105A800017002028FAD03AF817002E28F6D00FB1C8
:105A900048F0030800E06D1E25B1681E3AF81000BA
:105AA0002E28F8D10020064602904FF0080B00BFC8
:105AB00038467F1C3AF8104004B963E0202C03D02C
:105AC0002E2C04D1AF4202D048F00308F0E7029830
:105AD000584501D2AF4214D1BBF10B0F02D148F0AF
