:020000040800F2
:1000000008D400200D0200084D0200084F0200082D
:1000100053020008570200085B02000800000000BD
:100020000000000000000000000000005F02000867
:100030006102000800000000630200086502000879
:1000400027020008270200082702000827020008EC
:1000500027020008270200082702000827020008DC
:1000600027020008270200082702000827020008CC
:1000700027020008270200082702000827020008BC
:1000800027020008270200082702000827020008AC
:100090002702000827020008270200087102000852
:1000A000270200082702000827020008270200088C
:1000B000270200082702000827020008270200087C
:1000C000270200082702000827020008270200086C
:1000D000270200082702000827020008270200085C
:1000E000270200082702000827020008270200084C
:1000F000270200082702000827020008270200083C
:10010000270200082702000827020008270200082B
:10011000270200082702000827020008270200081B
:10012000270200082702000827020008270200080B
:1001300000F002F800F05AF80AA090E8000C82449F
:100140008344AAF10107DA4501D100F04FF8AFF27C
:10015000090EBAE80F0013F0010F18BFFB1A43F0A5
:10016000010318479CC40000BCC400000A444FF0BF
:10017000000C10F8013B13F0070408BF10F8014B06
:100180001D1108BF10F8015B641E05D010F8016B4B
:10019000641E01F8016BF9D113F0080F1EBF10F8AF
:1001A000014BAD1C0C1B09D16D1E58BF01F801CBD2
:1001B000FAD505E014F8016B01F8016B6D1EF9D555
:1001C0009142D6D37047000000230024002500266A
:1001D000103A28BF78C1FBD8520728BF30C148BFAA
:1001E0000B6070471FB51FBD10B510BD02F068FA57
:1001F0001146FFF7F7FF00F04FF802F086FA03B45C
:10020000FFF7F2FF03BC02F003FA00000948804741
:1002100009480047FEE7FEE7FEE7FEE7FEE7FEE7E8
:10022000FEE7FEE7FEE7FEE704480549054A064B00
:1002300070470000FB1100083101000808CC0020C5
:1002400008D4002008D0002008D00020704700BF4C
:10025000FEE700BFFEE700BFFEE700BFFEE7704716
:100260007047704703480068401C024908607047A7
:10027000704700005C00002010B500F0BEFF0121B7
:10028000782000F0E7FE0121402000F0D6FE012199
:10029000084600F0DFFE10BD0EB5FFF7EDFF01F0E0
:1002A0002DF85249B1F1807F00D31DE021F07F404D
:1002B000401E4FF0E022506150170F22002807DA4D
:1002C00013071F0E4A4B00F00F06361F9F5503E021
:1002D00013071E0E474B1E5400BF00204FF0E022B4
:1002E00090610720106100BF01F0A1F802F09EFEAE
:1002F000414803F06BFB4FF47F0003F05BFB4FF6CC
:10030000FF7003F059FB02F0ABFC3C483C49012272
:100310002023CDE90021029039220021084602F075
:1003200067FF04463548364901222023CDE90021E4
:10033000029039220021084602F05AFF0546204665
:1003400003F0AAF82FA002F071FD0022114620460A
:1003500002F0C2FE48E0284603F09EF82B480078E1
:100360000001642190FBF1F628480078C0EBC00141
:10037000C1EB8010642190FBF1F0C0F139072348F4
:100380000078400190FBF1F0C0F12008202300220A
:1003900011462046CDE90087029602F0EBFF1B488C
:1003A000007800F1200219480178284602F094FEF6
:1003B000642002F025FD284603F06EF802F050FCA0
:1003C0001248007800F1200210480178284602F017
:1003D00083FE0E4800780A300C4908700846007801
:1003E000642801DD00200870B5E700004019010015
:1003F00018ED00E000E400E034BA0008749B000847
:1004000024C2000854657874000000000000002039
:1004100030B943F2DB028100A1F1C0410A6005E07E
:1004200043F2D2028100A1F1C0410A606FF0704234
:10043000411C8900A1F1C0410A608100A1F1C041C5
:10044000C1F80421704710280AD118214FF020422A
:100450001166402151664FF0FC319166D16610E083
:100460001821F74A116040214FF02042C2F8841051
:100470004FF0FC31F24A083211604FF02042C2F8CE
:100480008C1070471820EE492031086000200906C2
:10049000C1F8A4004FF0FC30E94928310860091D7B
:1004A0000860091D08607047D0E901121143C26855
:1004B0001143026911434269114382691143C269C0
:1004C0001143026A1143426A1143826A1143C26AAC
:1004D0001143026B114302689200A2F1C042116005
:1004E000816808290BD101688900A1F1C041096820
:1004F00041F0400201688900A1F1C0410A60416BEE
:100500000968426B526841EA0211426B926841EA03
:100510000221426B928941EA0241426B128A41EA0E
:100520000251426B127D41EA0261426B92691143B2
:100530000268521C9200A2F1C0421160C16AB1F57A
:10054000804F1BD1816B0968826B526841EA0211AE
:10055000826B926841EA0221826B128A41EA02515F
:10056000826B127D41EA0261826B926911430268DB
:100570009200A2F1C042C2F8041107E06FF070428D
:1005800001688900A1F1C041C1F80421704730B56C
:10059000002100220023446844F0080485682C43AD
:1005A000C5682C4305692C43456944EA452485699F
:1005B00044EA4531C4692468C5696D6844EA052484
:1005C000C5692D8944EA0544C5692D7B44EA056265
:1005D000046A2468056A6D6844EA0524056A2D8961
:1005E00044EA0544056A2D7B44EA05630468102C3F
:1005F00005D14FF020442166A266E36608E0904CE6
:1006000021604FF02044C4F888208D4C0C342360C6
:1006100030BD016841F01001426841EA4221826820
:1006200041EA4231864A20321160C1680968C268D5
:10063000526841EA0221C268128941EA0241C26855
:10064000127B41EA02617E4A283211600169096821
:100650000269526841EA02210269128941EA0241B3
:100660000269127B41EA0261754A2C3211604169CC
:1006700009684269526841EA02214269128941EAE5
:1006800002414269127B41EA02614FF02042C2F806
:10069000B01070470021016002214160002181609B
:1006A000C160016141618161C16101624FF48051AA
:1006B0004162490081620021C16201630F21426BE6
:1006C0001160426B5160FF21426B91600F21426BC0
:1006D000D160426B1161426B51610021426B9161AB
:1006E0000F21826B1160826B5160FF21826B9160E0
:1006F0000F21826BD160826B1161826B516100218D
:10070000826B91617047102101600021416081601E
:10071000C160016141618161FC21C2691160C269EE
:100720005160C2699160C269D160026A1160026A57
:100730005160026A9160026AD160704700210160D5
:1007400041608160FC21C2681160C2685160C2686A
:100750009160C268D16002691160026951600269EA
:1007600091600269D16042691160426951604269D9
:1007700091604269D160704751B18200A2F1C042DC
:10078000126842F001038200A2F1C042136009E046
:100790008200A2F1C04212682A4B1A408300A3F1E2
:1007A000C0431A60704799B1102808D14FF0204219
:1007B000126E42F004024FF020431A661DE0204AF8
:1007C000126842F004024FF02043C3F8802014E086
:1007D000102809D14FF02042126E1A4BDB1E1A402E
:1007E0004FF020431A6608E0154A1268154BDB1ECD
:1007F0001A404FF02043C3F88020704748B1104999
:100800002031096841F004014FF02042C2F8A010E5
:1008100009E00B49203109680A4AD21E11404FF005
:100820002042C2F8A0107047B9B110280CD14FF087
:100830002042126E42F040024FF020431A661FE041
:10084000800000A0FEFF0F00724A126842F04002D2
:100850004FF02043C3F8802012E0102808D14FF059
:100860002042126E6C4B1A404FF020431A6607E08C
:10087000684A1268684B1A404FF02043C3F8802042
:10088000704701460020102903D14FF02042506FDD
:1008900002E0604A14321068704710B5F2B11028B7
:1008A00007D14FF020435B6E0B434FF0204463664B
:1008B00032E0B0F5807F08D1564B1B1D1B680B43FF
:1008C0004FF02044C4F8843026E0524B24331B6898
:1008D0000B434FF02044C4F8A4301DE0102807D18A
:1008E0004FF020435B6E8B434FF02044636613E070
:1008F000B0F5807F08D1474B1B1D1B688B434FF021
:100900002044C4F8843007E0424B24331B688B43F7
:100910004FF02044C4F8A43010BD10B502460020AA
:100920000023102A03D14FF02044636E09E0B2F592
:10093000807F03D1374C241D236802E0354C2434DA
:10094000236803EA01040CB1012000E0002010BD7F
:10095000102807D14FF02042526E8A434FF02043B7
:100960005A6613E0B0F5807F08D12A4A121D12683A
:100970008A434FF02043C3F8842007E0254A2432FD
:1009800012688A434FF02043C3F8A420704770B523
:1009900002460020002300240025102A03D14FF036
:1009A0002046736E09E0B2F5807F03D1194E361DE3
:1009B000336802E0174E2436336803EA010403EA81
:1009C000D10514B10DB1012000E0002070BD102848
:1009D00008D14FF02042526E22EAD1024FF020435C
:1009E0005A6615E0B0F5807F09D10A4A121D1268D7
:1009F00022EAD1024FF02043C3F8842008E0054AE0
:100A00002432126822EAD1024FF02043C3F8A42016
:100A100070470000800000A0BFFF0F0010B5044623
:100A2000CC48844208D10121042000F02DFB002194
:100A3000042000F029FB46E0C748844208D1012188
:100A4000082000F021FB0021082000F01DFB3AE007
:100A5000C248844208D10121102000F015FB00217A
:100A6000102000F011FB2EE0BD48844208D1012186
:100A7000202000F009FB0021202000F005FB22E0EF
:100A8000B848844208D10121402000F0FDFA00213D
:100A9000402000F0F9FA16E0B348844208D1012161
:100AA000802000F0F1FA0021802000F0EDFA0AE049
:100AB000AE48844207D10121801500F0E5FA0021FB
:100AC000A01500F0E1FA10BD10B50121084600F0B4
:100AD000DBFA0021012000F0D7FA10BD2DE9F0412A
:100AE000024600250026002000230024002791F85C
:100AF00003C00CF00F0591F803C00CF0100CBCF112
:100B0000000F03D091F802C04CEA050591F800C02F
:100B1000BCF1000F31D0146800202BE04FF0010C25
:100B20000CFA00F3B1F800C00CEA03069E4220D193
:100B300083004FF00F0C0CFA03F7BC4305FA03FCDB
:100B40004CEA040491F803C0BCF1280F06D14FF021
:100B5000010C0CFA00FCC2F814C00AE091F803C0C2
:100B6000BCF1480F05D14FF0010C0CFA00FCC2F8A3
:100B700010C0401C0828D1D31460B1F800C0BCF1EB
:100B8000FF0F34DD546800202EE000F1080C4FF018
:100B9000010808FA0CF3B1F800C00CEA03069E4203
:100BA00021D183004FF00F0C0CFA03F7BC4305FA78
:100BB00003FC4CEA040491F803C0BCF1280F05D1F2
:100BC00000F1080C08FA0CF8C2F8148091F803C080
:100BD000BCF1480F07D100F1080C4FF0010808FAEA
:100BE0000CF8C2F81080401C0828CED35460BDE831
:100BF000F0814FF6FF710180022181700421C170E4
:100C000070470246002093680B400BB1012000E0C2
:100C1000002070470146886880B270470246002075
:100C2000D3680B400BB1012000E000207047014663
:100C3000C86880B2704701617047416170470AB16E
:100C4000016100E041617047C16070474FF480323C
:100C50000A438261816182618269826970470246CA
:100C60000020434B18684FF68073184040EA02108A
:100C700008433F4B186070473E49C8617047F0B564
:100C80000A46002300240021002500F00046B6F1AA
:100C9000004F02D1364EF16901E0354E7168C0F364
:100CA000034583B200F44016B6F5401F08D121F089
:100CB00070612F4E766826F070662D4F7E6012E0D0
:100CC00000F48016B6F5801F06D1032606FA05F457
:100CD000A14341F0706106E0460D360103FA06F6C5
:100CE000B14341F0706122B1460D360103FA06F6B8
:100CF000314300F00046B6F1004F02D11C4EF161C5
:100D000001E01B4E7160F0BD30B500228B071C0F57
:100D10000F2303FA04F2164B08338C1053F82430D7
:100D20009343134C08348D1044F8253023468C101F
:100D300053F824308C07240F00FA04F423430C4C9E
:100D400008348D1044F8253030BD0A49DC31086084
:100D50007047000000080140000C014000100140F5
:100D60000014014000180140001C01400020014017
:100D70000000014000002042DF48006840F0010010
:100D8000DD49086008464068DC490840DA494860A7
:100D900008460068DA490840D749086008460068F4
:100DA00020F4802008600846406820F4FE00486077
:100DB0004FF41F0088607047CF49096821F48031E3
:100DC000CD4A11601146096821F480211160B0F507
:100DD000803F03D0B0F5802F0ED106E0C6490968E8
:100DE00041F48031C44A116007E0C349096841F405
:100DF000A021C14A116000E000BF00BF704710B5DC
:100E000001460022002300204A11012A02D1BA4CD7
:100E1000236806E0022A02D1B74C236A01E0B64CEF
:100E2000636A01F01F02012494401C400CB10120B0
:100E300000E0002010BD38B50020009000240025FF
:100E400000BF3120FFF7DBFF05460098401C0090F3
:100E50000098B0F5A06F01D0002DF2D03120FFF73F
:100E6000CEFF08B1012400E00024204638BD014631
:100E70000020A14A106820F0F80040EAC10010608C
:100E80007047A04908607047024600209A4B586896
:100E900020F47C1042EA01031843974B58607047D6
:100EA00098490866704701460020934A506820F030
:100EB00003000843506070478F48406800F00C0002
:100EC0007047014600208C4A506820F0F00008432B
:100ED0005060704701460020874A506820F4E06067
:100EE00008435060704701460020834A506820F450
:100EF000605040EAC1005060704729B17E4A527A82
:100F000002437D4B5A7204E07B4A527A82437A4B09
:100F10005A7270477B49D8310860704701460020FB
:100F2000754A506820F440400843506070470021E3
:100F3000714A20321170704A82F82010012802D0C4
:100F400004280AD104E001216B4A2032117005E027
:100F50000521694A2032117000E000BF00BF7047D0
:100F60006949086070476449096A0143624A11622D
:100F70007047654944390860704730B50021002248
:100F8000002400235C4D6D6805F00C0121B104299B
:100F900005D0082923D105E05C4D056022E05B4DBA
:100FA00005601FE0544D6D6805F47012524D6D6878
:100FB00005F48034022505EB92421CB9544D55438B
:100FC00005600BE04C4D6D6805F400351DB1504DCA
:100FD0005543056002E04D4D5543056002E04B4D21
:100FE000056000BF00BF444D6D6805F0F0010909C0
:100FF000484D6B5C0568DD4045603F4D6D6805F40C
:10100000E061090A434D6B5C4568DD4085603A4DFF
:101010006D6805F46051C90A3E4D6B5C4568DD4062
:10102000C560354D6D6805F44041890B3A4D6B5CE8
:10103000C568B5FBF3F5056130BD29B12E4A52698B
:1010400002432D4B5A6104E02B4A526982432A4BDA
:101050005A61704729B1284A92690243264B9A6126
:1010600004E0254A92698243234B9A61704729B173
:10107000214AD2690243204BDA6104E01E4AD26958
:1010800082431D4BDA61704729B11B4AD268024383
:10109000194BDA6004E0184AD2688243164BDA60D2
:1010A000704729B1144A12690243134B1A6104E0D4
:1010B000114A12698243104B1A6170471249403934
:1010C000086070470F49C86470470B49C871704782
:1010D0000948406A40F080700749486270470146FD
:1010E0000020054A92680A400AB1012000E0002071
:1010F0007047014988727047001002400000FFF8F5
:10110000FFFFF6FE000042428004424200127A00D5
:1011100000093D000C0000201C0000200CB5002040
:10112000019000906C48006840F480306A49086083
:1011300000BF6948006800F4003000900198401C2E
:101140000190009818B90198B0F5A06FF1D16248EC
:10115000006800F4003010B10120009001E0002090
:1011600000900098012843D15C48006840F01000CE
:101170005A4908600846006820F0030008600846E5
:10118000006840F0020008605348406852494860D7
:101190000846406848600846406840F480604860FF
:1011A0000846406820F47C1048600846406840F4D7
:1011B000E81048600846006840F08070086000BF92
:1011C0004548006800F000700028F9D042484068A7
:1011D00020F00300404948600846406840F00200A3
:1011E000486000BF3C48406800F00C000828F9D176
:1011F0000CBD10B5FFF792FF10BD10B53648006862
:1012000040F001003449086008464068344908400D
:101210003149486008460068324908402E49086054
:101220000846006820F4802008600846406820F4E2
:10123000FE0048604FF41F008860FFF7DAFF4FF0B0
:1012400000602949086010BD10B50021002000226F
:10125000214B5B6803F00C0121B1042906D0082959
:1012600028D107E0214B224C236027E01F4B204C64
:10127000236023E0184B5B6803F47010164B5B6827
:1012800003F48032022303EB904022B9194B43430D
:10129000174C23600DE0104B5B6803F4003323B15F
:1012A000144B4343124C236003E0104B4343104C58
:1012B000236003E00D4B0E4C236000BF00BF064BC4
:1012C0005B68C3F303130C4CE15C094B1B68CB4018
:1012D000074C236010BD00000010024000200240B7
:1012E0000000FFF8FFFFF6FE08ED00E000127A00B4
:1012F0002000002000093D002400002000B597B028
:1013000001210802FFF799FE4FF40050ADF80000EC
:1013100010208DF8030003208DF802006946334841
:10132000FFF7DCFB4FF400513048FFF784FC02204C
:10133000ADF8000010208DF8030003208DF80200A6
:1013400069462B48FFF7CAFB4CF23370ADF800003A
:1013500003208DF8020018208DF803006946234809
:10136000FFF7BCFB4FF68070ADF8000069462048DF
:10137000FFF7B4FB8020ADF8000069461B48FFF77B
:10138000ADFB4FF40060ADF8000069461748FFF769
:10139000A5FB022001900020029005200390002070
:1013A0000490059006904FF0805007900020089020
:1013B000099008200A9010200B9000200C900E90AD
:1013C0000F9010904FF480501190002012901390C5
:1013D000149001A81590169008A8FFF765F8012150
:1013E0000020FFF7C9F917B000BD0000001401404C
:1013F0000018014001B502E00098401E00900098DE
:101400000028F9D108BD4FF0C041088070474FF067
:10141000C0421080FE4A118070470020FC490888B5
:101420007047FB4908807047F9490880704710B53C
:101430000221F848FFF701FCF748FFF7DBFF022124
:10144000F448FFF7F8FBF448FFF7D4FFE220FFF77A
:10145000DAFF2320FFF7E5FF0220FFF7E2FF042079
:10146000FFF7DFFFE020FFF7CEFF0120FFF7D9FFF6
:101470004AF6FF70FFF7BEFFE020FFF7C4FF03202E
:10148000FFF7CFFF4AF6FF70FFF7B4FF0120FFF729
:10149000BAFF4AF6FF70FFF7ADFFE620FFF7B3FF94
:1014A0000420FFF7BEFF9320FFF7BBFFE020FFF70C
:1014B000B8FFB020FFF7A7FF0020FFF7B2FF002022
:1014C000FFF7AFFFD5480088C0F30720FFF7A9FF5B
:1014D000D2490878FFF7A5FFD1480088C0F307205C
:1014E000FFF79FFFCE490878FFF79BFF0020FFF72B
:1014F00098FFB420FFF787FFCA480088C0F3072091
:10150000FFF78FFFC7490878FFF78BFFC6480088B1
:10151000C0F30720FFF785FFC3490878FFF781FF75
:10152000C2480078FFF77DFFC1480088C0F307205C
:10153000FFF777FFBE490878FFF773FF0020FFF73A
:1015400070FFB620FFF75FFFBA480088C0F307209E
:10155000FFF767FFB7490878FFF763FFB6480088D1
:10156000C0F30720FFF75DFFB3490878FFF759FF85
:10157000B2480078FFF755FFB1480088C0F3072054
:10158000FFF74FFFAE490878FFF74BFFB820FFF792
:101590003AFF0F20FFF745FF0120FFF742FFBA2077
:1015A000FFF731FF0F20FFF73CFF3620FFF72BFF3F
:1015B0000020FFF736FFF020FFF725FF0320FFF79D
:1015C00030FF4AF6FF70FFF715FF2920FFF71BFFDA
:1015D000BE20FFF718FF0120FFF723FFFF20FFF7D2
:1015E00020FF0120FFF71DFFF020FFF71AFF00206A
:1015F000FFF717FF0020FFF714FF10BD70B5054679
:101600000C462A20FFF7FFFE2812FFF70AFF2846A4
:10161000FFF707FF511EC1F30F20FFF702FF511E16
:1016200088B2FFF7FEFE2B20FFF7EDFE2012FFF73A
:10163000F8FE2046FFF7F5FE591EC1F30F20FFF715
:10164000F0FE591E88B2FFF7ECFE2C20FFF7DBFE00
:10165000501B191B00FB01F603E04FF6FF70FFF76C
:10166000E0FE3000A6F10106F7D170BD10B50446CA
:101670000B462A20FFF7C7FE2012FFF7D2FE2046B6
:10168000FFF7CFFE2012FFF7CCFE2046FFF7C9FE82
:101690002B20FFF7B8FE1812FFF7C3FE1846FFF71E
:1016A000C0FE1812FFF7BDFE1846FFF7BAFE2C2049
:1016B000FFF7A9FE1046FFF7B4FE10BD00B50346C4
:1016C0000A462A20FFF79FFE1812FFF7AAFE1846C7
:1016D000FFF7A7FE1812FFF7A4FE1846FFF7A1FEBA
:1016E0002B20FFF790FE1012FFF79BFE1046FFF72E
:1016F00098FE1012FFF795FE1046FFF792FE2E207F
:10170000FFF781FEFFF789FE00BDF0B505460C46E8
:101710002A20FFF778FE2812FFF783FE2846FFF7FE
:1017200080FE1012FFF77DFE1046FFF77AFE2B2099
:10173000FFF769FE2012FFF774FE2046FFF771FEE7
:101740002012FFF76EFE2046FFF76BFE2C20FFF7FE
:101750005AFE501B471C002603E01846FFF761FEA7
:10176000761CBE42F9D9F0BDF0B505460C462A20DC
:10177000FFF749FE2812FFF754FE2846FFF751FEF7
:101780002812FFF74EFE2846FFF74BFE2B20FFF7EF
:101790003AFE2012FFF745FE2046FFF742FE1012E8
:1017A000FFF73FFE1046FFF73CFE2C20FFF72BFE15
:1017B000101B471C002603E01846FFF732FE761C7C
:1017C000BE42F9D9F0BD2DE9F04105460C46069F11
:1017D0002A20FFF718FE2812FFF723FE2846FFF7FE
:1017E00020FE1012FFF71DFE1046FFF71AFE2B20F9
:1017F000FFF709FE2012FFF714FE2046FFF711FE47
:101800001812FFF70EFE1846FFF70BFE2C2019E00A
:101810000000026000180140FFFF0A0034000020B1
:1018200048000020380000203C000020400000203C
:10183000440000204C0000205000002054000020F4
:1018400058000020FFF7DFFD501B401C191B491CEE
:1018500000FB01F8002603E03846FFF7E2FD761CA6
:101860004645F9D9BDE8F0812DE9F04104460D4621
:10187000069F2A20FFF7C7FD2012FFF7D2FDE0B236
:10188000FFF7CFFDA118491EC1F30F20FFF7C9FDD7
:10189000A118491EC8B2FFF7C4FD2B20FFF7B3FD06
:1018A0002812FFF7BEFDE8B2FFF7BBFDE918491E9D
:1018B000C1F30F20FFF7B5FDE918491EC8B2FFF7C5
:1018C000B0FD2C20FFF79FFD02FB03F04FEA40081C
:1018D000002603E0B85DFFF7A7FD761C4645F9D367
:1018E000BDE8F0810B48006870470A4A1268111879
:1018F00000BF084A12688A1A002AFADC704770474B
:1019000070477047704770477047704700207047B6
:10191000704700005C00002010B54FF448410348B8
:1019200001F092F8024802F049F810BDAC01002025
:101930004CC1000810B500231A462049204801F088
:10194000F5F903F0C1F960B14FF49672E02100207F
:1019500003F0F4FB4FF49672E021002003F004FC46
:101960000BE0E0224FF49671002003F0E7FBE02249
:101970004FF49671002003F0F7FB10BD2DE9F04104
:1019800006460F46144625463020FFF73CFD6968A1
:10199000C1F30F20FFF745FDA98888B2FFF741FD8D
:1019A0000120FFF73EFD4FF4F270FFF73AFD1220E1
:1019B000FFF729FD0020BDE8F0810000549B0008DE
:1019C000209B00082DE9F04107460C4615461E46AF
:1019D000B2B2A9B2A0B2FFF749FEBDE8F0812DE98D
:1019E000F04107460C461546A9B2A0B2FFF766FEC5
:1019F00006463046BDE8F0812DE9F04104460D462B
:101A00001646324629462046FFF7E9FF0746216978
:101A100088688047804687EA080332462946204680
:101A2000FFF7D0FFBDE8F0812DE9F84F81460D4664
:101A300014461E46DDF82880FE480068C06BD0F8CA
:101A400000A0FC480068007C00F0010070B10AE0D2
:101A50002F4605E0224639464846FFF7CDFF7F1C5A
:101A6000B742F7DD641C4445F2DD09E01FFA8AF055
:101A70001FFA88F3B2B2A1B20090A8B2FFF7A3FE9A
:101A8000BDE8F88FF8B505460E4614461F463B469E
:101A90002246314628460094FFF7C6FFF8BDF8B548
:101AA00006460C4617461D4623463A462146304612
:101AB0000095FFF7B9FFF8BD2DE9FE4F82460C46B1
:101AC00017461D46DDE90C6804EB080000902A204B
:101AD000FFF799FCC4F30F20FFF7A3FCA0B2FFF7B8
:101AE000A0FC0098C0F30F20FFF79BFC009988B280
:101AF000FFF797FC2B20FFF786FCC7F30F20FFF7BB
:101B000090FCB8B2FFF78DFCC7F30F20FFF789FCFC
:101B1000B8B2FFF786FC2C20FFF775FC0E98006822
:101B200002900E98406801903444C2480068007CDE
:101B300000F0030030B1012836D002281AD0032863
:101B400057D130E000BF297880223241114009B1DD
:101B5000019900E0029988B2FFF763FC701C064609
:101B6000082801D100266D1CA8F101005FEA0008D9
:101B7000E9D13EE000BF287880213141084028B1FA
:101B80003A4621465046019BFFF71CFF641C701C1F
:101B90000646082801D100266D1CA8F101005FEA65
:101BA0000008E8D125E000BFDAF810108868804707
:101BB000814600BF287880213141084060B13A4613
:101BC00021465046FFF70BFF83468BEA09033A464E
:101BD00021465046FFF7F6FE641C701C0646082896
:101BE00001D100266D1CA8F101005FEA0008E1D1D7
:101BF00000BF00BFBDE8FE8F2DE9FF4F83B00F4649
:101C000091469846DDE911AB07EB0A0000902A20C7
:101C1000FFF7F9FBC7F30F20FFF703FCB8B2FFF79C
:101C200000FC0098C0F30F20FFF7FBFB009988B27F
:101C3000FFF7F7FB2B20FFF7E6FBC9F30F20FFF7B9
:101C4000F0FB1FFA89F0FFF7ECFBC9F30F20FFF759
:101C5000E8FB1FFA89F0FFF7E4FB2C20FFF7D3FB2A
:101C600098F800000290109E109E3744714800685A
:101C7000007C00F0030010B1022844D144E0BBF125
:101C8000000F22D000BFC6F103004400C4F10601DA
:101C9000C02008410299084020FA04F55BF825109D
:101CA0000191019988B2FFF7BCFB701C064604281D
:101CB00005D1002608F10100804600780290AAF1C3
:101CC00001005FEA000ADED11DE000BFC6F103009B
:101CD0004400C4F10601C02008410299084020FADE
:101CE00004F5A8B2FFF79DFB701C0646042805D139
:101CF000002608F10100804600780290AAF1010058
:101D00005FEA000AE2D14DE0BBF1000F26D000BF30
:101D1000C6F103004400C4F10601C0200841029945
:101D2000084020FA04F545B15BF8250001904A46C9
:101D30003946019B0398FFF745FE7F1C701C064641
:101D4000042805D1002608F10100804600780290A1
:101D5000AAF101005FEA000ADAD122E000BFC6F171
:101D600003004400C4F10601C02008410299084064
:101D700020FA04F52DB12B464A4639460398FFF761
:101D800021FE7F1C701C0646042805D1002608F1A0
:101D90000100804600780290AAF101005FEA000A83
:101DA000DDD100BF00BF07B0BDE8F08F2DE9FF4FC8
:101DB00083B00F4691469846DDE911AB07EB0A0068
:101DC00000902A20FFF71FFBC7F30F20FFF729FB26
:101DD000B8B2FFF726FB0098C0F30F20FFF721FBF6
:101DE000009988B2FFF71DFB2B20FFF70CFBC9F30E
:101DF0000F20FFF716FB1FFA89F0FFF712FBC9F35C
:101E00000F20FFF70EFB1FFA89F0FFF70AFB2C20CB
:101E1000FFF7F9FA98F800000290109E109E3744E0
:101E200004480068007C00F0030028B1022847D174
:101E300047E00000A4000020BBF1000F22D000BF4B
:101E4000C6F101008400C4F10401F02008410299A8
:101E5000084020FA04F55BF825100191019988B239
:101E6000FFF7DFFA701C0646022805D1002608F1AC
:101E70000100804600780290AAF101005FEA000AA2
:101E8000DED11DE000BFC6F101008400C4F10401F1
:101E9000F02008410299084020FA04F5A8B2FFF7A3
:101EA000C0FA701C0646022805D1002608F1010080
:101EB000804600780290AAF101005FEA000AE2D1B0
:101EC0004DE0BBF1000F26D000BFC6F10100840039
:101ED000C4F10401F02008410299084020FA04F5F9
:101EE00045B15BF8250001904A463946019B0398AD
:101EF000FFF768FD7F1C701C0646022805D10026EE
:101F000008F10100804600780290AAF101005FEA22
:101F1000000ADAD122E000BFC6F101008400C4F15A
:101F20000401F02008410299084020FA04F52DB17F
:101F30002B464A4639460398FFF744FD7F1C701C28
:101F40000646022805D1002608F1010080460078E7
:101F50000290AAF101005FEA000ADDD100BF00BFD4
:101F600007B0BDE8F08F2DE9F05F83460E4690463E
:101F70001C46DDE90A5906EB050A2A20FFF743FA59
:101F8000C6F30F20FFF74DFAB0B2FFF74AFACAF3D3
:101F90000F20FFF746FA1FFA8AF0FFF742FA2B20CC
:101FA000FFF731FAC8F30F20FFF73BFA1FFA88F06A
:101FB000FFF737FAC8F30F20FFF733FA1FFA88F05C
:101FC000FFF72FFA2C20FFF71EFAFA480068007C72
:101FD00000F0030010B102283CD119E0B9F1000F64
:101FE0000CD008E0277839F8271088B2FFF719FAE3
:101FF0006D1E761C641C002DF4DC08E005E02078E2
:10200000FFF70FFA6D1E761C641C002DF7DC21E033
:10201000B9F1000F0FD00BE0277837B159F827300E
:10202000424631465846FFF7CDFC6D1E761C641CB7
:10203000002DF1DC0DE00AE027782FB13B46424647
:1020400031465846FFF7BEFC6D1E761C641C002D01
:10205000F2DC00BF00BFBDE8F09F2DE9F0478246EB
:102060000D4614461E46089F05EB07092A20FFF778
:10207000CAF9C5F30F20FFF7D4F9A8B2FFF7D1F9D9
:10208000C9F30F20FFF7CDF91FFA89F0FFF7C9F95F
:102090002B20FFF7B8F9C4F30F20FFF7C2F9A0B265
:1020A000FFF7BFF9C4F30F20FFF7BBF9A0B2FFF7AA
:1020B000B8F92C20FFF7A7F94FF0000805E03088A9
:1020C000FFF7AFF9B61C08F10108B845F7D3BDE832
:1020D000F0872DE9F04107460D4690461C46069EC6
:1020E00008E04246294638462368FFF76BFC761E17
:1020F0006D1C241D002EF4DCBDE8F0812DE9FF4F9E
:1021000083B015461E46DDE914BADDE91297DDF805
:102110004080119808283FD006DC012809D0022809
:1021200018D0042863D126E0102844D020285ED19E
:102130004FE000240BE062193B46CDE900B6CDF834
:1021400008A0DDE90301FFF7B7FC4F44641C4445D8
:10215000F1DB4CE000240BE062193B46CDE900B610
:10216000CDF808A0DDE90301FFF746FD4F44641CEC
:102170004445F1DB3BE000240BE062193B46CDE92E
:1021800000B6CDF808A0DDE90301FFF70FFE4F44CC
:10219000641C4445F1DB2AE0002409E062193B4657
:1021A000CDE9006ADDE90301FFF7DDFE4F44641C61
:1021B0004445F3DB1BE0002408E062193B4600962F
:1021C000DDE90301FFF749FF4F44641C4445F4DB9C
:1021D0000DE0002408E062193B460096DDE90301AA
:1021E000FFF777FF4F44641C4445F4DB00BF00BF9A
:1021F00007B0BDE8F08F70B50446A06858B91C2040
:1022000000F052FCA060A5682169886880470646F6
:1022100003F0ACF8A861A06808B9012070BD0020E7
:10222000FCE703460A4699680F2A1FD2DFE802F04E
:102230001E080A0C0E1E1E1E10121416181A1C0060
:10224000486870478868FCE7C868FAE70869F8E7F3
:102250008869F6E70020F4E70120F2E70120F0E7C3
:102260000020EEE70020ECE70020EAE74FF0FF3027
:10227000E7E70246012901D14F4870470020FCE7FB
:10228000826800230B804B8093895B1E1BB28B807E
:10229000138A5B1E1BB2CB8070477CB504460D468B
:1022A0001646002000900190009501966A46032191
:1022B000A069FFF763FB7CBDF8B504460D4600201E
:1022C00000902046FFF797FFA06838B1A6683560F8
:1022D00000956A460221A069FFF750FBF8BD2DE981
:1022E000F04105460E4617462846FFF784FFA868CA
:1022F00018B1AC68E66027616661BDE8F0812DE940
:10230000FC4105460E4617460020009001902846E5
:10231000FFF771FFA86878B1AC68606908B930460A
:1023200000E0606960616660A760009601976A4698
:102330000721A869FFF722FBBDE8FC8170B50446C0
:102340002046FFF758FF054600220121A069FFF74C
:1023500015FB0543284670BD10B504460022052133
:10236000A069FFF70BFB10BD10B504460022062143
:10237000A069FFF703FB10BD7CB504460D46164669
:102380000020009001908DF8045000966A460421C8
:10239000A069FFF7F3FA7CBD0246A1F10900082805
:1023A0001AD2DFE800F0040D0F11191315170348B6
:1023B00070470000A4000020B0C10008B922000846
:1023C0000648F5E70648F3E70648F1E70648EFE771
:1023D0000648EDE70648EBE70020E9E7DF220008C2
:1023E000FF2200083D230008592300086923000844
:1023F00079230008032A40F2308010F0030C00F02B
:10240000158011F8013BBCF1020F624498BF11F82E
:1024100001CB00F8013B38BF11F8013BA2F10402E7
:1024200098BF00F801CB38BF00F8013B11F003035F
:1024300000F06780083AC0F0088051F8043B083A81
:1024400051F804CBA0E80810F5E7121D5CBF51F865
:10245000043B40F8043BAFF30080D20724BF11F8DF
:10246000013B11F801CB48BF11F8012B24BF00F844
:10247000013B00F801CB48BF00F8012B7047431A1D
:1024800028BF9A427FF6B6AF032A1044114440F2A7
:10249000268010F0030F1EBF11F8013D521E00F8F8
:1024A000013D10F0030F7FF4F6AF11F0030300F0CD
:1024B000D380083AC0F00B8051F8043D083A51F837
:1024C00004CD40F8043D40F804CDFFF7F3BF121DE2
:1024D0005CBF51F8043D40F8043DAFF30080D207E3
:1024E00024BF11F8013D11F801CD48BF11F8012CAE
:1024F00024BF00F8013D00F801CD48BF00F8012CD1
:10250000704710B5203AC0F00B80B1E81850203A5F
:10251000A0E81850B1E81850A0E81850BFF4F5AF83
:102520005FEA027C24BFB1E81850A0E8185044BF0D
:1025300018C918C0BDE810405FEA827C24BF51F87A
:10254000043B40F8043B08BF7047D20728BF31F86E
:10255000023B48BF11F8012B28BF20F8023B48BFBF
:1025600000F8012B704702F0FF0343EA032242EA1E
:10257000024200F002B84FF000020429C0F01280BD
:1025800010F0030C00F01B80CCF1040CBCF1020F26
:1025900018BF00F8012BA8BF20F8022BA1EB0C01FB
:1025A00000F00DB85FEAC17C24BF00F8012B00F8F1
:1025B000012B48BF00F8012B70474FF0000200B517
:1025C000134694469646203922BFA0E80C50A0E856
:1025D0000C50B1F12001BFF4F7AF090728BFA0E804
:1025E0000C5048BF0CC05DF804EB890028BF40F8D0
:1025F000042B08BF704748BF20F8022B11F0804F12
:1026000018BF00F8012B70477047704770470000F3
:1026100001491820ABBEFEE72600020010B500F00D
:102620004BF8006810BD10B5044600F045F8046092
:1026300010BD431A28BF9A427FF663AF104410F0D2
:10264000030F11441EBF11F8013D521E00F8013D59
:1026500010F0030F7FF4F6AF103AC0F00A8010B507
:1026600031E91850103A20E91850BFF4F9AFBDE82D
:102670001040530724BF31E9081020E9081044BF77
:1026800051F8043D40F8043D12F0030F08BF7047B5
:10269000D20728BF31F8023D48BF11F8012C28BFEE
:1026A00020F8023D48BF00F8012C704700487047F1
:1026B000A4CB00207047000000487047A4CB002046
:1026C0007546FFF7F3FFAE4605006946534620F016
:1026D0000700854618B020B5FDF7A6FDBDE82040EF
:1026E0004FF000064FF000074FF000084FF0000BCE
:1026F00021F00701AC46ACE8C009ACE8C009ACE881
:10270000C009ACE8C0098D4670470446AFF30080AD
:102710002046FDF774FD000010B5002001F04AF9D5
:102720006FF07F4001F048F9012001F07DF90020B1
:1027300001F082F9002001F089F9002001F044F94C
:102740000448006801F042F9BDE81040002001F0A3
:1027500047B90000A00000202DE9F04FDFF828B1B4
:1027600091B04FF0FF35DBF80030B3F9221006913D
:10277000DE69B3F924A0F469A189814206D8E2890F
:10278000824203D3471AD4F8008012E0D4E90181D1
:10279000002970D00A8882426DD84D8885426AD35C
:1027A000801A82B2486800EB8200B0F90070B0F97C
:1027B0000250781C5FD0307EA27C014600FB02F9FB
:1027C000207CCDE90810B3F92A60304602F074FC91
:1027D000C0B20E90DBF8001007FB0980A37C8A6B67
:1027E0000127CDE90402CDE90273C869DDE90832A9
:1027F000C17E807ECDE900015146069802F05CF86A
:10280000681C18D046F0020002F056FCDBF800000D
:10281000A37C05FB0981826BCDE90273CDE904122B
:10282000C069DDE90832C17E807ECDE900015146F4
:10283000069802F041F8DBF800005D46C069417E71
:10284000007E814214D9022E12D086F0040002F0DC
:1028500033FC2868C069027EC37E857E02FB03A12B
:10286000437E099A0698534402FB050202F088F958
:102870000E9802F021FCDBF80000627C418C1144D0
:10288000418411B0BDE8F08FA40000200448006826
:10289000C069C06909B1027C0A60407C70470000D1
:1028A000A4000020022008807047C06982898A4203
:1028B00002D8C2898A4210D2806880B102888A42D6
:1028C0000DD843888B420AD3406800EB8100A0EB0F
:1028D0008200B0F90000002801DB012070470020D1
:1028E000704700002DE9F0432F4C034687B0206865
:1028F0001946B0F92A80C069C06900F082F8002842
:102900004ED041680088181A01EBC0054046AE78E9
:1029100002F0D2FB814620686A680123816BCDE911
:102920000236CDE90421C169CB7E8A7ECDE9002340
:102930000B7EB0F924102A78B0F9220001F0BCFF18
:102940002068C069477E067EB7421DD9C07E4743D6
:102950004643B8F1020F17D000F024FB804600F088
:1029600009FB01F029F821682A78CB69B1F9220026
:10297000B1F92410DB7E02FB0302CB19314402F0D3
:10298000FFF8404601F018F8484602F095FB206831
:102990006A78C369B0F922109B7E02FB031141845F
:1029A00007B0BDE8F0830000A400002030B50E4C55
:1029B00005460B4620682946C069C06900F021F829
:1029C000002810D04168008824682A1A0120E46990
:1029D00000EBC200085CA47E6043002B03D011F81A
:1029E00032106143196030BDA4000020012008802E
:1029F000704700B5C06900F004F8002800D001203D
:102A000000BD06E002888A4202D842888A4202D289
:102A100080680028F6D17047002801D003F042BD3D
:102A2000704738B50546FFF7F7FF040009D000F0FE
:102A3000AFF82A460021009001F0E4FE684600F05D
:102A4000C9F8204638BD0000024A106021F003009A
:102A50005060704768CA002010B5002814D00446A2
:102A60000A48006B10F8341000290DD002290BD24F
:102A7000042101EBC4014158486803F0D7FC20460B
:102A8000BDE8104005F06ABD10BD0000ACC90020D3
:102A9000002805D0034A916B016001B14860906342
:102AA00070470000ACC900202DE9F041044605F054
:102AB00059FB2648E41C24F00305C16B2D1DA942D7
:102AC00000D90D46846B13E054F8042CAA420ED1B1
:102AD00084B1216809B162684A60616809B12268FD
:102AE0000A60826BA2422ED1216881632BE02468A8
:102AF000002CE9D18046416B80680F1857F8040C10
:102B00003E1A306838B1002005F082FD57F8040CF9
:102B10003E1A3068B8B97068A84214DB3044441BD0
:102B2000304605F02DFDD8F80810491BC8F80810EC
:102B3000D8F810102944C8F8101070683146401BAE
:102B400003F074FC20C42046BDE8F081ACC900202D
:102B500010B5002405F006FB0C490F2001EBC00264
:102B6000126C1AB101EBC000006C08E0401EF5D5F4
:102B700008E04168A14200D90C46806810B1806825
:102B80000028F6D1A4F10C0010BD0000ACC9002053
:102B900005498A69521C8A61096B01EBC0010A78F8
:102BA000521C0A7000F02EB8ACC9002010B5FFF717
:102BB000CFFF64220649B0F5800F04D990FBF2F0F4
:102BC000C969484310BDC9694143B1FBF2F010BD6A
:102BD000ACC900200A4902680B6B52F8082C03EBC1
:102BE000C2021378022B03D38B690BB15B1E8B617E
:102BF0001178491E117000210160084670470000DD
:102C0000ACC90020002806D00349042202EBC00012
:102C1000096B085808307047ACC9002010B5C2B223
:102C2000CBB2D21A02D5C2F1000212B293B2C0F3F3
:102C30000722C1F3072403FB03F3121B01D5524201
:102C400012B2000C92B2A0EB114002FB023200B2B1
:102C5000002801DA404200B280B200FB002010BD23
:102C600010B50021084600F0D7F940F6FF72504237
:102C7000BDE8104013460146AFF300802DE9FC414A
:102C800007461C4615460E46042002F015FA8046FB
:102C90001148C068C16C006D0F4406440D440444E3
:102CA000ADF80070ADF80450ADF80260ADF8064024
:102CB000684603F04DF807E023462A463146384679
:102CC00001F05EFF03F006F80028F5D1404602F05F
:102CD000F3F9BDE8FC810000980000202DE9F041E7
:102CE0001C4616460D460746022B02DB0020BDE8B7
:102CF000F0811C20FFF7D8FE0028F8D00DB1056147
:102D00000AE0094A52F8241009B905E011460A6898
:102D1000002AFBD10969016184618682002101607A
:102D20004160C0E90217E2E7BC00002070B51D4613
:102D3000FFF7D4FF040001D000F00EF8E06800684F
:102D400020B90348006800EB85008465204670BD0B
:102D5000A4000020FFF79CBE70B590B38269022AE0
:102D600030DA1C4C54F8221019B944F822002FE034
:102D700019464B68002BFBD106E0CB68C5681B6881
:102D80002D68AB4203DD09680029F6D11AE0C1B114
:102D9000CB68C6681B683668B3420CD1838A012BA6
:102DA00005D008E01946DB681B68AB4203DB0B6803
:102DB000002BF7D129B14B6833B118604A684260E3
:102DC00004E0FFE7012070BD44F822004860016084
:102DD000002070BDBC00002005F0B4BD022801DB5E
:102DE00000207047054951F8200004E0C1680968D7
:102DF0000029F6D000680028F8D17047BC000020F8
:102E000070B50446FEF76EFD051908E000F08EF877
:102E1000052C01DD052000E02046FEF766FDFEF7EB
:102E200061FD2C1A002CF1DC70BD00002DE9FC477F
:102E300006005BD000F0BEF83B4C81462068B0F93C
:102E4000228000F0C1F8216807468A8CD01B888454
:102E500041E000BF47F6FF71304601F061FB82465A
:102E60000146304601F032FB2168054691F82C00FE
:102E700000F0030001283FD0022839D000204A8CFE
:102E8000101A4884ADF800006A1E1044ADF8040022
:102E9000888CADF80200A9F101010844ADF80600E4
:102EA0006A465146304601F0F3F82168BDF8020049
:102EB00088845146304600F04BFE064430780A289C
:102EC0001CD00D281AD0BDF8000021682844488481
:102ED000307818B1761C30780028BBD12068818CFE
:102EE00039448184818D21F003018185BDE8FC870F
:102EF00005EBD5704010C2E72846C0E7206890F87F
:102F00002C1001F0030101290BD0022909D0018CFA
:102F1000418431780A29DBD1828C02EB090181845A
:102F2000D6E7A0F82280F4E7A400002010B5002422
:102F300000E0012400F004F80028FAD1204610BD7A
:102F4000064810B50068002410B1804700B1012484
:102F500002F0E4FB00B10124204610BDC4000020B3
:102F6000034951F82000C1688A6A0821104700000F
:102F7000BC00002010B501F033FEBDE8104001F0A8
:102F8000EBBE000002490968C9694A680021104780
:102F9000A4000020024A1268D2695268104700005B
:102FA000A400002010B501F023FEBDE8104001F0A0
:102FB000D3BE000002480068C069407E7047000030
:102FC000A400002001F0C8BA0A490020096891F85D
:102FD0002C2002F00C02042A07D0082A01D00C2A67
:102FE00002D1C869007E40087047C869007E401E53
:102FF00070470000A4000020024951F82000006939
:1030000000687047BC000020024951F820000069A8
:1030100040687047BC00002070B50D4604F0FEFF0C
:103020000446284605F002F8204370BD124810B54A
:10303000016821F0010101601048012181601049FF
:10304000016000680F49884200D0FEE701F006F8F1
:103050000D492E200870FEF752FC0C4805F04AF886
:1030600006F080F804460021084600F0C1FC02F09A
:10307000A7FB204610BD0000002000E00030024009
:10308000C2A507F4CDB5E8B59800002074CA0020A9
:103090001CB520B90C480068006E002812D0FFF75C
:1030A00077FD009044696846FFF794FD002C09D035
:1030B0002046FFF76DFD019081688968884701A867
:1030C000FFF788FD1CBD0000A400002001490A464E
:1030D00000F002B801F0FFFF2DE9F04387B015467C
:1030E0000C465FEA000842D0002000F06DFC8146EB
:1030F00020480068066E4046FFF74AFD00900068D1
:10310000806900F045FC074640F6FF70001904D1C5
:103110000098B0F90440B0F906500098611E028989
:10312000ADF804401144ADF808104189681E084408
:10313000ADF80650ADF80A0002F060F96846FFF7F6
:1031400049FD01A802F004FE06E02A462146404659
:1031500000F048FB02F0BEFD0028F6D1384600F032
:1031600017FC304600F098F9484600F02DFC07B0F7
:10317000BDE8F083A40000202DE9FE4F83461948E6
:103180008A46194900680C9E9846407C9146002763
:1031900051F82040E1680968042903D02468002C14
:1031A000F8D100E014B9FFF719FE04460121E068E8
:1031B000C26A20469047050011D02469A068804764
:1031C000401C02D1094C46F001060096CDE901549D
:1031D00043464A465146584600F0EAF90746384603
:1031E000BDE8FE8FA4000020BC0000208C9B0008DE
:1031F000FEB50546DDE909640020089F002C05D0D6
:103200000097CDE90164284600F0D2F9FEBD000028
:1032100038B5040018D00D480068006EA04201D1F6
:1032200000F0ACFB2046FFF7B3FC0090406908B10A
:1032300000F097FD00980068FFF78CFD6846FFF7E7
:10324000C9FC2046FFF708FC38BD0000A4000020A0
:103250002DE9FF4F83B0454CDDF840B098468A46D3
:1032600007002BD002A901A8FFF7ACFEB7F9006058
:10327000002E00DA0026B7F90250002D00DA0025F2
:103280002068A146407C01F027FD01990144491EB8
:10329000B7F9040004F0F9FF0446D9F80000407CB7
:1032A00001F020FD02990144491EB7F9060004F01F
:1032B000ECFFA71B7F1C441B641C0BE0206800264E
:1032C0003546407C01F008FD07462068407C01F04F
:1032D00009FD0446B8F1000F01D1C4F10008002F28
:1032E00001DD002C03DC002007B0BDE8F08F434671
:1032F0003A4629463046CDF800B0FFF73DFF5FEA79
:10330000000909D000F094F88046484600F0C4F85F
:103310000027DFF85CB01FE0514605988847012080
:10332000E2E7E11B414502DA484600F09FF83FB171
:10333000EA193146484600F0D9F84846FFF7A8FE9A
:10334000514605988847DBF8001009B100208847EE
:103350004846FFF7BBFE4744A742E2DB4846FFF77B
:1033600057FF002000F098F8BDE70000A4000020FF
:103370007C0100202DE9F04786B09946DDE90F4633
:103380000E9F8246002C30D019480068C36C006D37
:1033900003EB010885180FFA88F1ADF80C10002E28
:1033A00001DA304600E00020621E2844114400B2D9
:1033B000ADF81010ADF80E004946B94500DC3946AD
:1033C000491E0844ADF8120003A802F0C1FC0AE04F
:1033D0000097CDE901464B462A464146504604F047
:1033E000FDF802F077FC0028F2D106B0BDE8F087C6
:1033F000A400002038B5002460B1FFF7C9FB00909D
:10340000006800698068804701F0DEFF0446684676
:10341000FFF7E0FB204638BD38B5FFF7B9FB00F1F8
:10342000180400906846FFF7D5FB204638BD000021
:1034300038B5002418B907480068006E38B1FFF7A6
:10344000A7FB0090B0F90A406846FFF7C3FB20468F
:1034500038BD0000A400002010B503F019F90028C1
:1034600003D0BDE8104000F06DB810BD38B50C4673
:1034700020B908480068006E00280AD0FFF788FBD2
:103480000090B0F90A10A14200DD44816846FFF7C0
:10349000A1FB38BDA4000020F8B5134E050030682C
:1034A000046E0CD00CB100F069FA02F095F82846D1
:1034B000FFF76EFB009031680A6E1AB106E000F06B
:1034C0005DFA0EE0D1E90223C1E919230D66006817
:1034D000FFF742FC6846FFF77DFB01F05BFE01F061
:1034E000CBFD2046F8BD0000A40000207CB51546A9
:1034F0000C4620B912480068006E00281FD0FFF764
:1035000047FB2DB20090C58024B2848001F0B4FD49
:103510000098406980B1FFF73BFB009A0190B2F937
:1035200008108180B2F90A20C28011B10AB104806A
:10353000458001A8FFF74EFB6846FFF74BFB7CBDBB
:10354000A400002001490A4600F002B801F0FFFF84
:103550007FB515460C46060028D0FFF719FB40F64C
:10356000FF710190091903D1B0F90440B0F9065078
:103570000289611E1144ADF80840ADF80C10418974
:10358000681E0844ADF80E00ADF80A5001A8FFF718
:1035900021FB02A802F0DCFB06E02A462146304669
:1035A00000F008F902F096FB0028F6D17FBD00007C
:1035B0002DE9FF4FDFF8E0B083B01C46DBF80010C8
:1035C000DDE91060924600274B7C3A461299FFF7DE
:1035D00085FB05005DD028698068804701F0F4FE16
:1035E00081460AFB09F0C01D4FEAD008FFF7DEFA5A
:1035F000F10705D1C11700EB9170801000EB40007E
:10360000002C06DC1838B0FBF8F06442A04200DC65
:103610000446F00707D10090DDE903012346524636
:1036200000F016FB0746002C03DC2846FFF792FB50
:103630002FE004FB08F01830F10702D0FFF7ECF997
:1036400001E0FFF7EEF906001CD0FFF7A1FA0190A8
:103650000560039981800499C180A0F808A0448185
:10366000C0F80C80C0E9049701A8FFF7B3FA1298DC
:10367000AE602861DBF80000407CA861304607B0EE
:10368000BDE8F08F2846FFF765FB17B13846FFF716
:10369000E3F90020F3E70000A40000202DE9F74F34
:1036A00092B090461298FFF773FA0B90B0F9081099
:1036B0000691B0F90A100D9100680069D0F804B0C5
:1036C0000BA8FFF787FA384C384D2068407C55F836
:1036D0002000C1688A6A082190478146182801D3D2
:1036E0004FF020092068407C55F8200000690790C1
:1036F00003C80C902E48814201D0012000E0002038
:103700001090002000F03FFB002849D10026DDE9A1
:103710001207B2460FAB069C4546761C0193FFF795
:103720007BFE014604FB0AF001EB8002234629469A
:103730003846CDF800B000F003FD050030D01098F9
:10374000D0B1DDE906134A46284600F0CDFB98B912
:10375000DDE906702C46D0F810C0BCF1000F05D092
:10376000294604233A460846E04705E00C992068BC
:10377000884701C47F1EF9D10020CDE903050590DB
:1037800001200090CDE901094146034608F10108F6
:10379000069A139801F090F80D98401E0D90B6D13E
:1037A00015B0BDE8F08F0000A4000020BC00002090
:1037B000774D0008F8B515460E460746FFF7E8F9BD
:1037C000009000681621C068426A002090470446B5
:1037D0006846FFF7FFF9002C03D02A4631463846E9
:1037E000A047F8BDF8B515460E460746FFF7D0F9D5
:1037F000009044696846FFF7EDF93846FFF7FAFD97
:103800000346082800DD2CB12A463146384605F02B
:10381000B9F8F8BD2A463146384605F04BFAF8BDEE
:1038200010B5002821D009B30AB3B1F90040B2F9AC
:1038300000309C4200DA23460380B1F90240B2F91D
:1038400002309C4200DA23464380B1F90440B2F9C9
:1038500004309C4200DD23468380B1F90610B2F9A2
:103860000620914200DC1146C18010BD11460A6855
:1038700002604968416010BD00280BD003880B44EA
:103880000380838819448180418811444180C18824
:103890001144C1807047000070B5094C0020D4E984
:1038A00000218A420AD0D2E90056104604F0D4FB27
:1038B00020603146284602F065F8012070BD000006
:1038C000400100202DE9FC41154DDDE908742D680B
:1038D000B5F90860864200DD3046B5F90C609642C5
:1038E00000DA3246824219DBB5F90A608E4200DD09
:1038F0003146B5F90E509D4200DA2B468B420DDB66
:1039000000E02C46E5682D6825B1042D02D025681D
:10391000002DF6D1CDE9007401F096FABDE8FC81E6
:10392000A4000020B0F90220B1F906309A4213DC5D
:10393000B1F90220B0F906309A420DDCB0F900204E
:10394000B1F904309A4207DCB1F90010B0F9040073
:10395000814201DC01207047002070470146024887
:1039600078220068FEF7CDBDA4000020024978222D
:103970000968FEF7C6BD0000A400002010B501F0E4
:103980002FFB01F007FCBDE8104001F037BD00003F
:1039900070B504460548022C0068457C02D2447488
:1039A000FFF7ECFF02480460284670BDA400002029
:1039B000E400002001F036BB01F06CBB01498860D7
:1039C000704700009800002001F076BB03490968A9
:1039D000CA6900B1C861104670470000A400002009
:1039E000024909688A7E887610467047A400002044
:1039F000094A30B41080094A1180094A1268537C80
:103A0000084A52F82330DA68146A0A46A446014686
:103A100030BC184660470000D4000020D6000020CB
:103A2000A4000020BC000020024909680A7E087634
:103A300010467047A400002003490968B1F92C2002
:103A40008885104670470000A400002003490968DB
:103A5000B1F92A204885104670470000A4000020D4
:103A600002480068002800D000477047600100202D
:103A700002498A6802B98860FFF7F2BF400100205E
:103A800010B5040009D004F095FD204604F032FF83
:103A90002046BDE81040FEF7DFBF10BD38B50C462C
:103AA00060B1FFF775F800908089204201D00124B1
:103AB00000E000246846FFF78DF800E0012420466E
:103AC00038BD000038B50546002028600648046867
:103AD00044B12046FFF75CF8009000692860684612
:103AE000FFF778F8204638BD4C01002038B50400B7
:103AF0004FF000000D46086011D02046FFF748F84F
:103B00000090846844B16846FFF764F82046FFF7E8
:103B10003FF80090006928606846FFF75BF8204690
:103B200038BD00002DE9F041084E044605683068B4
:103B30000168284688470746306841682846884714
:103B4000284420603846BDE8F0810000A80000202D
:103B50002DE9F0410C4606460025064F05E0386881
:103B600041683046884706440544641EF7D228461B
:103B7000BDE8F081A80000202DE9F0411E46069C1A
:103B80001746884605463A46A8687F1C3346D0F853
:103B900004C041462846E047641EF4D1BDE8F081E8
:103BA00070B5B0F90040091BB0F904408C422CDD1F
:103BB00000F11404B0F902500069521B02FB0040EE
:103BC000CA1800EBE104521ED010B0EBE10501F081
:103BD00007034FF0FF0102F0070221FA03F0C2F1E0
:103BE000070201FA02F1CEB221780FD001436D1E17
:103BF00004F8011B002D05DDFF2229462046FEF7B3
:103C0000B2FC2C4420783043207070BD304001431A
:103C1000217070BD10B5B0F90030B0F90240C91A7A
:103C200000F114030069121B02FB003000EBE100FD
:103C300001F0070302788021D9400A43027010BDC9
:103C4000B0F90610026951431430FEF7B6BC00000B
:103C50002DE9F843804602F10F000011470003FBF5
:103C600007F01C46154689461430FEF7DAFE0600BA
:103C700013D0FEF78DFF0090A0F80080A0F802900E
:103C80008580C48006498160012181810761684681
:103C9000FEF7A0FF3046BDE8F8830020FBE70000F8
:103CA000C8C5000870B5B0F90660B0F904400B68EB
:103CB00000F11405964220DD0069A34202FB00508A
:103CC00000EBE30219DAA4F101044FEAE400A0EBEF
:103CD000E30512F8010B03F0070400FA04F0C4B284
:103CE00008E055B112F8014B03F10803A5F10105F5
:103CF00023F00703002CF4D008E0002070BD00BFC3
:103D00004FEA44604FEA106403F101032006F7D53F
:103D1000FF2C0AD0184605E04FEA44644FEA1464C9
:103D200000F101006606F7D400E0D81DC443640723
:103D300006D007E012F8014BFF2C0FD100F108006C
:103D40006D1EF7D5A0EB030000F101000B6070BD04
:103D50004FEA44624FEA126400F101002206F7D4F0
:103D6000F0E738B50546FEF713FF00908189491E3C
:103D70000CB284816846FEF72DFF002C02D1284644
:103D8000FEF76AFE38BD0EB508B102AA00E00022B7
:103D9000002301A9684600F051FB0EBD074910B58C
:103DA000CC6818B10120C860801E03E00020C86004
:103DB0006FF07F4000F06AFD204610BD88010020B2
:103DC00010B5082A0EDC0346012A1AD0022A58D060
:103DD000042A78D010F8042B03F8012B491EF9D1DE
:103DE000012010BD102A0ADC0222022AF8D1024664
:103DF00030F8043B22F8023B491EF9D1F0E70020DD
:103E000010BD10F8042BD207120E491E34D010F842
:103E1000044B491E04F0010442EA84122CD010F82D
:103E2000044B491E04F0010442EA441224D010F865
:103E3000044B491E04F0010442EA04121CD010F89D
:103E4000044B491E04F0010442EAC40214D010F8E5
:103E5000044B491E04F0010442EA84020CD010F81D
:103E6000044B491E04F0010442EA440204D010F855
:103E7000044B04F00104224303F8012B0029C0D1B4
:103E8000AEE710F8042B9207120E491E15D010F859
:103E9000044B491E04F0030442EA04120DD010F84A
:103EA000044B491E04F0030442EA840205D010F8D2
:103EB000044B04F003042243491E03F8012B00299C
:103EC000DFD18DE7FFE710F8042B1207120E491E11
:103ED00005D010F8044B04F00F042243491E03F8E8
:103EE000012B0029EFD17BE72DE9F0411E680D463B
:103EF0000446082A09DC0746012A21D0022A62D09A
:103F0000042A7CD0082A1AD195E0102A03DC02206A
:103F10000228F8D102E00020BDE8F081D3F810C0FB
:103F20002746BCF1000F04D00A462146022308466A
:103F30008AE001CCB04727F8020B6D1EF9D18BE067
:103F400001CCB047C0074FEA10686D1E36D001CCD7
:103F5000B04748EA801000F0FF086D1E2ED001CC5B
:103F6000B04748EA401000F0FF086D1E26D001CC93
:103F7000B04748EA001000F0FF086D1E1ED001CCCB
:103F8000B04748EAC00000F0FF086D1E16D001CC13
:103F9000B04748EA800000F0FF086D1E0ED001CC4B
:103FA000B04748EA400000F0FF086D1E06D001CC83
:103FB000B04740EA080000F0FF086D1E07F8018BCB
:103FC000002DBDD148E001CCB04780074FEA106812
:103FD0006D1E18D001CCB04748EA001000F0FF0871
:103FE0006D1E10D001CCB04748EA800000F0FF08F9
:103FF0006D1E08D001CCB04740EA080000E007E0A1
:1040000000F0FF086D1E07F8018B002DDBD123E0C7
:1040100001CCB04700074FEA10686D1E06D001CCF6
:10402000B04740EA080000F0FF086D1E07F8018B5A
:10403000002DEDD110E0D3F810C0BCF1000F05D079
:104040000A46014601233846E04705E001CCB04767
:1040500007F8010B6D1EF9D101205DE70A4810B584
:10406000816900290ED101218161FDF755FCFDF721
:1040700061FC054905481C310860BDE81040084650
:1040800000F080BB10BD0000980000205D83000898
:104090007CB5064628480D46006868B1002001F04E
:1040A00057FE06E06A462946304602F09BFB01F0C7
:1040B00011FE0028F6D17CBD106800901F4C50689E
:1040C00001902268BDF8000032F84C1F0844ADF89A
:1040D0000000BDF8020091880844ADF80200BDF868
:1040E000040011880844ADF80400BDF8060091886A
:1040F0000844ADF80600684601F02AFE0EE000BF55
:104100002068BDF800106A464184BDF80210818421
:104110002946304602F066FB01F0DCFD0028EFD1B5
:10412000206830F8221F428D891A01804188C28D93
:10413000891A41807CBD0000D0000020A40000202E
:104140002DE9FF4F00208BB00446014600901998DE
:104150001D461646016007AB002203A902A800F025
:104160006DF918B100200FB0BDE8F08F07988542B7
:1041700000DD05465C4F0A955C493868407C51F883
:104180002010049109690691FEF7EAFE059038684F
:10419000407CFEF739FF56498146884204D0554994
:1041A000894501D0012000E00020099001CE189936
:1041B000884782465FEA106B71D0009870BB0B98FD
:1041C00000EB040848480068B0F90800404503DDEA
:1041D000A0EB0807804600E000270299049801EB55
:1041E000840101EB8701CDE90010DDE90A010A181D
:1041F0000C9B0892521E19464046FFF763FB0120B4
:104200000090059818280ADA0298DDE9052300EBEA
:10421000840000EB8700E91B00F070F810E00998BB
:1042200070B1029800EB840000EB87070898A0EBC0
:10423000080849463868884701C7B8F10108F8D12D
:104240002D48C06960B3DDE9020700EB840007EB8D
:104250008402CDE90202284C361F2B46E469304621
:104260000299A047FF203168B0EB116F02D102998B
:10427000096804E0029A1268B0EB126F01D1039A48
:1042800011600299361D091D02910399091D0391C0
:104290006D1EE8D119990120039708601DE01EE00A
:1042A000FFE7BBF1FF0F0ED00298CBF1FF0250F8F1
:1042B0002410504600F00EFA039941F82400199991
:1042C0000120086005E00298039950F8240041F8A5
:1042D0002400641C6D1E7FF469AF039843E70399C3
:1042E00041F824A0EBE70000A4000020BC0000205F
:1042F000774D0008754D0008680000202DE9F05F3B
:104300000C1E16DD5E68014600EB8405082A12DCEF
:10431000611E012A28D0022A48D0042A6AD0082A1D
:1043200007D1071917F8010DB04745F8040D641EB1
:10433000F8D1BDE8F09F102AFBDC0222022AF8D156
:104340005F693FB12246BC46BDE8F04F02235DF8ED
:1043500004EB604701EB440737F8020DB04745F81E
:10436000040D641EF8D1E4E700EBE1002D1F10F806
:1043700001A9814601F00707802020FA07F800BF55
:104380000AEA0800C7F10701C840B04745F8040928
:104390003FB17F1E4FEA4860000E8046641EEFD199
:1043A000C7E7072719F801A90120F6E700EBA100EC
:1043B0002D1F01F0030710F801A981467900C020E4
:1043C00020FA01F84FF0060B0AEA0800ABEB4701B0
:1043D000C840B04745F804093FB17F1E4FEA8860E6
:1043E000000E8046641EEFD1A3E7032719F801A948
:1043F0003846F6E700EB610001272D1FA74310F8B0
:1044000001A98146B900F02020FA01F84FF0040B11
:104410000AEA0800ABEB8701C840B04745F8040939
:104420003FB17F1E4FEA0870000E8046641EEFD138
:104430007FE7012719F801A90F20F6E72DE9F047DA
:10444000204C06461F46A06990468946002540B983
:104450000120A06104F120011B480860084600F01B
:1044600091F9606910B900F03AFC606107B13860F9
:104470004EB1A06830B960698000FEF715FBA060FE
:1044800000B901253060B9F1000F0AD0E06830B9F9
:1044900060698000FEF708FBE06000B90125C9F8FB
:1044A0000000B8F1000F0AD0206930B960698000BF
:1044B000FEF7FAFA206100B90125C8F80000284685
:1044C000BDE8F087680000200183000873B5124A38
:1044D00001A900981268904700240090C8B10F49C4
:1044E00000250968C969496959B10A684AB1019941
:1044F00090477CBD6846FFF715FB0546FEF742FD79
:1045000004440198401E0190F4D5284600F032F88A
:10451000044420467CBD00003C010020A400002093
:1045200073B50D460098002490B10A490968C9691D
:10453000496959B14A684AB1294690477CBD6846E5
:10454000FFF7F0FA20B10A2802D0641CAC42F6DB77
:1045500020467CBDA4000020044AB2F9002002607D
:104560000348B0F90000086070470000D400002044
:10457000D600002038B5002469460094FEF70AFDF5
:104580000099814200DD0C1A204638BDB0F9003098
:10459000B1F90020934200DA0280B0F90230B1F99B
:1045A0000220934200DA4280B0F90430B1F90420CD
:1045B000934200DD8280B0F90620B1F906108A42EC
:1045C00000DDC180704770B5B1F90040B2F900302C
:1045D0009C4200DD23460380B1F90250B2F902404B
:1045E000A54200DD2C464480B1F90460B2F90450C4
:1045F000AE4200DA35468580B1F90610B2F90620E0
:10460000914200DB1146C1809D4201DBA14201DAEB
:10461000002070BD012070BD014602480068407C4A
:1046200000F002B8A4000020F8B501260F460546A8
:1046300002284BDA264C5FB3012F02D0022F45D15E
:1046400016E054F8250088B92846FEF7C7FB00900D
:10465000B8B3C0680D21426A68469047020035D061
:1046600039460098904754F825000026401C2BE05E
:10467000FEF7B4FB009020B3C0680D21426A684683
:104680009047020022D039460098904700261DE04E
:1046900054F8250001280FD12846FEF79FFB009013
:1046A00050B1C0680D21426A68469047020003D0AD
:1046B000394600989047002654F8250010B1012192
:1046C00001E003E00021401A44F825003046F8BD1F
:1046D0003401002070B5FF23B3EB116F29D0C3B2B2
:1046E00000F47F4500F47F04060E534355435443C2
:1046F0005643C2F1FF00CAB202FB003201F47F430D
:1047000003FB005301F47F0505FB0044090E01FB88
:104710000065C2F307204FF47F4101EA132209022A
:1047200001EA14214FF07F43104303EA0543084395
:10473000184370BD2DE9F04F1546DDE90CB90C4664
:1047400006464FF0000818E00B9F4FF0FF0A01CE1D
:1047500008CCAAEB106202FB09F2B2FBFAF1CAB272
:104760001946FFF7B7FF20F07F4001C57F1EEED14D
:10477000099808F1010804EB8004D845E4D3BDE8AA
:10478000F08F000002494A694260486170470000AA
:10479000980000202DE9F041184C06460D4620688F
:1047A00098461746B0F90A10A94224DCB0F90E1059
:1047B000A94220DBB0F90810B1421CDCB0F90C00B2
:1047C000B04218DB2946304600F046FA01463A4628
:1047D0004046FFF77FFF00F061F8034620682A4655
:1047E000417C074850F82100C1688C693146A446D5
:1047F000BDE8F0416047BDE8F0810000A400002062
:10480000BC00002010B502E000F8011B521E0AB1E6
:104810008307F9D1930818D001EB014402F0030299
:1048200004EB042405E0046044608460C46010303C
:104830001B1F042BF7DA01E010C05B1E002BFBD11D
:1048400003E000BF00F8011B521E002AFAD110BD80
:1048500010B5830702D520F8021B521E530810D052
:1048600001EB0144042B08DB046044608460C460F5
:1048700010301B1F042BF7DA01E010C05B1E002B69
:10488000FBD1D20700D0018010BD000002490A68A8
:104890000860104670470000A80100200449054A3E
:1048A0000968497C52F82110096909680847000025
:1048B000A4000020BC0000202DE9F04F05468DB07B
:1048C0007C48DDF860901A9C00681E4617464FF041
:1048D000000A78B11B9B199ACDF808900593CDE991
:1048E0000324DDE91623CDE90023046833463A4664
:1048F000284682E0DDE9160201EB060805EB070C0D
:104900001043A8F10108ACF1010C012806D0C9F14F
:1049100008000590002002910890C8E066480268EF
:10492000B2F90A30581A002806DD361A002E65DD65
:104930001946199B00FB0344B2F90E00A8EB0000D6
:10494000002802DD361A002E58DDB2F90C00ACEB5F
:104950000000002800DD3F1AB2F908300020AB4209
:1049600037DD581B3F1A4B46B9F1080F28D007DC3A
:10497000012B0DD0022B13D0B9F1040F29D117E070
:10498000102B1FD0182B20D0B9F1200F21D11CE003
:1049900020F0070304EBE0041D4400F0070018E0DA
:1049A00020F0030304EBA0041D4400F0030010E01A
:1049B00020F0010304EB60041D4400F0010008E056
:1049C000044404E004EB400401E004EB80040544EB
:1049D0000020002F12DD1B9BDDF864C0CDE904032D
:1049E000CDE902C4CDE90069527C34483B4650F819
:1049F0002200C26854680A462946A0470DB0BDE8A7
:104A0000F08F17990298084409902B49401E009096
:104A10000A68B2F90A30834241DCB2F90E100298FA
:104A200081423CDB4FF0000BD84603950B9434E0F9
:104A3000BBF1000F05D10B984FF0080B10F801AB3C
:104A40000B900599ABEB090B3AFA01F00AFA09F160
:104A500001F0FF0A04D118490968097C890716D4B6
:104A600015490968C96B0A680C921B9A0AB152F879
:104A70002000086016990398009B4218521E029964
:104A800000F07EF80C490C980968C96B086003991E
:104A9000169808F1010808440390B845C8DB089847
:104AA000401C089009980290199804440898B04254
:104AB000A7DBA3E7D0000020A4000020BC0000205A
:104AC000F0B40C4612490968B1F90A30A3421CDC63
:104AD000B1F90E30A34218DBB1F90830834200DD92
:104AE0001846B1F90C30934200DA1A4682420CDBC8
:104AF0004B7C084951F8235013462246E9688E68DA
:104B000001462846B446F0BC6047F0BC7047000040
:104B1000A4000020BC0000200A46174930B40968F0
:104B2000B1F90A30934225DCB1F90E30934221DB12
:104B3000B1F9083083421DDCB1F90C30834219DB36
:104B40000B7C0E4CDB0709D0497C54F82130D96826
:104B5000CC690146A44630BC18466047CB6B497C03
:104B60001B6854F82140E1688D6901462046AC4637
:104B700030BC604730BC7047A4000020BC0000205F
:104B800038B5134C2468B4F90850854200DD284636
:104B9000B4F90C50954200DA2A46824217DBB4F988
:104BA0000A508D4200DD2946B4F90E509D4200DACC
:104BB0002B468B420BDB0093647C064B53F824405E
:104BC000E3681D6913460A4601462046A84738BDDA
:104BD000A4000020BC000020082103F007B9000059
:104BE00002480068806B006870470000A400002045
:104BF00002480068C06B006870470000A4000020F5
:104C0000024809210068407C03F0F0B8A4000020AD
:104C1000092103F0EBB870B500252C462046FEF7BD
:104C2000DDF800B16D1C641C022CF7DB284670BD5A
:104C300002480068407C00F003B80000A400002097
:104C400010B5FEF7CBF8002805D0C168CA6ABDE8E8
:104C500010400221104710BD10B500F005F8BDE866
:104C6000104000F079B800002DE9FC41144E0546D3
:104C7000144F30680C46407C57F82000C1680A6B1E
:104C800069469047BDF90000A8420BDCBDF904005D
:104C9000A84207DBBDF90200A04203DCBDF9060013
:104CA000A04202DA0020BDE8FC8130682246407C48
:104CB00057F82000C1684B6929469847F3E7000080
:104CC000A4000020BC00002002480E210068407CA7
:104CD00003F08CB8A4000020032103F087B8032060
:104CE00003F0CFB8042103F081B80000024801218D
:104CF0000068407C03F07AB8A4000020024802213A
:104D00000068407C03F072B8A4000020AFF300807C
:104D10002DE9F041002809D0876837B10D4E716840
:104D200019B10468B4F5807F02DD0020BDE8F08190
:104D30003068844200DD0446002507E057F825006E
:104D4000FFF7ACFD716841F825006D1CA542F5DB4D
:104D50007068EBE76C0100200449054A0968497C4A
:104D600052F821100969496808470000A400002092
:104D7000BC0000207047704710B500F01F01074AC3
:104D8000074BC0F34514C0F3C4201B5D105C515C9D
:104D900000EB032000EB014010BD000058C40008E8
:104DA00078C4000810B50A4C606860B920688000BB
:104DB000FDF77AFE606040B104F108010548086023
:104DC0000846FFF7DFFC002010BD012010BD0000E9
:104DD0006C010020BD8300082DE9F041FFF71BFFA7
:104DE0000746002528E02846FDF7F8FF18B32846B7
:104DF000FEF7CEFD80462846FFF7EEFE082817DCBA
:104E00000F48104950F825000069884210D0284604
:104E1000FFF7FEFE0646002408E0E0B2FFF79CFF25
:104E20000246E1B2284600F04DF9641CB442F4DBBE
:104E30004046FEF7ADFD6D1CBD42D4DBBDE8F08100
:104E4000BC000020E8C500082DE9FF4F83B01646DE
:104E5000DDE910408B46C0684769426A7AB101219A
:104E600011A8904705000AD00698CDE90004334602
:104E70005A4603991198A84707B0BDE8F08F5748E4
:104E80000068407CFEF76CF88246082801DC0120AF
:104E900005E0BAF1100F01DC022000E0042080469A
:104EA000002596E04046B8F1010F05D0022871D0E8
:104EB000B8F1040F25D17CE0BAF1090F21D2DFE867
:104EC0000AF08605213F3F5959595900039815E0CA
:104ED00001465A461198B847C5F1070188404FF678
:104EE0007F722178EA40114001436D1C217004EB70
:104EF000E50425F00700054109F101008146B042B3
:104F0000E6DD64E0039817E001465A461198B84779
:104F10000621A1EB450188406B004FF63F722178D6
:104F2000DA40114001436D1C217004EBA50425F00B
:104F30000300054109F101008146B042E4DD46E08D
:104F4000039813E001465A461198B8470421A1EB93
:104F5000850188402178AB000F229A40114001431F
:104F600021702C4485F0010509F101008146B04211
:104F7000E8DD2CE0DDF80C9007E001465A46119878
:104F8000B847207009F1010944444846B145F4DDB1
:104F90001DE0FFE7DDF80C9007E001465A46119846
:104FA000B847208009F1010944444846B145F4DD81
:104FB0000DE0DDF80C9007E001465A461198B8471D
:104FC000206009F1010944444846B145F4DD0BF184
:104FD000010B06998B457FF765AF4DE7A4000020D4
:104FE00010B50E4C0E492068407C51F8200050B19D
:104FF000C1680968042903D000680028F8D102E0DC
:1050000008B1FDF7E9FE20680021016600F1080102
:105010004161BDE8104000F02FB80000A40000205E
:10502000BC0000200149096849680847D8000020F1
:10503000044909680A7C520701D5C96B00E0896BF5
:1050400008607047A40000207CB5094C0546206824
:10505000417C084850F82100C1680A6B69469047B6
:1050600020686A4629460830FFF7ADFA7CBD00008B
:10507000A4000020BC0000200448016804484A7CC9
:10508000083150F82200C268126B1047A4000020BB
:10509000BC0000200149096809680847D8000020C1
:1050A000044909680A7C520701D5896B00E0C96B85
:1050B00008607047A4000020014909688968084712
:1050C000D8000020F8B515460E460124FDF786FEEF
:1050D000009058B1C0681021426A684690470300AA
:1050E00004D02A4631460098984700242046F8BD4F
:1050F00013460A460F4930B40968B1F908408442A2
:1051000016DCB1F90C40844212DBB1F90A4094423A
:105110000EDCB1F90E4094420ADB4C7C064951F892
:105120002440E1688D6901462046AC4630BC6047AA
:1051300030BC7047A4000020BC000020F8B5154624
:105140000E460124FDF74AFE009058B1C0680B21BD
:10515000426A68469047030004D02A4631460098C8
:10516000984700242046F8BDF8B515460E460124A0
:10517000FDF734FE009058B1C0680A21426A6846C3
:105180009047030004D02A463146009898470024EF
:105190002046F8BD10B5074C2068006BFFF77EFB7A
:1051A000FFF77EFF2068406BFFF778FBBDE81040FB
:1051B000FFF73EBFA40000202DE9FF4F8DB017463A
:1051C000674ADDF870901E9E209812681D460024E4
:1051D0008AB11D9B1F98CDE90293CDE90460DDE9FA
:1051E0001A03CDE9000314682B463A460D98A047F0
:1051F00011B0BDE8F08F0D9A01EB050802EB070C2A
:10520000DDE91A231A43A8F10108ACF1010C012AC7
:1052100006D0C9F108004FF0000B029105909CE008
:10522000504A1268B2F90A40631A002B06DDED1AE3
:10523000002DDDDD21461D9C03FB0466B2F90E3016
:10524000A8EB0303002B02DDED1A002DD0DDB2F92F
:105250000C30ACEB0303002B00DDFF1A0D9B1C1A76
:10526000B2F90830A3420DDDA3EB040C0CEB0003F4
:10527000181A20F007000444A7EB0C0706EBE3061E
:1052800003F00700002FB3DD1F9BDDF874C0CDE9EC
:10529000040303968DE82012527C33483B4650F8B5
:1052A0002200C26855680A462146A847A0E71B9914
:1052B0000298084409902B49401E03900A68B2F9ED
:1052C0000A30834243DCB2F90E10029881423EDB81
:1052D0004FF0000A0D980B96D046009035E000BFC5
:1052E000BAF1000F05D10B984FF0080A10F8014BE6
:1052F0000B900599AAEB090A34FA01F004FA09F4B3
:10530000E4B204D117490968097C890717D4154903
:105310000968C96B0A680C921F9A0AB152F82000FA
:10532000086000991A980A180846DDE90213521E0F
:10533000FFF726FC0B490C980968C96B08600099B7
:105340001A9808F1010808440090B845C8DB09988C
:1053500002901D980BF1010B0644AB45A7DB47E714
:10536000D0000020A4000020BC000020002818D09D
:10537000410817D0810817D0C10817D0010917D0EC
:10538000410917D0010A17D0410A17D0010B15D0D7
:10539000C10B13D0010C11D0810C11D0000E11D013
:1053A000202070470120704702207047032070477B
:1053B0000420704705207047082070471020704770
:1053C000122070471820704700B50022FFF7CEFF6B
:1053D000012804D0811E062903D808220BE00122EF
:1053E00009E0A0F10901072901D8102203E01138D2
:1053F0000F2800D82022104600BD000002490120DD
:10540000096881F854007047A40000202DE9F0419C
:105410008AB0040036D0FDF7BBFB0190D0E9001242
:10542000CDE90412876A056A01A8FDF7D3FB20467F
:1054300000F070FC060025D0204600F0BAF9804646
:10544000B80704D52A46414604A800F0C1FD20460D
:10545000FDF79EFB01904046FDF79AFB0690304613
:10546000FDF796FB039005620698019AC1691162E7
:10547000C46101A8FDF7AEFB06A8FDF7ABFB03A8CE
:10548000FDF7A8FB0AB0BDE8F08100002DE9FC5F44
:10549000DFF838A10746DDE90C54DAF81400DDF82E
:1054A0003CB0984691460E4604434DB9BAF8020006
:1054B00048B347480AF138010068407C51F8205051
:1054C000681C0ED0FDB12846FDF762FB0190B0F9D3
:1054D0000010B0F902200F441644B9F1000F02D0B9
:1054E00006E000250FE0B0F90430591A01F1010976
:1054F000B8F1000F04D1B0F90600801A00F10108DC
:1055000001A8FDF767FB0BF12C00FDF78AFA5FEAB3
:10551000000B57D0BAF80200401CAAF80200584607
:10552000FDF736FB0090078007EB09014680491E16
:10553000818006EB0801491EC1800E990161254A50
:10554000816A2240114381626846FDF743FBDAF825
:105550000C005E4650B1FDF755FB07463046FDF79F
:1055600051FB0146786948617E6101E0CAF80CB0E0
:105570002946584600F064FCA00602D5584600F0C3
:1055800095FAE00705D0DAF8201001F10101CAF818
:105590002010600602D55846FFF738FFA0070DD54A
:1055A0005846FDF7F5FA0090816A41F002018162E8
:1055B0006846FDF70FFB584600F0A7F90121584651
:1055C00000F0BFFE5846BDE8FC9F0000DC00002054
:1055D000A40000209F3F070003490020096881F8CC
:1055E0005400FFF749BD0000A400002010B5044698
:1055F000C168D4E90020172A0DD004DC0E2A0CD093
:10560000142A07D104E0222A0CD0282A02D10CE067
:1056100000F03AFB0020E06010BD2146BDE81040DC
:1056200000F064BA6FF07040F5E7BDE8104000F09C
:105630006CB938B504000BD0FDF7AAFA00900068E9
:10564000FEF71EFA6846FDF7C5FA2046FDF704FA94
:1056500038BD0000F8B505005CD000F0BDFC0028A6
:1056600058D0284600F068FB06460B21284600F07B
:1056700068FE284600F0CFFA2846FDF789FA009028
:10568000406A08B1FDF7C4FD234C002104F150022B
:10569000A162A06852F82030AB4201D142F820103C
:1056A0001D4A483252F82030AB4201D142F8201056
:1056B000206904E04368AB4200D1416000680028E3
:1056C000F8D10721284600F054F9009801F070F84D
:1056D000284600F0C5FA284600F0C0FD0098806A10
:1056E000C10703D0216AA1F101012162800602D520
:1056F000A088401EA0806846FDF76CFA6088401EB6
:1057000060802846FDF7A8F90348383050F8260095
:1057100000F0CCF9F8BD0000DC0000202DE9F041DC
:10572000002500E0012502F0EFF80028FAD1154E1F
:10573000154C306890F8540038B1A08828B1E06961
:10574000012720B10068804704E000270EE0012017
:10575000FEF762FF306890F8540038B1A08828B195
:1057600001F0A4FFA08808B10125F3E73FB1E0698B
:1057700010B14068804702E00020FEF74DFF284648
:10578000BDE8F081A4000020DC00002003480449AB
:105790000068407C51F8200070470000A400002001
:1057A0001401002010B5002802D0FDF72BFAC069C3
:1057B00010BD10B5002802D0FDF724FA806910BD95
:1057C0002DE9FF5F2C4D6878002853D100272B4826
:1057D000EF60AF620068DFF8A8903C464764AF8096
:1057E0006F804FF0020A4FF0FF3B40F6FF7805F163
:1057F00038062046FDF7F2FA98B1CDE90297CDE9D7
:1058000000BA0021424643460846FFF73FFE1A4AC7
:1058100046F8240040326FF0704142F8241000F046
:1058200074F8641C022CE4DB164FDFF85C80DFF8B0
:105830005C90002407EBC40000F0B6F908EBC4004C
:1058400000F0B2F909EBC40000F0AEF9641C022CC0
:10585000F0DB306800F02AF9FFF7D0FD012006499F
:10586000687030310A48086004B00846BDE8F05F4F
:10587000FEF788BFBDE8FF9FDC000020A4000020E9
:105880001591000874CB002084CB002094CB00201D
:105890008983000870B586B00D4606002CD0FDF750
:1058A00077F90090846AA10723D5D0E90010CDE9EB
:1058B0000110E00302D5304600F017FB5DB1286807
:1058C00003906868049003A9009800F075F903A993
:1058D00001A8FEF75BFE314601A800F075F940B162
:1058E00040F601000440012C08D001A9304600F028
:1058F000F9FA6846FDF76EF906B070BD0098026AC5
:10590000816901A800F064FBF3E70021FFF7C2BF43
:10591000FEB515460E4604001CD0FDF739F90246C7
:10592000009090F82800800711D5314601A8FEF7B5
:105930004AFE60B16846FDF74DF92A4601A92046A6
:1059400002F062FC2046FFF72DFF04460CE068469B
:10595000FDF740F9FEBD2A4601A92046FFF7D8FF12
:105960002046FDF74FF9046A002CF4D1FEBD00F08B
:1059700045BB1FB5262203910092694600F0B6F898
:105980001FBD000010B50C4C0A4A034624680020D5
:1059900086B052F82420002A0AD00E200090CDE9CB
:1059A000043104A803906946104600F099FC0120D8
:1059B00006B010BD2C010020E400002070B5154693
:1059C00006468AB00C4651EA05006CD0002E6AD01B
:1059D0003046FDF7DDF80590D0E90012CDE902125E
:1059E000CDE9061284B1816A0A0608D5890506D474
:1059F000BDF81810A1EB0401ADF8181004E0BDF8D3
:105A00001C102144ADF81C1085B1816ACA0508D567
:105A1000490506D4BDF81A10A1EB0501ADF81A101E
:105A200004E0BDF81E102944ADF81E10806AC003C2
:105A300002D5304600F059FA05AB07CBC0E9001299
:105A400090F8280080070AD506AA02A908A8FDF741
:105A5000E7FE0598026A816908A800F0B9FABDF965
:105A60001E00BDF90E10401A0090BDF91C00BDF9D2
:105A70000C10431ABDF91A00BDF90A10421ABDF9FB
:105A80001800BDF90810411A059800F061FC05994D
:105A900001F10800FEF77AFD0521304600F051FCC7
:105AA00005A8FDF797F80AB070BD000070B50C4D61
:105AB00004002868866C01D10A49CC6884642046B9
:105AC00000F004FCFFF7D8FA2046FDF79BF82968A0
:105AD000B0F90020CA64B0F902000865304670BD14
